{
  "address": "0x8f1628b480FFC1C856270F5e156016f434fb6616",
  "abi": [
    {
      "inputs": [],
      "name": "POS_MGMT_ONLY_OWNER",
      "type": "error"
    },
    {
      "inputs": [],
      "name": "POS_NOT_ALLOWED",
      "type": "error"
    },
    {
      "inputs": [],
      "name": "POS_POOL_DEFAULTED",
      "type": "error"
    },
    {
      "inputs": [],
      "name": "POS_POSITION_DOES_NOT_EXIST",
      "type": "error"
    },
    {
      "inputs": [],
      "name": "POS_POSITION_ONLY_IN_BONDS",
      "type": "error"
    },
    {
      "inputs": [],
      "name": "POS_TIMELOCK",
      "type": "error"
    },
    {
      "inputs": [],
      "name": "POS_ZERO_ADDRESS",
      "type": "error"
    },
    {
      "inputs": [],
      "name": "POS_ZERO_AMOUNT",
      "type": "error"
    },
    {
      "anonymous": false,
      "inputs": [
        {
          "indexed": true,
          "internalType": "address",
          "name": "owner",
          "type": "address"
        },
        {
          "indexed": true,
          "internalType": "address",
          "name": "approved",
          "type": "address"
        },
        {
          "indexed": true,
          "internalType": "uint256",
          "name": "tokenId",
          "type": "uint256"
        }
      ],
      "name": "Approval",
      "type": "event"
    },
    {
      "anonymous": false,
      "inputs": [
        {
          "indexed": true,
          "internalType": "address",
          "name": "owner",
          "type": "address"
        },
        {
          "indexed": true,
          "internalType": "address",
          "name": "operator",
          "type": "address"
        },
        {
          "indexed": false,
          "internalType": "bool",
          "name": "approved",
          "type": "bool"
        }
      ],
      "name": "ApprovalForAll",
      "type": "event"
    },
    {
      "anonymous": false,
      "inputs": [
        {
          "indexed": true,
          "internalType": "address",
          "name": "lender",
          "type": "address"
        },
        {
          "indexed": false,
          "internalType": "uint128",
          "name": "tokenId",
          "type": "uint128"
        },
        {
          "indexed": false,
          "internalType": "uint128",
          "name": "amount",
          "type": "uint128"
        },
        {
          "indexed": false,
          "internalType": "uint128",
          "name": "rate",
          "type": "uint128"
        },
        {
          "indexed": false,
          "internalType": "address",
          "name": "ownerAddress",
          "type": "address"
        },
        {
          "indexed": false,
          "internalType": "uint128",
          "name": "bondsIssuanceIndex",
          "type": "uint128"
        }
      ],
      "name": "Deposit",
      "type": "event"
    },
    {
      "anonymous": false,
      "inputs": [
        {
          "indexed": false,
          "internalType": "uint8",
          "name": "version",
          "type": "uint8"
        }
      ],
      "name": "Initialized",
      "type": "event"
    },
    {
      "anonymous": false,
      "inputs": [
        {
          "indexed": false,
          "internalType": "address",
          "name": "positionDescriptor",
          "type": "address"
        }
      ],
      "name": "SetPositionDescriptor",
      "type": "event"
    },
    {
      "anonymous": false,
      "inputs": [
        {
          "indexed": true,
          "internalType": "address",
          "name": "from",
          "type": "address"
        },
        {
          "indexed": true,
          "internalType": "address",
          "name": "to",
          "type": "address"
        },
        {
          "indexed": true,
          "internalType": "uint256",
          "name": "tokenId",
          "type": "uint256"
        }
      ],
      "name": "Transfer",
      "type": "event"
    },
    {
      "anonymous": false,
      "inputs": [
        {
          "indexed": true,
          "internalType": "address",
          "name": "lender",
          "type": "address"
        },
        {
          "indexed": false,
          "internalType": "uint128",
          "name": "tokenId",
          "type": "uint128"
        },
        {
          "indexed": false,
          "internalType": "uint128",
          "name": "amount",
          "type": "uint128"
        },
        {
          "indexed": false,
          "internalType": "uint128",
          "name": "rate",
          "type": "uint128"
        },
        {
          "indexed": false,
          "internalType": "address",
          "name": "ownerAddress",
          "type": "address"
        }
      ],
      "name": "UpdateRate",
      "type": "event"
    },
    {
      "anonymous": false,
      "inputs": [
        {
          "indexed": true,
          "internalType": "address",
          "name": "lender",
          "type": "address"
        },
        {
          "indexed": false,
          "internalType": "uint128",
          "name": "tokenId",
          "type": "uint128"
        },
        {
          "indexed": false,
          "internalType": "uint128",
          "name": "amount",
          "type": "uint128"
        },
        {
          "indexed": false,
          "internalType": "uint128",
          "name": "remainingBonds",
          "type": "uint128"
        },
        {
          "indexed": false,
          "internalType": "uint128",
          "name": "rate",
          "type": "uint128"
        },
        {
          "indexed": false,
          "internalType": "address",
          "name": "ownerAddress",
          "type": "address"
        }
      ],
      "name": "Withdraw",
      "type": "event"
    },
    {
      "inputs": [
        {
          "internalType": "uint128",
          "name": "",
          "type": "uint128"
        }
      ],
      "name": "_positions",
      "outputs": [
        {
          "internalType": "uint128",
          "name": "adjustedBalance",
          "type": "uint128"
        },
        {
          "internalType": "uint128",
          "name": "rate",
          "type": "uint128"
        },
        {
          "internalType": "address",
          "name": "ownerAddress",
          "type": "address"
        },
        {
          "internalType": "address",
          "name": "underlyingToken",
          "type": "address"
        },
        {
          "internalType": "uint128",
          "name": "bondsIssuanceIndex",
          "type": "uint128"
        },
        {
          "internalType": "uint128",
          "name": "remainingBonds",
          "type": "uint128"
        },
        {
          "internalType": "uint128",
          "name": "bondsMaturity",
          "type": "uint128"
        },
        {
          "internalType": "uint128",
          "name": "creationTimestamp",
          "type": "uint128"
        }
      ],
      "stateMutability": "view",
      "type": "function"
    },
    {
      "inputs": [
        {
          "internalType": "address",
          "name": "to",
          "type": "address"
        },
        {
          "internalType": "uint256",
          "name": "tokenId",
          "type": "uint256"
        }
      ],
      "name": "approve",
      "outputs": [],
      "stateMutability": "nonpayable",
      "type": "function"
    },
    {
      "inputs": [
        {
          "internalType": "address",
          "name": "owner",
          "type": "address"
        }
      ],
      "name": "balanceOf",
      "outputs": [
        {
          "internalType": "uint256",
          "name": "",
          "type": "uint256"
        }
      ],
      "stateMutability": "view",
      "type": "function"
    },
    {
      "inputs": [
        {
          "internalType": "address",
          "name": "to",
          "type": "address"
        },
        {
          "internalType": "uint128",
          "name": "amount",
          "type": "uint128"
        },
        {
          "internalType": "uint128",
          "name": "rate",
          "type": "uint128"
        },
        {
          "internalType": "address",
          "name": "ownerAddress",
          "type": "address"
        },
        {
          "internalType": "address",
          "name": "underlyingToken",
          "type": "address"
        }
      ],
      "name": "deposit",
      "outputs": [
        {
          "internalType": "uint128",
          "name": "tokenId",
          "type": "uint128"
        }
      ],
      "stateMutability": "nonpayable",
      "type": "function"
    },
    {
      "inputs": [
        {
          "internalType": "uint256",
          "name": "tokenId",
          "type": "uint256"
        }
      ],
      "name": "getApproved",
      "outputs": [
        {
          "internalType": "address",
          "name": "",
          "type": "address"
        }
      ],
      "stateMutability": "view",
      "type": "function"
    },
    {
      "inputs": [
        {
          "internalType": "uint128",
          "name": "tokenId",
          "type": "uint128"
        }
      ],
      "name": "getPositionRepartition",
      "outputs": [
        {
          "internalType": "uint128",
          "name": "bondsQuantity",
          "type": "uint128"
        },
        {
          "internalType": "uint128",
          "name": "normalizedDepositedAmount",
          "type": "uint128"
        }
      ],
      "stateMutability": "view",
      "type": "function"
    },
    {
      "inputs": [
        {
          "internalType": "string",
          "name": "_name",
          "type": "string"
        },
        {
          "internalType": "string",
          "name": "_symbol",
          "type": "string"
        },
        {
          "internalType": "contract IBorrowerPools",
          "name": "_pools",
          "type": "address"
        },
        {
          "internalType": "contract IPositionDescriptor",
          "name": "_positionDescriptor",
          "type": "address"
        }
      ],
      "name": "initialize",
      "outputs": [],
      "stateMutability": "nonpayable",
      "type": "function"
    },
    {
      "inputs": [
        {
          "internalType": "address",
          "name": "owner",
          "type": "address"
        },
        {
          "internalType": "address",
          "name": "operator",
          "type": "address"
        }
      ],
      "name": "isApprovedForAll",
      "outputs": [
        {
          "internalType": "bool",
          "name": "",
          "type": "bool"
        }
      ],
      "stateMutability": "view",
      "type": "function"
    },
    {
      "inputs": [],
      "name": "name",
      "outputs": [
        {
          "internalType": "string",
          "name": "",
          "type": "string"
        }
      ],
      "stateMutability": "view",
      "type": "function"
    },
    {
      "inputs": [
        {
          "internalType": "uint256",
          "name": "tokenId",
          "type": "uint256"
        }
      ],
      "name": "ownerOf",
      "outputs": [
        {
          "internalType": "address",
          "name": "",
          "type": "address"
        }
      ],
      "stateMutability": "view",
      "type": "function"
    },
    {
      "inputs": [],
      "name": "pools",
      "outputs": [
        {
          "internalType": "contract IBorrowerPools",
          "name": "",
          "type": "address"
        }
      ],
      "stateMutability": "view",
      "type": "function"
    },
    {
      "inputs": [
        {
          "internalType": "uint128",
          "name": "tokenId",
          "type": "uint128"
        }
      ],
      "name": "position",
      "outputs": [
        {
          "internalType": "address",
          "name": "ownerAddress",
          "type": "address"
        },
        {
          "internalType": "uint128",
          "name": "adjustedBalance",
          "type": "uint128"
        },
        {
          "internalType": "uint128",
          "name": "rate",
          "type": "uint128"
        },
        {
          "internalType": "address",
          "name": "underlyingToken",
          "type": "address"
        },
        {
          "internalType": "uint128",
          "name": "remainingBonds",
          "type": "uint128"
        },
        {
          "internalType": "uint128",
          "name": "bondsMaturity",
          "type": "uint128"
        },
        {
          "internalType": "uint128",
          "name": "bondsIssuanceIndex",
          "type": "uint128"
        }
      ],
      "stateMutability": "view",
      "type": "function"
    },
    {
      "inputs": [],
      "name": "positionDescriptor",
      "outputs": [
        {
          "internalType": "contract IPositionDescriptor",
          "name": "",
          "type": "address"
        }
      ],
      "stateMutability": "view",
      "type": "function"
    },
    {
      "inputs": [
        {
          "internalType": "address",
          "name": "from",
          "type": "address"
        },
        {
          "internalType": "address",
          "name": "to",
          "type": "address"
        },
        {
          "internalType": "uint256",
          "name": "tokenId",
          "type": "uint256"
        }
      ],
      "name": "safeTransferFrom",
      "outputs": [],
      "stateMutability": "nonpayable",
      "type": "function"
    },
    {
      "inputs": [
        {
          "internalType": "address",
          "name": "from",
          "type": "address"
        },
        {
          "internalType": "address",
          "name": "to",
          "type": "address"
        },
        {
          "internalType": "uint256",
          "name": "tokenId",
          "type": "uint256"
        },
        {
          "internalType": "bytes",
          "name": "_data",
          "type": "bytes"
        }
      ],
      "name": "safeTransferFrom",
      "outputs": [],
      "stateMutability": "nonpayable",
      "type": "function"
    },
    {
      "inputs": [
        {
          "internalType": "address",
          "name": "operator",
          "type": "address"
        },
        {
          "internalType": "bool",
          "name": "approved",
          "type": "bool"
        }
      ],
      "name": "setApprovalForAll",
      "outputs": [],
      "stateMutability": "nonpayable",
      "type": "function"
    },
    {
      "inputs": [
        {
          "internalType": "address",
          "name": "_positionDescriptor",
          "type": "address"
        }
      ],
      "name": "setPositionDescriptor",
      "outputs": [],
      "stateMutability": "nonpayable",
      "type": "function"
    },
    {
      "inputs": [
        {
          "internalType": "bytes4",
          "name": "interfaceId",
          "type": "bytes4"
        }
      ],
      "name": "supportsInterface",
      "outputs": [
        {
          "internalType": "bool",
          "name": "",
          "type": "bool"
        }
      ],
      "stateMutability": "view",
      "type": "function"
    },
    {
      "inputs": [],
      "name": "symbol",
      "outputs": [
        {
          "internalType": "string",
          "name": "",
          "type": "string"
        }
      ],
      "stateMutability": "view",
      "type": "function"
    },
    {
      "inputs": [
        {
          "internalType": "uint256",
          "name": "tokenId",
          "type": "uint256"
        }
      ],
      "name": "tokenURI",
      "outputs": [
        {
          "internalType": "string",
          "name": "",
          "type": "string"
        }
      ],
      "stateMutability": "view",
      "type": "function"
    },
    {
      "inputs": [
        {
          "internalType": "address",
          "name": "from",
          "type": "address"
        },
        {
          "internalType": "address",
          "name": "to",
          "type": "address"
        },
        {
          "internalType": "uint256",
          "name": "tokenId",
          "type": "uint256"
        }
      ],
      "name": "transferFrom",
      "outputs": [],
      "stateMutability": "nonpayable",
      "type": "function"
    },
    {
      "inputs": [
        {
          "internalType": "uint128",
          "name": "tokenId",
          "type": "uint128"
        },
        {
          "internalType": "uint128",
          "name": "newRate",
          "type": "uint128"
        }
      ],
      "name": "updateRate",
      "outputs": [],
      "stateMutability": "nonpayable",
      "type": "function"
    },
    {
      "inputs": [
        {
          "internalType": "uint128",
          "name": "tokenId",
          "type": "uint128"
        }
      ],
      "name": "withdraw",
      "outputs": [],
      "stateMutability": "nonpayable",
      "type": "function"
    }
  ],
  "transactionHash": "0x2693f9a017c1f8dc1aae65eec9d46a850b579a47ba8f452766118718e4a5b986",
  "args": [],
  "numDeployments": 1,
  "solcInputHash": "a44d47f00d436b23a82c0c58b92fb136",
  "bytecode": "0x608060405234801561001057600080fd5b50612d6d806100206000396000f3fe608060405234801561001057600080fd5b506004361061011d5760003560e01c806301ffc9a71461012257806302387a7b1461014a57806306fdde031461015f578063081812fc14610174578063095ea7b314610194578063106d0231146101a757806323b872dd146101ba57806342842e0e146101cd57806360bc5b23146101e05780636206ea32146101f35780636352211e146102f857806370a082311461030b5780638f15b4141461032c57806392208f371461033f57806395d89b4114610352578063a22cb4651461035a578063b88d4fde1461036d578063c5c51dca14610380578063c7e88fed14610393578063c87b56dd146103be578063cd100497146103d1578063d89f46ab1461049c578063e985e9c5146104cf575b600080fd5b610135610130366004612262565b6104e2565b60405190151581526020015b60405180910390f35b61015d610158366004612294565b610534565b005b610167610a21565b6040516101419190612309565b61018761018236600461231c565b610ab3565b6040516101419190612335565b61015d6101a236600461235e565b610ada565b609854610187906001600160a01b031681565b61015d6101c836600461238a565b610bf5565b61015d6101db36600461238a565b610c09565b61015d6101ee3660046123cb565b610c1d565b6102aa610201366004612294565b6001600160801b039081166000908152609a60209081526040918290208251610100810184528154808616808352600160801b91829004871694830185905260018401546001600160a01b039081169684018790526002850154166060840181905260038501548089166080860181905290849004891660a08601819052600490960154808a1660c0870181905294900490981660e09094019390935294969495939491939091565b604080516001600160a01b0398891681526001600160801b0397881660208201529587169086015295909216606084015283166080830152821660a0820152911660c082015260e001610141565b61018761030636600461231c565b610e1d565b61031e610319366004612404565b610e52565b604051908152602001610141565b61015d61033a3660046124ec565b610ed8565b61015d61034d366004612404565b611039565b610167611183565b61015d610368366004612582565b611192565b61015d61037b3660046125b0565b6111a1565b609754610187906001600160a01b031681565b6103a66103a136600461262f565b6111bc565b6040516001600160801b039091168152602001610141565b6101676103cc36600461231c565b611616565b6104436103df366004612294565b609a60205260009081526040902080546001820154600283015460038401546004909401546001600160801b0380851695600160801b958690048216956001600160a01b039586169590941693828216939181900483169280831692919091041688565b604080516001600160801b03998a16815297891660208901526001600160a01b03968716908801529490931660608601529085166080850152841660a0840152831660c08301529190911660e082015261010001610141565b6104af6104aa366004612294565b6116cc565b604080516001600160801b03938416815292909116602083015201610141565b6101356104dd3660046126a0565b6118d1565b60006001600160e01b031982166380ac58cd60e01b148061051357506001600160e01b03198216635b5e139f60e01b145b8061052e57506301ffc9a760e01b6001600160e01b03198316145b92915050565b336105476001600160801b038316610e1d565b6001600160a01b03161461056e576040516398bb581360e01b815260040160405180910390fd5b6001600160801b038082166000908152609a6020526040902060040154600160801b9004164214156105b357604051633b95e01560e21b815260040160405180910390fd5b6097546001600160801b0382166000908152609a6020526040808220600101549051630fee4dcb60e31b815291926001600160a01b0390811692637f726e5892610601921690600401612335565b60206040518083038186803b15801561061957600080fd5b505afa15801561062d573d6000803e3d6000fd5b505050506040513d601f19601f8201168201806040525081019061065191906126de565b6001600160801b038381166000908152609a60205260409020600301549181169250600160801b9091041615806106cd57506001600160801b038083166000908152609a60205260409020600401541642108015906106cd57506001600160801b038083166000908152609a6020526040902060040154168114155b6106ea5760405163c9f240d560e01b815260040160405180910390fd5b6097546001600160801b038084166000908152609a6020526040808220600181015481546003909201549251630c6500bf60e31b815293958695869586956001600160a01b039384169563632805f895610758951693600160801b82048116939181169216906004016126fb565b60806040518083038186803b15801561077057600080fd5b505afa158015610784573d6000803e3d6000fd5b505050506040513d601f19601f820116820180604052508101906107a8919061272d565b6001600160801b03808b166000908152609a602052604081208054969a5094985092965090945086936107dd91859116612797565b82546101009290920a6001600160801b038181021990931691831602179091558781166000908152609a602052604081206003810180548416600160801b88861681028281179093556004840180546001600160801b031916898816179055609754600185015494549597506001600160a01b03908116966392b063229691909516949190048116928b92911617336040516001600160e01b031960e088901b1681526001600160a01b0395861660048201526001600160801b0394851660248201529284166044840152921660648201529116608482015260a401602060405180830381600087803b1580156108d357600080fd5b505af11580156108e7573d6000803e3d6000fd5b505050506040513d601f19601f8201168201806040525081019061090b91906126de565b6001600160801b038881166000818152609a6020908152604091829020805460019091015483519485528587169285019290925288851684840152600160801b900490931660608301526001600160a01b039092166080820152905191925033917f776cb43d4de7d9c551a3e69d8fc487af9345e74329b1a3cde0d60d14945cb6899181900360a00190a26001600160801b038088166000908152609a6020526040902060030154600160801b900416610a18576109d1876001600160801b03166118ff565b6001600160801b0387166000908152609a602052604081208181556001810180546001600160a01b0319908116909155600282018054909116905560038101829055600401555b50505050505050565b606060658054610a30906127bf565b80601f0160208091040260200160405190810160405280929190818152602001828054610a5c906127bf565b8015610aa95780601f10610a7e57610100808354040283529160200191610aa9565b820191906000526020600020905b815481529060010190602001808311610a8c57829003601f168201915b5050505050905090565b6000610abe82611988565b506000908152606960205260409020546001600160a01b031690565b6000610ae582610e1d565b9050806001600160a01b0316836001600160a01b03161415610b585760405162461bcd60e51b815260206004820152602160248201527f4552433732313a20617070726f76616c20746f2063757272656e74206f776e656044820152603960f91b60648201526084015b60405180910390fd5b336001600160a01b0382161480610b745750610b7481336118d1565b610be65760405162461bcd60e51b815260206004820152603e60248201527f4552433732313a20617070726f76652063616c6c6572206973206e6f7420746f60448201527f6b656e206f776e6572206e6f7220617070726f76656420666f7220616c6c00006064820152608401610b4f565b610bf083836119b0565b505050565b610bfe81611a1e565b610bf0838383611ae9565b610c1281611a1e565b610bf0838383611b1a565b33610c306001600160801b038416610e1d565b6001600160a01b031614610c57576040516398bb581360e01b815260040160405180910390fd5b6001600160801b038083166000908152609a6020526040902060040154600160801b900416421415610c9c57604051633b95e01560e21b815260040160405180910390fd5b6001600160801b038281166000908152609a6020526040808220805460975460018301546003909301549351630344415960e41b815282871660048201526001600160a01b039384166024820152600160801b90920486166044830181905287871660648401529390951660848201529193839283929091169063344415909060a401606060405180830381600087803b158015610d3957600080fd5b505af1158015610d4d573d6000803e3d6000fd5b505050506040513d601f19601f82011682018060405250810190610d7191906127fa565b6001600160801b038981166000818152609a60209081526040918290208c8516600160801b81028987161782556003820180548988166001600160801b0319909116179055600190910154835194855294861691840191909152828201526001600160a01b0390921660608201529051939650919450925033917f52c65554d00e4ad7fe82fc0ed71ca784375f9eb6e885f132dd77978afa3079729181900360800190a2505050505050565b6000818152606760205260408120546001600160a01b03168061052e5760405162461bcd60e51b8152600401610b4f90612847565b60006001600160a01b038216610ebc5760405162461bcd60e51b815260206004820152602960248201527f4552433732313a2061646472657373207a65726f206973206e6f7420612076616044820152683634b21037bbb732b960b91b6064820152608401610b4f565b506001600160a01b031660009081526068602052604090205490565b600054610100900460ff1615808015610ef85750600054600160ff909116105b80610f195750610f0730611b35565b158015610f19575060005460ff166001145b610f7c5760405162461bcd60e51b815260206004820152602e60248201527f496e697469616c697a61626c653a20636f6e747261637420697320616c72656160448201526d191e481a5b9a5d1a585b1a5e995960921b6064820152608401610b4f565b6000805460ff191660011790558015610f9f576000805461ff0019166101001790555b610fa98585611b44565b609780546001600160a01b038086166001600160a01b0319928316179092556098805492851692909116919091179055609980546001600160801b03191660011790558015611032576000805461ff0019169055604051600181527f7f26b83ff96e1f2b6a682f133852f6798a09c465da95921460cefb38474024989060200160405180910390a15b5050505050565b6097546001600160a01b03166391d148547f71840dc4906352362b0cdaf79870196c8e42acafade72d5d5a6d59291253ceb1336040516001600160e01b031960e085901b16815260048101929092526001600160a01b0316602482015260440160206040518083038186803b1580156110b157600080fd5b505afa1580156110c5573d6000803e3d6000fd5b505050506040513d601f19601f820116820180604052508101906110e99190612879565b611106576040516346bd1df960e11b815260040160405180910390fd5b6001600160a01b03811661112d576040516379273f9960e01b815260040160405180910390fd5b609880546001600160a01b0319166001600160a01b0383161790556040517ffbc3466f121a348b708d9e3b66d3ad6cbf373042f0a7e4ef942bd03b3bc6822c90611178908390612335565b60405180910390a150565b606060668054610a30906127bf565b61119d338383611b75565b5050565b6111aa82611a1e565b6111b684848484611c40565b50505050565b60006001600160801b0385166111e5576040516301c149dd60e11b815260040160405180910390fd5b609980546001600160801b03169060006111fe83612896565b91906101000a8154816001600160801b0302191690836001600160801b03160217905550905061123786826001600160801b0316611c72565b6000826001600160a01b031663313ce5676040518163ffffffff1660e01b815260040160206040518083038186803b15801561127257600080fd5b505afa158015611286573d6000803e3d6000fd5b505050506040513d601f19601f820116820180604052508101906112aa91906128bd565b905060006112c46001600160801b03881660ff8416611c8c565b60975460408051631936317d60e11b81526001600160801b03808b1660048301526001600160a01b038a811660248401528981166044840152336064840152908516608483015282519495506000948594919091169263326c62fa9260a4808201939182900301818787803b15801561133c57600080fd5b505af1158015611350573d6000803e3d6000fd5b505050506040513d601f19601f8201168201806040525081019061137491906128e0565b91509150604051806101000160405280836001600160801b03168152602001896001600160801b03168152602001886001600160a01b03168152602001876001600160a01b03168152602001826001600160801b0316815260200160006001600160801b0316815260200160006001600160801b03168152602001426001600160801b0316815250609a6000876001600160801b03166001600160801b0316815260200190815260200160002060008201518160000160006101000a8154816001600160801b0302191690836001600160801b0316021790555060208201518160000160106101000a8154816001600160801b0302191690836001600160801b0316021790555060408201518160010160006101000a8154816001600160a01b0302191690836001600160a01b0316021790555060608201518160020160006101000a8154816001600160a01b0302191690836001600160a01b0316021790555060808201518160030160006101000a8154816001600160801b0302191690836001600160801b0316021790555060a08201518160030160106101000a8154816001600160801b0302191690836001600160801b0316021790555060c08201518160040160006101000a8154816001600160801b0302191690836001600160801b0316021790555060e08201518160040160106101000a8154816001600160801b0302191690836001600160801b03160217905550905050896001600160a01b03167f3471c392d5ab8feda68d49e4276ef92edc7bfdd1db72f7073a2c7b0e06a425a686858b8b866040516116019594939291906001600160801b039586168152938516602085015291841660408401526001600160a01b03166060830152909116608082015260a00190565b60405180910390a25050505095945050505050565b606061162182611cc5565b61163e57604051631a77a95160e21b815260040160405180910390fd5b6098546040516324945e5b60e21b81523060048201526001600160801b03841660248201526001600160a01b0390911690639251796c9060440160006040518083038186803b15801561169057600080fd5b505afa1580156116a4573d6000803e3d6000fd5b505050506040513d6000823e601f3d908101601f1916820160405261052e919081019061290f565b6000806116e1836001600160801b0316611cc5565b6116f057506000928392509050565b6097546001600160801b0384166000908152609a6020526040808220600101549051630fee4dcb60e31b815291926001600160a01b0390811692637f726e589261173e921690600401612335565b60206040518083038186803b15801561175657600080fd5b505afa15801561176a573d6000803e3d6000fd5b505050506040513d601f19601f8201168201806040525081019061178e91906126de565b6001600160801b038581166000908152609a6020526040902060040154918116925016158015906117db57506001600160801b038085166000908152609a60205260409020600401541681145b1561180d575050506001600160801b039081166000908152609a6020526040812060030154600160801b900490911691565b6097546001600160801b038086166000908152609a602052604090819020600181015481546003909201549251632eaf9f8760e11b81526001600160a01b0395861695635d5f3f0e95611878959390911693600160801b8104821693908216929116906004016126fb565b604080518083038186803b15801561188f57600080fd5b505afa1580156118a3573d6000803e3d6000fd5b505050506040513d601f19601f820116820180604052508101906118c791906128e0565b9250925050915091565b6001600160a01b039182166000908152606a6020908152604080832093909416825291909152205460ff1690565b600061190a82610e1d565b90506119176000836119b0565b6001600160a01b0381166000908152606860205260408120805460019290611940908490612985565b909155505060008281526067602052604080822080546001600160a01b0319169055518391906001600160a01b03841690600080516020612d18833981519152908390a45050565b61199181611cc5565b6119ad5760405162461bcd60e51b8152600401610b4f90612847565b50565b600081815260696020526040902080546001600160a01b0319166001600160a01b03841690811790915581906119e582610e1d565b6001600160a01b03167f8c5be1e5ebec7d5bd14f71427d1e84f3dd0314c0f7b2291e5b200ac8c7c3b92560405160405180910390a45050565b6097546001600160801b0382166000908152609a602052604080822060010154905163ec04205b60e01b815291926001600160a01b039081169263ec04205b92611a6c921690600401612335565b6101806040518083038186803b158015611a8557600080fd5b505afa158015611a99573d6000803e3d6000fd5b505050506040513d601f19601f82011682018060405250810190611abd919061299c565b50505050505050505050915050801561119d57604051634ebfed1160e01b815260040160405180910390fd5b611af33382611ce2565b611b0f5760405162461bcd60e51b8152600401610b4f90612a89565b610bf0838383611d41565b610bf0838383604051806020016040528060008152506111a1565b6001600160a01b03163b151590565b600054610100900460ff16611b6b5760405162461bcd60e51b8152600401610b4f90612ad7565b61119d8282611ecb565b816001600160a01b0316836001600160a01b03161415611bd35760405162461bcd60e51b815260206004820152601960248201527822a9219b99189d1030b8383937bb32903a379031b0b63632b960391b6044820152606401610b4f565b6001600160a01b038381166000818152606a6020908152604080832094871680845294825291829020805460ff191686151590811790915591519182527f17307eab39ab6107e8899845ad3d59bd9653f200f220920489ca2b5937696c31910160405180910390a3505050565b611c4a3383611ce2565b611c665760405162461bcd60e51b8152600401610b4f90612a89565b6111b684848484611f19565b61119d828260405180602001604052806000815250611f4c565b6000611c9982600a612c06565b611cb4670de0b6b3a76400006001600160801b038616612c12565b611cbe9190612c31565b9392505050565b6000908152606760205260409020546001600160a01b0316151590565b600080611cee83610e1d565b9050806001600160a01b0316846001600160a01b03161480611d155750611d1581856118d1565b80611d395750836001600160a01b0316611d2e84610ab3565b6001600160a01b0316145b949350505050565b826001600160a01b0316611d5482610e1d565b6001600160a01b031614611db85760405162461bcd60e51b815260206004820152602560248201527f4552433732313a207472616e736665722066726f6d20696e636f72726563742060448201526437bbb732b960d91b6064820152608401610b4f565b6001600160a01b038216611e1a5760405162461bcd60e51b8152602060048201526024808201527f4552433732313a207472616e7366657220746f20746865207a65726f206164646044820152637265737360e01b6064820152608401610b4f565b611e256000826119b0565b6001600160a01b0383166000908152606860205260408120805460019290611e4e908490612985565b90915550506001600160a01b0382166000908152606860205260408120805460019290611e7c908490612c53565b909155505060008181526067602052604080822080546001600160a01b0319166001600160a01b038681169182179092559151849391871691600080516020612d1883398151915291a4505050565b600054610100900460ff16611ef25760405162461bcd60e51b8152600401610b4f90612ad7565b8151611f059060659060208501906121b3565b508051610bf09060669060208401906121b3565b611f24848484611d41565b611f3084848484611f7f565b6111b65760405162461bcd60e51b8152600401610b4f90612c6b565b611f568383612093565b611f636000848484611f7f565b610bf05760405162461bcd60e51b8152600401610b4f90612c6b565b6000611f93846001600160a01b0316611b35565b1561208857604051630a85bd0160e11b81526001600160a01b0385169063150b7a0290611fca903390899088908890600401612cbd565b602060405180830381600087803b158015611fe457600080fd5b505af1925050508015612014575060408051601f3d908101601f1916820190925261201191810190612cfa565b60015b61206e573d808015612042576040519150601f19603f3d011682016040523d82523d6000602084013e612047565b606091505b5080516120665760405162461bcd60e51b8152600401610b4f90612c6b565b805181602001fd5b6001600160e01b031916630a85bd0160e11b149050611d39565b506001949350505050565b6001600160a01b0382166120e95760405162461bcd60e51b815260206004820181905260248201527f4552433732313a206d696e7420746f20746865207a65726f20616464726573736044820152606401610b4f565b6120f281611cc5565b1561213e5760405162461bcd60e51b815260206004820152601c60248201527b115490cdcc8c4e881d1bdad95b88185b1c9958591e481b5a5b9d195960221b6044820152606401610b4f565b6001600160a01b0382166000908152606860205260408120805460019290612167908490612c53565b909155505060008181526067602052604080822080546001600160a01b0319166001600160a01b0386169081179091559051839290600080516020612d18833981519152908290a45050565b8280546121bf906127bf565b90600052602060002090601f0160209004810192826121e15760008555612227565b82601f106121fa57805160ff1916838001178555612227565b82800160010185558215612227579182015b8281111561222757825182559160200191906001019061220c565b50612233929150612237565b5090565b5b808211156122335760008155600101612238565b6001600160e01b0319811681146119ad57600080fd5b60006020828403121561227457600080fd5b8135611cbe8161224c565b6001600160801b03811681146119ad57600080fd5b6000602082840312156122a657600080fd5b8135611cbe8161227f565b60005b838110156122cc5781810151838201526020016122b4565b838111156111b65750506000910152565b600081518084526122f58160208601602086016122b1565b601f01601f19169290920160200192915050565b602081526000611cbe60208301846122dd565b60006020828403121561232e57600080fd5b5035919050565b6001600160a01b0391909116815260200190565b6001600160a01b03811681146119ad57600080fd5b6000806040838503121561237157600080fd5b823561237c81612349565b946020939093013593505050565b60008060006060848603121561239f57600080fd5b83356123aa81612349565b925060208401356123ba81612349565b929592945050506040919091013590565b600080604083850312156123de57600080fd5b82356123e98161227f565b915060208301356123f98161227f565b809150509250929050565b60006020828403121561241657600080fd5b8135611cbe81612349565b634e487b7160e01b600052604160045260246000fd5b604051601f8201601f191681016001600160401b038111828210171561245f5761245f612421565b604052919050565b60006001600160401b0382111561248057612480612421565b50601f01601f191660200190565b60006124a161249c84612467565b612437565b90508281528383830111156124b557600080fd5b828260208301376000602084830101529392505050565b600082601f8301126124dd57600080fd5b611cbe8383356020850161248e565b6000806000806080858703121561250257600080fd5b84356001600160401b038082111561251957600080fd5b612525888389016124cc565b9550602087013591508082111561253b57600080fd5b50612548878288016124cc565b935050604085013561255981612349565b9150606085013561256981612349565b939692955090935050565b80151581146119ad57600080fd5b6000806040838503121561259557600080fd5b82356125a081612349565b915060208301356123f981612574565b600080600080608085870312156125c657600080fd5b84356125d181612349565b935060208501356125e181612349565b92506040850135915060608501356001600160401b0381111561260357600080fd5b8501601f8101871361261457600080fd5b6126238782356020840161248e565b91505092959194509250565b600080600080600060a0868803121561264757600080fd5b853561265281612349565b945060208601356126628161227f565b935060408601356126728161227f565b9250606086013561268281612349565b9150608086013561269281612349565b809150509295509295909350565b600080604083850312156126b357600080fd5b82356126be81612349565b915060208301356123f981612349565b80516126d98161227f565b919050565b6000602082840312156126f057600080fd5b8151611cbe8161227f565b6001600160a01b039490941684526001600160801b039283166020850152908216604084015216606082015260800190565b6000806000806080858703121561274357600080fd5b845161274e8161227f565b602086015190945061275f8161227f565b60408601519093506127708161227f565b60608601519092506125698161227f565b634e487b7160e01b600052601160045260246000fd5b60006001600160801b03838116908316818110156127b7576127b7612781565b039392505050565b600181811c908216806127d357607f821691505b602082108114156127f457634e487b7160e01b600052602260045260246000fd5b50919050565b60008060006060848603121561280f57600080fd5b835161281a8161227f565b602085015190935061282b8161227f565b604085015190925061283c8161227f565b809150509250925092565b602080825260189082015277115490cdcc8c4e881a5b9d985b1a59081d1bdad95b88125160421b604082015260600190565b60006020828403121561288b57600080fd5b8151611cbe81612574565b60006001600160801b03828116808214156128b3576128b3612781565b6001019392505050565b6000602082840312156128cf57600080fd5b815160ff81168114611cbe57600080fd5b600080604083850312156128f357600080fd5b82516128fe8161227f565b60208401519092506123f98161227f565b60006020828403121561292157600080fd5b81516001600160401b0381111561293757600080fd5b8201601f8101841361294857600080fd5b805161295661249c82612467565b81815285602083850101111561296b57600080fd5b61297c8260208301602086016122b1565b95945050505050565b60008282101561299757612997612781565b500390565b6000806000806000806000806000806000806101808d8f0312156129bf57600080fd5b8c516129ca81612574565b60208e0151909c506129db81612574565b60408e0151909b506129ec81612574565b60608e0151909a506129fd8161227f565b60808e0151909950612a0e8161227f565b60a08e0151909850612a1f8161227f565b9650612a2d60c08e016126ce565b9550612a3b60e08e016126ce565b9450612a4a6101008e016126ce565b9350612a596101208e016126ce565b9250612a686101408e016126ce565b9150612a776101608e016126ce565b90509295989b509295989b509295989b565b6020808252602e908201527f4552433732313a2063616c6c6572206973206e6f7420746f6b656e206f776e6560408201526d1c881b9bdc88185c1c1c9bdd995960921b606082015260800190565b6020808252602b908201527f496e697469616c697a61626c653a20636f6e7472616374206973206e6f74206960408201526a6e697469616c697a696e6760a81b606082015260800190565b600181815b80851115612b5d578160001904821115612b4357612b43612781565b80851615612b5057918102915b93841c9390800290612b27565b509250929050565b600082612b745750600161052e565b81612b815750600061052e565b8160018114612b975760028114612ba157612bbd565b600191505061052e565b60ff841115612bb257612bb2612781565b50506001821b61052e565b5060208310610133831016604e8410600b8410161715612be0575081810a61052e565b612bea8383612b22565b8060001904821115612bfe57612bfe612781565b029392505050565b6000611cbe8383612b65565b6000816000190483118215151615612c2c57612c2c612781565b500290565b600082612c4e57634e487b7160e01b600052601260045260246000fd5b500490565b60008219821115612c6657612c66612781565b500190565b60208082526032908201527f4552433732313a207472616e7366657220746f206e6f6e20455243373231526560408201527131b2b4bb32b91034b6b83632b6b2b73a32b960711b606082015260800190565b6001600160a01b0385811682528416602082015260408101839052608060608201819052600090612cf0908301846122dd565b9695505050505050565b600060208284031215612d0c57600080fd5b8151611cbe8161224c56feddf252ad1be2c89b69c2b068fc378daa952ba7f163c4a11628f55a4df523b3efa2646970667358221220f91f2e30f488edc057769971782e6da8933ac9ab5cdec15a7f48fe621775195f64736f6c63430008090033",
  "devdoc": {
    "kind": "dev",
    "methods": {
      "approve(address,uint256)": {
        "details": "See {IERC721-approve}."
      },
      "balanceOf(address)": {
        "details": "See {IERC721-balanceOf}."
      },
      "deposit(address,uint128,uint128,address,address)": {
        "params": {
          "amount": "The amount of tokens to be deposited",
          "ownerAddress": "The identifier of the pool",
          "rate": "The rate at which to bid for a bonds",
          "to": "The address for which the position is created",
          "underlyingToken": "The contract address of the token to be deposited*"
        }
      },
      "getApproved(uint256)": {
        "details": "See {IERC721-getApproved}."
      },
      "getPositionRepartition(uint128)": {
        "params": {
          "tokenId": "The tokenId of the position"
        },
        "returns": {
          "bondsQuantity": "Quantity of bond held, represents funds borrowed",
          "normalizedDepositedAmount": "Amount of deposit placed on yield provider*"
        }
      },
      "isApprovedForAll(address,address)": {
        "details": "See {IERC721-isApprovedForAll}."
      },
      "name()": {
        "details": "See {IERC721Metadata-name}."
      },
      "ownerOf(uint256)": {
        "details": "See {IERC721-ownerOf}."
      },
      "position(uint128)": {
        "params": {
          "tokenId": "The tokenId of the position"
        },
        "returns": {
          "adjustedBalance": "Adjusted balance of the position original deposit",
          "bondsIssuanceIndex": "Borrow period the deposit was made in*",
          "bondsMaturity": "Maturity of the position's remaining bonds",
          "ownerAddress": "The identifier of the pool",
          "rate": "Position bidding rate",
          "remainingBonds": "Quantity of bonds remaining in the position after a partial withdraw",
          "underlyingToken": "Address of the tokens the position contains"
        }
      },
      "safeTransferFrom(address,address,uint256)": {
        "details": "See {IERC721-safeTransferFrom}."
      },
      "safeTransferFrom(address,address,uint256,bytes)": {
        "details": "See {IERC721-safeTransferFrom}."
      },
      "setApprovalForAll(address,bool)": {
        "details": "See {IERC721-setApprovalForAll}."
      },
      "supportsInterface(bytes4)": {
        "details": "See {IERC165-supportsInterface}."
      },
      "symbol()": {
        "details": "See {IERC721Metadata-symbol}."
      },
      "tokenURI(uint256)": {
        "params": {
          "tokenId": "The tokenId of the position"
        },
        "returns": {
          "_0": "encoded svg*"
        }
      },
      "transferFrom(address,address,uint256)": {
        "details": "See {IERC721-transferFrom}."
      },
      "updateRate(uint128,uint128)": {
        "params": {
          "newRate": "The new rate at which to bid for bonds*",
          "tokenId": "The tokenId of the position"
        }
      },
      "withdraw(uint128)": {
        "params": {
          "tokenId": "The tokenId of the position*"
        }
      }
    },
    "version": 1
  },
  "userdoc": {
    "events": {
      "Deposit(address,uint128,uint128,uint128,address,uint128)": {
        "notice": "Emitted when #deposit is called and is a success"
      },
      "SetPositionDescriptor(address)": {
        "notice": "Set the position descriptor address"
      },
      "UpdateRate(address,uint128,uint128,uint128,address)": {
        "notice": "Emitted when #updateRate is called and is a success"
      },
      "Withdraw(address,uint128,uint128,uint128,uint128,address)": {
        "notice": "Emitted when #withdraw is called and is a success"
      }
    },
    "kind": "user",
    "methods": {
      "deposit(address,uint128,uint128,address,address)": {
        "notice": "Deposits tokens into the yield provider and places a bid at the indicated rate within the respective pool's order book. A new position is created within the positions map that keeps track of this position's composition. An ERC721 NFT is minted for the user as a representation of the position."
      },
      "getPositionRepartition(uint128)": {
        "notice": "Returns the balance on yield provider and the quantity of bond held"
      },
      "position(uint128)": {
        "notice": "Emitted when #withdraw is called and is a success"
      },
      "tokenURI(uint256)": {
        "notice": "Returns the encoded svg data"
      },
      "updateRate(uint128,uint128)": {
        "notice": "Allows a user to update the rate at which to bid for bonds. A rate is only upgradable as long as the full amount of deposits are currently allocated with the yield provider i.e the position does not hold any bonds."
      },
      "withdraw(uint128)": {
        "notice": "Withdraws the amount of tokens that are deposited with the yield provider. The bonds portion of the position is not affected."
      }
    },
    "version": 1
  },
  "storageLayout": {
    "storage": [
      {
        "astId": 419,
        "contract": "src/PositionManager.sol:PositionManager",
        "label": "_initialized",
        "offset": 0,
        "slot": "0",
        "type": "t_uint8"
      },
      {
        "astId": 422,
        "contract": "src/PositionManager.sol:PositionManager",
        "label": "_initializing",
        "offset": 1,
        "slot": "0",
        "type": "t_bool"
      },
      {
        "astId": 3058,
        "contract": "src/PositionManager.sol:PositionManager",
        "label": "__gap",
        "offset": 0,
        "slot": "1",
        "type": "t_array(t_uint256)50_storage"
      },
      {
        "astId": 3328,
        "contract": "src/PositionManager.sol:PositionManager",
        "label": "__gap",
        "offset": 0,
        "slot": "51",
        "type": "t_array(t_uint256)50_storage"
      },
      {
        "astId": 1750,
        "contract": "src/PositionManager.sol:PositionManager",
        "label": "_name",
        "offset": 0,
        "slot": "101",
        "type": "t_string_storage"
      },
      {
        "astId": 1752,
        "contract": "src/PositionManager.sol:PositionManager",
        "label": "_symbol",
        "offset": 0,
        "slot": "102",
        "type": "t_string_storage"
      },
      {
        "astId": 1756,
        "contract": "src/PositionManager.sol:PositionManager",
        "label": "_owners",
        "offset": 0,
        "slot": "103",
        "type": "t_mapping(t_uint256,t_address)"
      },
      {
        "astId": 1760,
        "contract": "src/PositionManager.sol:PositionManager",
        "label": "_balances",
        "offset": 0,
        "slot": "104",
        "type": "t_mapping(t_address,t_uint256)"
      },
      {
        "astId": 1764,
        "contract": "src/PositionManager.sol:PositionManager",
        "label": "_tokenApprovals",
        "offset": 0,
        "slot": "105",
        "type": "t_mapping(t_uint256,t_address)"
      },
      {
        "astId": 1770,
        "contract": "src/PositionManager.sol:PositionManager",
        "label": "_operatorApprovals",
        "offset": 0,
        "slot": "106",
        "type": "t_mapping(t_address,t_mapping(t_address,t_bool))"
      },
      {
        "astId": 2612,
        "contract": "src/PositionManager.sol:PositionManager",
        "label": "__gap",
        "offset": 0,
        "slot": "107",
        "type": "t_array(t_uint256)44_storage"
      },
      {
        "astId": 17378,
        "contract": "src/PositionManager.sol:PositionManager",
        "label": "pools",
        "offset": 0,
        "slot": "151",
        "type": "t_contract(IBorrowerPools)21071"
      },
      {
        "astId": 17381,
        "contract": "src/PositionManager.sol:PositionManager",
        "label": "positionDescriptor",
        "offset": 0,
        "slot": "152",
        "type": "t_contract(IPositionDescriptor)21388"
      },
      {
        "astId": 17383,
        "contract": "src/PositionManager.sol:PositionManager",
        "label": "_nextId",
        "offset": 0,
        "slot": "153",
        "type": "t_uint128"
      },
      {
        "astId": 17388,
        "contract": "src/PositionManager.sol:PositionManager",
        "label": "_positions",
        "offset": 0,
        "slot": "154",
        "type": "t_mapping(t_uint128,t_struct(PositionDetails)23863_storage)"
      }
    ],
    "types": {
      "t_address": {
        "encoding": "inplace",
        "label": "address",
        "numberOfBytes": "20"
      },
      "t_array(t_uint256)44_storage": {
        "base": "t_uint256",
        "encoding": "inplace",
        "label": "uint256[44]",
        "numberOfBytes": "1408"
      },
      "t_array(t_uint256)50_storage": {
        "base": "t_uint256",
        "encoding": "inplace",
        "label": "uint256[50]",
        "numberOfBytes": "1600"
      },
      "t_bool": {
        "encoding": "inplace",
        "label": "bool",
        "numberOfBytes": "1"
      },
      "t_contract(IBorrowerPools)21071": {
        "encoding": "inplace",
        "label": "contract IBorrowerPools",
        "numberOfBytes": "20"
      },
      "t_contract(IPositionDescriptor)21388": {
        "encoding": "inplace",
        "label": "contract IPositionDescriptor",
        "numberOfBytes": "20"
      },
      "t_mapping(t_address,t_bool)": {
        "encoding": "mapping",
        "key": "t_address",
        "label": "mapping(address => bool)",
        "numberOfBytes": "32",
        "value": "t_bool"
      },
      "t_mapping(t_address,t_mapping(t_address,t_bool))": {
        "encoding": "mapping",
        "key": "t_address",
        "label": "mapping(address => mapping(address => bool))",
        "numberOfBytes": "32",
        "value": "t_mapping(t_address,t_bool)"
      },
      "t_mapping(t_address,t_uint256)": {
        "encoding": "mapping",
        "key": "t_address",
        "label": "mapping(address => uint256)",
        "numberOfBytes": "32",
        "value": "t_uint256"
      },
      "t_mapping(t_uint128,t_struct(PositionDetails)23863_storage)": {
        "encoding": "mapping",
        "key": "t_uint128",
        "label": "mapping(uint128 => struct Types.PositionDetails)",
        "numberOfBytes": "32",
        "value": "t_struct(PositionDetails)23863_storage"
      },
      "t_mapping(t_uint256,t_address)": {
        "encoding": "mapping",
        "key": "t_uint256",
        "label": "mapping(uint256 => address)",
        "numberOfBytes": "32",
        "value": "t_address"
      },
      "t_string_storage": {
        "encoding": "bytes",
        "label": "string",
        "numberOfBytes": "32"
      },
      "t_struct(PositionDetails)23863_storage": {
        "encoding": "inplace",
        "label": "struct Types.PositionDetails",
        "members": [
          {
            "astId": 23848,
            "contract": "src/PositionManager.sol:PositionManager",
            "label": "adjustedBalance",
            "offset": 0,
            "slot": "0",
            "type": "t_uint128"
          },
          {
            "astId": 23850,
            "contract": "src/PositionManager.sol:PositionManager",
            "label": "rate",
            "offset": 16,
            "slot": "0",
            "type": "t_uint128"
          },
          {
            "astId": 23852,
            "contract": "src/PositionManager.sol:PositionManager",
            "label": "ownerAddress",
            "offset": 0,
            "slot": "1",
            "type": "t_address"
          },
          {
            "astId": 23854,
            "contract": "src/PositionManager.sol:PositionManager",
            "label": "underlyingToken",
            "offset": 0,
            "slot": "2",
            "type": "t_address"
          },
          {
            "astId": 23856,
            "contract": "src/PositionManager.sol:PositionManager",
            "label": "bondsIssuanceIndex",
            "offset": 0,
            "slot": "3",
            "type": "t_uint128"
          },
          {
            "astId": 23858,
            "contract": "src/PositionManager.sol:PositionManager",
            "label": "remainingBonds",
            "offset": 16,
            "slot": "3",
            "type": "t_uint128"
          },
          {
            "astId": 23860,
            "contract": "src/PositionManager.sol:PositionManager",
            "label": "bondsMaturity",
            "offset": 0,
            "slot": "4",
            "type": "t_uint128"
          },
          {
            "astId": 23862,
            "contract": "src/PositionManager.sol:PositionManager",
            "label": "creationTimestamp",
            "offset": 16,
            "slot": "4",
            "type": "t_uint128"
          }
        ],
        "numberOfBytes": "160"
      },
      "t_uint128": {
        "encoding": "inplace",
        "label": "uint128",
        "numberOfBytes": "16"
      },
      "t_uint256": {
        "encoding": "inplace",
        "label": "uint256",
        "numberOfBytes": "32"
      },
      "t_uint8": {
        "encoding": "inplace",
        "label": "uint8",
        "numberOfBytes": "1"
      }
    }
  }
}