{
  "address": "0x60EA3D18e6d968D5E618E723779a66411629e874",
  "abi": [
    {
      "inputs": [],
      "name": "BP_BOND_ISSUANCE_ID_TOO_HIGH",
      "type": "error"
    },
    {
      "inputs": [],
      "name": "BP_BORROW_COOLDOWN_PERIOD_NOT_OVER",
      "type": "error"
    },
    {
      "inputs": [],
      "name": "BP_BORROW_MAX_BORROWABLE_AMOUNT_EXCEEDED",
      "type": "error"
    },
    {
      "inputs": [],
      "name": "BP_BORROW_OUT_OF_BOUND_AMOUNT",
      "type": "error"
    },
    {
      "inputs": [],
      "name": "BP_BORROW_UNSUFFICIENT_BORROWABLE_AMOUNT_WITHIN_BRACKETS",
      "type": "error"
    },
    {
      "inputs": [],
      "name": "BP_EARLY_REPAY_NOT_ACTIVATED",
      "type": "error"
    },
    {
      "inputs": [],
      "name": "BP_LOAN_ONGOING",
      "type": "error"
    },
    {
      "inputs": [],
      "name": "BP_MULTIPLE_BORROW_AFTER_MATURITY",
      "type": "error"
    },
    {
      "inputs": [],
      "name": "BP_NO_DEPOSIT_TO_WITHDRAW",
      "type": "error"
    },
    {
      "inputs": [],
      "name": "BP_OUT_OF_BOUND_MAX_RATE",
      "type": "error"
    },
    {
      "inputs": [],
      "name": "BP_OUT_OF_BOUND_MIN_RATE",
      "type": "error"
    },
    {
      "inputs": [],
      "name": "BP_POOL_DEFAULTED",
      "type": "error"
    },
    {
      "inputs": [],
      "name": "BP_POOL_NOT_ACTIVE",
      "type": "error"
    },
    {
      "inputs": [],
      "name": "BP_RATE_SPACING",
      "type": "error"
    },
    {
      "inputs": [],
      "name": "BP_REPAY_NO_ACTIVE_LOAN",
      "type": "error"
    },
    {
      "inputs": [],
      "name": "BP_TARGET_BOND_ISSUANCE_INDEX_EMPTY",
      "type": "error"
    },
    {
      "inputs": [],
      "name": "BP_UNMATCHED_TOKEN",
      "type": "error"
    },
    {
      "inputs": [],
      "name": "MATH_ADDITION_OVERFLOW",
      "type": "error"
    },
    {
      "inputs": [],
      "name": "MATH_DIVISION_BY_ZERO",
      "type": "error"
    },
    {
      "inputs": [],
      "name": "MATH_MULTIPLICATION_OVERFLOW",
      "type": "error"
    },
    {
      "inputs": [],
      "name": "PC_BORROWER_NOT_OWNER",
      "type": "error"
    },
    {
      "inputs": [],
      "name": "PC_ESTABLISHMENT_FEES_TOO_HIGH",
      "type": "error"
    },
    {
      "inputs": [],
      "name": "PC_NOT_ENOUGH_PROTOCOL_FEES",
      "type": "error"
    },
    {
      "inputs": [],
      "name": "PC_NO_ONGOING_LOAN",
      "type": "error"
    },
    {
      "inputs": [],
      "name": "PC_POOL_ALREADY_SET_FOR_BORROWER",
      "type": "error"
    },
    {
      "inputs": [],
      "name": "PC_POOL_DEFAULTED",
      "type": "error"
    },
    {
      "inputs": [],
      "name": "PC_POOL_NOT_ACTIVE",
      "type": "error"
    },
    {
      "inputs": [],
      "name": "PC_RATE_SPACING_COMPLIANCE",
      "type": "error"
    },
    {
      "inputs": [],
      "name": "PC_REPAYMENT_PERIOD_ONGOING",
      "type": "error"
    },
    {
      "inputs": [],
      "name": "PC_ZERO_ADDRESS",
      "type": "error"
    },
    {
      "inputs": [],
      "name": "PC_ZERO_POOL",
      "type": "error"
    },
    {
      "anonymous": false,
      "inputs": [
        {
          "indexed": true,
          "internalType": "address",
          "name": "OWNER",
          "type": "address"
        },
        {
          "indexed": false,
          "internalType": "uint128",
          "name": "normalizedBorrowedAmount",
          "type": "uint128"
        },
        {
          "indexed": false,
          "internalType": "uint128",
          "name": "establishmentFees",
          "type": "uint128"
        }
      ],
      "name": "Borrow",
      "type": "event"
    },
    {
      "anonymous": false,
      "inputs": [
        {
          "indexed": false,
          "internalType": "address",
          "name": "borrowerAddress",
          "type": "address"
        },
        {
          "indexed": false,
          "internalType": "address",
          "name": "ownerAddress",
          "type": "address"
        }
      ],
      "name": "BorrowerAllowed",
      "type": "event"
    },
    {
      "anonymous": false,
      "inputs": [
        {
          "indexed": false,
          "internalType": "address",
          "name": "borrowerAddress",
          "type": "address"
        },
        {
          "indexed": false,
          "internalType": "address",
          "name": "ownerAddress",
          "type": "address"
        }
      ],
      "name": "BorrowerDisallowed",
      "type": "event"
    },
    {
      "anonymous": false,
      "inputs": [
        {
          "indexed": false,
          "internalType": "address",
          "name": "ownerAddress",
          "type": "address"
        },
        {
          "indexed": false,
          "internalType": "uint128",
          "name": "normalizedAmount",
          "type": "uint128"
        },
        {
          "indexed": false,
          "internalType": "address",
          "name": "to",
          "type": "address"
        }
      ],
      "name": "ClaimProtocolFees",
      "type": "event"
    },
    {
      "anonymous": false,
      "inputs": [
        {
          "indexed": false,
          "internalType": "address",
          "name": "OWNER",
          "type": "address"
        },
        {
          "indexed": false,
          "internalType": "uint128",
          "name": "rate",
          "type": "uint128"
        },
        {
          "indexed": false,
          "internalType": "uint128",
          "name": "remainingLiquidityRewards",
          "type": "uint128"
        },
        {
          "indexed": false,
          "internalType": "uint128",
          "name": "addedAccruedFees",
          "type": "uint128"
        }
      ],
      "name": "CollectFeesForTick",
      "type": "event"
    },
    {
      "anonymous": false,
      "inputs": [
        {
          "indexed": false,
          "internalType": "address",
          "name": "ownerAddress",
          "type": "address"
        },
        {
          "indexed": false,
          "internalType": "uint128",
          "name": "distributedLiquidityRewards",
          "type": "uint128"
        }
      ],
      "name": "Default",
      "type": "event"
    },
    {
      "anonymous": false,
      "inputs": [
        {
          "indexed": true,
          "internalType": "address",
          "name": "OWNER",
          "type": "address"
        },
        {
          "indexed": false,
          "internalType": "uint128",
          "name": "normalizedRepayAmount",
          "type": "uint128"
        },
        {
          "indexed": false,
          "internalType": "uint128",
          "name": "repaymentFee",
          "type": "uint128"
        },
        {
          "indexed": false,
          "internalType": "uint128",
          "name": "normalizedDepositsAfterRepay",
          "type": "uint128"
        },
        {
          "indexed": false,
          "internalType": "uint128",
          "name": "nextLoanMinStart",
          "type": "uint128"
        }
      ],
      "name": "EarlyRepay",
      "type": "event"
    },
    {
      "anonymous": false,
      "inputs": [
        {
          "indexed": true,
          "internalType": "address",
          "name": "OWNER",
          "type": "address"
        },
        {
          "indexed": false,
          "internalType": "uint128",
          "name": "normalizedBorrowedAmount",
          "type": "uint128"
        },
        {
          "indexed": false,
          "internalType": "uint128",
          "name": "establishmentFees",
          "type": "uint128"
        }
      ],
      "name": "FurtherBorrow",
      "type": "event"
    },
    {
      "anonymous": false,
      "inputs": [
        {
          "indexed": false,
          "internalType": "uint8",
          "name": "version",
          "type": "uint8"
        }
      ],
      "name": "Initialized",
      "type": "event"
    },
    {
      "anonymous": false,
      "inputs": [
        {
          "indexed": true,
          "internalType": "address",
          "name": "OWNER",
          "type": "address"
        },
        {
          "indexed": false,
          "internalType": "uint128",
          "name": "normalizedRepayAmount",
          "type": "uint128"
        },
        {
          "indexed": false,
          "internalType": "uint128",
          "name": "lateRepayFee",
          "type": "uint128"
        },
        {
          "indexed": false,
          "internalType": "uint128",
          "name": "repaymentFee",
          "type": "uint128"
        },
        {
          "indexed": false,
          "internalType": "uint128",
          "name": "normalizedDepositsAfterRepay",
          "type": "uint128"
        },
        {
          "indexed": false,
          "internalType": "uint128",
          "name": "nextLoanMinStart",
          "type": "uint128"
        }
      ],
      "name": "LateRepay",
      "type": "event"
    },
    {
      "anonymous": false,
      "inputs": [
        {
          "indexed": false,
          "internalType": "address",
          "name": "account",
          "type": "address"
        }
      ],
      "name": "Paused",
      "type": "event"
    },
    {
      "anonymous": false,
      "inputs": [
        {
          "indexed": false,
          "internalType": "address",
          "name": "ownerAddress",
          "type": "address"
        }
      ],
      "name": "PoolActivated",
      "type": "event"
    },
    {
      "anonymous": false,
      "inputs": [
        {
          "indexed": false,
          "internalType": "address",
          "name": "ownerAddress",
          "type": "address"
        },
        {
          "indexed": false,
          "internalType": "uint128",
          "name": "collectedLiquidityRewards",
          "type": "uint128"
        }
      ],
      "name": "PoolClosed",
      "type": "event"
    },
    {
      "anonymous": false,
      "inputs": [
        {
          "components": [
            {
              "internalType": "address",
              "name": "poolOwner",
              "type": "address"
            },
            {
              "internalType": "address",
              "name": "underlyingToken",
              "type": "address"
            },
            {
              "internalType": "contract YearnFinanceWrapper",
              "name": "yieldProvider",
              "type": "address"
            },
            {
              "internalType": "uint128",
              "name": "minRate",
              "type": "uint128"
            },
            {
              "internalType": "uint128",
              "name": "maxRate",
              "type": "uint128"
            },
            {
              "internalType": "uint128",
              "name": "rateSpacing",
              "type": "uint128"
            },
            {
              "internalType": "uint128",
              "name": "maxBorrowableAmount",
              "type": "uint128"
            },
            {
              "internalType": "uint128",
              "name": "loanDuration",
              "type": "uint128"
            },
            {
              "internalType": "uint128",
              "name": "distributionRate",
              "type": "uint128"
            },
            {
              "internalType": "uint128",
              "name": "cooldownPeriod",
              "type": "uint128"
            },
            {
              "internalType": "uint128",
              "name": "repaymentPeriod",
              "type": "uint128"
            },
            {
              "internalType": "uint128",
              "name": "lateRepayFeePerBondRate",
              "type": "uint128"
            },
            {
              "internalType": "uint128",
              "name": "establishmentFeeRate",
              "type": "uint128"
            },
            {
              "internalType": "uint128",
              "name": "repaymentFeeRate",
              "type": "uint128"
            },
            {
              "internalType": "uint128",
              "name": "liquidityRewardsActivationThreshold",
              "type": "uint128"
            },
            {
              "internalType": "bool",
              "name": "earlyRepay",
              "type": "bool"
            }
          ],
          "indexed": false,
          "internalType": "struct IPoolsController.PoolCreationParams",
          "name": "params",
          "type": "tuple"
        }
      ],
      "name": "PoolCreated",
      "type": "event"
    },
    {
      "anonymous": false,
      "inputs": [
        {
          "indexed": true,
          "internalType": "address",
          "name": "OWNER",
          "type": "address"
        },
        {
          "indexed": false,
          "internalType": "uint128",
          "name": "normalizedRepayAmount",
          "type": "uint128"
        },
        {
          "indexed": false,
          "internalType": "uint128",
          "name": "repaymentFee",
          "type": "uint128"
        },
        {
          "indexed": false,
          "internalType": "uint128",
          "name": "normalizedDepositsAfterRepay",
          "type": "uint128"
        },
        {
          "indexed": false,
          "internalType": "uint128",
          "name": "nextLoanMinStart",
          "type": "uint128"
        }
      ],
      "name": "Repay",
      "type": "event"
    },
    {
      "anonymous": false,
      "inputs": [
        {
          "indexed": true,
          "internalType": "bytes32",
          "name": "role",
          "type": "bytes32"
        },
        {
          "indexed": true,
          "internalType": "bytes32",
          "name": "previousAdminRole",
          "type": "bytes32"
        },
        {
          "indexed": true,
          "internalType": "bytes32",
          "name": "newAdminRole",
          "type": "bytes32"
        }
      ],
      "name": "RoleAdminChanged",
      "type": "event"
    },
    {
      "anonymous": false,
      "inputs": [
        {
          "indexed": true,
          "internalType": "bytes32",
          "name": "role",
          "type": "bytes32"
        },
        {
          "indexed": true,
          "internalType": "address",
          "name": "account",
          "type": "address"
        },
        {
          "indexed": true,
          "internalType": "address",
          "name": "sender",
          "type": "address"
        }
      ],
      "name": "RoleGranted",
      "type": "event"
    },
    {
      "anonymous": false,
      "inputs": [
        {
          "indexed": true,
          "internalType": "bytes32",
          "name": "role",
          "type": "bytes32"
        },
        {
          "indexed": true,
          "internalType": "address",
          "name": "account",
          "type": "address"
        },
        {
          "indexed": true,
          "internalType": "address",
          "name": "sender",
          "type": "address"
        }
      ],
      "name": "RoleRevoked",
      "type": "event"
    },
    {
      "anonymous": false,
      "inputs": [
        {
          "indexed": false,
          "internalType": "uint128",
          "name": "establishmentRate",
          "type": "uint128"
        },
        {
          "indexed": false,
          "internalType": "address",
          "name": "ownerAddress",
          "type": "address"
        }
      ],
      "name": "SetEstablishmentFeeRate",
      "type": "event"
    },
    {
      "anonymous": false,
      "inputs": [
        {
          "indexed": false,
          "internalType": "uint128",
          "name": "distributionRate",
          "type": "uint128"
        },
        {
          "indexed": false,
          "internalType": "address",
          "name": "ownerAddress",
          "type": "address"
        }
      ],
      "name": "SetLiquidityRewardsDistributionRate",
      "type": "event"
    },
    {
      "anonymous": false,
      "inputs": [
        {
          "indexed": false,
          "internalType": "uint128",
          "name": "maxTokenDeposit",
          "type": "uint128"
        },
        {
          "indexed": false,
          "internalType": "address",
          "name": "ownerAddress",
          "type": "address"
        }
      ],
      "name": "SetMaxBorrowableAmount",
      "type": "event"
    },
    {
      "anonymous": false,
      "inputs": [
        {
          "indexed": false,
          "internalType": "uint128",
          "name": "repaymentFeeRate",
          "type": "uint128"
        },
        {
          "indexed": false,
          "internalType": "address",
          "name": "ownerAddress",
          "type": "address"
        }
      ],
      "name": "SetRepaymentFeeRate",
      "type": "event"
    },
    {
      "anonymous": false,
      "inputs": [
        {
          "indexed": false,
          "internalType": "address",
          "name": "OWNER",
          "type": "address"
        },
        {
          "indexed": false,
          "internalType": "uint128",
          "name": "rate",
          "type": "uint128"
        },
        {
          "indexed": false,
          "internalType": "uint128",
          "name": "adjustedRemainingAmountReduction",
          "type": "uint128"
        },
        {
          "indexed": false,
          "internalType": "uint128",
          "name": "loanedAmount",
          "type": "uint128"
        },
        {
          "indexed": false,
          "internalType": "uint128",
          "name": "atlendisLiquidityRatio",
          "type": "uint128"
        },
        {
          "indexed": false,
          "internalType": "uint128",
          "name": "unborrowedRatio",
          "type": "uint128"
        }
      ],
      "name": "TickBorrow",
      "type": "event"
    },
    {
      "anonymous": false,
      "inputs": [
        {
          "indexed": false,
          "internalType": "address",
          "name": "OWNER",
          "type": "address"
        },
        {
          "indexed": false,
          "internalType": "uint128",
          "name": "rate",
          "type": "uint128"
        },
        {
          "indexed": false,
          "internalType": "uint128",
          "name": "atlendisLiquidityRatio",
          "type": "uint128"
        }
      ],
      "name": "TickInitialized",
      "type": "event"
    },
    {
      "anonymous": false,
      "inputs": [
        {
          "indexed": false,
          "internalType": "address",
          "name": "OWNER",
          "type": "address"
        },
        {
          "indexed": false,
          "internalType": "uint128",
          "name": "rate",
          "type": "uint128"
        },
        {
          "indexed": false,
          "internalType": "uint128",
          "name": "adjustedPendingDeposit",
          "type": "uint128"
        }
      ],
      "name": "TickLoanDeposit",
      "type": "event"
    },
    {
      "anonymous": false,
      "inputs": [
        {
          "indexed": false,
          "internalType": "address",
          "name": "OWNER",
          "type": "address"
        },
        {
          "indexed": false,
          "internalType": "uint128",
          "name": "rate",
          "type": "uint128"
        },
        {
          "indexed": false,
          "internalType": "uint128",
          "name": "adjustedAvailableDeposit",
          "type": "uint128"
        },
        {
          "indexed": false,
          "internalType": "uint128",
          "name": "atlendisLiquidityRatio",
          "type": "uint128"
        }
      ],
      "name": "TickNoLoanDeposit",
      "type": "event"
    },
    {
      "anonymous": false,
      "inputs": [
        {
          "indexed": false,
          "internalType": "address",
          "name": "OWNER",
          "type": "address"
        },
        {
          "indexed": false,
          "internalType": "uint128",
          "name": "rate",
          "type": "uint128"
        },
        {
          "indexed": false,
          "internalType": "uint128",
          "name": "adjustedPendingAmount",
          "type": "uint128"
        },
        {
          "indexed": false,
          "internalType": "bool",
          "name": "poolBondIssuanceIndexIncremented",
          "type": "bool"
        }
      ],
      "name": "TickPendingDeposit",
      "type": "event"
    },
    {
      "anonymous": false,
      "inputs": [
        {
          "indexed": false,
          "internalType": "address",
          "name": "OWNER",
          "type": "address"
        },
        {
          "indexed": false,
          "internalType": "uint128",
          "name": "rate",
          "type": "uint128"
        },
        {
          "indexed": false,
          "internalType": "uint128",
          "name": "adjustedRemainingAmount",
          "type": "uint128"
        },
        {
          "indexed": false,
          "internalType": "uint128",
          "name": "atlendisLiquidityRatio",
          "type": "uint128"
        }
      ],
      "name": "TickRepay",
      "type": "event"
    },
    {
      "anonymous": false,
      "inputs": [
        {
          "indexed": false,
          "internalType": "address",
          "name": "OWNER",
          "type": "address"
        },
        {
          "indexed": false,
          "internalType": "uint128",
          "name": "rate",
          "type": "uint128"
        },
        {
          "indexed": false,
          "internalType": "uint128",
          "name": "adjustedAmountToWithdraw",
          "type": "uint128"
        }
      ],
      "name": "TickWithdrawPending",
      "type": "event"
    },
    {
      "anonymous": false,
      "inputs": [
        {
          "indexed": false,
          "internalType": "address",
          "name": "OWNER",
          "type": "address"
        },
        {
          "indexed": false,
          "internalType": "uint128",
          "name": "rate",
          "type": "uint128"
        },
        {
          "indexed": false,
          "internalType": "uint128",
          "name": "adjustedAmountToWithdraw",
          "type": "uint128"
        },
        {
          "indexed": false,
          "internalType": "uint128",
          "name": "atlendisLiquidityRatio",
          "type": "uint128"
        },
        {
          "indexed": false,
          "internalType": "uint128",
          "name": "accruedFeesToWithdraw",
          "type": "uint128"
        }
      ],
      "name": "TickWithdrawRemaining",
      "type": "event"
    },
    {
      "anonymous": false,
      "inputs": [
        {
          "indexed": false,
          "internalType": "address",
          "name": "OWNER",
          "type": "address"
        },
        {
          "indexed": false,
          "internalType": "uint128",
          "name": "normalizedAmount",
          "type": "uint128"
        }
      ],
      "name": "TopUpLiquidityRewards",
      "type": "event"
    },
    {
      "anonymous": false,
      "inputs": [
        {
          "indexed": false,
          "internalType": "address",
          "name": "account",
          "type": "address"
        }
      ],
      "name": "Unpaused",
      "type": "event"
    },
    {
      "inputs": [],
      "name": "DEFAULT_ADMIN_ROLE",
      "outputs": [
        {
          "internalType": "bytes32",
          "name": "",
          "type": "bytes32"
        }
      ],
      "stateMutability": "view",
      "type": "function"
    },
    {
      "inputs": [
        {
          "internalType": "address",
          "name": "borrowerAddress",
          "type": "address"
        },
        {
          "internalType": "address",
          "name": "ownerAddress",
          "type": "address"
        }
      ],
      "name": "allow",
      "outputs": [],
      "stateMutability": "nonpayable",
      "type": "function"
    },
    {
      "inputs": [
        {
          "internalType": "address",
          "name": "to",
          "type": "address"
        },
        {
          "internalType": "uint128",
          "name": "loanAmount",
          "type": "uint128"
        }
      ],
      "name": "borrow",
      "outputs": [],
      "stateMutability": "nonpayable",
      "type": "function"
    },
    {
      "inputs": [
        {
          "internalType": "address",
          "name": "",
          "type": "address"
        }
      ],
      "name": "borrowerAuthorizedPools",
      "outputs": [
        {
          "internalType": "address",
          "name": "",
          "type": "address"
        }
      ],
      "stateMutability": "view",
      "type": "function"
    },
    {
      "inputs": [
        {
          "internalType": "address",
          "name": "ownerAddress",
          "type": "address"
        },
        {
          "internalType": "uint128",
          "name": "amount",
          "type": "uint128"
        },
        {
          "internalType": "address",
          "name": "to",
          "type": "address"
        }
      ],
      "name": "claimProtocolFees",
      "outputs": [],
      "stateMutability": "nonpayable",
      "type": "function"
    },
    {
      "inputs": [
        {
          "internalType": "address",
          "name": "ownerAddress",
          "type": "address"
        }
      ],
      "name": "collectFees",
      "outputs": [],
      "stateMutability": "nonpayable",
      "type": "function"
    },
    {
      "inputs": [
        {
          "internalType": "address",
          "name": "ownerAddress",
          "type": "address"
        },
        {
          "internalType": "uint128",
          "name": "rate",
          "type": "uint128"
        }
      ],
      "name": "collectFeesForTick",
      "outputs": [],
      "stateMutability": "nonpayable",
      "type": "function"
    },
    {
      "inputs": [
        {
          "components": [
            {
              "internalType": "address",
              "name": "poolOwner",
              "type": "address"
            },
            {
              "internalType": "address",
              "name": "underlyingToken",
              "type": "address"
            },
            {
              "internalType": "contract YearnFinanceWrapper",
              "name": "yieldProvider",
              "type": "address"
            },
            {
              "internalType": "uint128",
              "name": "minRate",
              "type": "uint128"
            },
            {
              "internalType": "uint128",
              "name": "maxRate",
              "type": "uint128"
            },
            {
              "internalType": "uint128",
              "name": "rateSpacing",
              "type": "uint128"
            },
            {
              "internalType": "uint128",
              "name": "maxBorrowableAmount",
              "type": "uint128"
            },
            {
              "internalType": "uint128",
              "name": "loanDuration",
              "type": "uint128"
            },
            {
              "internalType": "uint128",
              "name": "distributionRate",
              "type": "uint128"
            },
            {
              "internalType": "uint128",
              "name": "cooldownPeriod",
              "type": "uint128"
            },
            {
              "internalType": "uint128",
              "name": "repaymentPeriod",
              "type": "uint128"
            },
            {
              "internalType": "uint128",
              "name": "lateRepayFeePerBondRate",
              "type": "uint128"
            },
            {
              "internalType": "uint128",
              "name": "establishmentFeeRate",
              "type": "uint128"
            },
            {
              "internalType": "uint128",
              "name": "repaymentFeeRate",
              "type": "uint128"
            },
            {
              "internalType": "uint128",
              "name": "liquidityRewardsActivationThreshold",
              "type": "uint128"
            },
            {
              "internalType": "bool",
              "name": "earlyRepay",
              "type": "bool"
            }
          ],
          "internalType": "struct IPoolsController.PoolCreationParams",
          "name": "params",
          "type": "tuple"
        }
      ],
      "name": "createNewPool",
      "outputs": [],
      "stateMutability": "nonpayable",
      "type": "function"
    },
    {
      "inputs": [
        {
          "internalType": "uint128",
          "name": "rate",
          "type": "uint128"
        },
        {
          "internalType": "address",
          "name": "ownerAddress",
          "type": "address"
        },
        {
          "internalType": "address",
          "name": "underlyingToken",
          "type": "address"
        },
        {
          "internalType": "address",
          "name": "sender",
          "type": "address"
        },
        {
          "internalType": "uint128",
          "name": "normalizedAmount",
          "type": "uint128"
        }
      ],
      "name": "deposit",
      "outputs": [
        {
          "internalType": "uint128",
          "name": "adjustedAmount",
          "type": "uint128"
        },
        {
          "internalType": "uint128",
          "name": "bondsIssuanceIndex",
          "type": "uint128"
        }
      ],
      "stateMutability": "nonpayable",
      "type": "function"
    },
    {
      "inputs": [
        {
          "internalType": "address",
          "name": "borrowerAddress",
          "type": "address"
        },
        {
          "internalType": "address",
          "name": "ownerAddress",
          "type": "address"
        }
      ],
      "name": "disallow",
      "outputs": [],
      "stateMutability": "nonpayable",
      "type": "function"
    },
    {
      "inputs": [
        {
          "internalType": "uint128",
          "name": "normalizedBorrowedAmount",
          "type": "uint128"
        },
        {
          "internalType": "address",
          "name": "ownerAddress",
          "type": "address"
        }
      ],
      "name": "estimateLoanRate",
      "outputs": [
        {
          "internalType": "uint128",
          "name": "estimatedRate",
          "type": "uint128"
        }
      ],
      "stateMutability": "view",
      "type": "function"
    },
    {
      "inputs": [],
      "name": "freezePool",
      "outputs": [],
      "stateMutability": "nonpayable",
      "type": "function"
    },
    {
      "inputs": [
        {
          "internalType": "address",
          "name": "ownerAddress",
          "type": "address"
        },
        {
          "internalType": "uint128",
          "name": "rate",
          "type": "uint128"
        },
        {
          "internalType": "uint128",
          "name": "adjustedAmount",
          "type": "uint128"
        },
        {
          "internalType": "uint128",
          "name": "bondsIssuanceIndex",
          "type": "uint128"
        }
      ],
      "name": "getAmountRepartition",
      "outputs": [
        {
          "internalType": "uint128",
          "name": "bondsQuantity",
          "type": "uint128"
        },
        {
          "internalType": "uint128",
          "name": "normalizedDepositedAmount",
          "type": "uint128"
        }
      ],
      "stateMutability": "view",
      "type": "function"
    },
    {
      "inputs": [
        {
          "internalType": "address",
          "name": "ownerAddress",
          "type": "address"
        }
      ],
      "name": "getDefaultTimestamp",
      "outputs": [
        {
          "internalType": "uint128",
          "name": "defaultTimestamp",
          "type": "uint128"
        }
      ],
      "stateMutability": "view",
      "type": "function"
    },
    {
      "inputs": [
        {
          "internalType": "address",
          "name": "ownerAddress",
          "type": "address"
        }
      ],
      "name": "getPoolAggregates",
      "outputs": [
        {
          "internalType": "uint128",
          "name": "weightedAverageLendingRate",
          "type": "uint128"
        },
        {
          "internalType": "uint128",
          "name": "adjustedPendingDeposits",
          "type": "uint128"
        }
      ],
      "stateMutability": "view",
      "type": "function"
    },
    {
      "inputs": [
        {
          "internalType": "address",
          "name": "ownerAddress",
          "type": "address"
        }
      ],
      "name": "getPoolFeeRates",
      "outputs": [
        {
          "internalType": "uint128",
          "name": "establishmentFeeRate",
          "type": "uint128"
        },
        {
          "internalType": "uint128",
          "name": "repaymentFeeRate",
          "type": "uint128"
        }
      ],
      "stateMutability": "view",
      "type": "function"
    },
    {
      "inputs": [
        {
          "internalType": "address",
          "name": "ownerAddress",
          "type": "address"
        }
      ],
      "name": "getPoolMaturity",
      "outputs": [
        {
          "internalType": "uint128",
          "name": "poolCurrentMaturity",
          "type": "uint128"
        }
      ],
      "stateMutability": "view",
      "type": "function"
    },
    {
      "inputs": [
        {
          "internalType": "address",
          "name": "ownerAddress",
          "type": "address"
        }
      ],
      "name": "getPoolParameters",
      "outputs": [
        {
          "internalType": "address",
          "name": "underlyingToken",
          "type": "address"
        },
        {
          "internalType": "uint128",
          "name": "minRate",
          "type": "uint128"
        },
        {
          "internalType": "uint128",
          "name": "maxRate",
          "type": "uint128"
        },
        {
          "internalType": "uint128",
          "name": "rateSpacing",
          "type": "uint128"
        },
        {
          "internalType": "uint128",
          "name": "maxBorrowableAmount",
          "type": "uint128"
        },
        {
          "internalType": "uint128",
          "name": "loanDuration",
          "type": "uint128"
        },
        {
          "internalType": "uint128",
          "name": "liquidityRewardsDistributionRate",
          "type": "uint128"
        },
        {
          "internalType": "uint128",
          "name": "cooldownPeriod",
          "type": "uint128"
        },
        {
          "internalType": "uint128",
          "name": "repaymentPeriod",
          "type": "uint128"
        },
        {
          "internalType": "uint128",
          "name": "lateRepayFeePerBondRate",
          "type": "uint128"
        },
        {
          "internalType": "uint128",
          "name": "liquidityRewardsActivationThreshold",
          "type": "uint128"
        }
      ],
      "stateMutability": "view",
      "type": "function"
    },
    {
      "inputs": [
        {
          "internalType": "address",
          "name": "ownerAddress",
          "type": "address"
        }
      ],
      "name": "getPoolState",
      "outputs": [
        {
          "internalType": "bool",
          "name": "active",
          "type": "bool"
        },
        {
          "internalType": "bool",
          "name": "defaulted",
          "type": "bool"
        },
        {
          "internalType": "bool",
          "name": "closed",
          "type": "bool"
        },
        {
          "internalType": "uint128",
          "name": "currentMaturity",
          "type": "uint128"
        },
        {
          "internalType": "uint128",
          "name": "bondsIssuedQuantity",
          "type": "uint128"
        },
        {
          "internalType": "uint128",
          "name": "normalizedBorrowedAmount",
          "type": "uint128"
        },
        {
          "internalType": "uint128",
          "name": "normalizedAvailableDeposits",
          "type": "uint128"
        },
        {
          "internalType": "uint128",
          "name": "lowerInterestRate",
          "type": "uint128"
        },
        {
          "internalType": "uint128",
          "name": "nextLoanMinStart",
          "type": "uint128"
        },
        {
          "internalType": "uint128",
          "name": "remainingAdjustedLiquidityRewardsReserve",
          "type": "uint128"
        },
        {
          "internalType": "uint128",
          "name": "yieldProviderLiquidityRatio",
          "type": "uint128"
        },
        {
          "internalType": "uint128",
          "name": "currentBondsIssuanceIndex",
          "type": "uint128"
        }
      ],
      "stateMutability": "view",
      "type": "function"
    },
    {
      "inputs": [],
      "name": "getPools",
      "outputs": [
        {
          "internalType": "address[]",
          "name": "",
          "type": "address[]"
        }
      ],
      "stateMutability": "view",
      "type": "function"
    },
    {
      "inputs": [
        {
          "internalType": "address",
          "name": "ownerAddress",
          "type": "address"
        }
      ],
      "name": "getProtocolFees",
      "outputs": [
        {
          "internalType": "uint128",
          "name": "",
          "type": "uint128"
        }
      ],
      "stateMutability": "view",
      "type": "function"
    },
    {
      "inputs": [
        {
          "internalType": "address",
          "name": "ownerAddress",
          "type": "address"
        },
        {
          "internalType": "bool",
          "name": "earlyRepay",
          "type": "bool"
        }
      ],
      "name": "getRepayAmounts",
      "outputs": [
        {
          "internalType": "uint128",
          "name": "normalizedRepayAmount",
          "type": "uint128"
        },
        {
          "internalType": "uint128",
          "name": "lateRepayFee",
          "type": "uint128"
        },
        {
          "internalType": "uint128",
          "name": "repaymentFees",
          "type": "uint128"
        }
      ],
      "stateMutability": "view",
      "type": "function"
    },
    {
      "inputs": [
        {
          "internalType": "bytes32",
          "name": "role",
          "type": "bytes32"
        }
      ],
      "name": "getRoleAdmin",
      "outputs": [
        {
          "internalType": "bytes32",
          "name": "",
          "type": "bytes32"
        }
      ],
      "stateMutability": "view",
      "type": "function"
    },
    {
      "inputs": [
        {
          "internalType": "address",
          "name": "ownerAddress",
          "type": "address"
        },
        {
          "internalType": "uint128",
          "name": "rate",
          "type": "uint128"
        }
      ],
      "name": "getTickAmounts",
      "outputs": [
        {
          "internalType": "uint128",
          "name": "adjustedTotalAmount",
          "type": "uint128"
        },
        {
          "internalType": "uint128",
          "name": "adjustedRemainingAmount",
          "type": "uint128"
        },
        {
          "internalType": "uint128",
          "name": "bondsQuantity",
          "type": "uint128"
        },
        {
          "internalType": "uint128",
          "name": "adjustedPendingAmount",
          "type": "uint128"
        },
        {
          "internalType": "uint128",
          "name": "atlendisLiquidityRatio",
          "type": "uint128"
        },
        {
          "internalType": "uint128",
          "name": "accruedFees",
          "type": "uint128"
        }
      ],
      "stateMutability": "view",
      "type": "function"
    },
    {
      "inputs": [
        {
          "internalType": "address",
          "name": "ownerAddress",
          "type": "address"
        },
        {
          "internalType": "uint128",
          "name": "rate",
          "type": "uint128"
        }
      ],
      "name": "getTickLastUpdate",
      "outputs": [
        {
          "internalType": "uint128",
          "name": "lastFeeDistributionTimestamp",
          "type": "uint128"
        }
      ],
      "stateMutability": "view",
      "type": "function"
    },
    {
      "inputs": [
        {
          "internalType": "address",
          "name": "ownerAddress",
          "type": "address"
        },
        {
          "internalType": "uint128",
          "name": "rate",
          "type": "uint128"
        }
      ],
      "name": "getTickLiquidityRatio",
      "outputs": [
        {
          "internalType": "uint128",
          "name": "liquidityRatio",
          "type": "uint128"
        }
      ],
      "stateMutability": "view",
      "type": "function"
    },
    {
      "inputs": [
        {
          "internalType": "address",
          "name": "ownerAddress",
          "type": "address"
        },
        {
          "internalType": "uint128",
          "name": "rate",
          "type": "uint128"
        },
        {
          "internalType": "uint128",
          "name": "adjustedAmount",
          "type": "uint128"
        },
        {
          "internalType": "uint128",
          "name": "bondsIssuanceIndex",
          "type": "uint128"
        }
      ],
      "name": "getWithdrawAmounts",
      "outputs": [
        {
          "internalType": "uint128",
          "name": "adjustedAmountToWithdraw",
          "type": "uint128"
        },
        {
          "internalType": "uint128",
          "name": "depositedAmountToWithdraw",
          "type": "uint128"
        },
        {
          "internalType": "uint128",
          "name": "remainingBondsQuantity",
          "type": "uint128"
        },
        {
          "internalType": "uint128",
          "name": "bondsMaturity",
          "type": "uint128"
        }
      ],
      "stateMutability": "view",
      "type": "function"
    },
    {
      "inputs": [
        {
          "internalType": "bytes32",
          "name": "role",
          "type": "bytes32"
        },
        {
          "internalType": "address",
          "name": "account",
          "type": "address"
        }
      ],
      "name": "grantRole",
      "outputs": [],
      "stateMutability": "nonpayable",
      "type": "function"
    },
    {
      "inputs": [
        {
          "internalType": "bytes32",
          "name": "role",
          "type": "bytes32"
        },
        {
          "internalType": "address",
          "name": "account",
          "type": "address"
        }
      ],
      "name": "hasRole",
      "outputs": [
        {
          "internalType": "bool",
          "name": "",
          "type": "bool"
        }
      ],
      "stateMutability": "view",
      "type": "function"
    },
    {
      "inputs": [
        {
          "internalType": "address",
          "name": "governance",
          "type": "address"
        }
      ],
      "name": "initialize",
      "outputs": [],
      "stateMutability": "nonpayable",
      "type": "function"
    },
    {
      "inputs": [
        {
          "internalType": "address",
          "name": "ownerAddress",
          "type": "address"
        }
      ],
      "name": "isEarlyRepay",
      "outputs": [
        {
          "internalType": "bool",
          "name": "earlyRepay",
          "type": "bool"
        }
      ],
      "stateMutability": "view",
      "type": "function"
    },
    {
      "inputs": [],
      "name": "paused",
      "outputs": [
        {
          "internalType": "bool",
          "name": "",
          "type": "bool"
        }
      ],
      "stateMutability": "view",
      "type": "function"
    },
    {
      "inputs": [
        {
          "internalType": "uint256",
          "name": "",
          "type": "uint256"
        }
      ],
      "name": "poolsAddresses",
      "outputs": [
        {
          "internalType": "address",
          "name": "",
          "type": "address"
        }
      ],
      "stateMutability": "view",
      "type": "function"
    },
    {
      "inputs": [
        {
          "internalType": "bytes32",
          "name": "role",
          "type": "bytes32"
        },
        {
          "internalType": "address",
          "name": "account",
          "type": "address"
        }
      ],
      "name": "renounceRole",
      "outputs": [],
      "stateMutability": "nonpayable",
      "type": "function"
    },
    {
      "inputs": [],
      "name": "repay",
      "outputs": [],
      "stateMutability": "nonpayable",
      "type": "function"
    },
    {
      "inputs": [
        {
          "internalType": "bytes32",
          "name": "role",
          "type": "bytes32"
        },
        {
          "internalType": "address",
          "name": "account",
          "type": "address"
        }
      ],
      "name": "revokeRole",
      "outputs": [],
      "stateMutability": "nonpayable",
      "type": "function"
    },
    {
      "inputs": [
        {
          "internalType": "address",
          "name": "ownerAddress",
          "type": "address"
        }
      ],
      "name": "setDefault",
      "outputs": [],
      "stateMutability": "nonpayable",
      "type": "function"
    },
    {
      "inputs": [
        {
          "internalType": "uint128",
          "name": "establishmentFeeRate",
          "type": "uint128"
        },
        {
          "internalType": "address",
          "name": "ownerAddress",
          "type": "address"
        }
      ],
      "name": "setEstablishmentFeeRate",
      "outputs": [],
      "stateMutability": "nonpayable",
      "type": "function"
    },
    {
      "inputs": [
        {
          "internalType": "uint128",
          "name": "distributionRate",
          "type": "uint128"
        },
        {
          "internalType": "address",
          "name": "ownerAddress",
          "type": "address"
        }
      ],
      "name": "setLiquidityRewardsDistributionRate",
      "outputs": [],
      "stateMutability": "nonpayable",
      "type": "function"
    },
    {
      "inputs": [
        {
          "internalType": "uint128",
          "name": "maxBorrowableAmount",
          "type": "uint128"
        },
        {
          "internalType": "address",
          "name": "ownerAddress",
          "type": "address"
        }
      ],
      "name": "setMaxBorrowableAmount",
      "outputs": [],
      "stateMutability": "nonpayable",
      "type": "function"
    },
    {
      "inputs": [
        {
          "internalType": "uint128",
          "name": "repaymentFeeRate",
          "type": "uint128"
        },
        {
          "internalType": "address",
          "name": "ownerAddress",
          "type": "address"
        }
      ],
      "name": "setRepaymentFeeRate",
      "outputs": [],
      "stateMutability": "nonpayable",
      "type": "function"
    },
    {
      "inputs": [
        {
          "internalType": "bytes4",
          "name": "interfaceId",
          "type": "bytes4"
        }
      ],
      "name": "supportsInterface",
      "outputs": [
        {
          "internalType": "bool",
          "name": "",
          "type": "bool"
        }
      ],
      "stateMutability": "view",
      "type": "function"
    },
    {
      "inputs": [
        {
          "internalType": "uint128",
          "name": "amount",
          "type": "uint128"
        }
      ],
      "name": "topUpLiquidityRewards",
      "outputs": [],
      "stateMutability": "nonpayable",
      "type": "function"
    },
    {
      "inputs": [],
      "name": "unfreezePool",
      "outputs": [],
      "stateMutability": "nonpayable",
      "type": "function"
    },
    {
      "inputs": [
        {
          "internalType": "uint128",
          "name": "adjustedAmount",
          "type": "uint128"
        },
        {
          "internalType": "address",
          "name": "ownerAddress",
          "type": "address"
        },
        {
          "internalType": "uint128",
          "name": "oldRate",
          "type": "uint128"
        },
        {
          "internalType": "uint128",
          "name": "newRate",
          "type": "uint128"
        },
        {
          "internalType": "uint128",
          "name": "oldBondsIssuanceIndex",
          "type": "uint128"
        }
      ],
      "name": "updateRate",
      "outputs": [
        {
          "internalType": "uint128",
          "name": "newAdjustedAmount",
          "type": "uint128"
        },
        {
          "internalType": "uint128",
          "name": "newBondsIssuanceIndex",
          "type": "uint128"
        },
        {
          "internalType": "uint128",
          "name": "normalizedAmount",
          "type": "uint128"
        }
      ],
      "stateMutability": "nonpayable",
      "type": "function"
    },
    {
      "inputs": [
        {
          "internalType": "address",
          "name": "ownerAddress",
          "type": "address"
        },
        {
          "internalType": "uint128",
          "name": "rate",
          "type": "uint128"
        },
        {
          "internalType": "uint128",
          "name": "adjustedAmountToWithdraw",
          "type": "uint128"
        },
        {
          "internalType": "uint128",
          "name": "bondsIssuanceIndex",
          "type": "uint128"
        },
        {
          "internalType": "address",
          "name": "owner",
          "type": "address"
        }
      ],
      "name": "withdraw",
      "outputs": [
        {
          "internalType": "uint128",
          "name": "normalizedDepositedAmountToWithdraw",
          "type": "uint128"
        }
      ],
      "stateMutability": "nonpayable",
      "type": "function"
    }
  ],
  "transactionHash": "0x403aab920bd67747ea3f15d39e08674699204116186b7718d9cc7d577968f965",
  "args": [],
  "numDeployments": 1,
  "solcInputHash": "a44d47f00d436b23a82c0c58b92fb136",
  "bytecode": "0x608060405234801561001057600080fd5b50615f1480620000216000396000f3fe608060405234801561001057600080fd5b506004361061021a5760003560e01c806301ffc9a71461021f5780631ecfa93c1461024757806320992c4414610284578063248a9ca314610299578063265cd720146102ba57806327f90f0a146102da5780632f2ff15d1461035e578063326c62fa14610371578063344415901461039257806336568abe146103a5578063402d8883146103b857806345a4b417146103c0578063473d49721461040d57806347ce376f1461043c5780634c804cca146104845780635c975abb146104975780635d5f3f0e146104a25780635f3386db146104b5578063632805f8146104c8578063673a2a1f146104eb578063775ad527146105005780637e5660d9146105135780637f726e581461052657806387da02061461056257806391d148541461062457806392b06322146106375780639611d5dd1461064a57806399b55762146106525780639c68153e146106655780639d82aa3514610678578063a217fddf1461068b578063a480ca7914610693578063a5919727146106a6578063a6b896fd146106ee578063c3d31fce14610701578063c4d66de814610709578063c55ae0381461071c578063c8954db91461072f578063d547741f14610742578063db2de95214610755578063e06cffa814610768578063e823d5cf1461077b578063ec04205b1461078e578063f00bdd5114610842578063f27dd8ab14610855578063fe04d4c514610868575b600080fd5b61023261022d36600461528a565b610891565b60405190151581526020015b60405180910390f35b61025a6102553660046152e9565b6108c8565b604080516001600160801b039485168152928416602084015292169181019190915260600161023e565b61029761029236600461534b565b610afb565b005b6102ac6102a7366004615396565b610d09565b60405190815260200161023e565b6102cd6102c8366004615396565b610d1e565b60405161023e91906153bc565b6102ed6102e83660046153d0565b610d48565b604080516001600160a01b03909c168c526001600160801b039a8b1660208d0152988a16988b019890985295881660608a0152938716608089015291861660a0880152851660c0870152841660e086015283166101008501528216610120840152166101408201526101600161023e565b61029761036c3660046153ed565b610ed9565b61038461037f36600461541d565b610efa565b60405161023e92919061548e565b61025a6103a03660046154a8565b61117f565b6102976103b33660046153ed565b611430565b6102976114b3565b6103f56103ce3660046153d0565b6001600160a01b0316600090815260ca60205260409020600f01546001600160801b031690565b6040516001600160801b03909116815260200161023e565b61023261041b3660046153d0565b6001600160a01b0316600090815260ca602052604090206009015460ff1690565b6103f561044a3660046154fb565b6001600160a01b0391909116600090815260ca602090815260408083206001600160801b0394851684526010019091529020600401541690565b6103f56104923660046154fb565b611aac565b60975460ff16610232565b6103846104b0366004615529565b611b03565b6103f56104c3366004615585565b611d47565b6104db6104d6366004615529565b611ff4565b60405161023e94939291906155b3565b6104f3612111565b60405161023e91906155de565b61029761050e36600461562b565b612173565b610297610521366004615585565b6122bf565b6103f56105343660046153d0565b6001600160a01b0316600090815260ca60205260409020600a0154630100000090046001600160801b031690565b6105e26105703660046154fb565b6001600160a01b0391909116600090815260ca602090815260408083206001600160801b03948516845260100190915290206001810154600282015460038301546004840154600590940154600160801b80850487169793871696948516959285169492819004831693910490911690565b604080516001600160801b03978816815295871660208701529386169385019390935290841660608401528316608083015290911660a082015260c00161023e565b6102326106323660046153ed565b612379565b6103f5610645366004615649565b6123a4565b610297612639565b610297610660366004615585565b61265c565b610297610673366004615585565b612714565b6103846106863660046153d0565b6127ff565b6102ac600081565b6102976106a13660046153d0565b61298d565b6103846106b43660046153d0565b6001600160a01b0316600090815260ca6020526040902060078101546008909101546001600160801b03600160801b909204821692911690565b6102976106fc366004615585565b6129b6565b610297612a6e565b6102976107173660046153d0565b612a8e565b61029761072a36600461562b565b612c20565b61029761073d3660046156ac565b612d6e565b6102976107503660046153ed565b612f7e565b6102976107633660046154fb565b612f9a565b6102976107763660046154fb565b613573565b6102976107893660046153d0565b61359d565b61082a61079c3660046153d0565b6001600160a01b0316600090815260ca60205260409020600a810154600b820154600c830154600d840154600e9094015460ff80851696610100860482169662010000870490921695630100000090046001600160801b039081169581811695600160801b918290048316958382169591839004841694848316949284900483169383831693920490911690565b60405161023e9c9b9a999897969594939291906156c9565b610297610850366004615765565b613901565b6103f56108633660046153d0565b613e74565b6102cd6108763660046153d0565b60c9602052600090815260409020546001600160a01b031681565b60006001600160e01b03198216637965db0b60e01b14806108c257506301ffc9a760e01b6001600160e01b03198316145b92915050565b6001600160a01b038216600090815260ca6020526040808220905163839a9c2960e01b815260048101919091528215156024820152819081908190737964740c2373760B3FE3a3685D9eDDeDA16880b99063839a9c299060440160206040518083038186803b15801561093a57600080fd5b505af415801561094e573d6000803e3d6000fd5b505050506040513d601f19601f82011682018060405250810190610972919061577e565b6001600160a01b038716600090815260ca6020526040908190209051631d398d8d60e21b8152919250610a2c918391737964740c2373760B3FE3a3685D9eDDeDA16880b9916374e63634916109cd9160040190815260200190565b60206040518083038186803b1580156109e557600080fd5b505af41580156109f9573d6000803e3d6000fd5b505050506040513d601f19601f82011682018060405250810190610a1d919061577e565b6001600160801b031690613eba565b6001600160a01b038716600090815260ca60205260409020909350737964740c2373760B3FE3a3685D9eDDeDA16880b990635ccb5f2f90610a6d86856157b1565b6040518363ffffffff1660e01b8152600401610a8a9291906157dc565b60206040518083038186803b158015610aa257600080fd5b505af4158015610ab6573d6000803e3d6000fd5b505050506040513d601f19601f82011682018060405250810190610ada919061577e565b915082610ae783836157b1565b610af191906157b1565b9350509250925092565b600080516020615e5f833981519152610b1381613ed9565b6001600160a01b038416600090815260ca6020526040812060010154610b4d906001600160801b03861690600160a01b900460ff16613ee3565b6001600160a01b03808716600081815260ca6020526040902054929350911614610b8a57604051630951899960e01b815260040160405180910390fd5b6001600160a01b038516600090815260cc60205260409020546001600160801b039081169082161115610bd057604051639f747ffd60e01b815260040160405180910390fd5b6001600160a01b038516600090815260cc602052604081208054839290610c019084906001600160801b03166157f3565b82546001600160801b039182166101009390930a9283029190920219909116179055506001600160a01b03808616600090815260ca6020526040908190206002810154600191909101549151631a4ca37b60e21b8152908316926369328dec92610c74929116908890889060040161581b565b602060405180830381600087803b158015610c8e57600080fd5b505af1158015610ca2573d6000803e3d6000fd5b505050506040513d601f19601f82011682018060405250810190610cc69190615847565b507f4e7e16de98f6ba9d5f9254bd51366fd84453a61f6d5767ffc4b00d97d696c50f858285604051610cfa9392919061581b565b60405180910390a15050505050565b60009081526065602052604090206001015490565b60cb8181548110610d2e57600080fd5b6000918252602090912001546001600160a01b0316905081565b6000806000806000806000806000806000610d896040518060400160405280600f81526020016e706f6f6c20706172616d657465727360881b815250613f15565b6001600160a01b038c16600090815260ca60205260409020610dab6001613f58565b8060010160009054906101000a90046001600160a01b03168160030160009054906101000a90046001600160801b03168260030160109054906101000a90046001600160801b03168360040160009054906101000a90046001600160801b03168460040160109054906101000a90046001600160801b03168560050160009054906101000a90046001600160801b03168660050160109054906101000a90046001600160801b03168760060160009054906101000a90046001600160801b03168860060160109054906101000a90046001600160801b03168960070160009054906101000a90046001600160801b03168a60080160109054906101000a90046001600160801b03169b509b509b509b509b509b509b509b509b509b509b505091939597999b90929496989a50565b610ee282610d09565b610eeb81613ed9565b610ef58383613f9d565b505050565b600080610f05614023565b600080516020615ebf833981519152610f1d81613ed9565b6001600160a01b038716600090815260ca60205260409020600a810154610100900460ff1615610f605760405163056efc7b60e01b815260040160405180910390fd5b600a81015460ff16610f855760405163c6d9b58160e01b815260040160405180910390fd5b60018101546001600160a01b03888116911614610fb55760405163623957d360e01b815260040160405180910390fd5b60038101546001600160801b03908116908a161015610fe75760405163fca6b5cd60e01b815260040160405180910390fd5b60038101546001600160801b03600160801b9091048116908a161115611020576040516393c139e960e01b815260040160405180910390fd5b600481015460038201546001600160801b039182169161104191168b6157f3565b61104b9190615876565b6001600160801b0316156110725760405163270955a760e01b815260040160405180910390fd5b604051631cd2ca1960e11b815260009450849350737964740c2373760B3FE3a3685D9eDDeDA16880b9906339a59432906110b49084908d908a9060040161589c565b604080518083038186803b1580156110cb57600080fd5b505af41580156110df573d6000803e3d6000fd5b505050506040513d601f19601f8201168201806040525081019061110391906158bb565b604051636839a26160e01b81529195509350737964740c2373760B3FE3a3685D9eDDeDA16880b990636839a261906111439084908a908a906004016158ea565b60006040518083038186803b15801561115b57600080fd5b505af415801561116f573d6000803e3d6000fd5b5050505050509550959350505050565b600080600061118c614023565b600080516020615ebf8339815191526111a481613ed9565b6001600160a01b038816600090815260ca60205260409020600a81015462010000900460ff16156111e85760405163056efc7b60e01b815260040160405180910390fd5b60006111f68a8a8d8a611b03565b5090506001600160801b0381161561122157604051630d290b7960e31b815260040160405180910390fd5b60038201546001600160801b0390811690891610156112535760405163fca6b5cd60e01b815260040160405180910390fd5b60038201546001600160801b03600160801b9091048116908916111561128c576040516393c139e960e01b815260040160405180910390fd5b600482015460038301546001600160801b03918216916112ad91168a6157f3565b6112b79190615876565b6001600160801b0316156112de5760405163270955a760e01b815260040160405180910390fd5b60006112fe6112ee848c8b61406b565b6001600160801b038e16906140b6565b604051636ef48f5760e01b8152909150737964740c2373760B3FE3a3685D9eDDeDA16880b990636ef48f579061133e9086908e9086908e90600401615912565b60206040518083038186803b15801561135657600080fd5b505af415801561136a573d6000803e3d6000fd5b505050506040513d601f19601f8201168201806040525081019061138e919061577e565b604051631cd2ca1960e11b8152909550737964740c2373760B3FE3a3685D9eDDeDA16880b9906339a59432906113cc9086908d908a9060040161589c565b604080518083038186803b1580156113e357600080fd5b505af41580156113f7573d6000803e3d6000fd5b505050506040513d601f19601f8201168201806040525081019061141b91906158bb565b909d909c50949a509398505050505050505050565b6001600160a01b03811633146114a55760405162461bcd60e51b815260206004820152602f60248201527f416363657373436f6e74726f6c3a2063616e206f6e6c792072656e6f756e636560448201526e103937b632b9903337b91039b2b63360891b60648201526084015b60405180910390fd5b6114af82826140e5565b5050565b6114bb614023565b600080516020615e7f8339815191526114d381613ed9565b33600090815260ca60205260409020600a810154630100000090046001600160801b03161580156115145750600a81015460ff610100909104161515600114155b1561153257604051631e13931b60e21b815260040160405180910390fd5b600a8101544263010000009091046001600160801b03161180801561155c5750600982015460ff16155b1561157a57604051632b604eef60e01b815260040160405180910390fd5b6115838261414c565b604051631d398d8d60e21b815260048101839052600090819081908190737964740c2373760B3FE3a3685D9eDDeDA16880b9906374e636349060240160206040518083038186803b1580156115d757600080fd5b505af41580156115eb573d6000803e3d6000fd5b505050506040513d601f19601f8201168201806040525081019061160f919061577e565b600c870154909150600160801b90046001600160801b03165b60038701546001600160801b03600160801b90910481169082161161173c57604051634de6e91560e01b81526000908190737964740c2373760B3FE3a3685D9eDDeDA16880b990634de6e91590611687908c908790899060040161589c565b604080518083038186803b15801561169e57600080fd5b505af41580156116b2573d6000803e3d6000fd5b505050506040513d601f19601f820116820180604052508101906116d691906158bb565b90925090506116e581836157b1565b6116ef90866157b1565b94506116fb81886157b1565b9650600061170a8a8589614253565b905080806117155750865b60048b015490975061173593506001600160801b031691508390506157b1565b9050611628565b50604051635ccb5f2f60e01b8152600090737964740c2373760B3FE3a3685D9eDDeDA16880b990635ccb5f2f90611779908a9087906004016157dc565b60206040518083038186803b15801561179157600080fd5b505af41580156117a5573d6000803e3d6000fd5b505050506040513d601f19601f820116820180604052508101906117c9919061577e565b90506117d581846157b1565b604051636839a26160e01b8152909350737964740c2373760B3FE3a3685D9eDDeDA16880b990636839a26190611813908a90339088906004016158ea565b60006040518083038186803b15801561182b57600080fd5b505af415801561183f573d6000803e3d6000fd5b505050600688015461185b91506001600160801b0316426157b1565b600d880180546001600160801b039283166001600160801b031991821617909155600b89018054909116905533600090815260cc60205260408120805484939192916118a9918591166157b1565b92506101000a8154816001600160801b0302191690836001600160801b031602179055508287600a0160020160008282829054906101000a90046001600160801b03166118f691906157b1565b82546101009290920a6001600160801b038181021990931691831602179091556006890154600a8a015461193e9350600160801b9091048216916301000000909104166157b1565b6001600160801b03164211156119be57600c870154600d880154604080516001600160801b038088168252808a16602083015280861692820192909252928116606084015216608082015233907f8122edb1a4917454f85f9b09704f29ed2116612cc8f1a2554b80097dceeb5a839060a0015b60405180910390a2611a7e565b600a8701544263010000009091046001600160801b03161115611a2857600c870154600d88015460405133927fc6db71f000708261529893214115dc775666bfdeffe2ae11b7fe243ee0353e5d926119b192889287926001600160801b03918216929116906155b3565b600c870154600d88015460405133927f85aff561fe55576b612fb98de2b2b1b5f64d13c985973d75b6cc4a09376155f192611a7592889287926001600160801b03918216929116906155b3565b60405180910390a25b505050600a840180546301000000600160981b0319169055505050600b0180546001600160801b0316905550565b6001600160a01b038216600090815260ca602090815260408083206001600160801b038086168552601090910190925290912060040154600160801b900416806108c25750676765c793fa10079d601b1b92915050565b6001600160a01b03808516600090815260ca60209081526040808320600281015482516325b0985360e21b81529251949586959294869492909116926396c2614c926004808201939291829003018186803b158015611b6157600080fd5b505afa158015611b75573d6000803e3d6000fd5b505050506040513d601f19601f82011682018060405250810190611b999190615847565b600e8301549091506001600160801b03600160801b90910481169086161115611bdc576000611bd16001600160801b038816836140b6565b935093505050611d3e565b604051633d29c20960e01b8152600090737964740c2373760B3FE3a3685D9eDDeDA16880b990633d29c20990611c1c9086908c908c908c90600401615912565b604080518083038186803b158015611c3357600080fd5b505af4158015611c47573d6000803e3d6000fd5b505050506040513d601f19601f82011682018060405250810190611c6b91906158bb565b9095509050600080611c7e858b866144a1565b5050604051632ca9e11360e11b81529193509150600090737964740c2373760B3FE3a3685D9eDDeDA16880b990635953c22690611cc59089908f9089908890600401615912565b60206040518083038186803b158015611cdd57600080fd5b505af4158015611cf1573d6000803e3d6000fd5b505050506040513d601f19601f82011682018060405250810190611d15919061577e565b905080611d2b6001600160801b038616856140b6565b611d3591906157b1565b96505050505050505b94509492505050565b6001600160a01b038116600090815260ca60205260408120600a8101548190630100000090046001600160801b0316151580611d8c5750600a820154610100900460ff165b80611da15750600a82015462010000900460ff165b80611db15750600a82015460ff16155b15611dc1576000925050506108c2565b60048201546001600160801b03600160801b90910481169086161115611df9576004820154600160801b90046001600160801b031694505b6002810154604080516325b0985360e21b815290516000926001600160a01b0316916396c2614c916004808301926020929190829003018186803b158015611e4057600080fd5b505afa158015611e54573d6000803e3d6000fd5b505050506040513d601f19601f82011682018060405250810190611e789190615847565b60038401549091506001600160801b03168660005b60048501546003860154611eb4916001600160801b0390811691600160801b9004166157b1565b6001600160801b0316836001600160801b031614611fa1576000611ed98785876144a1565b5050506001600160801b03808616600090815260108a01602052604081206002015492935091611f0a9116836140b6565b9050836001600160801b0316816001600160801b03161015611f5657611f3081856157f3565b9350611f456001600160801b03821686613eba565b611f4f90846157b1565b9250611f80565b611f696001600160801b03851686613eba565b611f7390846157b1565b9250600093505050611fa1565b50506004850154611f9a906001600160801b0316846157b1565b9250611e8d565b816001600160801b0316896001600160801b03161415611fca57600096505050505050506108c2565b611fe7611fd7838b6157f3565b6001600160801b0383169061465b565b9998505050505050505050565b6001600160a01b038416600090815260ca60205260408120600a8101548291829182919060ff166120385760405163c6d9b58160e01b815260040160405180910390fd5b604051633d29c20960e01b8152737964740c2373760B3FE3a3685D9eDDeDA16880b990633d29c209906120759084908c908c908c90600401615912565b604080518083038186803b15801561208c57600080fd5b505af41580156120a0573d6000803e3d6000fd5b505050506040513d601f19601f820116820180604052508101906120c491906158bb565b955092506120e66120d6828a8961406b565b6001600160801b03871690614673565b935080600a0160000160039054906101000a90046001600160801b0316915050945094509450949050565b606060cb80548060200260200160405190810160405280929190818152602001828054801561216957602002820191906000526020600020905b81546001600160a01b0316815260019091019060200180831161214b575b5050505050905090565b600080516020615e5f83398151915261218b81613ed9565b6001600160a01b0382166121b257604051635342e0a760e11b815260040160405180910390fd5b6001600160a01b0383166121d95760405163f15e745f60e01b815260040160405180910390fd5b6001600160a01b03808316600081815260ca60205260409020549091161461221457604051630951899960e01b815260040160405180910390fd5b6001600160a01b03808316600090815260ca602052604090205484821691161461225157604051637e1c4b1160e11b815260040160405180910390fd5b6001600160a01b03838116600090815260c960205260409081902080546001600160a01b03191692851692909217909155517fa0bdc0fbc09f4ed7d0e01a12537839d8bd60334a4bfa65f0053c2d6972b4c984906122b29085908590615939565b60405180910390a1505050565b600080516020615e5f8339815191526122d781613ed9565b6001600160a01b038216600090815260ca60205260409020600a015460ff1661231357604051630951899960e01b815260040160405180910390fd5b6001600160a01b038216600090815260ca60205260409081902060080180546001600160801b0319166001600160801b038616179055517ff81f6b13c0f245c7eb66e6de718d94a737f90b621fc61e666430cdcba6cf847c906122b29085908590615953565b60009182526065602090815260408084206001600160a01b0393909316845291905290205460ff1690565b60006123ae614023565b600080516020615ebf8339815191526123c681613ed9565b6001600160a01b038716600090815260ca60205260409020600e8101546123fe90600160801b90046001600160801b031660016157b1565b6001600160801b0316856001600160801b031611156124305760405163019894df60e21b815260040160405180910390fd5b600e8101546001600160801b03600160801b90910481169086161180158161247657506001600160801b0380891660009081526010840160205260409020600201541615155b806124a757508080156124a757506001600160801b0380891660009081526010840160205260409020600301541615155b6124c45760405163436ec62560e01b815260040160405180910390fd5b6000876001600160801b0316116124ee57604051636ba603b360e11b815260040160405180910390fd5b604051636ef48f5760e01b8152737964740c2373760B3FE3a3685D9eDDeDA16880b990636ef48f579061252b9085908c908c908c90600401615912565b60206040518083038186803b15801561254357600080fd5b505af4158015612557573d6000803e3d6000fd5b505050506040513d601f19601f8201168201806040525081019061257b919061577e565b600283015460018401549195506001600160a01b03908116916369328dec918116906125bb906001600160801b03891690600160a01b900460ff1661469d565b886040518463ffffffff1660e01b81526004016125da9392919061581b565b602060405180830381600087803b1580156125f457600080fd5b505af1158015612608573d6000803e3d6000fd5b505050506040513d601f19601f8201168201806040525081019061262c9190615847565b5050505095945050505050565b600080516020615e5f83398151915261265181613ed9565b6126596146c6565b50565b600080516020615e5f83398151915261267481613ed9565b6001600160a01b03808316600081815260ca6020526040902054909116146126af57604051630951899960e01b815260040160405180910390fd5b6001600160a01b038216600090815260ca60205260409081902060050180546001600160801b03808716600160801b029116179055517f67c55291cb70b5f0144aae4118b87e726866a80bda106e58e132aa625551f857906122b29085908590615953565b600080516020615e5f83398151915261272c81613ed9565b6001600160a01b038216600090815260ca60205260409020600a015460ff1661276857604051630951899960e01b815260040160405180910390fd5b670de0b6b3a7640000836001600160801b0316111561279a57604051633dedb6cb60e21b815260040160405180910390fd5b6001600160a01b038216600090815260ca60205260409081902060070180546001600160801b03808716600160801b029116179055517fefec478f5ee0b516cbe859014d4830648217ffb71b235c17f0015a12a4de224b906122b29085908590615953565b6001600160a01b038116600090815260ca60205260408120600a8101548291908190630100000090046001600160801b031661285b57600482015461285490600160801b90046001600160801b031686611d47565b9350612986565b600381015460009081906001600160801b03165b60048401546003850154612896916001600160801b0390811691600160801b9004166157b1565b6001600160801b0316816001600160801b03161461296d576001600160801b0380821660009081526010870160205260409020600301546128e091600160801b9091041682613eba565b6128ea90846157b1565b6001600160801b03808316600090815260108801602052604090206003015491945061291e91600160801b900416836157b1565b6001600160801b03808316600090815260108801602052604090206003015491935061294b9116876157b1565b6004850154909650612966906001600160801b0316826157b1565b905061286f565b6129806001600160801b0384168361465b565b96505050505b5050915091565b612995614023565b6001600160a01b038116600090815260ca602052604090206114af8161414c565b600080516020615e5f8339815191526129ce81613ed9565b6001600160a01b03808316600081815260ca602052604090205490911614612a0957604051630951899960e01b815260040160405180910390fd5b6001600160a01b038216600090815260ca60205260409081902060040180546001600160801b03808716600160801b029116179055517f1451569f54a4226b25194b628ff0b7be59bf83e6d5f74b486b88d45d7d80d9b4906122b29085908590615953565b600080516020615e5f833981519152612a8681613ed9565b612659614712565b600054610100900460ff1615808015612aae5750600054600160ff909116105b80612ac85750303b158015612ac8575060005460ff166001145b612b2b5760405162461bcd60e51b815260206004820152602e60248201527f496e697469616c697a61626c653a20636f6e747261637420697320616c72656160448201526d191e481a5b9a5d1a585b1a5e995960921b606482015260840161149c565b6000805460ff191660011790558015612b4e576000805461ff0019166101001790555b612b5661474f565b6001600160a01b038216612b68573391505b612b73600083613f9d565b612b8b600080516020615e5f83398151915283613f9d565b612bb1600080516020615e7f833981519152600080516020615e5f833981519152614786565b612bd7600080516020615ebf833981519152600080516020615e5f833981519152614786565b80156114af576000805461ff0019169055604051600181527f7f26b83ff96e1f2b6a682f133852f6798a09c465da95921460cefb38474024989060200160405180910390a15050565b600080516020615e5f833981519152612c3881613ed9565b6001600160a01b038216612c5f57604051635342e0a760e11b815260040160405180910390fd5b6001600160a01b038316612c865760405163f15e745f60e01b815260040160405180910390fd5b6001600160a01b03808316600081815260ca602052604090205490911614612cc157604051630951899960e01b815260040160405180910390fd5b6001600160a01b03808316600090815260ca6020526040902054848216911614612cfe57604051637e1c4b1160e11b815260040160405180910390fd5b612d16600080516020615e7f83398151915284612f7e565b6001600160a01b038316600090815260c960205260409081902080546001600160a01b0319169055517f02e49619408521be07696ec96b8ec59295aca0b168326260f1a22059631e2cdf906122b29085908590615939565b612d76614023565b600080516020615e7f833981519152612d8e81613ed9565b33600090815260ca602052604081206001810154909190612dc3906001600160801b03861690600160a01b900460ff16613ee3565b604051636839a26160e01b8152909150737964740c2373760B3FE3a3685D9eDDeDA16880b990636839a26190612e01908590339086906004016158ea565b60006040518083038186803b158015612e1957600080fd5b505af4158015612e2d573d6000803e3d6000fd5b5050604051631a727b1960e31b815260009250737964740c2373760B3FE3a3685D9eDDeDA16880b9915063d393d8c890612e6d90869086906004016157dc565b60206040518083038186803b158015612e8557600080fd5b505af4158015612e99573d6000803e3d6000fd5b505050506040513d601f19601f82011682018060405250810190612ebd919061577e565b600a84015490915060ff16158015612f0657506008830154600d8401546001600160801b03600160801b92839004811692612efa920416836140b6565b6001600160801b031610155b15612f4d57600a8301805460ff191660011790558254604051600080516020615e9f83398151915291612f44916001600160a01b03909116906153bc565b60405180910390a15b7f55f3f2d2c632a076fddf6794d5cf693ea328d5223bd13d099d4a4bc5005f4a8f3383604051610cfa929190615975565b612f8782610d09565b612f9081613ed9565b610ef583836140e5565b612fa2614023565b33600090815260c960209081526040808320546001600160a01b0316835260ca9091529020600a810154610100900460ff1615612ff25760405163056efc7b60e01b815260040160405180910390fd5b600a810154630100000090046001600160801b0316158015906130285750600a810154630100000090046001600160801b031642115b1561304657604051630fda546f60e41b815260040160405180910390fd5b600181015460009061306c906001600160801b03851690600160a01b900460ff16613ee3565b6007830154909150600090613094906001600160801b0380851691600160801b900416613eba565b905060006130a282846157f3565b6004850154600b8601549192506001600160801b03600160801b918290048116926130d19287929104166157b1565b6001600160801b031611156130f95760405163aab4fe5160e01b815260040160405180910390fd5b600d8401546001600160801b03164210156131275760405163af26604960e01b815260040160405180910390fd5b6131308461414c565b600c8401546001600160801b0390811690841681101561316357604051634421566d60e11b815260040160405180910390fd5b6004850154600c860154859160009161318f916001600160801b0390811691600160801b9004166157f3565b90505b6000826001600160801b03161180156131c2575060038701546001600160801b03600160801b9091048116908216105b1561331e5760048701546131df906001600160801b0316826157b1565b6001600160801b03808216600090815260108a016020526040902060020154919250161561331957604051634c5e028760e11b81526000908190737964740c2373760B3FE3a3685D9eDDeDA16880b9906398bc050e90613247908c908790899060040161589c565b604080518083038186803b15801561325e57600080fd5b505af4158015613272573d6000803e3d6000fd5b505050506040513d601f19601f8201168201806040525081019061329691906158bb565b60405163ca8701f360e01b81529193509150737964740c2373760B3FE3a3685D9eDDeDA16880b99063ca8701f3906132d8908c90879087908790600401615912565b60006040518083038186803b1580156132f057600080fd5b505af4158015613304573d6000803e3d6000fd5b50505050808461331491906157f3565b935050505b613192565b6001600160801b0382161561334657604051630f0b666f60e01b815260040160405180910390fd5b600a870154630100000090046001600160801b03166133e5576005870154613377906001600160801b031642615997565b600a880180546001600160801b03929092166301000000026301000000600160981b031990921691909117905560405133907fb238c9bb6ccde03fef7caa4e124c6dff77f0a5b70c7df429eb8f37bd3a48f8ba906133d8908790899061548e565b60405180910390a2613429565b336001600160a01b03167faad6575ebfd3574ba48d8611bd3c09b1e51c4ff7ca6980f6eacac7b7ac367315858760405161342092919061548e565b60405180910390a25b33600090815260cc6020526040812080548792906134519084906001600160801b03166157b1565b92506101000a8154816001600160801b0302191690836001600160801b031602179055508587600a0160010160108282829054906101000a90046001600160801b031661349e91906157b1565b82546101009290920a6001600160801b03818102199093169183160217909155600289015460018a01546001600160a01b0391821693506369328dec92918116916134f69190891690600160a01b900460ff1661469d565b8c6040518463ffffffff1660e01b81526004016135159392919061581b565b602060405180830381600087803b15801561352f57600080fd5b505af1158015613543573d6000803e3d6000fd5b505050506040513d601f19601f820116820180604052508101906135679190615847565b50505050505050505050565b61357b614023565b6001600160a01b038216600090815260ca60205260409020610ef581836147d9565b600080516020615e5f8339815191526135b581613ed9565b6001600160a01b038216600090815260ca60205260409020600a810154610100900460ff16156135f7576040516209157360e41b815260040160405180910390fd5b600a810154630100000090046001600160801b031661362957604051633aa99c9b60e01b815260040160405180910390fd5b6006810154600a820154613657916001600160801b03600160801b90910481169163010000009004166157b1565b6001600160801b031642101561368057604051632b797db960e11b815260040160405180910390fd5b600a8101805461010061ff0019909116179055600f810180546001600160801b031916426001600160801b0316179055604051631d8e67b960e31b815260048101829052600090737964740c2373760B3FE3a3685D9eDDeDA16880b99063ec733dc89060240160206040518083038186803b1580156136fe57600080fd5b505af4158015613712573d6000803e3d6000fd5b505050506040513d601f19601f82011682018060405250810190613736919061577e565b600d830154909150600090600160801b90046001600160801b0316156138d0576002830154604080516325b0985360e21b815290516000926001600160a01b0316916396c2614c916004808301926020929190829003018186803b15801561379d57600080fd5b505afa1580156137b1573d6000803e3d6000fd5b505050506040513d601f19601f820116820180604052508101906137d59190615847565b600d8501549091506137f790600160801b90046001600160801b0316826140b6565b600d850180546001600160801b0390811690915560028601546001600160a01b03898116600090815260ca6020526040902060019081015490890154949650918116936369328dec93929091169161385c9190871690600160a01b900460ff1661469d565b336040518463ffffffff1660e01b815260040161387b9392919061581b565b602060405180830381600087803b15801561389557600080fd5b505af11580156138a9573d6000803e3d6000fd5b505050506040513d601f19601f820116820180604052508101906138cd9190615847565b50505b7f846077ed9bc731d4a55621c64a72a5dcdb1c047b3de22f546d448b992e34d87b8583604051610cfa929190615975565b61390a8161489c565b604051806102200160405280336001600160a01b0316815260200182602001602081019061393891906153d0565b6001600160a01b0316815260200182602001602081019061395991906153d0565b6001600160a01b031663313ce5676040518163ffffffff1660e01b815260040160206040518083038186803b15801561399157600080fd5b505afa1580156139a5573d6000803e3d6000fd5b505050506040513d601f19601f820116820180604052508101906139c991906159af565b60ff1681526020016139e160608401604085016153d0565b6001600160a01b031681526020016139ff60808401606085016156ac565b6001600160801b03168152602001613a1d60a08401608085016156ac565b6001600160801b03168152602001613a3b60c0840160a085016156ac565b6001600160801b03168152602001613a5960e0840160c085016156ac565b6001600160801b03168152602001613a78610100840160e085016156ac565b6001600160801b03168152602001613a98610120840161010085016156ac565b6001600160801b03168152602001613ab8610140840161012085016156ac565b6001600160801b03168152602001613ad8610160840161014085016156ac565b6001600160801b03168152602001613af8610180840161016085016156ac565b6001600160801b03168152602001613b186101a0840161018085016156ac565b6001600160801b03168152602001613b386101c084016101a085016156ac565b6001600160801b03168152602001613b586101e084016101c085016156ac565b6001600160801b03168152602001613b7861020084016101e085016159d2565b1515905233600090815260ca6020908152604091829020835181546001600160a01b03199081166001600160a01b0392831617835592850151600183018054878701519284166001600160a81b031990911617600160a01b60ff90931692909202919091179055606080860151600284018054909516921691909117909255608084015160a08501516001600160801b03918216600160801b918316820217600384015560c086015160e08701519083169083168202176004840155610100860151610120870151908316908316820217600584015561014086015161016087015190831690831682021760068401556101808601516101a087015190831690831682021760078401556101c08601516101e0870151908316921602176008820155610200909301516009909301805460ff191693151593909317909255613cc49183019083016153d0565b6001600160a01b03166396c2614c6040518163ffffffff1660e01b815260040160206040518083038186803b158015613cfc57600080fd5b505afa158015613d10573d6000803e3d6000fd5b505050506040513d601f19601f82011682018060405250810190613d349190615847565b33600081815260ca60209081526040808320600e0180546001600160801b0319166001600160801b03969096169590951790945560c9905282812080546001600160a01b0319908116841790915560cb805460018101825592527fa7ce836d032b2bf62b7e2097a8e0a6d8aeb35405ad15271e96d3b0188a1d06fb90910180549091169091179055517fa77a23a7d9735be89f9068c8700c055a4e28b9199f9370c5f761b436e5ee010390613dea9083906159ed565b60405180910390a133600090815260ca6020526040902060080154600160801b90046001600160801b03166126595733600090815260ca602052604090819020600a8101805460ff19166001179055549051600080516020615e9f83398151915291613e62916001600160a01b0391909116906153bc565b60405180910390a16126596003613f58565b6001600160a01b038116600090815260ca602090815260408083206001015460cc9092528220546108c2916001600160801b0390911690600160a01b900460ff1661469d565b6000613ed26001600160801b0384811690841661499f565b9392505050565b6126598133614a2a565b6000613ef082600a615c7d565b613f0b670de0b6b3a76400006001600160801b038616615c89565b613ed29190615ca8565b61265981604051602401613f299190615ce8565b60408051601f198184030181529190526020810180516001600160e01b031663104c13eb60e21b179052614a8e565b61265981604051602401613f6e91815260200190565b60408051601f198184030181529190526020810180516001600160e01b031663f82c50f160e01b179052614a8e565b613fa78282612379565b6114af5760008281526065602090815260408083206001600160a01b03851684529091529020805460ff19166001179055613fdf3390565b6001600160a01b0316816001600160a01b0316837f2f8788117e7eff1d82e926ec794901d17c78024a50270940304540a733656f0d60405160405180910390a45050565b60975460ff16156140695760405162461bcd60e51b815260206004820152601060248201526f14185d5cd8589b194e881c185d5cd95960821b604482015260640161149c565b565b6001600160801b03808316600090815260108501602090815260408083208585168452918290529091205490911690816140ae57676765c793fa10079d601b1b91505b509392505050565b6000613ed26140e0836001600160801b03166140da866001600160801b0316614aaf565b90614aee565b614b6b565b6140ef8282612379565b156114af5760008281526065602090815260408083206001600160a01b0385168085529252808320805460ff1916905551339285917ff6391f5c32d9c69d2a47ea670b442974b53935d1edc7fd64eb21e047a839171b9190a45050565b6002810154604080516325b0985360e21b815290516000926001600160a01b0316916396c2614c916004808301926020929190829003018186803b15801561419357600080fd5b505afa1580156141a7573d6000803e3d6000fd5b505050506040513d601f19601f820116820180604052508101906141cb9190615847565b600c830154909150600160801b90046001600160801b03165b60038301546001600160801b03600160801b90910481169082161161422d5761420e838284614bc4565b6004830154614226906001600160801b0316826157b1565b90506141e4565b50600e9190910180546001600160801b0319166001600160801b03909216919091179055565b6001600160801b0380831660009081526010850160205260408120600381015491929091161561449657826142cf57600e85018054600191906010906142aa908490600160801b90046001600160801b03166157b1565b92506101000a8154816001600160801b0302191690836001600160801b031602179055505b6004810154600e8601546142f7916001600160801b0391821691600160801b90910416614e2e565b600e86018054600160801b908190046001600160801b0390811660009081526020869052604080822080546001600160801b0319169684169690961790955592549190910481168252918120546003840154919261435892811691166140b6565b600e870154600384015491925061437b916001600160801b0390811691166140b6565b600c870180546000906143989084906001600160801b03166157b1565b92506101000a8154816001600160801b0302191690836001600160801b03160217905550808260010160108282829054906101000a90046001600160801b03166143e291906157b1565b82546101009290920a6001600160801b038181021990931691831602179091556001840154600285018054600160801b90920483166001600160801b031992831617905560038501805490911690558754604080516001600160a01b039092168252888316602083015291841691810191909152851560608201527fd56b2e5a640a6b5979db99e9a69997e0e14f83b4edabdfce985a1f7be59647c7915060800160405180910390a1600192505050613ed2565b506000949350505050565b6001600160801b0380831660009081526010850160205260408120600481015491928392839283929091600160801b9004166144eb57856000806000945094509450945050614652565b60048101546005820154600e8a01546001600160801b03600160801b938490048116985092820483169650600092918216911611156145385750600e8801546001600160801b0316614548565b5060058101546001600160801b03165b61455281886157f3565b925061455e8989614e46565b600d8a015490945060009061458390600160801b90046001600160801b0316896140b6565b9050806001600160801b0316856001600160801b031611156145a3578094505b600a8a0154630100000090046001600160801b031661461d576145c684886157b1565b60028401549097506001600160801b03161561461857600283015461460b906001600160801b03908116906145fc908816614f1c565b6001600160801b03169061465b565b61461590886157b1565b96505b61464e565b60028301548590614637906001600160801b0316866140b6565b61464191906157b1565b61464b90876157b1565b95505b5050505b93509350935093565b6000613ed26001600160801b03848116908416614f30565b6000613ed26140e0836001600160801b0316614697866001600160801b0316614aaf565b90614fc5565b6000670de0b6b3a76400006146b383600a615c7d565b613f0b906001600160801b038616615c89565b6146ce61504c565b6097805460ff191690557f5db9ee0a495bf2e6ff9c91a7834c1ba4fdd244a5e8aa4e537bd38aeae4b073aa335b60405161470891906153bc565b60405180910390a1565b61471a614023565b6097805460ff191660011790557f62e78cea01bee320cd4e420270b5ea74000d11b0c9f74754ebdbfc544b05a2586146fb3390565b600054610100900460ff166147765760405162461bcd60e51b815260040161149c90615d1b565b61477e615095565b6140696150bc565b600061479183610d09565b600084815260656020526040808220600101859055519192508391839186917fbd79b86ffe0ab8e8776151514217cd7cacd52c909f66475c3af44e129f0b00ff9190a4505050565b6002820154604080516325b0985360e21b815290516000926001600160a01b0316916396c2614c916004808301926020929190829003018186803b15801561482057600080fd5b505afa158015614834573d6000803e3d6000fd5b505050506040513d601f19601f820116820180604052508101906148589190615847565b9050614865838383614bc4565b6001600160801b039182166000908152601090930160205260409092206005018054919092166001600160801b0319909116179055565b6148ac60c0820160a083016156ac565b6148bc60808301606084016156ac565b6148cc60a08401608085016156ac565b6148d691906157f3565b6148e09190615876565b6001600160801b031615614907576040516334cc2fed60e01b815260040160405180910390fd5b3361492557604051635342e0a760e11b815260040160405180910390fd5b33600090815260ca60205260409020546001600160a01b03161561495c57604051631953bac160e11b815260040160405180910390fd5b670de0b6b3a76400006149776101a0830161018084016156ac565b6001600160801b0316111561265957604051633dedb6cb60e21b815260040160405180910390fd5b60008215806149ac575081155b156149b9575060006108c2565b816149cd6002670de0b6b3a7640000615ca8565b6149d990600019615d66565b6149e39190615ca8565b831115614a025760405162a748d160e21b815260040160405180910390fd5b670de0b6b3a7640000614a16600282615ca8565b614a208486615c89565b613f0b9190615997565b614a348282612379565b6114af57614a4c816001600160a01b031660146150ef565b614a578360206150ef565b604051602001614a68929190615d7d565b60408051601f198184030181529082905262461bcd60e51b825261149c91600401615ce8565b80516a636f6e736f6c652e6c6f67602083016000808483855afa5050505050565b600080614ac0633b9aca0084615c89565b905082614ad1633b9aca0083615ca8565b146108c25760405162a748d160e21b815260040160405180910390fd5b6000821580614afb575081155b15614b08575060006108c2565b81614b1f6002676765c793fa10079d601b1b615ca8565b614b2b90600019615d66565b614b359190615ca8565b831115614b545760405162a748d160e21b815260040160405180910390fd5b676765c793fa10079d601b1b614a16600282615ca8565b600080614b7d6002633b9aca00615ca8565b90506000614b8b8483615997565b905081811015614bae576040516307af724160e11b815260040160405180910390fd5b614bbc633b9aca0082615ca8565b949350505050565b6001600160801b0380831660009081526010850160205260409020600481015490914291161015614e28576000808080614bff8888886144a1565b92965090945092509050614c1c6001600160801b03831687614673565b600d89018054601090614c40908490600160801b90046001600160801b03166157f3565b82546101009290920a6001600160801b038181021990931691831602179091556002870154614c71925016826140b6565b614c7b90836157b1565b600c89018054600090614c989084906001600160801b03166157b1565b92506101000a8154816001600160801b0302191690836001600160801b0316021790555060008560050160109054906101000a90046001600160801b031684614ce191906157f3565b6004870154909150600160801b90046001600160801b0316614d6b576005860180546001600160801b0319166001600160801b038981169182179092558a54604080516001600160a01b039092168252928b166020820152918201527f6f0af1abcf1ba2094b30510b922c357e153645953c99cedcd9c731cf49c0e4919060600160405180910390a15b6005860180546001600160801b03908116600160801b8783168102919091179092556001600160801b03198782168302164282161760048901558a54600d8c01547f22f7e29f1509fbd47f3e61026d7920c0dd79fd86b88861a8e5f0f7d130a584e3936001600160a01b03909216928c92614de89204168b6140b6565b604080516001600160a01b0390941684526001600160801b039283166020850152908216908301528316606082015260800160405180910390a150505050505b50505050565b6000613ed26001600160801b03848116908416614fc5565b6001600160801b0380821660009081526010840160205260408120600c850154919290911615614f1557600c84015460048201546002830154614f12926001600160801b03908116926145fc92614ea89290811691600160801b9004166140b6565b6004880154600b890154610a1d916001600160801b03600160801b918290048116926145fc92614edb92910416836157f3565b6004890154614ef3906001600160801b0316426157f3565b60058d0154610a1d9190600160801b90046001600160801b0316615dec565b91505b5092915050565b60006108c2826001600160801b0316614aaf565b600081614f50576040516308693c7b60e31b815260040160405180910390fd5b6000614f5d600284615ca8565b9050670de0b6b3a7640000614f7482600019615d66565b614f7e9190615ca8565b841115614f9d5760405162a748d160e21b815260040160405180910390fd5b8281614fb1670de0b6b3a764000087615c89565b614fbb9190615997565b614f129190615ca8565b600081614fe5576040516308693c7b60e31b815260040160405180910390fd5b6000614ff2600284615ca8565b9050676765c793fa10079d601b1b61500c82600019615d66565b6150169190615ca8565b8411156150355760405162a748d160e21b815260040160405180910390fd5b8281614fb1676765c793fa10079d601b1b87615c89565b60975460ff166140695760405162461bcd60e51b815260206004820152601460248201527314185d5cd8589b194e881b9bdd081c185d5cd95960621b604482015260640161149c565b600054610100900460ff166140695760405162461bcd60e51b815260040161149c90615d1b565b600054610100900460ff166150e35760405162461bcd60e51b815260040161149c90615d1b565b6097805460ff19169055565b606060006150fe836002615c89565b615109906002615997565b6001600160401b0381111561512057615120615e1b565b6040519080825280601f01601f19166020018201604052801561514a576020820181803683370190505b509050600360fc1b8160008151811061516557615165615e31565b60200101906001600160f81b031916908160001a905350600f60fb1b8160018151811061519457615194615e31565b60200101906001600160f81b031916908160001a90535060006151b8846002615c89565b6151c3906001615997565b90505b600181111561523b576f181899199a1a9b1b9c1cb0b131b232b360811b85600f16601081106151f7576151f7615e31565b1a60f81b82828151811061520d5761520d615e31565b60200101906001600160f81b031916908160001a90535060049490941c9361523481615e47565b90506151c6565b508315613ed25760405162461bcd60e51b815260206004820181905260248201527f537472696e67733a20686578206c656e67746820696e73756666696369656e74604482015260640161149c565b60006020828403121561529c57600080fd5b81356001600160e01b031981168114613ed257600080fd5b6001600160a01b038116811461265957600080fd5b80356152d4816152b4565b919050565b803580151581146152d457600080fd5b600080604083850312156152fc57600080fd5b8235615307816152b4565b9150615315602084016152d9565b90509250929050565b6001600160801b03169052565b6001600160801b038116811461265957600080fd5b80356152d48161532b565b60008060006060848603121561536057600080fd5b833561536b816152b4565b9250602084013561537b8161532b565b9150604084013561538b816152b4565b809150509250925092565b6000602082840312156153a857600080fd5b5035919050565b6001600160a01b03169052565b6001600160a01b0391909116815260200190565b6000602082840312156153e257600080fd5b8135613ed2816152b4565b6000806040838503121561540057600080fd5b823591506020830135615412816152b4565b809150509250929050565b600080600080600060a0868803121561543557600080fd5b85356154408161532b565b94506020860135615450816152b4565b93506040860135615460816152b4565b92506060860135615470816152b4565b915060808601356154808161532b565b809150509295509295909350565b6001600160801b0392831681529116602082015260400190565b600080600080600060a086880312156154c057600080fd5b85356154cb8161532b565b945060208601356154db816152b4565b935060408601356154eb8161532b565b925060608601356154708161532b565b6000806040838503121561550e57600080fd5b8235615519816152b4565b915060208301356154128161532b565b6000806000806080858703121561553f57600080fd5b843561554a816152b4565b9350602085013561555a8161532b565b9250604085013561556a8161532b565b9150606085013561557a8161532b565b939692955090935050565b6000806040838503121561559857600080fd5b82356155a38161532b565b91506020830135615412816152b4565b6001600160801b03948516815292841660208401529083166040830152909116606082015260800190565b6020808252825182820181905260009190848201906040850190845b8181101561561f5783516001600160a01b0316835292840192918401916001016155fa565b50909695505050505050565b6000806040838503121561563e57600080fd5b82356155a3816152b4565b600080600080600060a0868803121561566157600080fd5b853561566c816152b4565b9450602086013561567c8161532b565b9350604086013561568c8161532b565b9250606086013561569c8161532b565b91506080860135615480816152b4565b6000602082840312156156be57600080fd5b8135613ed28161532b565b8c151581528b151560208201528a151560408201526001600160801b038a811660608301528981166080830152881660a0820152610180810161570f60c083018961531e565b61571c60e083018861531e565b61572a61010083018761531e565b61573861012083018661531e565b61574661014083018561531e565b61575461016083018461531e565b9d9c50505050505050505050505050565b6000610200828403121561577857600080fd5b50919050565b60006020828403121561579057600080fd5b8151613ed28161532b565b634e487b7160e01b600052601160045260246000fd5b60006001600160801b038281168482168083038211156157d3576157d361579b565b01949350505050565b9182526001600160801b0316602082015260400190565b60006001600160801b03838116908316818110156158135761581361579b565b039392505050565b6001600160a01b0393841681526001600160801b03929092166020830152909116604082015260600190565b60006020828403121561585957600080fd5b5051919050565b634e487b7160e01b600052601260045260246000fd5b60006001600160801b038381168061589057615890615860565b92169190910692915050565b9283526001600160801b03918216602084015216604082015260600190565b600080604083850312156158ce57600080fd5b82516158d98161532b565b60208401519092506154128161532b565b9283526001600160a01b039190911660208301526001600160801b0316604082015260600190565b9384526001600160801b039283166020850152908216604084015216606082015260800190565b6001600160a01b0392831681529116602082015260400190565b6001600160801b039290921682526001600160a01b0316602082015260400190565b6001600160a01b039290921682526001600160801b0316602082015260400190565b600082198211156159aa576159aa61579b565b500190565b6000602082840312156159c157600080fd5b815160ff81168114613ed257600080fd5b6000602082840312156159e457600080fd5b613ed2826152d9565b6102008101615a04826159ff856152c9565b6153af565b615a10602084016152c9565b615a1d60208401826153af565b50615a2a604084016152c9565b615a3760408401826153af565b50615a4460608401615340565b615a51606084018261531e565b50615a5e60808401615340565b615a6b608084018261531e565b50615a7860a08401615340565b615a8560a084018261531e565b50615a9260c08401615340565b615a9f60c084018261531e565b50615aac60e08401615340565b615ab960e084018261531e565b50610100615ac8818501615340565b615ad48285018261531e565b5050610120615ae4818501615340565b615af08285018261531e565b5050610140615b00818501615340565b615b0c8285018261531e565b5050610160615b1c818501615340565b615b288285018261531e565b5050610180615b38818501615340565b615b448285018261531e565b50506101a0615b54818501615340565b615b608285018261531e565b50506101c0615b70818501615340565b615b7c8285018261531e565b50506101e0615b8c8185016152d9565b1515920191909152919050565b600181815b80851115615bd4578160001904821115615bba57615bba61579b565b80851615615bc757918102915b93841c9390800290615b9e565b509250929050565b600082615beb575060016108c2565b81615bf8575060006108c2565b8160018114615c0e5760028114615c1857615c34565b60019150506108c2565b60ff841115615c2957615c2961579b565b50506001821b6108c2565b5060208310610133831016604e8410600b8410161715615c57575081810a6108c2565b615c618383615b99565b8060001904821115615c7557615c7561579b565b029392505050565b6000613ed28383615bdc565b6000816000190483118215151615615ca357615ca361579b565b500290565b600082615cb757615cb7615860565b500490565b60005b83811015615cd7578181015183820152602001615cbf565b83811115614e285750506000910152565b6020815260008251806020840152615d07816040850160208701615cbc565b601f01601f19169190910160400192915050565b6020808252602b908201527f496e697469616c697a61626c653a20636f6e7472616374206973206e6f74206960408201526a6e697469616c697a696e6760a81b606082015260800190565b600082821015615d7857615d7861579b565b500390565b76020b1b1b2b9b9a1b7b73a3937b61d1030b1b1b7bab73a1604d1b815260008351615daf816017850160208801615cbc565b7001034b99036b4b9b9b4b733903937b6329607d1b6017918401918201528351615de0816028840160208801615cbc565b01602801949350505050565b60006001600160801b0382811684821681151582840482111615615e1257615e1261579b565b02949350505050565b634e487b7160e01b600052604160045260246000fd5b634e487b7160e01b600052603260045260246000fd5b600081615e5657615e5661579b565b50600019019056fe71840dc4906352362b0cdaf79870196c8e42acafade72d5d5a6d59291253ceb12344277e405079ec07749d374ba0b5862a4e45a6a05ac889dbb4a991c6f9354d5f1a2aad6c8125c39041f4e0e90bc4516abd322bec644d29276f7acc4b183ffe27160668f6d81898b09bdae61c61d2c7d23fe33a52ae9b38e5b92f00ced3806ba2646970667358221220fa410dc4d7d124b992ed95a3b0eef99f67f7da6d5b7a7e8e4e525448080fef6c64736f6c63430008090033",
  "deployedBytecode": "0x608060405234801561001057600080fd5b506004361061021a5760003560e01c806301ffc9a71461021f5780631ecfa93c1461024757806320992c4414610284578063248a9ca314610299578063265cd720146102ba57806327f90f0a146102da5780632f2ff15d1461035e578063326c62fa14610371578063344415901461039257806336568abe146103a5578063402d8883146103b857806345a4b417146103c0578063473d49721461040d57806347ce376f1461043c5780634c804cca146104845780635c975abb146104975780635d5f3f0e146104a25780635f3386db146104b5578063632805f8146104c8578063673a2a1f146104eb578063775ad527146105005780637e5660d9146105135780637f726e581461052657806387da02061461056257806391d148541461062457806392b06322146106375780639611d5dd1461064a57806399b55762146106525780639c68153e146106655780639d82aa3514610678578063a217fddf1461068b578063a480ca7914610693578063a5919727146106a6578063a6b896fd146106ee578063c3d31fce14610701578063c4d66de814610709578063c55ae0381461071c578063c8954db91461072f578063d547741f14610742578063db2de95214610755578063e06cffa814610768578063e823d5cf1461077b578063ec04205b1461078e578063f00bdd5114610842578063f27dd8ab14610855578063fe04d4c514610868575b600080fd5b61023261022d36600461528a565b610891565b60405190151581526020015b60405180910390f35b61025a6102553660046152e9565b6108c8565b604080516001600160801b039485168152928416602084015292169181019190915260600161023e565b61029761029236600461534b565b610afb565b005b6102ac6102a7366004615396565b610d09565b60405190815260200161023e565b6102cd6102c8366004615396565b610d1e565b60405161023e91906153bc565b6102ed6102e83660046153d0565b610d48565b604080516001600160a01b03909c168c526001600160801b039a8b1660208d0152988a16988b019890985295881660608a0152938716608089015291861660a0880152851660c0870152841660e086015283166101008501528216610120840152166101408201526101600161023e565b61029761036c3660046153ed565b610ed9565b61038461037f36600461541d565b610efa565b60405161023e92919061548e565b61025a6103a03660046154a8565b61117f565b6102976103b33660046153ed565b611430565b6102976114b3565b6103f56103ce3660046153d0565b6001600160a01b0316600090815260ca60205260409020600f01546001600160801b031690565b6040516001600160801b03909116815260200161023e565b61023261041b3660046153d0565b6001600160a01b0316600090815260ca602052604090206009015460ff1690565b6103f561044a3660046154fb565b6001600160a01b0391909116600090815260ca602090815260408083206001600160801b0394851684526010019091529020600401541690565b6103f56104923660046154fb565b611aac565b60975460ff16610232565b6103846104b0366004615529565b611b03565b6103f56104c3366004615585565b611d47565b6104db6104d6366004615529565b611ff4565b60405161023e94939291906155b3565b6104f3612111565b60405161023e91906155de565b61029761050e36600461562b565b612173565b610297610521366004615585565b6122bf565b6103f56105343660046153d0565b6001600160a01b0316600090815260ca60205260409020600a0154630100000090046001600160801b031690565b6105e26105703660046154fb565b6001600160a01b0391909116600090815260ca602090815260408083206001600160801b03948516845260100190915290206001810154600282015460038301546004840154600590940154600160801b80850487169793871696948516959285169492819004831693910490911690565b604080516001600160801b03978816815295871660208701529386169385019390935290841660608401528316608083015290911660a082015260c00161023e565b6102326106323660046153ed565b612379565b6103f5610645366004615649565b6123a4565b610297612639565b610297610660366004615585565b61265c565b610297610673366004615585565b612714565b6103846106863660046153d0565b6127ff565b6102ac600081565b6102976106a13660046153d0565b61298d565b6103846106b43660046153d0565b6001600160a01b0316600090815260ca6020526040902060078101546008909101546001600160801b03600160801b909204821692911690565b6102976106fc366004615585565b6129b6565b610297612a6e565b6102976107173660046153d0565b612a8e565b61029761072a36600461562b565b612c20565b61029761073d3660046156ac565b612d6e565b6102976107503660046153ed565b612f7e565b6102976107633660046154fb565b612f9a565b6102976107763660046154fb565b613573565b6102976107893660046153d0565b61359d565b61082a61079c3660046153d0565b6001600160a01b0316600090815260ca60205260409020600a810154600b820154600c830154600d840154600e9094015460ff80851696610100860482169662010000870490921695630100000090046001600160801b039081169581811695600160801b918290048316958382169591839004841694848316949284900483169383831693920490911690565b60405161023e9c9b9a999897969594939291906156c9565b610297610850366004615765565b613901565b6103f56108633660046153d0565b613e74565b6102cd6108763660046153d0565b60c9602052600090815260409020546001600160a01b031681565b60006001600160e01b03198216637965db0b60e01b14806108c257506301ffc9a760e01b6001600160e01b03198316145b92915050565b6001600160a01b038216600090815260ca6020526040808220905163839a9c2960e01b81526004810191909152821515602482015281908190819073__$ca2bba44fde77ee89f0ecd8cad9e71ea90$__9063839a9c299060440160206040518083038186803b15801561093a57600080fd5b505af415801561094e573d6000803e3d6000fd5b505050506040513d601f19601f82011682018060405250810190610972919061577e565b6001600160a01b038716600090815260ca6020526040908190209051631d398d8d60e21b8152919250610a2c91839173__$ca2bba44fde77ee89f0ecd8cad9e71ea90$__916374e63634916109cd9160040190815260200190565b60206040518083038186803b1580156109e557600080fd5b505af41580156109f9573d6000803e3d6000fd5b505050506040513d601f19601f82011682018060405250810190610a1d919061577e565b6001600160801b031690613eba565b6001600160a01b038716600090815260ca6020526040902090935073__$ca2bba44fde77ee89f0ecd8cad9e71ea90$__90635ccb5f2f90610a6d86856157b1565b6040518363ffffffff1660e01b8152600401610a8a9291906157dc565b60206040518083038186803b158015610aa257600080fd5b505af4158015610ab6573d6000803e3d6000fd5b505050506040513d601f19601f82011682018060405250810190610ada919061577e565b915082610ae783836157b1565b610af191906157b1565b9350509250925092565b600080516020615e5f833981519152610b1381613ed9565b6001600160a01b038416600090815260ca6020526040812060010154610b4d906001600160801b03861690600160a01b900460ff16613ee3565b6001600160a01b03808716600081815260ca6020526040902054929350911614610b8a57604051630951899960e01b815260040160405180910390fd5b6001600160a01b038516600090815260cc60205260409020546001600160801b039081169082161115610bd057604051639f747ffd60e01b815260040160405180910390fd5b6001600160a01b038516600090815260cc602052604081208054839290610c019084906001600160801b03166157f3565b82546001600160801b039182166101009390930a9283029190920219909116179055506001600160a01b03808616600090815260ca6020526040908190206002810154600191909101549151631a4ca37b60e21b8152908316926369328dec92610c74929116908890889060040161581b565b602060405180830381600087803b158015610c8e57600080fd5b505af1158015610ca2573d6000803e3d6000fd5b505050506040513d601f19601f82011682018060405250810190610cc69190615847565b507f4e7e16de98f6ba9d5f9254bd51366fd84453a61f6d5767ffc4b00d97d696c50f858285604051610cfa9392919061581b565b60405180910390a15050505050565b60009081526065602052604090206001015490565b60cb8181548110610d2e57600080fd5b6000918252602090912001546001600160a01b0316905081565b6000806000806000806000806000806000610d896040518060400160405280600f81526020016e706f6f6c20706172616d657465727360881b815250613f15565b6001600160a01b038c16600090815260ca60205260409020610dab6001613f58565b8060010160009054906101000a90046001600160a01b03168160030160009054906101000a90046001600160801b03168260030160109054906101000a90046001600160801b03168360040160009054906101000a90046001600160801b03168460040160109054906101000a90046001600160801b03168560050160009054906101000a90046001600160801b03168660050160109054906101000a90046001600160801b03168760060160009054906101000a90046001600160801b03168860060160109054906101000a90046001600160801b03168960070160009054906101000a90046001600160801b03168a60080160109054906101000a90046001600160801b03169b509b509b509b509b509b509b509b509b509b509b505091939597999b90929496989a50565b610ee282610d09565b610eeb81613ed9565b610ef58383613f9d565b505050565b600080610f05614023565b600080516020615ebf833981519152610f1d81613ed9565b6001600160a01b038716600090815260ca60205260409020600a810154610100900460ff1615610f605760405163056efc7b60e01b815260040160405180910390fd5b600a81015460ff16610f855760405163c6d9b58160e01b815260040160405180910390fd5b60018101546001600160a01b03888116911614610fb55760405163623957d360e01b815260040160405180910390fd5b60038101546001600160801b03908116908a161015610fe75760405163fca6b5cd60e01b815260040160405180910390fd5b60038101546001600160801b03600160801b9091048116908a161115611020576040516393c139e960e01b815260040160405180910390fd5b600481015460038201546001600160801b039182169161104191168b6157f3565b61104b9190615876565b6001600160801b0316156110725760405163270955a760e01b815260040160405180910390fd5b604051631cd2ca1960e11b81526000945084935073__$ca2bba44fde77ee89f0ecd8cad9e71ea90$__906339a59432906110b49084908d908a9060040161589c565b604080518083038186803b1580156110cb57600080fd5b505af41580156110df573d6000803e3d6000fd5b505050506040513d601f19601f8201168201806040525081019061110391906158bb565b604051636839a26160e01b8152919550935073__$ca2bba44fde77ee89f0ecd8cad9e71ea90$__90636839a261906111439084908a908a906004016158ea565b60006040518083038186803b15801561115b57600080fd5b505af415801561116f573d6000803e3d6000fd5b5050505050509550959350505050565b600080600061118c614023565b600080516020615ebf8339815191526111a481613ed9565b6001600160a01b038816600090815260ca60205260409020600a81015462010000900460ff16156111e85760405163056efc7b60e01b815260040160405180910390fd5b60006111f68a8a8d8a611b03565b5090506001600160801b0381161561122157604051630d290b7960e31b815260040160405180910390fd5b60038201546001600160801b0390811690891610156112535760405163fca6b5cd60e01b815260040160405180910390fd5b60038201546001600160801b03600160801b9091048116908916111561128c576040516393c139e960e01b815260040160405180910390fd5b600482015460038301546001600160801b03918216916112ad91168a6157f3565b6112b79190615876565b6001600160801b0316156112de5760405163270955a760e01b815260040160405180910390fd5b60006112fe6112ee848c8b61406b565b6001600160801b038e16906140b6565b604051636ef48f5760e01b815290915073__$ca2bba44fde77ee89f0ecd8cad9e71ea90$__90636ef48f579061133e9086908e9086908e90600401615912565b60206040518083038186803b15801561135657600080fd5b505af415801561136a573d6000803e3d6000fd5b505050506040513d601f19601f8201168201806040525081019061138e919061577e565b604051631cd2ca1960e11b815290955073__$ca2bba44fde77ee89f0ecd8cad9e71ea90$__906339a59432906113cc9086908d908a9060040161589c565b604080518083038186803b1580156113e357600080fd5b505af41580156113f7573d6000803e3d6000fd5b505050506040513d601f19601f8201168201806040525081019061141b91906158bb565b909d909c50949a509398505050505050505050565b6001600160a01b03811633146114a55760405162461bcd60e51b815260206004820152602f60248201527f416363657373436f6e74726f6c3a2063616e206f6e6c792072656e6f756e636560448201526e103937b632b9903337b91039b2b63360891b60648201526084015b60405180910390fd5b6114af82826140e5565b5050565b6114bb614023565b600080516020615e7f8339815191526114d381613ed9565b33600090815260ca60205260409020600a810154630100000090046001600160801b03161580156115145750600a81015460ff610100909104161515600114155b1561153257604051631e13931b60e21b815260040160405180910390fd5b600a8101544263010000009091046001600160801b03161180801561155c5750600982015460ff16155b1561157a57604051632b604eef60e01b815260040160405180910390fd5b6115838261414c565b604051631d398d8d60e21b81526004810183905260009081908190819073__$ca2bba44fde77ee89f0ecd8cad9e71ea90$__906374e636349060240160206040518083038186803b1580156115d757600080fd5b505af41580156115eb573d6000803e3d6000fd5b505050506040513d601f19601f8201168201806040525081019061160f919061577e565b600c870154909150600160801b90046001600160801b03165b60038701546001600160801b03600160801b90910481169082161161173c57604051634de6e91560e01b8152600090819073__$ca2bba44fde77ee89f0ecd8cad9e71ea90$__90634de6e91590611687908c908790899060040161589c565b604080518083038186803b15801561169e57600080fd5b505af41580156116b2573d6000803e3d6000fd5b505050506040513d601f19601f820116820180604052508101906116d691906158bb565b90925090506116e581836157b1565b6116ef90866157b1565b94506116fb81886157b1565b9650600061170a8a8589614253565b905080806117155750865b60048b015490975061173593506001600160801b031691508390506157b1565b9050611628565b50604051635ccb5f2f60e01b815260009073__$ca2bba44fde77ee89f0ecd8cad9e71ea90$__90635ccb5f2f90611779908a9087906004016157dc565b60206040518083038186803b15801561179157600080fd5b505af41580156117a5573d6000803e3d6000fd5b505050506040513d601f19601f820116820180604052508101906117c9919061577e565b90506117d581846157b1565b604051636839a26160e01b815290935073__$ca2bba44fde77ee89f0ecd8cad9e71ea90$__90636839a26190611813908a90339088906004016158ea565b60006040518083038186803b15801561182b57600080fd5b505af415801561183f573d6000803e3d6000fd5b505050600688015461185b91506001600160801b0316426157b1565b600d880180546001600160801b039283166001600160801b031991821617909155600b89018054909116905533600090815260cc60205260408120805484939192916118a9918591166157b1565b92506101000a8154816001600160801b0302191690836001600160801b031602179055508287600a0160020160008282829054906101000a90046001600160801b03166118f691906157b1565b82546101009290920a6001600160801b038181021990931691831602179091556006890154600a8a015461193e9350600160801b9091048216916301000000909104166157b1565b6001600160801b03164211156119be57600c870154600d880154604080516001600160801b038088168252808a16602083015280861692820192909252928116606084015216608082015233907f8122edb1a4917454f85f9b09704f29ed2116612cc8f1a2554b80097dceeb5a839060a0015b60405180910390a2611a7e565b600a8701544263010000009091046001600160801b03161115611a2857600c870154600d88015460405133927fc6db71f000708261529893214115dc775666bfdeffe2ae11b7fe243ee0353e5d926119b192889287926001600160801b03918216929116906155b3565b600c870154600d88015460405133927f85aff561fe55576b612fb98de2b2b1b5f64d13c985973d75b6cc4a09376155f192611a7592889287926001600160801b03918216929116906155b3565b60405180910390a25b505050600a840180546301000000600160981b0319169055505050600b0180546001600160801b0316905550565b6001600160a01b038216600090815260ca602090815260408083206001600160801b038086168552601090910190925290912060040154600160801b900416806108c25750676765c793fa10079d601b1b92915050565b6001600160a01b03808516600090815260ca60209081526040808320600281015482516325b0985360e21b81529251949586959294869492909116926396c2614c926004808201939291829003018186803b158015611b6157600080fd5b505afa158015611b75573d6000803e3d6000fd5b505050506040513d601f19601f82011682018060405250810190611b999190615847565b600e8301549091506001600160801b03600160801b90910481169086161115611bdc576000611bd16001600160801b038816836140b6565b935093505050611d3e565b604051633d29c20960e01b815260009073__$ca2bba44fde77ee89f0ecd8cad9e71ea90$__90633d29c20990611c1c9086908c908c908c90600401615912565b604080518083038186803b158015611c3357600080fd5b505af4158015611c47573d6000803e3d6000fd5b505050506040513d601f19601f82011682018060405250810190611c6b91906158bb565b9095509050600080611c7e858b866144a1565b5050604051632ca9e11360e11b8152919350915060009073__$ca2bba44fde77ee89f0ecd8cad9e71ea90$__90635953c22690611cc59089908f9089908890600401615912565b60206040518083038186803b158015611cdd57600080fd5b505af4158015611cf1573d6000803e3d6000fd5b505050506040513d601f19601f82011682018060405250810190611d15919061577e565b905080611d2b6001600160801b038616856140b6565b611d3591906157b1565b96505050505050505b94509492505050565b6001600160a01b038116600090815260ca60205260408120600a8101548190630100000090046001600160801b0316151580611d8c5750600a820154610100900460ff165b80611da15750600a82015462010000900460ff165b80611db15750600a82015460ff16155b15611dc1576000925050506108c2565b60048201546001600160801b03600160801b90910481169086161115611df9576004820154600160801b90046001600160801b031694505b6002810154604080516325b0985360e21b815290516000926001600160a01b0316916396c2614c916004808301926020929190829003018186803b158015611e4057600080fd5b505afa158015611e54573d6000803e3d6000fd5b505050506040513d601f19601f82011682018060405250810190611e789190615847565b60038401549091506001600160801b03168660005b60048501546003860154611eb4916001600160801b0390811691600160801b9004166157b1565b6001600160801b0316836001600160801b031614611fa1576000611ed98785876144a1565b5050506001600160801b03808616600090815260108a01602052604081206002015492935091611f0a9116836140b6565b9050836001600160801b0316816001600160801b03161015611f5657611f3081856157f3565b9350611f456001600160801b03821686613eba565b611f4f90846157b1565b9250611f80565b611f696001600160801b03851686613eba565b611f7390846157b1565b9250600093505050611fa1565b50506004850154611f9a906001600160801b0316846157b1565b9250611e8d565b816001600160801b0316896001600160801b03161415611fca57600096505050505050506108c2565b611fe7611fd7838b6157f3565b6001600160801b0383169061465b565b9998505050505050505050565b6001600160a01b038416600090815260ca60205260408120600a8101548291829182919060ff166120385760405163c6d9b58160e01b815260040160405180910390fd5b604051633d29c20960e01b815273__$ca2bba44fde77ee89f0ecd8cad9e71ea90$__90633d29c209906120759084908c908c908c90600401615912565b604080518083038186803b15801561208c57600080fd5b505af41580156120a0573d6000803e3d6000fd5b505050506040513d601f19601f820116820180604052508101906120c491906158bb565b955092506120e66120d6828a8961406b565b6001600160801b03871690614673565b935080600a0160000160039054906101000a90046001600160801b0316915050945094509450949050565b606060cb80548060200260200160405190810160405280929190818152602001828054801561216957602002820191906000526020600020905b81546001600160a01b0316815260019091019060200180831161214b575b5050505050905090565b600080516020615e5f83398151915261218b81613ed9565b6001600160a01b0382166121b257604051635342e0a760e11b815260040160405180910390fd5b6001600160a01b0383166121d95760405163f15e745f60e01b815260040160405180910390fd5b6001600160a01b03808316600081815260ca60205260409020549091161461221457604051630951899960e01b815260040160405180910390fd5b6001600160a01b03808316600090815260ca602052604090205484821691161461225157604051637e1c4b1160e11b815260040160405180910390fd5b6001600160a01b03838116600090815260c960205260409081902080546001600160a01b03191692851692909217909155517fa0bdc0fbc09f4ed7d0e01a12537839d8bd60334a4bfa65f0053c2d6972b4c984906122b29085908590615939565b60405180910390a1505050565b600080516020615e5f8339815191526122d781613ed9565b6001600160a01b038216600090815260ca60205260409020600a015460ff1661231357604051630951899960e01b815260040160405180910390fd5b6001600160a01b038216600090815260ca60205260409081902060080180546001600160801b0319166001600160801b038616179055517ff81f6b13c0f245c7eb66e6de718d94a737f90b621fc61e666430cdcba6cf847c906122b29085908590615953565b60009182526065602090815260408084206001600160a01b0393909316845291905290205460ff1690565b60006123ae614023565b600080516020615ebf8339815191526123c681613ed9565b6001600160a01b038716600090815260ca60205260409020600e8101546123fe90600160801b90046001600160801b031660016157b1565b6001600160801b0316856001600160801b031611156124305760405163019894df60e21b815260040160405180910390fd5b600e8101546001600160801b03600160801b90910481169086161180158161247657506001600160801b0380891660009081526010840160205260409020600201541615155b806124a757508080156124a757506001600160801b0380891660009081526010840160205260409020600301541615155b6124c45760405163436ec62560e01b815260040160405180910390fd5b6000876001600160801b0316116124ee57604051636ba603b360e11b815260040160405180910390fd5b604051636ef48f5760e01b815273__$ca2bba44fde77ee89f0ecd8cad9e71ea90$__90636ef48f579061252b9085908c908c908c90600401615912565b60206040518083038186803b15801561254357600080fd5b505af4158015612557573d6000803e3d6000fd5b505050506040513d601f19601f8201168201806040525081019061257b919061577e565b600283015460018401549195506001600160a01b03908116916369328dec918116906125bb906001600160801b03891690600160a01b900460ff1661469d565b886040518463ffffffff1660e01b81526004016125da9392919061581b565b602060405180830381600087803b1580156125f457600080fd5b505af1158015612608573d6000803e3d6000fd5b505050506040513d601f19601f8201168201806040525081019061262c9190615847565b5050505095945050505050565b600080516020615e5f83398151915261265181613ed9565b6126596146c6565b50565b600080516020615e5f83398151915261267481613ed9565b6001600160a01b03808316600081815260ca6020526040902054909116146126af57604051630951899960e01b815260040160405180910390fd5b6001600160a01b038216600090815260ca60205260409081902060050180546001600160801b03808716600160801b029116179055517f67c55291cb70b5f0144aae4118b87e726866a80bda106e58e132aa625551f857906122b29085908590615953565b600080516020615e5f83398151915261272c81613ed9565b6001600160a01b038216600090815260ca60205260409020600a015460ff1661276857604051630951899960e01b815260040160405180910390fd5b670de0b6b3a7640000836001600160801b0316111561279a57604051633dedb6cb60e21b815260040160405180910390fd5b6001600160a01b038216600090815260ca60205260409081902060070180546001600160801b03808716600160801b029116179055517fefec478f5ee0b516cbe859014d4830648217ffb71b235c17f0015a12a4de224b906122b29085908590615953565b6001600160a01b038116600090815260ca60205260408120600a8101548291908190630100000090046001600160801b031661285b57600482015461285490600160801b90046001600160801b031686611d47565b9350612986565b600381015460009081906001600160801b03165b60048401546003850154612896916001600160801b0390811691600160801b9004166157b1565b6001600160801b0316816001600160801b03161461296d576001600160801b0380821660009081526010870160205260409020600301546128e091600160801b9091041682613eba565b6128ea90846157b1565b6001600160801b03808316600090815260108801602052604090206003015491945061291e91600160801b900416836157b1565b6001600160801b03808316600090815260108801602052604090206003015491935061294b9116876157b1565b6004850154909650612966906001600160801b0316826157b1565b905061286f565b6129806001600160801b0384168361465b565b96505050505b5050915091565b612995614023565b6001600160a01b038116600090815260ca602052604090206114af8161414c565b600080516020615e5f8339815191526129ce81613ed9565b6001600160a01b03808316600081815260ca602052604090205490911614612a0957604051630951899960e01b815260040160405180910390fd5b6001600160a01b038216600090815260ca60205260409081902060040180546001600160801b03808716600160801b029116179055517f1451569f54a4226b25194b628ff0b7be59bf83e6d5f74b486b88d45d7d80d9b4906122b29085908590615953565b600080516020615e5f833981519152612a8681613ed9565b612659614712565b600054610100900460ff1615808015612aae5750600054600160ff909116105b80612ac85750303b158015612ac8575060005460ff166001145b612b2b5760405162461bcd60e51b815260206004820152602e60248201527f496e697469616c697a61626c653a20636f6e747261637420697320616c72656160448201526d191e481a5b9a5d1a585b1a5e995960921b606482015260840161149c565b6000805460ff191660011790558015612b4e576000805461ff0019166101001790555b612b5661474f565b6001600160a01b038216612b68573391505b612b73600083613f9d565b612b8b600080516020615e5f83398151915283613f9d565b612bb1600080516020615e7f833981519152600080516020615e5f833981519152614786565b612bd7600080516020615ebf833981519152600080516020615e5f833981519152614786565b80156114af576000805461ff0019169055604051600181527f7f26b83ff96e1f2b6a682f133852f6798a09c465da95921460cefb38474024989060200160405180910390a15050565b600080516020615e5f833981519152612c3881613ed9565b6001600160a01b038216612c5f57604051635342e0a760e11b815260040160405180910390fd5b6001600160a01b038316612c865760405163f15e745f60e01b815260040160405180910390fd5b6001600160a01b03808316600081815260ca602052604090205490911614612cc157604051630951899960e01b815260040160405180910390fd5b6001600160a01b03808316600090815260ca6020526040902054848216911614612cfe57604051637e1c4b1160e11b815260040160405180910390fd5b612d16600080516020615e7f83398151915284612f7e565b6001600160a01b038316600090815260c960205260409081902080546001600160a01b0319169055517f02e49619408521be07696ec96b8ec59295aca0b168326260f1a22059631e2cdf906122b29085908590615939565b612d76614023565b600080516020615e7f833981519152612d8e81613ed9565b33600090815260ca602052604081206001810154909190612dc3906001600160801b03861690600160a01b900460ff16613ee3565b604051636839a26160e01b815290915073__$ca2bba44fde77ee89f0ecd8cad9e71ea90$__90636839a26190612e01908590339086906004016158ea565b60006040518083038186803b158015612e1957600080fd5b505af4158015612e2d573d6000803e3d6000fd5b5050604051631a727b1960e31b81526000925073__$ca2bba44fde77ee89f0ecd8cad9e71ea90$__915063d393d8c890612e6d90869086906004016157dc565b60206040518083038186803b158015612e8557600080fd5b505af4158015612e99573d6000803e3d6000fd5b505050506040513d601f19601f82011682018060405250810190612ebd919061577e565b600a84015490915060ff16158015612f0657506008830154600d8401546001600160801b03600160801b92839004811692612efa920416836140b6565b6001600160801b031610155b15612f4d57600a8301805460ff191660011790558254604051600080516020615e9f83398151915291612f44916001600160a01b03909116906153bc565b60405180910390a15b7f55f3f2d2c632a076fddf6794d5cf693ea328d5223bd13d099d4a4bc5005f4a8f3383604051610cfa929190615975565b612f8782610d09565b612f9081613ed9565b610ef583836140e5565b612fa2614023565b33600090815260c960209081526040808320546001600160a01b0316835260ca9091529020600a810154610100900460ff1615612ff25760405163056efc7b60e01b815260040160405180910390fd5b600a810154630100000090046001600160801b0316158015906130285750600a810154630100000090046001600160801b031642115b1561304657604051630fda546f60e41b815260040160405180910390fd5b600181015460009061306c906001600160801b03851690600160a01b900460ff16613ee3565b6007830154909150600090613094906001600160801b0380851691600160801b900416613eba565b905060006130a282846157f3565b6004850154600b8601549192506001600160801b03600160801b918290048116926130d19287929104166157b1565b6001600160801b031611156130f95760405163aab4fe5160e01b815260040160405180910390fd5b600d8401546001600160801b03164210156131275760405163af26604960e01b815260040160405180910390fd5b6131308461414c565b600c8401546001600160801b0390811690841681101561316357604051634421566d60e11b815260040160405180910390fd5b6004850154600c860154859160009161318f916001600160801b0390811691600160801b9004166157f3565b90505b6000826001600160801b03161180156131c2575060038701546001600160801b03600160801b9091048116908216105b1561331e5760048701546131df906001600160801b0316826157b1565b6001600160801b03808216600090815260108a016020526040902060020154919250161561331957604051634c5e028760e11b8152600090819073__$ca2bba44fde77ee89f0ecd8cad9e71ea90$__906398bc050e90613247908c908790899060040161589c565b604080518083038186803b15801561325e57600080fd5b505af4158015613272573d6000803e3d6000fd5b505050506040513d601f19601f8201168201806040525081019061329691906158bb565b60405163ca8701f360e01b8152919350915073__$ca2bba44fde77ee89f0ecd8cad9e71ea90$__9063ca8701f3906132d8908c90879087908790600401615912565b60006040518083038186803b1580156132f057600080fd5b505af4158015613304573d6000803e3d6000fd5b50505050808461331491906157f3565b935050505b613192565b6001600160801b0382161561334657604051630f0b666f60e01b815260040160405180910390fd5b600a870154630100000090046001600160801b03166133e5576005870154613377906001600160801b031642615997565b600a880180546001600160801b03929092166301000000026301000000600160981b031990921691909117905560405133907fb238c9bb6ccde03fef7caa4e124c6dff77f0a5b70c7df429eb8f37bd3a48f8ba906133d8908790899061548e565b60405180910390a2613429565b336001600160a01b03167faad6575ebfd3574ba48d8611bd3c09b1e51c4ff7ca6980f6eacac7b7ac367315858760405161342092919061548e565b60405180910390a25b33600090815260cc6020526040812080548792906134519084906001600160801b03166157b1565b92506101000a8154816001600160801b0302191690836001600160801b031602179055508587600a0160010160108282829054906101000a90046001600160801b031661349e91906157b1565b82546101009290920a6001600160801b03818102199093169183160217909155600289015460018a01546001600160a01b0391821693506369328dec92918116916134f69190891690600160a01b900460ff1661469d565b8c6040518463ffffffff1660e01b81526004016135159392919061581b565b602060405180830381600087803b15801561352f57600080fd5b505af1158015613543573d6000803e3d6000fd5b505050506040513d601f19601f820116820180604052508101906135679190615847565b50505050505050505050565b61357b614023565b6001600160a01b038216600090815260ca60205260409020610ef581836147d9565b600080516020615e5f8339815191526135b581613ed9565b6001600160a01b038216600090815260ca60205260409020600a810154610100900460ff16156135f7576040516209157360e41b815260040160405180910390fd5b600a810154630100000090046001600160801b031661362957604051633aa99c9b60e01b815260040160405180910390fd5b6006810154600a820154613657916001600160801b03600160801b90910481169163010000009004166157b1565b6001600160801b031642101561368057604051632b797db960e11b815260040160405180910390fd5b600a8101805461010061ff0019909116179055600f810180546001600160801b031916426001600160801b0316179055604051631d8e67b960e31b81526004810182905260009073__$ca2bba44fde77ee89f0ecd8cad9e71ea90$__9063ec733dc89060240160206040518083038186803b1580156136fe57600080fd5b505af4158015613712573d6000803e3d6000fd5b505050506040513d601f19601f82011682018060405250810190613736919061577e565b600d830154909150600090600160801b90046001600160801b0316156138d0576002830154604080516325b0985360e21b815290516000926001600160a01b0316916396c2614c916004808301926020929190829003018186803b15801561379d57600080fd5b505afa1580156137b1573d6000803e3d6000fd5b505050506040513d601f19601f820116820180604052508101906137d59190615847565b600d8501549091506137f790600160801b90046001600160801b0316826140b6565b600d850180546001600160801b0390811690915560028601546001600160a01b03898116600090815260ca6020526040902060019081015490890154949650918116936369328dec93929091169161385c9190871690600160a01b900460ff1661469d565b336040518463ffffffff1660e01b815260040161387b9392919061581b565b602060405180830381600087803b15801561389557600080fd5b505af11580156138a9573d6000803e3d6000fd5b505050506040513d601f19601f820116820180604052508101906138cd9190615847565b50505b7f846077ed9bc731d4a55621c64a72a5dcdb1c047b3de22f546d448b992e34d87b8583604051610cfa929190615975565b61390a8161489c565b604051806102200160405280336001600160a01b0316815260200182602001602081019061393891906153d0565b6001600160a01b0316815260200182602001602081019061395991906153d0565b6001600160a01b031663313ce5676040518163ffffffff1660e01b815260040160206040518083038186803b15801561399157600080fd5b505afa1580156139a5573d6000803e3d6000fd5b505050506040513d601f19601f820116820180604052508101906139c991906159af565b60ff1681526020016139e160608401604085016153d0565b6001600160a01b031681526020016139ff60808401606085016156ac565b6001600160801b03168152602001613a1d60a08401608085016156ac565b6001600160801b03168152602001613a3b60c0840160a085016156ac565b6001600160801b03168152602001613a5960e0840160c085016156ac565b6001600160801b03168152602001613a78610100840160e085016156ac565b6001600160801b03168152602001613a98610120840161010085016156ac565b6001600160801b03168152602001613ab8610140840161012085016156ac565b6001600160801b03168152602001613ad8610160840161014085016156ac565b6001600160801b03168152602001613af8610180840161016085016156ac565b6001600160801b03168152602001613b186101a0840161018085016156ac565b6001600160801b03168152602001613b386101c084016101a085016156ac565b6001600160801b03168152602001613b586101e084016101c085016156ac565b6001600160801b03168152602001613b7861020084016101e085016159d2565b1515905233600090815260ca6020908152604091829020835181546001600160a01b03199081166001600160a01b0392831617835592850151600183018054878701519284166001600160a81b031990911617600160a01b60ff90931692909202919091179055606080860151600284018054909516921691909117909255608084015160a08501516001600160801b03918216600160801b918316820217600384015560c086015160e08701519083169083168202176004840155610100860151610120870151908316908316820217600584015561014086015161016087015190831690831682021760068401556101808601516101a087015190831690831682021760078401556101c08601516101e0870151908316921602176008820155610200909301516009909301805460ff191693151593909317909255613cc49183019083016153d0565b6001600160a01b03166396c2614c6040518163ffffffff1660e01b815260040160206040518083038186803b158015613cfc57600080fd5b505afa158015613d10573d6000803e3d6000fd5b505050506040513d601f19601f82011682018060405250810190613d349190615847565b33600081815260ca60209081526040808320600e0180546001600160801b0319166001600160801b03969096169590951790945560c9905282812080546001600160a01b0319908116841790915560cb805460018101825592527fa7ce836d032b2bf62b7e2097a8e0a6d8aeb35405ad15271e96d3b0188a1d06fb90910180549091169091179055517fa77a23a7d9735be89f9068c8700c055a4e28b9199f9370c5f761b436e5ee010390613dea9083906159ed565b60405180910390a133600090815260ca6020526040902060080154600160801b90046001600160801b03166126595733600090815260ca602052604090819020600a8101805460ff19166001179055549051600080516020615e9f83398151915291613e62916001600160a01b0391909116906153bc565b60405180910390a16126596003613f58565b6001600160a01b038116600090815260ca602090815260408083206001015460cc9092528220546108c2916001600160801b0390911690600160a01b900460ff1661469d565b6000613ed26001600160801b0384811690841661499f565b9392505050565b6126598133614a2a565b6000613ef082600a615c7d565b613f0b670de0b6b3a76400006001600160801b038616615c89565b613ed29190615ca8565b61265981604051602401613f299190615ce8565b60408051601f198184030181529190526020810180516001600160e01b031663104c13eb60e21b179052614a8e565b61265981604051602401613f6e91815260200190565b60408051601f198184030181529190526020810180516001600160e01b031663f82c50f160e01b179052614a8e565b613fa78282612379565b6114af5760008281526065602090815260408083206001600160a01b03851684529091529020805460ff19166001179055613fdf3390565b6001600160a01b0316816001600160a01b0316837f2f8788117e7eff1d82e926ec794901d17c78024a50270940304540a733656f0d60405160405180910390a45050565b60975460ff16156140695760405162461bcd60e51b815260206004820152601060248201526f14185d5cd8589b194e881c185d5cd95960821b604482015260640161149c565b565b6001600160801b03808316600090815260108501602090815260408083208585168452918290529091205490911690816140ae57676765c793fa10079d601b1b91505b509392505050565b6000613ed26140e0836001600160801b03166140da866001600160801b0316614aaf565b90614aee565b614b6b565b6140ef8282612379565b156114af5760008281526065602090815260408083206001600160a01b0385168085529252808320805460ff1916905551339285917ff6391f5c32d9c69d2a47ea670b442974b53935d1edc7fd64eb21e047a839171b9190a45050565b6002810154604080516325b0985360e21b815290516000926001600160a01b0316916396c2614c916004808301926020929190829003018186803b15801561419357600080fd5b505afa1580156141a7573d6000803e3d6000fd5b505050506040513d601f19601f820116820180604052508101906141cb9190615847565b600c830154909150600160801b90046001600160801b03165b60038301546001600160801b03600160801b90910481169082161161422d5761420e838284614bc4565b6004830154614226906001600160801b0316826157b1565b90506141e4565b50600e9190910180546001600160801b0319166001600160801b03909216919091179055565b6001600160801b0380831660009081526010850160205260408120600381015491929091161561449657826142cf57600e85018054600191906010906142aa908490600160801b90046001600160801b03166157b1565b92506101000a8154816001600160801b0302191690836001600160801b031602179055505b6004810154600e8601546142f7916001600160801b0391821691600160801b90910416614e2e565b600e86018054600160801b908190046001600160801b0390811660009081526020869052604080822080546001600160801b0319169684169690961790955592549190910481168252918120546003840154919261435892811691166140b6565b600e870154600384015491925061437b916001600160801b0390811691166140b6565b600c870180546000906143989084906001600160801b03166157b1565b92506101000a8154816001600160801b0302191690836001600160801b03160217905550808260010160108282829054906101000a90046001600160801b03166143e291906157b1565b82546101009290920a6001600160801b038181021990931691831602179091556001840154600285018054600160801b90920483166001600160801b031992831617905560038501805490911690558754604080516001600160a01b039092168252888316602083015291841691810191909152851560608201527fd56b2e5a640a6b5979db99e9a69997e0e14f83b4edabdfce985a1f7be59647c7915060800160405180910390a1600192505050613ed2565b506000949350505050565b6001600160801b0380831660009081526010850160205260408120600481015491928392839283929091600160801b9004166144eb57856000806000945094509450945050614652565b60048101546005820154600e8a01546001600160801b03600160801b938490048116985092820483169650600092918216911611156145385750600e8801546001600160801b0316614548565b5060058101546001600160801b03165b61455281886157f3565b925061455e8989614e46565b600d8a015490945060009061458390600160801b90046001600160801b0316896140b6565b9050806001600160801b0316856001600160801b031611156145a3578094505b600a8a0154630100000090046001600160801b031661461d576145c684886157b1565b60028401549097506001600160801b03161561461857600283015461460b906001600160801b03908116906145fc908816614f1c565b6001600160801b03169061465b565b61461590886157b1565b96505b61464e565b60028301548590614637906001600160801b0316866140b6565b61464191906157b1565b61464b90876157b1565b95505b5050505b93509350935093565b6000613ed26001600160801b03848116908416614f30565b6000613ed26140e0836001600160801b0316614697866001600160801b0316614aaf565b90614fc5565b6000670de0b6b3a76400006146b383600a615c7d565b613f0b906001600160801b038616615c89565b6146ce61504c565b6097805460ff191690557f5db9ee0a495bf2e6ff9c91a7834c1ba4fdd244a5e8aa4e537bd38aeae4b073aa335b60405161470891906153bc565b60405180910390a1565b61471a614023565b6097805460ff191660011790557f62e78cea01bee320cd4e420270b5ea74000d11b0c9f74754ebdbfc544b05a2586146fb3390565b600054610100900460ff166147765760405162461bcd60e51b815260040161149c90615d1b565b61477e615095565b6140696150bc565b600061479183610d09565b600084815260656020526040808220600101859055519192508391839186917fbd79b86ffe0ab8e8776151514217cd7cacd52c909f66475c3af44e129f0b00ff9190a4505050565b6002820154604080516325b0985360e21b815290516000926001600160a01b0316916396c2614c916004808301926020929190829003018186803b15801561482057600080fd5b505afa158015614834573d6000803e3d6000fd5b505050506040513d601f19601f820116820180604052508101906148589190615847565b9050614865838383614bc4565b6001600160801b039182166000908152601090930160205260409092206005018054919092166001600160801b0319909116179055565b6148ac60c0820160a083016156ac565b6148bc60808301606084016156ac565b6148cc60a08401608085016156ac565b6148d691906157f3565b6148e09190615876565b6001600160801b031615614907576040516334cc2fed60e01b815260040160405180910390fd5b3361492557604051635342e0a760e11b815260040160405180910390fd5b33600090815260ca60205260409020546001600160a01b03161561495c57604051631953bac160e11b815260040160405180910390fd5b670de0b6b3a76400006149776101a0830161018084016156ac565b6001600160801b0316111561265957604051633dedb6cb60e21b815260040160405180910390fd5b60008215806149ac575081155b156149b9575060006108c2565b816149cd6002670de0b6b3a7640000615ca8565b6149d990600019615d66565b6149e39190615ca8565b831115614a025760405162a748d160e21b815260040160405180910390fd5b670de0b6b3a7640000614a16600282615ca8565b614a208486615c89565b613f0b9190615997565b614a348282612379565b6114af57614a4c816001600160a01b031660146150ef565b614a578360206150ef565b604051602001614a68929190615d7d565b60408051601f198184030181529082905262461bcd60e51b825261149c91600401615ce8565b80516a636f6e736f6c652e6c6f67602083016000808483855afa5050505050565b600080614ac0633b9aca0084615c89565b905082614ad1633b9aca0083615ca8565b146108c25760405162a748d160e21b815260040160405180910390fd5b6000821580614afb575081155b15614b08575060006108c2565b81614b1f6002676765c793fa10079d601b1b615ca8565b614b2b90600019615d66565b614b359190615ca8565b831115614b545760405162a748d160e21b815260040160405180910390fd5b676765c793fa10079d601b1b614a16600282615ca8565b600080614b7d6002633b9aca00615ca8565b90506000614b8b8483615997565b905081811015614bae576040516307af724160e11b815260040160405180910390fd5b614bbc633b9aca0082615ca8565b949350505050565b6001600160801b0380831660009081526010850160205260409020600481015490914291161015614e28576000808080614bff8888886144a1565b92965090945092509050614c1c6001600160801b03831687614673565b600d89018054601090614c40908490600160801b90046001600160801b03166157f3565b82546101009290920a6001600160801b038181021990931691831602179091556002870154614c71925016826140b6565b614c7b90836157b1565b600c89018054600090614c989084906001600160801b03166157b1565b92506101000a8154816001600160801b0302191690836001600160801b0316021790555060008560050160109054906101000a90046001600160801b031684614ce191906157f3565b6004870154909150600160801b90046001600160801b0316614d6b576005860180546001600160801b0319166001600160801b038981169182179092558a54604080516001600160a01b039092168252928b166020820152918201527f6f0af1abcf1ba2094b30510b922c357e153645953c99cedcd9c731cf49c0e4919060600160405180910390a15b6005860180546001600160801b03908116600160801b8783168102919091179092556001600160801b03198782168302164282161760048901558a54600d8c01547f22f7e29f1509fbd47f3e61026d7920c0dd79fd86b88861a8e5f0f7d130a584e3936001600160a01b03909216928c92614de89204168b6140b6565b604080516001600160a01b0390941684526001600160801b039283166020850152908216908301528316606082015260800160405180910390a150505050505b50505050565b6000613ed26001600160801b03848116908416614fc5565b6001600160801b0380821660009081526010840160205260408120600c850154919290911615614f1557600c84015460048201546002830154614f12926001600160801b03908116926145fc92614ea89290811691600160801b9004166140b6565b6004880154600b890154610a1d916001600160801b03600160801b918290048116926145fc92614edb92910416836157f3565b6004890154614ef3906001600160801b0316426157f3565b60058d0154610a1d9190600160801b90046001600160801b0316615dec565b91505b5092915050565b60006108c2826001600160801b0316614aaf565b600081614f50576040516308693c7b60e31b815260040160405180910390fd5b6000614f5d600284615ca8565b9050670de0b6b3a7640000614f7482600019615d66565b614f7e9190615ca8565b841115614f9d5760405162a748d160e21b815260040160405180910390fd5b8281614fb1670de0b6b3a764000087615c89565b614fbb9190615997565b614f129190615ca8565b600081614fe5576040516308693c7b60e31b815260040160405180910390fd5b6000614ff2600284615ca8565b9050676765c793fa10079d601b1b61500c82600019615d66565b6150169190615ca8565b8411156150355760405162a748d160e21b815260040160405180910390fd5b8281614fb1676765c793fa10079d601b1b87615c89565b60975460ff166140695760405162461bcd60e51b815260206004820152601460248201527314185d5cd8589b194e881b9bdd081c185d5cd95960621b604482015260640161149c565b600054610100900460ff166140695760405162461bcd60e51b815260040161149c90615d1b565b600054610100900460ff166150e35760405162461bcd60e51b815260040161149c90615d1b565b6097805460ff19169055565b606060006150fe836002615c89565b615109906002615997565b6001600160401b0381111561512057615120615e1b565b6040519080825280601f01601f19166020018201604052801561514a576020820181803683370190505b509050600360fc1b8160008151811061516557615165615e31565b60200101906001600160f81b031916908160001a905350600f60fb1b8160018151811061519457615194615e31565b60200101906001600160f81b031916908160001a90535060006151b8846002615c89565b6151c3906001615997565b90505b600181111561523b576f181899199a1a9b1b9c1cb0b131b232b360811b85600f16601081106151f7576151f7615e31565b1a60f81b82828151811061520d5761520d615e31565b60200101906001600160f81b031916908160001a90535060049490941c9361523481615e47565b90506151c6565b508315613ed25760405162461bcd60e51b815260206004820181905260248201527f537472696e67733a20686578206c656e67746820696e73756666696369656e74604482015260640161149c565b60006020828403121561529c57600080fd5b81356001600160e01b031981168114613ed257600080fd5b6001600160a01b038116811461265957600080fd5b80356152d4816152b4565b919050565b803580151581146152d457600080fd5b600080604083850312156152fc57600080fd5b8235615307816152b4565b9150615315602084016152d9565b90509250929050565b6001600160801b03169052565b6001600160801b038116811461265957600080fd5b80356152d48161532b565b60008060006060848603121561536057600080fd5b833561536b816152b4565b9250602084013561537b8161532b565b9150604084013561538b816152b4565b809150509250925092565b6000602082840312156153a857600080fd5b5035919050565b6001600160a01b03169052565b6001600160a01b0391909116815260200190565b6000602082840312156153e257600080fd5b8135613ed2816152b4565b6000806040838503121561540057600080fd5b823591506020830135615412816152b4565b809150509250929050565b600080600080600060a0868803121561543557600080fd5b85356154408161532b565b94506020860135615450816152b4565b93506040860135615460816152b4565b92506060860135615470816152b4565b915060808601356154808161532b565b809150509295509295909350565b6001600160801b0392831681529116602082015260400190565b600080600080600060a086880312156154c057600080fd5b85356154cb8161532b565b945060208601356154db816152b4565b935060408601356154eb8161532b565b925060608601356154708161532b565b6000806040838503121561550e57600080fd5b8235615519816152b4565b915060208301356154128161532b565b6000806000806080858703121561553f57600080fd5b843561554a816152b4565b9350602085013561555a8161532b565b9250604085013561556a8161532b565b9150606085013561557a8161532b565b939692955090935050565b6000806040838503121561559857600080fd5b82356155a38161532b565b91506020830135615412816152b4565b6001600160801b03948516815292841660208401529083166040830152909116606082015260800190565b6020808252825182820181905260009190848201906040850190845b8181101561561f5783516001600160a01b0316835292840192918401916001016155fa565b50909695505050505050565b6000806040838503121561563e57600080fd5b82356155a3816152b4565b600080600080600060a0868803121561566157600080fd5b853561566c816152b4565b9450602086013561567c8161532b565b9350604086013561568c8161532b565b9250606086013561569c8161532b565b91506080860135615480816152b4565b6000602082840312156156be57600080fd5b8135613ed28161532b565b8c151581528b151560208201528a151560408201526001600160801b038a811660608301528981166080830152881660a0820152610180810161570f60c083018961531e565b61571c60e083018861531e565b61572a61010083018761531e565b61573861012083018661531e565b61574661014083018561531e565b61575461016083018461531e565b9d9c50505050505050505050505050565b6000610200828403121561577857600080fd5b50919050565b60006020828403121561579057600080fd5b8151613ed28161532b565b634e487b7160e01b600052601160045260246000fd5b60006001600160801b038281168482168083038211156157d3576157d361579b565b01949350505050565b9182526001600160801b0316602082015260400190565b60006001600160801b03838116908316818110156158135761581361579b565b039392505050565b6001600160a01b0393841681526001600160801b03929092166020830152909116604082015260600190565b60006020828403121561585957600080fd5b5051919050565b634e487b7160e01b600052601260045260246000fd5b60006001600160801b038381168061589057615890615860565b92169190910692915050565b9283526001600160801b03918216602084015216604082015260600190565b600080604083850312156158ce57600080fd5b82516158d98161532b565b60208401519092506154128161532b565b9283526001600160a01b039190911660208301526001600160801b0316604082015260600190565b9384526001600160801b039283166020850152908216604084015216606082015260800190565b6001600160a01b0392831681529116602082015260400190565b6001600160801b039290921682526001600160a01b0316602082015260400190565b6001600160a01b039290921682526001600160801b0316602082015260400190565b600082198211156159aa576159aa61579b565b500190565b6000602082840312156159c157600080fd5b815160ff81168114613ed257600080fd5b6000602082840312156159e457600080fd5b613ed2826152d9565b6102008101615a04826159ff856152c9565b6153af565b615a10602084016152c9565b615a1d60208401826153af565b50615a2a604084016152c9565b615a3760408401826153af565b50615a4460608401615340565b615a51606084018261531e565b50615a5e60808401615340565b615a6b608084018261531e565b50615a7860a08401615340565b615a8560a084018261531e565b50615a9260c08401615340565b615a9f60c084018261531e565b50615aac60e08401615340565b615ab960e084018261531e565b50610100615ac8818501615340565b615ad48285018261531e565b5050610120615ae4818501615340565b615af08285018261531e565b5050610140615b00818501615340565b615b0c8285018261531e565b5050610160615b1c818501615340565b615b288285018261531e565b5050610180615b38818501615340565b615b448285018261531e565b50506101a0615b54818501615340565b615b608285018261531e565b50506101c0615b70818501615340565b615b7c8285018261531e565b50506101e0615b8c8185016152d9565b1515920191909152919050565b600181815b80851115615bd4578160001904821115615bba57615bba61579b565b80851615615bc757918102915b93841c9390800290615b9e565b509250929050565b600082615beb575060016108c2565b81615bf8575060006108c2565b8160018114615c0e5760028114615c1857615c34565b60019150506108c2565b60ff841115615c2957615c2961579b565b50506001821b6108c2565b5060208310610133831016604e8410600b8410161715615c57575081810a6108c2565b615c618383615b99565b8060001904821115615c7557615c7561579b565b029392505050565b6000613ed28383615bdc565b6000816000190483118215151615615ca357615ca361579b565b500290565b600082615cb757615cb7615860565b500490565b60005b83811015615cd7578181015183820152602001615cbf565b83811115614e285750506000910152565b6020815260008251806020840152615d07816040850160208701615cbc565b601f01601f19169190910160400192915050565b6020808252602b908201527f496e697469616c697a61626c653a20636f6e7472616374206973206e6f74206960408201526a6e697469616c697a696e6760a81b606082015260800190565b600082821015615d7857615d7861579b565b500390565b76020b1b1b2b9b9a1b7b73a3937b61d1030b1b1b7bab73a1604d1b815260008351615daf816017850160208801615cbc565b7001034b99036b4b9b9b4b733903937b6329607d1b6017918401918201528351615de0816028840160208801615cbc565b01602801949350505050565b60006001600160801b0382811684821681151582840482111615615e1257615e1261579b565b02949350505050565b634e487b7160e01b600052604160045260246000fd5b634e487b7160e01b600052603260045260246000fd5b600081615e5657615e5661579b565b50600019019056fe71840dc4906352362b0cdaf79870196c8e42acafade72d5d5a6d59291253ceb12344277e405079ec07749d374ba0b5862a4e45a6a05ac889dbb4a991c6f9354d5f1a2aad6c8125c39041f4e0e90bc4516abd322bec644d29276f7acc4b183ffe27160668f6d81898b09bdae61c61d2c7d23fe33a52ae9b38e5b92f00ced3806ba2646970667358221220fa410dc4d7d124b992ed95a3b0eef99f67f7da6d5b7a7e8e4e525448080fef6c64736f6c63430008090033",
  "libraries": {
    "PoolLogic": "0x7964740c2373760B3FE3a3685D9eDDeDA16880b9"
  },
  "devdoc": {
    "kind": "dev",
    "methods": {
      "allow(address,address)": {
        "params": {
          "borrowerAddress": "The address to allow",
          "ownerAddress": "The identifier of the pool*"
        }
      },
      "borrow(address,uint128)": {
        "params": {
          "loanAmount": "The total amount of the loan*",
          "to": "The address to which the borrowed funds should be sent."
        }
      },
      "claimProtocolFees(address,uint128,address)": {
        "params": {
          "amount": "The amount of tokens claimed",
          "ownerAddress": "The identifier of the pool",
          "to": "The address receiving the fees*"
        }
      },
      "collectFees(address)": {
        "params": {
          "ownerAddress": "The identifier of the pool*"
        }
      },
      "collectFeesForTick(address,uint128)": {
        "params": {
          "ownerAddress": "The identifier of the pool*"
        }
      },
      "createNewPool((address,address,address,uint128,uint128,uint128,uint128,uint128,uint128,uint128,uint128,uint128,uint128,uint128,uint128,bool))": {
        "params": {
          "params": "The parameters of the new pool*"
        }
      },
      "deposit(uint128,address,address,address,uint128)": {
        "params": {
          "normalizedAmount": "The amount of the given asset to deposit",
          "ownerAddress": "The identifier of the pool",
          "rate": "The rate at which to bid for a bond",
          "sender": "The lender address who calls the deposit function on the Position",
          "underlyingToken": "Contract' address of the token to be deposited"
        },
        "returns": {
          "adjustedAmount": "Deposited amount adjusted with current liquidity index",
          "bondsIssuanceIndex": "The identifier of the borrow group to which the deposit has been allocated*"
        }
      },
      "disallow(address,address)": {
        "params": {
          "borrowerAddress": "The address to disallow",
          "ownerAddress": "The identifier of the pool*"
        }
      },
      "estimateLoanRate(uint128,address)": {
        "params": {
          "normalizedBorrowedAmount": "The amount to be borrowed from the pool",
          "ownerAddress": "The identifier of the pool"
        },
        "returns": {
          "estimatedRate": "The estimated loan rate for the current state of the pool*"
        }
      },
      "getAmountRepartition(address,uint128,uint128,uint128)": {
        "params": {
          "adjustedAmount": "Adjusted amount of tokens currently on third party yield provider",
          "bondsIssuanceIndex": "The identifier of the borrow group",
          "ownerAddress": "The identifier of the pool",
          "rate": "Tick's rate"
        },
        "returns": {
          "bondsQuantity": "Quantity of bonds held",
          "normalizedDepositedAmount": "Amount of deposit currently on third party yield provider*"
        }
      },
      "getDefaultTimestamp(address)": {
        "returns": {
          "defaultTimestamp": "The timestamp at which the pool was defaulted*"
        }
      },
      "getPoolAggregates(address)": {
        "params": {
          "ownerAddress": "The identifier of the pool"
        },
        "returns": {
          "adjustedPendingDeposits": "Amount of tokens deposited after bond issuance and currently on third party yield provider*",
          "weightedAverageLendingRate": "The average deposit bidding rate in the order book"
        }
      },
      "getPoolFeeRates(address)": {
        "returns": {
          "establishmentFeeRate": "Amount of fees paid to the protocol at borrow time",
          "repaymentFeeRate": "Amount of fees paid to the protocol at repay time*"
        }
      },
      "getPoolMaturity(address)": {
        "params": {
          "ownerAddress": "The identifier of the pool"
        },
        "returns": {
          "poolCurrentMaturity": "The pool's current maturity*"
        }
      },
      "getPoolParameters(address)": {
        "params": {
          "ownerAddress": "The identifier of the pool"
        },
        "returns": {
          "cooldownPeriod": "Period after a loan during which a borrower cannot take another loan",
          "lateRepayFeePerBondRate": "Penalty a borrower has to pay when it repays late",
          "liquidityRewardsActivationThreshold": "Minimum amount of liqudity rewards a borrower has to deposit to active the pool*",
          "liquidityRewardsDistributionRate": "Rate at which liquidity rewards are distributed to lenders",
          "loanDuration": "Duration of a loan in the pool",
          "maxBorrowableAmount": "Maximum amount of tokens that can be borrowed from the pool",
          "maxRate": "Maximum rate of deposits accepted in the pool",
          "minRate": "Minimum rate of deposits accepted in the pool",
          "rateSpacing": "Difference between two rates in the pool",
          "repaymentPeriod": "Period after a loan end during which a borrower can repay without penalty",
          "underlyingToken": "Address of the underlying token of the pool"
        }
      },
      "getPoolState(address)": {
        "params": {
          "ownerAddress": "The identifier of the pool"
        },
        "returns": {
          "active": "Signals if a pool is active and ready to accept deposits",
          "bondsIssuedQuantity": "Amount of bonds issued, to be repaid at maturity",
          "closed": "Signals if a pool was closed",
          "currentBondsIssuanceIndex": "Current borrow period identifier of the pool*",
          "currentMaturity": "End timestamp of current loan",
          "defaulted": "Signals if a pool was defaulted",
          "lowerInterestRate": "Minimum rate at which a deposit was made",
          "nextLoanMinStart": "Cool down period, minimum timestamp after which a new loan can be taken",
          "normalizedAvailableDeposits": "Actual amount of tokens available to be borrowed",
          "normalizedBorrowedAmount": "Actual amount of tokens that were borrowed",
          "remainingAdjustedLiquidityRewardsReserve": "Remaining liquidity rewards to be distributed to lenders",
          "yieldProviderLiquidityRatio": "Last recorded yield provider liquidity ratio"
        }
      },
      "getPools()": {
        "returns": {
          "_0": "pools array with pools created*"
        }
      },
      "getRepayAmounts(address,bool)": {
        "params": {
          "ownerAddress": "The identifier of the pool"
        },
        "returns": {
          "normalizedRepayAmount": "Total repay amount*"
        }
      },
      "getRoleAdmin(bytes32)": {
        "details": "Returns the admin role that controls `role`. See {grantRole} and {revokeRole}. To change a role's admin, use {_setRoleAdmin}."
      },
      "getTickAmounts(address,uint128)": {
        "params": {
          "ownerAddress": "The identifier of the pool",
          "rate": "The tick rate from which to get data"
        },
        "returns": {
          "accruedFees": "The total fees claimable in the current tick, either from yield provider interests or liquidity rewards accrual*",
          "adjustedPendingAmount": "Amount of deposit in tick deposited with the underlying yield provider that were deposited after bond issuance",
          "adjustedRemainingAmount": "Amount of tokens in tick deposited with the underlying yield provider that were deposited before bond issuance",
          "adjustedTotalAmount": "Total amount of deposit in the tick, excluding the pending amounts",
          "atlendisLiquidityRatio": "The liquidity ratio of the given tick",
          "bondsQuantity": "The quantity of bonds within the tick"
        }
      },
      "getTickLastUpdate(address,uint128)": {
        "params": {
          "ownerAddress": "The identifier of the pool pool",
          "rate": "The tick rate from which to get data"
        },
        "returns": {
          "lastFeeDistributionTimestamp": "Timestamp of the last fee's distribution to the tick*"
        }
      },
      "getTickLiquidityRatio(address,uint128)": {
        "params": {
          "ownerAddress": "The identifier of the pool",
          "rate": "The tick rate from which to extract the liquidity ratio"
        },
        "returns": {
          "liquidityRatio": "The liquidity ratio of the given tick*"
        }
      },
      "getWithdrawAmounts(address,uint128,uint128,uint128)": {
        "details": "This method is meant to be used exclusively with the withdraw() method Under certain circumstances, this method can return incorrect values, that would otherwise be rejected by the checks made in the withdraw() method",
        "params": {
          "adjustedAmount": "The amount of tokens in the position, adjusted to the deposit liquidity ratio",
          "bondsIssuanceIndex": "An index determining deposit timing",
          "ownerAddress": "The identifier of the pool",
          "rate": "The rate the position is bidding for"
        },
        "returns": {
          "adjustedAmountToWithdraw": "The amount of tokens to withdraw, adjuste for borrow pool use",
          "bondsMaturity": "The maturity of bonds remaining within the position after withdraw*",
          "depositedAmountToWithdraw": "The amount of tokens to withdraw, adjuste for position use",
          "remainingBondsQuantity": "The quantity of bonds remaining within the position"
        }
      },
      "grantRole(bytes32,address)": {
        "details": "Grants `role` to `account`. If `account` had not been already granted `role`, emits a {RoleGranted} event. Requirements: - the caller must have ``role``'s admin role. May emit a {RoleGranted} event."
      },
      "hasRole(bytes32,address)": {
        "details": "Returns `true` if `account` has been granted `role`."
      },
      "isEarlyRepay(address)": {
        "returns": {
          "earlyRepay": "Flag that signifies whether the early repay feature is activated or not*"
        }
      },
      "paused()": {
        "details": "Returns true if the contract is paused, and false otherwise."
      },
      "renounceRole(bytes32,address)": {
        "details": "Revokes `role` from the calling account. Roles are often managed via {grantRole} and {revokeRole}: this function's purpose is to provide a mechanism for accounts to lose their privileges if they are compromised (such as when a trusted device is misplaced). If the calling account had been revoked `role`, emits a {RoleRevoked} event. Requirements: - the caller must be `account`. May emit a {RoleRevoked} event."
      },
      "revokeRole(bytes32,address)": {
        "details": "Revokes `role` from `account`. If `account` had been granted `role`, emits a {RoleRevoked} event. Requirements: - the caller must have ``role``'s admin role. May emit a {RoleRevoked} event."
      },
      "setDefault(address)": {
        "params": {
          "ownerAddress": "The identifier of the pool to default*"
        }
      },
      "supportsInterface(bytes4)": {
        "details": "See {IERC165-supportsInterface}."
      },
      "topUpLiquidityRewards(uint128)": {
        "params": {
          "amount": "Amount of tokens that will be add up to the pool's liquidity rewards reserve*"
        }
      },
      "updateRate(uint128,address,uint128,uint128,uint128)": {
        "params": {
          "adjustedAmount": "The adjusted balance of tokens of the given position",
          "newRate": "The new rate of the position",
          "oldBondsIssuanceIndex": "The identifier of the borrow group from the given position",
          "oldRate": "The current rate of the position",
          "ownerAddress": "The identifier of the pool"
        },
        "returns": {
          "newAdjustedAmount": "The updated amount of tokens of the position adjusted by the new tick's global liquidity ratio",
          "newBondsIssuanceIndex": "The new borrow group id to which the updated position is linked*"
        }
      },
      "withdraw(address,uint128,uint128,uint128,address)": {
        "params": {
          "adjustedAmountToWithdraw": "The actual amount of tokens to withdraw from the position",
          "bondsIssuanceIndex": "An index determining deposit timing",
          "owner": "The address to which the withdrawns funds are sent",
          "ownerAddress": "The identifier of the pool",
          "rate": "The rate the position is bidding for"
        },
        "returns": {
          "normalizedDepositedAmountToWithdraw": "Actual amount of tokens withdrawn and sent to the lender*"
        }
      }
    },
    "version": 1
  },
  "userdoc": {
    "events": {
      "Borrow(address,uint128,uint128)": {
        "notice": "Emitted after a successful borrow"
      },
      "BorrowerAllowed(address,address)": {
        "notice": "Emitted after a borrower address was allowed to borrow from a pool"
      },
      "BorrowerDisallowed(address,address)": {
        "notice": "Emitted after a borrower address was disallowed to borrow from a pool"
      },
      "ClaimProtocolFees(address,uint128,address)": {
        "notice": "Emitted after governance claims the fees associated with a pool"
      },
      "CollectFeesForTick(address,uint128,uint128,uint128)": {
        "notice": "Emitted when liquidity rewards are distributed to a tick"
      },
      "Default(address,uint128)": {
        "notice": "Emitted when a pool defaults on its loan repayment"
      },
      "EarlyRepay(address,uint128,uint128,uint128,uint128)": {
        "notice": "Emitted after a successful early repay"
      },
      "FurtherBorrow(address,uint128,uint128)": {
        "notice": "Emitted after a successful further borrow"
      },
      "LateRepay(address,uint128,uint128,uint128,uint128,uint128)": {
        "notice": "Emitted after a successful repay, made after the repayment period Includes a late repay fee"
      },
      "PoolActivated(address)": {
        "notice": "Emitted when a pool is active, i.e. after the borrower deposits enough tokens in its pool liquidity rewards reserve as agreed before the pool creation"
      },
      "PoolClosed(address,uint128)": {
        "notice": "Emitted after pool is closed"
      },
      "PoolCreated((address,address,address,uint128,uint128,uint128,uint128,uint128,uint128,uint128,uint128,uint128,uint128,uint128,uint128,bool))": {
        "notice": "Emitted after a pool was creted*"
      },
      "Repay(address,uint128,uint128,uint128,uint128)": {
        "notice": "Emitted after a successful repay"
      },
      "SetEstablishmentFeeRate(uint128,address)": {
        "notice": "Emitted after governance sets the establishment fee for a pool*"
      },
      "SetLiquidityRewardsDistributionRate(uint128,address)": {
        "notice": "Emitted after governance sets the liquidity rewards distribution rate for a pool*"
      },
      "SetMaxBorrowableAmount(uint128,address)": {
        "notice": "Emitted after governance sets the maximum borrowable amount for a pool*"
      },
      "SetRepaymentFeeRate(uint128,address)": {
        "notice": "Emitted after governance sets the repayment fee for a pool*"
      },
      "TickBorrow(address,uint128,uint128,uint128,uint128,uint128)": {
        "notice": "Emitted when a borrow successfully impacts a tick"
      },
      "TickInitialized(address,uint128,uint128)": {
        "notice": "Emitted when a tick is initialized, i.e. when its first deposited in"
      },
      "TickLoanDeposit(address,uint128,uint128)": {
        "notice": "Emitted after a deposit on a tick that was done during a loan"
      },
      "TickNoLoanDeposit(address,uint128,uint128,uint128)": {
        "notice": "Emitted after a deposit on a tick that was done without an active loan"
      },
      "TickPendingDeposit(address,uint128,uint128,bool)": {
        "notice": "Emitted when pending amounts are merged with the rest of the pool during a repay"
      },
      "TickRepay(address,uint128,uint128,uint128)": {
        "notice": "Emitted when funds from a tick are repaid by the borrower"
      },
      "TickWithdrawPending(address,uint128,uint128)": {
        "notice": "Emitted when a withdraw is done outside of a loan on the tick"
      },
      "TickWithdrawRemaining(address,uint128,uint128,uint128,uint128)": {
        "notice": "Emitted when a withdraw is done during a loan on the tick"
      },
      "TopUpLiquidityRewards(address,uint128)": {
        "notice": "Emitted after a borrower successfully deposits tokens in its pool liquidity rewards reserve"
      }
    },
    "kind": "user",
    "methods": {
      "allow(address,address)": {
        "notice": "Allow an address to interact with a borrower pool"
      },
      "borrow(address,uint128)": {
        "notice": "Called by the borrower to sell bonds to the order book. The affected ticks get updated according the amount of bonds sold."
      },
      "claimProtocolFees(address,uint128,address)": {
        "notice": "Withdraws protocol fees to a target address"
      },
      "collectFees(address)": {
        "notice": "Collect yield provider fees as well as liquidity rewards for the whole pool Iterates over all pool initialized ticks"
      },
      "collectFeesForTick(address,uint128)": {
        "notice": "Collect yield provider fees as well as liquidity rewards for the target tick"
      },
      "createNewPool((address,address,address,uint128,uint128,uint128,uint128,uint128,uint128,uint128,uint128,uint128,uint128,uint128,uint128,bool))": {
        "notice": "Creates a new pool"
      },
      "deposit(uint128,address,address,address,uint128)": {
        "notice": "Gets called within the Position.deposit() function and enables a lender to deposit assets into a given pool's order book. The lender specifies a rate (price) at which it is willing to lend out its assets (bid on the zero coupon bond). The full amount will initially be deposited on the underlying yield provider until the borrower sells bonds at the specified rate."
      },
      "disallow(address,address)": {
        "notice": "Remove borrower pool interaction rights from an address"
      },
      "estimateLoanRate(uint128,address)": {
        "notice": "Estimates the lending rate corresponding to the input amount, depending on the current state of the pool"
      },
      "freezePool()": {
        "notice": "Stops all actions on all pools*"
      },
      "getAmountRepartition(address,uint128,uint128,uint128)": {
        "notice": "Returns the token amount's repartition between bond quantity and normalized deposited amount currently placed on third party yield provider"
      },
      "getDefaultTimestamp(address)": {
        "notice": "Returns the state of a pool"
      },
      "getPoolAggregates(address)": {
        "notice": "Returns the current state of the pool's parameters"
      },
      "getPoolFeeRates(address)": {
        "notice": "Returns the fee rates of a pool"
      },
      "getPoolMaturity(address)": {
        "notice": "Returns the current maturity of the pool"
      },
      "getPoolParameters(address)": {
        "notice": "Returns the parameters of a pool"
      },
      "getPoolState(address)": {
        "notice": "Returns the state of a pool"
      },
      "getPools()": {
        "notice": "Returns all the pools created"
      },
      "getRepayAmounts(address,bool)": {
        "notice": "Returns the total amount a borrower has to repay to a pool. Includes borrowed amount, late repay fees and protocol fees"
      },
      "getTickAmounts(address,uint128)": {
        "notice": "Returns the repartition between bonds and deposits of the given tick."
      },
      "getTickLastUpdate(address,uint128)": {
        "notice": "Returns the timestamp of the last fee distribution to the tick"
      },
      "getTickLiquidityRatio(address,uint128)": {
        "notice": "Returns the liquidity ratio of a given tick in a pool's order book. The liquidity ratio is an accounting construct to deduce the accrued interest over time."
      },
      "getWithdrawAmounts(address,uint128,uint128,uint128)": {
        "notice": "Gets called within the Position.withdraw() function and enables a lender to evaluate the exact amount of tokens it is allowed to withdraw"
      },
      "isEarlyRepay(address)": {
        "notice": "Returns the state of a pool"
      },
      "repay()": {
        "notice": "Repays a currently outstanding bonds of the given pool.*"
      },
      "setDefault(address)": {
        "notice": "Flags the pool as defaulted"
      },
      "setEstablishmentFeeRate(uint128,address)": {
        "notice": "Set the pool establishment protocol fee rate*"
      },
      "setLiquidityRewardsDistributionRate(uint128,address)": {
        "notice": "Set the pool liquidity rewards distribution rate*"
      },
      "setMaxBorrowableAmount(uint128,address)": {
        "notice": "Set the maximum amount of tokens that can be borrowed in the target pool*"
      },
      "setRepaymentFeeRate(uint128,address)": {
        "notice": "Set the pool repayment protocol fee rate*"
      },
      "topUpLiquidityRewards(uint128)": {
        "notice": "Called by the borrower to top up liquidity rewards' reserve that is distributed to liquidity providers at the pre-defined distribution rate."
      },
      "unfreezePool()": {
        "notice": "Cancel a freeze, makes actions available again on all pools*"
      },
      "updateRate(uint128,address,uint128,uint128,uint128)": {
        "notice": "Gets called within Position.updateRate() and updates the order book ticks affected by the position updating its rate. This is only possible as long as there are no bonds in the position, i.e the full position currently lies with the yield provider"
      },
      "withdraw(address,uint128,uint128,uint128,address)": {
        "notice": "Gets called within the Position.withdraw() function and enables a lender to withdraw assets that are deposited with the underlying yield provider"
      }
    },
    "version": 1
  },
  "storageLayout": {
    "storage": [
      {
        "astId": 419,
        "contract": "src/BorrowerPools.sol:BorrowerPools",
        "label": "_initialized",
        "offset": 0,
        "slot": "0",
        "type": "t_uint8"
      },
      {
        "astId": 422,
        "contract": "src/BorrowerPools.sol:BorrowerPools",
        "label": "_initializing",
        "offset": 1,
        "slot": "0",
        "type": "t_bool"
      },
      {
        "astId": 3058,
        "contract": "src/BorrowerPools.sol:BorrowerPools",
        "label": "__gap",
        "offset": 0,
        "slot": "1",
        "type": "t_array(t_uint256)50_storage"
      },
      {
        "astId": 3328,
        "contract": "src/BorrowerPools.sol:BorrowerPools",
        "label": "__gap",
        "offset": 0,
        "slot": "51",
        "type": "t_array(t_uint256)50_storage"
      },
      {
        "astId": 39,
        "contract": "src/BorrowerPools.sol:BorrowerPools",
        "label": "_roles",
        "offset": 0,
        "slot": "101",
        "type": "t_mapping(t_bytes32,t_struct(RoleData)34_storage)"
      },
      {
        "astId": 338,
        "contract": "src/BorrowerPools.sol:BorrowerPools",
        "label": "__gap",
        "offset": 0,
        "slot": "102",
        "type": "t_array(t_uint256)49_storage"
      },
      {
        "astId": 584,
        "contract": "src/BorrowerPools.sol:BorrowerPools",
        "label": "_paused",
        "offset": 0,
        "slot": "151",
        "type": "t_bool"
      },
      {
        "astId": 689,
        "contract": "src/BorrowerPools.sol:BorrowerPools",
        "label": "__gap",
        "offset": 0,
        "slot": "152",
        "type": "t_array(t_uint256)49_storage"
      },
      {
        "astId": 15797,
        "contract": "src/BorrowerPools.sol:BorrowerPools",
        "label": "borrowerAuthorizedPools",
        "offset": 0,
        "slot": "201",
        "type": "t_mapping(t_address,t_address)"
      },
      {
        "astId": 15802,
        "contract": "src/BorrowerPools.sol:BorrowerPools",
        "label": "pools",
        "offset": 0,
        "slot": "202",
        "type": "t_mapping(t_address,t_struct(Pool)23963_storage)"
      },
      {
        "astId": 15805,
        "contract": "src/BorrowerPools.sol:BorrowerPools",
        "label": "poolsAddresses",
        "offset": 0,
        "slot": "203",
        "type": "t_array(t_address)dyn_storage"
      },
      {
        "astId": 15809,
        "contract": "src/BorrowerPools.sol:BorrowerPools",
        "label": "protocolFees",
        "offset": 0,
        "slot": "204",
        "type": "t_mapping(t_address,t_uint128)"
      }
    ],
    "types": {
      "t_address": {
        "encoding": "inplace",
        "label": "address",
        "numberOfBytes": "20"
      },
      "t_array(t_address)dyn_storage": {
        "base": "t_address",
        "encoding": "dynamic_array",
        "label": "address[]",
        "numberOfBytes": "32"
      },
      "t_array(t_uint256)49_storage": {
        "base": "t_uint256",
        "encoding": "inplace",
        "label": "uint256[49]",
        "numberOfBytes": "1568"
      },
      "t_array(t_uint256)50_storage": {
        "base": "t_uint256",
        "encoding": "inplace",
        "label": "uint256[50]",
        "numberOfBytes": "1600"
      },
      "t_bool": {
        "encoding": "inplace",
        "label": "bool",
        "numberOfBytes": "1"
      },
      "t_bytes32": {
        "encoding": "inplace",
        "label": "bytes32",
        "numberOfBytes": "32"
      },
      "t_contract(YearnFinanceWrapper)20428": {
        "encoding": "inplace",
        "label": "contract YearnFinanceWrapper",
        "numberOfBytes": "20"
      },
      "t_mapping(t_address,t_address)": {
        "encoding": "mapping",
        "key": "t_address",
        "label": "mapping(address => address)",
        "numberOfBytes": "32",
        "value": "t_address"
      },
      "t_mapping(t_address,t_bool)": {
        "encoding": "mapping",
        "key": "t_address",
        "label": "mapping(address => bool)",
        "numberOfBytes": "32",
        "value": "t_bool"
      },
      "t_mapping(t_address,t_struct(Pool)23963_storage)": {
        "encoding": "mapping",
        "key": "t_address",
        "label": "mapping(address => struct Types.Pool)",
        "numberOfBytes": "32",
        "value": "t_struct(Pool)23963_storage"
      },
      "t_mapping(t_address,t_uint128)": {
        "encoding": "mapping",
        "key": "t_address",
        "label": "mapping(address => uint128)",
        "numberOfBytes": "32",
        "value": "t_uint128"
      },
      "t_mapping(t_bytes32,t_struct(RoleData)34_storage)": {
        "encoding": "mapping",
        "key": "t_bytes32",
        "label": "mapping(bytes32 => struct AccessControlUpgradeable.RoleData)",
        "numberOfBytes": "32",
        "value": "t_struct(RoleData)34_storage"
      },
      "t_mapping(t_uint128,t_uint128)": {
        "encoding": "mapping",
        "key": "t_uint128",
        "label": "mapping(uint128 => uint128)",
        "numberOfBytes": "32",
        "value": "t_uint128"
      },
      "t_mapping(t_uint256,t_struct(Tick)23888_storage)": {
        "encoding": "mapping",
        "key": "t_uint256",
        "label": "mapping(uint256 => struct Types.Tick)",
        "numberOfBytes": "32",
        "value": "t_struct(Tick)23888_storage"
      },
      "t_struct(Pool)23963_storage": {
        "encoding": "inplace",
        "label": "struct Types.Pool",
        "members": [
          {
            "astId": 23954,
            "contract": "src/BorrowerPools.sol:BorrowerPools",
            "label": "parameters",
            "offset": 0,
            "slot": "0",
            "type": "t_struct(PoolParameters)23924_storage"
          },
          {
            "astId": 23957,
            "contract": "src/BorrowerPools.sol:BorrowerPools",
            "label": "state",
            "offset": 0,
            "slot": "10",
            "type": "t_struct(PoolState)23951_storage"
          },
          {
            "astId": 23962,
            "contract": "src/BorrowerPools.sol:BorrowerPools",
            "label": "ticks",
            "offset": 0,
            "slot": "16",
            "type": "t_mapping(t_uint256,t_struct(Tick)23888_storage)"
          }
        ],
        "numberOfBytes": "544"
      },
      "t_struct(PoolParameters)23924_storage": {
        "encoding": "inplace",
        "label": "struct Types.PoolParameters",
        "members": [
          {
            "astId": 23890,
            "contract": "src/BorrowerPools.sol:BorrowerPools",
            "label": "OWNER",
            "offset": 0,
            "slot": "0",
            "type": "t_address"
          },
          {
            "astId": 23892,
            "contract": "src/BorrowerPools.sol:BorrowerPools",
            "label": "UNDERLYING_TOKEN",
            "offset": 0,
            "slot": "1",
            "type": "t_address"
          },
          {
            "astId": 23894,
            "contract": "src/BorrowerPools.sol:BorrowerPools",
            "label": "TOKEN_DECIMALS",
            "offset": 20,
            "slot": "1",
            "type": "t_uint8"
          },
          {
            "astId": 23897,
            "contract": "src/BorrowerPools.sol:BorrowerPools",
            "label": "YIELD_PROVIDER",
            "offset": 0,
            "slot": "2",
            "type": "t_contract(YearnFinanceWrapper)20428"
          },
          {
            "astId": 23899,
            "contract": "src/BorrowerPools.sol:BorrowerPools",
            "label": "MIN_RATE",
            "offset": 0,
            "slot": "3",
            "type": "t_uint128"
          },
          {
            "astId": 23901,
            "contract": "src/BorrowerPools.sol:BorrowerPools",
            "label": "MAX_RATE",
            "offset": 16,
            "slot": "3",
            "type": "t_uint128"
          },
          {
            "astId": 23903,
            "contract": "src/BorrowerPools.sol:BorrowerPools",
            "label": "RATE_SPACING",
            "offset": 0,
            "slot": "4",
            "type": "t_uint128"
          },
          {
            "astId": 23905,
            "contract": "src/BorrowerPools.sol:BorrowerPools",
            "label": "MAX_BORROWABLE_AMOUNT",
            "offset": 16,
            "slot": "4",
            "type": "t_uint128"
          },
          {
            "astId": 23907,
            "contract": "src/BorrowerPools.sol:BorrowerPools",
            "label": "LOAN_DURATION",
            "offset": 0,
            "slot": "5",
            "type": "t_uint128"
          },
          {
            "astId": 23909,
            "contract": "src/BorrowerPools.sol:BorrowerPools",
            "label": "LIQUIDITY_REWARDS_DISTRIBUTION_RATE",
            "offset": 16,
            "slot": "5",
            "type": "t_uint128"
          },
          {
            "astId": 23911,
            "contract": "src/BorrowerPools.sol:BorrowerPools",
            "label": "COOLDOWN_PERIOD",
            "offset": 0,
            "slot": "6",
            "type": "t_uint128"
          },
          {
            "astId": 23913,
            "contract": "src/BorrowerPools.sol:BorrowerPools",
            "label": "REPAYMENT_PERIOD",
            "offset": 16,
            "slot": "6",
            "type": "t_uint128"
          },
          {
            "astId": 23915,
            "contract": "src/BorrowerPools.sol:BorrowerPools",
            "label": "LATE_REPAY_FEE_PER_BOND_RATE",
            "offset": 0,
            "slot": "7",
            "type": "t_uint128"
          },
          {
            "astId": 23917,
            "contract": "src/BorrowerPools.sol:BorrowerPools",
            "label": "ESTABLISHMENT_FEE_RATE",
            "offset": 16,
            "slot": "7",
            "type": "t_uint128"
          },
          {
            "astId": 23919,
            "contract": "src/BorrowerPools.sol:BorrowerPools",
            "label": "REPAYMENT_FEE_RATE",
            "offset": 0,
            "slot": "8",
            "type": "t_uint128"
          },
          {
            "astId": 23921,
            "contract": "src/BorrowerPools.sol:BorrowerPools",
            "label": "LIQUIDITY_REWARDS_ACTIVATION_THRESHOLD",
            "offset": 16,
            "slot": "8",
            "type": "t_uint128"
          },
          {
            "astId": 23923,
            "contract": "src/BorrowerPools.sol:BorrowerPools",
            "label": "EARLY_REPAY",
            "offset": 0,
            "slot": "9",
            "type": "t_bool"
          }
        ],
        "numberOfBytes": "320"
      },
      "t_struct(PoolState)23951_storage": {
        "encoding": "inplace",
        "label": "struct Types.PoolState",
        "members": [
          {
            "astId": 23926,
            "contract": "src/BorrowerPools.sol:BorrowerPools",
            "label": "active",
            "offset": 0,
            "slot": "0",
            "type": "t_bool"
          },
          {
            "astId": 23928,
            "contract": "src/BorrowerPools.sol:BorrowerPools",
            "label": "defaulted",
            "offset": 1,
            "slot": "0",
            "type": "t_bool"
          },
          {
            "astId": 23930,
            "contract": "src/BorrowerPools.sol:BorrowerPools",
            "label": "closed",
            "offset": 2,
            "slot": "0",
            "type": "t_bool"
          },
          {
            "astId": 23932,
            "contract": "src/BorrowerPools.sol:BorrowerPools",
            "label": "currentMaturity",
            "offset": 3,
            "slot": "0",
            "type": "t_uint128"
          },
          {
            "astId": 23934,
            "contract": "src/BorrowerPools.sol:BorrowerPools",
            "label": "bondsIssuedQuantity",
            "offset": 0,
            "slot": "1",
            "type": "t_uint128"
          },
          {
            "astId": 23936,
            "contract": "src/BorrowerPools.sol:BorrowerPools",
            "label": "normalizedBorrowedAmount",
            "offset": 16,
            "slot": "1",
            "type": "t_uint128"
          },
          {
            "astId": 23938,
            "contract": "src/BorrowerPools.sol:BorrowerPools",
            "label": "normalizedAvailableDeposits",
            "offset": 0,
            "slot": "2",
            "type": "t_uint128"
          },
          {
            "astId": 23940,
            "contract": "src/BorrowerPools.sol:BorrowerPools",
            "label": "lowerInterestRate",
            "offset": 16,
            "slot": "2",
            "type": "t_uint128"
          },
          {
            "astId": 23942,
            "contract": "src/BorrowerPools.sol:BorrowerPools",
            "label": "nextLoanMinStart",
            "offset": 0,
            "slot": "3",
            "type": "t_uint128"
          },
          {
            "astId": 23944,
            "contract": "src/BorrowerPools.sol:BorrowerPools",
            "label": "remainingAdjustedLiquidityRewardsReserve",
            "offset": 16,
            "slot": "3",
            "type": "t_uint128"
          },
          {
            "astId": 23946,
            "contract": "src/BorrowerPools.sol:BorrowerPools",
            "label": "yieldProviderLiquidityRatio",
            "offset": 0,
            "slot": "4",
            "type": "t_uint128"
          },
          {
            "astId": 23948,
            "contract": "src/BorrowerPools.sol:BorrowerPools",
            "label": "currentBondsIssuanceIndex",
            "offset": 16,
            "slot": "4",
            "type": "t_uint128"
          },
          {
            "astId": 23950,
            "contract": "src/BorrowerPools.sol:BorrowerPools",
            "label": "defaultTimestamp",
            "offset": 0,
            "slot": "5",
            "type": "t_uint128"
          }
        ],
        "numberOfBytes": "192"
      },
      "t_struct(RoleData)34_storage": {
        "encoding": "inplace",
        "label": "struct AccessControlUpgradeable.RoleData",
        "members": [
          {
            "astId": 31,
            "contract": "src/BorrowerPools.sol:BorrowerPools",
            "label": "members",
            "offset": 0,
            "slot": "0",
            "type": "t_mapping(t_address,t_bool)"
          },
          {
            "astId": 33,
            "contract": "src/BorrowerPools.sol:BorrowerPools",
            "label": "adminRole",
            "offset": 0,
            "slot": "1",
            "type": "t_bytes32"
          }
        ],
        "numberOfBytes": "64"
      },
      "t_struct(Tick)23888_storage": {
        "encoding": "inplace",
        "label": "struct Types.Tick",
        "members": [
          {
            "astId": 23867,
            "contract": "src/BorrowerPools.sol:BorrowerPools",
            "label": "bondsIssuanceIndexMultiplier",
            "offset": 0,
            "slot": "0",
            "type": "t_mapping(t_uint128,t_uint128)"
          },
          {
            "astId": 23869,
            "contract": "src/BorrowerPools.sol:BorrowerPools",
            "label": "bondsQuantity",
            "offset": 0,
            "slot": "1",
            "type": "t_uint128"
          },
          {
            "astId": 23871,
            "contract": "src/BorrowerPools.sol:BorrowerPools",
            "label": "adjustedTotalAmount",
            "offset": 16,
            "slot": "1",
            "type": "t_uint128"
          },
          {
            "astId": 23873,
            "contract": "src/BorrowerPools.sol:BorrowerPools",
            "label": "adjustedRemainingAmount",
            "offset": 0,
            "slot": "2",
            "type": "t_uint128"
          },
          {
            "astId": 23875,
            "contract": "src/BorrowerPools.sol:BorrowerPools",
            "label": "adjustedWithdrawnAmount",
            "offset": 16,
            "slot": "2",
            "type": "t_uint128"
          },
          {
            "astId": 23877,
            "contract": "src/BorrowerPools.sol:BorrowerPools",
            "label": "adjustedPendingAmount",
            "offset": 0,
            "slot": "3",
            "type": "t_uint128"
          },
          {
            "astId": 23879,
            "contract": "src/BorrowerPools.sol:BorrowerPools",
            "label": "normalizedLoanedAmount",
            "offset": 16,
            "slot": "3",
            "type": "t_uint128"
          },
          {
            "astId": 23881,
            "contract": "src/BorrowerPools.sol:BorrowerPools",
            "label": "lastFeeDistributionTimestamp",
            "offset": 0,
            "slot": "4",
            "type": "t_uint128"
          },
          {
            "astId": 23883,
            "contract": "src/BorrowerPools.sol:BorrowerPools",
            "label": "atlendisLiquidityRatio",
            "offset": 16,
            "slot": "4",
            "type": "t_uint128"
          },
          {
            "astId": 23885,
            "contract": "src/BorrowerPools.sol:BorrowerPools",
            "label": "yieldProviderLiquidityRatio",
            "offset": 0,
            "slot": "5",
            "type": "t_uint128"
          },
          {
            "astId": 23887,
            "contract": "src/BorrowerPools.sol:BorrowerPools",
            "label": "accruedFees",
            "offset": 16,
            "slot": "5",
            "type": "t_uint128"
          }
        ],
        "numberOfBytes": "192"
      },
      "t_uint128": {
        "encoding": "inplace",
        "label": "uint128",
        "numberOfBytes": "16"
      },
      "t_uint256": {
        "encoding": "inplace",
        "label": "uint256",
        "numberOfBytes": "32"
      },
      "t_uint8": {
        "encoding": "inplace",
        "label": "uint8",
        "numberOfBytes": "1"
      }
    }
  }
}