{
  "address": "0x3D0b63d47BA437f69D6D0bd0aB19834D58F57C85",
  "abi": [
    {
      "inputs": [],
      "stateMutability": "nonpayable",
      "type": "constructor"
    },
    {
      "inputs": [],
      "name": "governance",
      "outputs": [
        {
          "internalType": "address",
          "name": "",
          "type": "address"
        }
      ],
      "stateMutability": "view",
      "type": "function"
    },
    {
      "inputs": [
        {
          "internalType": "address",
          "name": "token",
          "type": "address"
        }
      ],
      "name": "latestVault",
      "outputs": [
        {
          "internalType": "address",
          "name": "",
          "type": "address"
        }
      ],
      "stateMutability": "view",
      "type": "function"
    },
    {
      "inputs": [
        {
          "internalType": "address",
          "name": "token",
          "type": "address"
        },
        {
          "internalType": "address",
          "name": "vault",
          "type": "address"
        }
      ],
      "name": "newVault",
      "outputs": [],
      "stateMutability": "nonpayable",
      "type": "function"
    },
    {
      "inputs": [
        {
          "internalType": "address",
          "name": "",
          "type": "address"
        }
      ],
      "name": "numVaults",
      "outputs": [
        {
          "internalType": "uint256",
          "name": "",
          "type": "uint256"
        }
      ],
      "stateMutability": "view",
      "type": "function"
    },
    {
      "inputs": [
        {
          "internalType": "address",
          "name": "",
          "type": "address"
        },
        {
          "internalType": "uint256",
          "name": "",
          "type": "uint256"
        }
      ],
      "name": "vaults",
      "outputs": [
        {
          "internalType": "address",
          "name": "",
          "type": "address"
        }
      ],
      "stateMutability": "view",
      "type": "function"
    }
  ],
  "transactionHash": "0xa6d7fbc6b3e7053d599fa45d1a2d73ae54485c7a18613d38e423247caec33dad",
  "args": [],
  "numDeployments": 1,
  "solcInputHash": "a44d47f00d436b23a82c0c58b92fb136",
  "bytecode": "0x608060405234801561001057600080fd5b50600080546001600160a01b031916331790556102e2806100326000396000f3fe608060405234801561001057600080fd5b50600436106100575760003560e01c806354d846281461005c5780635aa6e675146100715780637bbfc69e146100a1578063e177dc70146100d5578063f9c7bba5146100e8575b600080fd5b61006f61006a3660046101e8565b610116565b005b600054610084906001600160a01b031681565b6040516001600160a01b0390911681526020015b60405180910390f35b6100846100af36600461021b565b60026020908152600092835260408084209091529082529020546001600160a01b031681565b6100846100e3366004610245565b610179565b6101086100f6366004610245565b60016020526000908152604090205481565b604051908152602001610098565b6001600160a01b03828116600081815260026020908152604080832060018084528285208054865291845291842080546001600160a01b03191696881696909617909555928252829052825491929161017090849061027d565b90915550505050565b6001600160a01b038116600090815260026020908152604080832060019283905290832054909183916101ac9190610295565b81526020810191909152604001600020546001600160a01b031692915050565b80356001600160a01b03811681146101e357600080fd5b919050565b600080604083850312156101fb57600080fd5b610204836101cc565b9150610212602084016101cc565b90509250929050565b6000806040838503121561022e57600080fd5b610237836101cc565b946020939093013593505050565b60006020828403121561025757600080fd5b610260826101cc565b9392505050565b634e487b7160e01b600052601160045260246000fd5b6000821982111561029057610290610267565b500190565b6000828210156102a7576102a7610267565b50039056fea26469706673582212208376fba7ecf435c6a8c2f155cd77c61b34bd62f86aab7e20f02f78155e2fbedc64736f6c63430008090033",
  "devdoc": {
    "kind": "dev",
    "methods": {},
    "version": 1
  },
  "userdoc": {
    "kind": "user",
    "methods": {},
    "version": 1
  },
  "storageLayout": {
    "storage": [
      {
        "astId": 25840,
        "contract": "src/mock/yearn/MockYearnRegistry.sol:MockYearnRegistry",
        "label": "governance",
        "offset": 0,
        "slot": "0",
        "type": "t_address"
      },
      {
        "astId": 25845,
        "contract": "src/mock/yearn/MockYearnRegistry.sol:MockYearnRegistry",
        "label": "numVaults",
        "offset": 0,
        "slot": "1",
        "type": "t_mapping(t_address,t_uint256)"
      },
      {
        "astId": 25852,
        "contract": "src/mock/yearn/MockYearnRegistry.sol:MockYearnRegistry",
        "label": "vaults",
        "offset": 0,
        "slot": "2",
        "type": "t_mapping(t_address,t_mapping(t_uint256,t_address))"
      }
    ],
    "types": {
      "t_address": {
        "encoding": "inplace",
        "label": "address",
        "numberOfBytes": "20"
      },
      "t_mapping(t_address,t_mapping(t_uint256,t_address))": {
        "encoding": "mapping",
        "key": "t_address",
        "label": "mapping(address => mapping(uint256 => address))",
        "numberOfBytes": "32",
        "value": "t_mapping(t_uint256,t_address)"
      },
      "t_mapping(t_address,t_uint256)": {
        "encoding": "mapping",
        "key": "t_address",
        "label": "mapping(address => uint256)",
        "numberOfBytes": "32",
        "value": "t_uint256"
      },
      "t_mapping(t_uint256,t_address)": {
        "encoding": "mapping",
        "key": "t_uint256",
        "label": "mapping(uint256 => address)",
        "numberOfBytes": "32",
        "value": "t_address"
      },
      "t_uint256": {
        "encoding": "inplace",
        "label": "uint256",
        "numberOfBytes": "32"
      }
    }
  }
}