{
  "address": "0x7964740c2373760B3FE3a3685D9eDDeDA16880b9",
  "abi": [
    {
      "inputs": [],
      "name": "MATH_ADDITION_OVERFLOW",
      "type": "error"
    },
    {
      "inputs": [],
      "name": "MATH_DIVISION_BY_ZERO",
      "type": "error"
    },
    {
      "inputs": [],
      "name": "MATH_MULTIPLICATION_OVERFLOW",
      "type": "error"
    },
    {
      "anonymous": false,
      "inputs": [
        {
          "indexed": false,
          "internalType": "address",
          "name": "borrower",
          "type": "address"
        },
        {
          "indexed": false,
          "internalType": "uint128",
          "name": "rate",
          "type": "uint128"
        },
        {
          "indexed": false,
          "internalType": "uint128",
          "name": "remainingLiquidityRewards",
          "type": "uint128"
        },
        {
          "indexed": false,
          "internalType": "uint128",
          "name": "addedAccruedFees",
          "type": "uint128"
        }
      ],
      "name": "CollectFeesForTick",
      "type": "event"
    },
    {
      "anonymous": false,
      "inputs": [
        {
          "indexed": false,
          "internalType": "address",
          "name": "ownerAddress",
          "type": "address"
        }
      ],
      "name": "PoolActivated",
      "type": "event"
    },
    {
      "anonymous": false,
      "inputs": [
        {
          "indexed": false,
          "internalType": "address",
          "name": "borrower",
          "type": "address"
        },
        {
          "indexed": false,
          "internalType": "uint128",
          "name": "rate",
          "type": "uint128"
        },
        {
          "indexed": false,
          "internalType": "uint128",
          "name": "adjustedRemainingAmountReduction",
          "type": "uint128"
        },
        {
          "indexed": false,
          "internalType": "uint128",
          "name": "loanedAmount",
          "type": "uint128"
        },
        {
          "indexed": false,
          "internalType": "uint128",
          "name": "atlendisLiquidityRatio",
          "type": "uint128"
        },
        {
          "indexed": false,
          "internalType": "uint128",
          "name": "unborrowedRatio",
          "type": "uint128"
        }
      ],
      "name": "TickBorrow",
      "type": "event"
    },
    {
      "anonymous": false,
      "inputs": [
        {
          "indexed": false,
          "internalType": "address",
          "name": "borrower",
          "type": "address"
        },
        {
          "indexed": false,
          "internalType": "uint128",
          "name": "rate",
          "type": "uint128"
        },
        {
          "indexed": false,
          "internalType": "uint128",
          "name": "atlendisLiquidityRatio",
          "type": "uint128"
        }
      ],
      "name": "TickInitialized",
      "type": "event"
    },
    {
      "anonymous": false,
      "inputs": [
        {
          "indexed": false,
          "internalType": "address",
          "name": "borrower",
          "type": "address"
        },
        {
          "indexed": false,
          "internalType": "uint128",
          "name": "rate",
          "type": "uint128"
        },
        {
          "indexed": false,
          "internalType": "uint128",
          "name": "adjustedPendingDeposit",
          "type": "uint128"
        }
      ],
      "name": "TickLoanDeposit",
      "type": "event"
    },
    {
      "anonymous": false,
      "inputs": [
        {
          "indexed": false,
          "internalType": "address",
          "name": "borrower",
          "type": "address"
        },
        {
          "indexed": false,
          "internalType": "uint128",
          "name": "rate",
          "type": "uint128"
        },
        {
          "indexed": false,
          "internalType": "uint128",
          "name": "adjustedPendingDeposit",
          "type": "uint128"
        },
        {
          "indexed": false,
          "internalType": "uint128",
          "name": "atlendisLiquidityRatio",
          "type": "uint128"
        }
      ],
      "name": "TickNoLoanDeposit",
      "type": "event"
    },
    {
      "anonymous": false,
      "inputs": [
        {
          "indexed": false,
          "internalType": "address",
          "name": "borrower",
          "type": "address"
        },
        {
          "indexed": false,
          "internalType": "uint128",
          "name": "rate",
          "type": "uint128"
        },
        {
          "indexed": false,
          "internalType": "uint128",
          "name": "adjustedPendingAmount",
          "type": "uint128"
        },
        {
          "indexed": false,
          "internalType": "bool",
          "name": "poolBondIssuanceIndexIncremented",
          "type": "bool"
        }
      ],
      "name": "TickPendingDeposit",
      "type": "event"
    },
    {
      "anonymous": false,
      "inputs": [
        {
          "indexed": false,
          "internalType": "address",
          "name": "borrower",
          "type": "address"
        },
        {
          "indexed": false,
          "internalType": "uint128",
          "name": "rate",
          "type": "uint128"
        },
        {
          "indexed": false,
          "internalType": "uint128",
          "name": "newAdjustedRemainingAmount",
          "type": "uint128"
        },
        {
          "indexed": false,
          "internalType": "uint128",
          "name": "atlendisLiquidityRatio",
          "type": "uint128"
        }
      ],
      "name": "TickRepay",
      "type": "event"
    },
    {
      "anonymous": false,
      "inputs": [
        {
          "indexed": false,
          "internalType": "address",
          "name": "borrower",
          "type": "address"
        },
        {
          "indexed": false,
          "internalType": "uint128",
          "name": "rate",
          "type": "uint128"
        },
        {
          "indexed": false,
          "internalType": "uint128",
          "name": "adjustedAmountToWithdraw",
          "type": "uint128"
        }
      ],
      "name": "TickWithdrawPending",
      "type": "event"
    },
    {
      "anonymous": false,
      "inputs": [
        {
          "indexed": false,
          "internalType": "address",
          "name": "borrower",
          "type": "address"
        },
        {
          "indexed": false,
          "internalType": "uint128",
          "name": "rate",
          "type": "uint128"
        },
        {
          "indexed": false,
          "internalType": "uint128",
          "name": "adjustedAmountToWithdraw",
          "type": "uint128"
        },
        {
          "indexed": false,
          "internalType": "uint128",
          "name": "atlendisLiquidityRatio",
          "type": "uint128"
        },
        {
          "indexed": false,
          "internalType": "uint128",
          "name": "accruedFeesToWithdraw",
          "type": "uint128"
        }
      ],
      "name": "TickWithdrawRemaining",
      "type": "event"
    },
    {
      "anonymous": false,
      "inputs": [
        {
          "indexed": false,
          "internalType": "address",
          "name": "borrower",
          "type": "address"
        },
        {
          "indexed": false,
          "internalType": "uint128",
          "name": "addedLiquidityRewards",
          "type": "uint128"
        }
      ],
      "name": "TopUpLiquidityRewards",
      "type": "event"
    },
    {
      "inputs": [],
      "name": "RAY",
      "outputs": [
        {
          "internalType": "uint256",
          "name": "",
          "type": "uint256"
        }
      ],
      "stateMutability": "view",
      "type": "function"
    },
    {
      "inputs": [],
      "name": "SECONDS_PER_YEAR",
      "outputs": [
        {
          "internalType": "uint256",
          "name": "",
          "type": "uint256"
        }
      ],
      "stateMutability": "view",
      "type": "function"
    },
    {
      "inputs": [],
      "name": "WAD",
      "outputs": [
        {
          "internalType": "uint256",
          "name": "",
          "type": "uint256"
        }
      ],
      "stateMutability": "view",
      "type": "function"
    },
    {
      "inputs": [
        {
          "internalType": "uint128",
          "name": "rate",
          "type": "uint128"
        },
        {
          "internalType": "uint128",
          "name": "loanDuration",
          "type": "uint128"
        }
      ],
      "name": "getTickBondPrice",
      "outputs": [
        {
          "internalType": "uint128",
          "name": "price",
          "type": "uint128"
        }
      ],
      "stateMutability": "view",
      "type": "function"
    }
  ],
  "transactionHash": "0x9f33fd4fe1d0437da9b6232edc364bd002e1806e652a584bc8e364206c1988b6",
  "args": [],
  "numDeployments": 1,
  "solcInputHash": "a44d47f00d436b23a82c0c58b92fb136",
  "bytecode": "0x612c9b61003a600b82828239805160001a60731461002d57634e487b7160e01b600052600060045260246000fd5b30600052607381538281f3fe73000000000000000000000000000000000000000030146080604052600436106100f05760003560e01c80631aceb8a3146100f557806339a594321461011e5780633d29c2091461015e5780634de6e91514610171578063552033c4146101915780635953c226146101b15780635ccb5f2f146101c45780636839a261146101d75780636a146024146101f95780636ef48f571461020857806374e6363414610228578063839a9c291461023b57806387610e261461024e57806398bc050e14610261578063ca8701f314610281578063d393d8c8146102a1578063e6a69ab8146102c1578063ec733dc8146102cc575b600080fd5b610108610103366004612784565b6102ec565b60405161011591906127c0565b60405180910390f35b81801561012a57600080fd5b5061013e610139366004612784565b6103b6565b604080516001600160801b03938416815292909116602083015201610115565b61013e61016c3660046127d4565b6106c4565b81801561017d57600080fd5b5061013e61018c366004612784565b610892565b6101a3676765c793fa10079d601b1b81565b604051908152602001610115565b6101086101bf3660046127d4565b610a47565b6101086101d2366004612821565b610aa7565b8180156101e357600080fd5b506101f76101f236600461284d565b610ae5565b005b6101a3670de0b6b3a764000081565b81801561021457600080fd5b506101086102233660046127d4565b610be5565b610108610236366004612880565b611039565b6101086102493660046128aa565b6110d8565b61010861025c3660046128da565b6111c9565b81801561026d57600080fd5b5061013e61027c366004612784565b61127d565b81801561028d57600080fd5b506101f761029c3660046127d4565b61146e565b8180156102ad57600080fd5b506101086102bc366004612821565b6116ea565b6101a36301e1338081565b8180156102d857600080fd5b506101086102e7366004612880565b6117cc565b600a830154600090630100000090046001600160801b0316421161034b57600a8401546103449061033490849061025c904290630100000090046001600160801b031661291a565b6001600160801b038516906119d2565b90506103af565b600f8401546001600160801b034281169116156103725750600f8401546001600160801b03165b600a8501546103ab9061039b90859061025c90630100000090046001600160801b03168561291a565b6001600160801b038616906119ea565b9150505b9392505050565b6001600160801b0382166000908152601084016020526040812081906103dc8686611a02565b600a860154630100000090046001600160801b0316156104ba576005810154610411906001600160801b038681169116611ac5565b60038201805491945084916000906104339084906001600160801b0316612931565b82546101009290920a6001600160801b03818102199093169183160217909155600e88015461046c9250600160801b9004166001612931565b86546040519193507f6b32953a10c12f4f709f00322897857fe00fa2b561933e0455a84ec2b988394a916104ad916001600160a01b0316908890879061295c565b60405180910390a1610661565b60048101546001600160801b03600160801b9091048116906104de90861682611ac5565b9350838260010160108282829054906101000a90046001600160801b03166105069190612931565b92506101000a8154816001600160801b0302191690836001600160801b03160217905550838260020160008282829054906101000a90046001600160801b03166105509190612931565b82546101009290920a6001600160801b03818102199093169183160217909155600e890154600c8a018054600160801b909204831696508893509160009161059a91859116612931565b92506101000a8154816001600160801b0302191690836001600160801b031602179055506106006105f08789600a0160040160109054906101000a90046001600160801b03168a611af49092919063ffffffff16565b6001600160801b03861690611ac5565b875460048401546040519296507feb939464eaf5658e2bd584955706dfc8718bc675077d094a211b8cac0dc0211992610657926001600160a01b0316918a918991600160801b90046001600160801b031690612986565b60405180910390a1505b600c860154600160801b90046001600160801b031615806106995750600c8601546001600160801b03600160801b9091048116908616105b156106bb57600c860180546001600160801b03808816600160801b0291161790555b50935093915050565b6001600160801b0380841660009081526010860160205260408120600e87015491928392600160801b900481169085161115610707576000859250925050610889565b610725610715888887611af4565b6001600160801b03871690611b3f565b6001820154909550600090600160801b90046001600160801b0316156107c257600282015460018301546107bf91610774916001600160801b03600160801b9283900481169290910416612931565b600284015460018501546107b0916107a0916001600160801b0391821691600160801b909104166129b8565b6001600160801b038a16906119d2565b6001600160801b0316906119ea565b90505b806001600160801b0316866001600160801b03161061085957600282015460018301546001600160801b03918216600160801b909104909116111561084857600282015460018301546108459161082d916001600160801b0391821691600160801b909104166129b8565b60018401546107b0906001600160801b0316846119d2565b93505b61085281876129b8565b9250610886565b600182015461087f906001600160801b03600160801b82048116916107b09116896119d2565b9350600092505b50505b94509492505050565b6001600160801b038083166000908152601085016020526040812060018101549192839216156106bb5760018101546108d69087906001600160801b0316876102ec565b92506108eb6001600160801b038516846119d2565b600382015490925060009061091090600160801b90046001600160801b0316856129b8565b905061096c61095e8360010160109054906101000a90046001600160801b031685848660050160109054906101000a90046001600160801b03166109549190612931565b6107b09190612931565b6001600160801b0316611b69565b600483018054601090610990908490600160801b90046001600160801b0316612931565b82546101009290920a6001600160801b038181021990931691831602179091556001840180546001600160801b031916908190556003850180548316905560058501805483169055600160801b908190048216600286018190558a5460048701546040517fff35c143d5dc744162bac187e3560816b62bc72c20ec53e36395daef9e03e44d9650610a35956001600160a01b03909316948d9493920490911690612986565b60405180910390a15050935093915050565b6001600160801b038084166000908152601086016020526040812060028101549192909116610a7a576000915050610a9f565b6002810154610a9b906001600160801b03908116906107b0908616876119d2565b9150505b949350505050565b6008820154600b8301546000916103af916001600160801b0391821691610ad691600160801b900416856129b8565b6001600160801b0316906119d2565b60018301546001600160a01b03811690600090610b16906001600160801b03851690600160a01b900460ff16611b7d565b60028601549091506001600160a01b0390811690610b40908416826001600160801b038516611bb0565b610b5e6001600160a01b03841686306001600160801b038616611caa565b60405163b6b55f2560e01b81526001600160a01b0382169063b6b55f2590610b8a9085906004016127c0565b602060405180830381600087803b158015610ba457600080fd5b505af1158015610bb8573d6000803e3d6000fd5b505050506040513d601f19601f82011682018060405250810190610bdc91906129e0565b50505050505050565b6001600160801b03831660009081526010850160205260408120610c098686611a02565b600e8601546001600160801b03600160801b909104811690841611610e73576000610c35878787611ce2565b9050808260050160108282829054906101000a90046001600160801b0316610c5d91906129b8565b92506101000a8154816001600160801b0302191690836001600160801b03160217905550848260010160108282829054906101000a90046001600160801b0316610ca791906129b8565b92506101000a8154816001600160801b0302191690836001600160801b03160217905550848260020160008282829054906101000a90046001600160801b0316610cf191906129b8565b92506101000a8154816001600160801b0302191690836001600160801b0316021790555080610d498360040160109054906101000a90046001600160801b0316876001600160801b0316611b3f90919063ffffffff16565b610d539190612931565b9250610d67836001600160801b0316611d25565b600c88018054600090610d849084906001600160801b03166129b8565b82546101009290920a6001600160801b03818102199093169183160217909155600184015416159050610dfc57848260020160108282829054906101000a90046001600160801b0316610dd79190612931565b92506101000a8154816001600160801b0302191690836001600160801b031602179055505b86546004830154604080516001600160a01b0390931683526001600160801b03898116602085015288811684830152600160801b909204821660608401529083166080830152517f1730e9224e5c01521101f332272398652a257d5d98db66bba89c1ec90f1bffed9181900360a00190a150610f11565b600381018054859190600090610e939084906001600160801b03166129b8565b82546101009290920a6001600160801b038181021990931691831602179091556005830154610ec792508682169116611b3f565b86546040519193507f13251a991ec2ae0985d69e3040c4494fc01b6d47783d144eefcc8c704e90d44891610f08916001600160a01b0316908890889061295c565b60405180910390a15b600c8601546001600160801b03868116600160801b90920416148015610f4957506001810154600160801b90046001600160801b0316155b15611030576004860154600090610f69906001600160801b031687612931565b90505b60038701546001600160801b03600160801b909104811690821611801590610fb857506001600160801b038082166000908152601089016020526040902060010154600160801b900416155b15610fdc576004870154610fd5906001600160801b031682612931565b9050610f6c565b60038701546001600160801b03600160801b90910481169082161061101157600c870180546001600160801b0316905561102e565b600c870180546001600160801b03808416600160801b0291161790555b505b50949350505050565b6006810154600a820154600091829161106c916001600160801b03600160801b9091048116916301000000900416612931565b6001600160801b03169050804211156110d257600f8301546000906001600160801b031661109a57426110a9565b600f8401546001600160801b03165b60078501549091506001600160801b03166110c4838361291a565b6110ce91906129f9565b9250505b50919050565b600a820154600090630100000090046001600160801b03166110fc575060006111c3565b8161113057600a830154630100000090046001600160801b031642116111305750600b8201546001600160801b03166111c3565b600c830154600160801b90046001600160801b03165b60038401546001600160801b03600160801b9091048116908216116111c1576001600160801b03808216600090815260108601602052604090206001810154909161119491879116846102ec565b61119e9084612931565b60048601549093506111ba91506001600160801b031682612931565b9050611146565b505b92915050565b60006112046040518060400160405280600e81526020016d3f103637b0b7223ab930ba34b7b760911b815250836001600160801b0316611d3e565b61123460405180604001604052806005815260200164207261746560d81b815250846001600160801b0316611d3e565b6103af6301e133806112526001600160801b038086169087166129f9565b61125c9190612a2e565b61126e90670de0b6b3a7640000612a42565b670de0b6b3a7640000906119ea565b6001600160801b03808316600090815260108501602052604081206004810154600282015492938493868216926112c09291821691600160801b90910416611b3f565b6001600160801b0316106112d6578391506113f7565b6005810154600482015460028301546001600160801b0380881693600160801b9081900482169361130d9383169291900416611b3f565b6113179190612931565b6001600160801b0316106113a75760048101546002820154859350611350916001600160801b0391821691600160801b90910416611b3f565b61135a90856129b8565b60058201805460109061137e908490600160801b90046001600160801b03166129b8565b92506101000a8154816001600160801b0302191690836001600160801b031602179055506113f7565b6005810154600482015460028301546001600160801b03600160801b938490048116936113d993928216920416611b3f565b6113e39190612931565b6005820180546001600160801b0316905591505b600a86015460009061144d908790630100000090046001600160801b03161561143a57600a89015461025c904290630100000090046001600160801b03166129b8565b60058901546001600160801b03166111c9565b90506114626001600160801b038416826119ea565b93505050935093915050565b6001600160801b03808416600090815260108601602052604081206001810180549193869391926114a191859116612931565b92506101000a8154816001600160801b0302191690836001600160801b0316021790555060006114fa8260040160109054906101000a90046001600160801b0316846001600160801b0316611ac590919063ffffffff16565b60028301549091506001600160801b039081169082161115611526575060028101546001600160801b03165b6002820180548291906000906115469084906001600160801b03166129b8565b92506101000a8154816001600160801b0302191690836001600160801b03160217905550828260030160108282829054906101000a90046001600160801b03166115909190612931565b82546101009290920a6001600160801b0381810219909316918316021790915560018401546002850154600093506115d39290811691600160801b9004166119ea565b87546004850154604080516001600160a01b0390931683526001600160801b038a81166020850152868116848301528881166060850152600160801b9092048216608084015290831660a0830152519192507fc60ea0182cc3972769ae86644c38db9bfeb957d141f01b27ff56b35b5097dda5919081900360c00190a1600b870180548691906000906116709084906001600160801b0316612931565b92506101000a8154816001600160801b0302191690836001600160801b031602179055508387600a0160020160008282829054906101000a90046001600160801b03166116bd91906129b8565b92506101000a8154816001600160801b0302191690836001600160801b0316021790555050505050505050565b6002820154604080516325b0985360e21b815290516000926001600160a01b0316916396c2614c916004808301926020929190829003018186803b15801561173157600080fd5b505afa158015611745573d6000803e3d6000fd5b505050506040513d601f19601f8201168201806040525081019061176991906129e0565b905061177e6001600160801b03831682611ac5565b600d840180546010906117a2908490600160801b90046001600160801b0316612931565b92506101000a8154816001600160801b0302191690836001600160801b0316021790555092915050565b600c8101546002820154604080516325b0985360e21b81529051600093600160801b90046001600160801b03169284926001600160a01b03909116916396c2614c91600480820192602092909190829003018186803b15801561182e57600080fd5b505afa158015611842573d6000803e3d6000fd5b505050506040513d601f19601f8201168201806040525081019061186691906129e0565b600d85015490915061188890600160801b90046001600160801b031682611b3f565b600c8501805491945084916000906118aa9084906001600160801b0316612931565b82546101009290920a6001600160801b03818102199093169183160217909155600d860180549091169055505b6001600160801b038083166000908152601086016020526040902060010154161580159061191d575060038401546001600160801b03600160801b909104811690831611155b156119cb57600b8401546001600160801b03838116600090815260108701602052604090206001015461195b928216916107b09187821691166119d2565b6001600160801b0380841660009081526010808801602052604090912060050180549092611993918591600160801b90910416612931565b82546101009290920a6001600160801b0381810219909316918316021790915560048601546119c492501683612931565b91506118d7565b5050919050565b60006103af6001600160801b03848116908416611d87565b60006103af6001600160801b03848116908416611e12565b6002820154604080516325b0985360e21b815290516000926001600160a01b0316916396c2614c916004808301926020929190829003018186803b158015611a4957600080fd5b505afa158015611a5d573d6000803e3d6000fd5b505050506040513d601f19601f82011682018060405250810190611a8191906129e0565b9050611a8e838383611ea7565b6001600160801b039182166000908152601090930160205260409092206005018054919092166001600160801b0319909116179055565b60006103af611aef836001600160801b0316611ae9866001600160801b03166120e7565b90612126565b6121ad565b6001600160801b0380831660009081526010850160209081526040808320858516845291829052909120549091169081611b3757676765c793fa10079d601b1b91505b509392505050565b60006103af611aef836001600160801b0316611b63866001600160801b03166120e7565b906121fe565b60006111c3826001600160801b03166120e7565b6000670de0b6b3a7640000611b9383600a612b3e565b611ba6906001600160801b0386166129f9565b6103af9190612a2e565b604051636eb1769f60e11b81523060048201526001600160a01b038381166024830152600091839186169063dd62ed3e9060440160206040518083038186803b158015611bfc57600080fd5b505afa158015611c10573d6000803e3d6000fd5b505050506040513d601f19601f82011682018060405250810190611c3491906129e0565b611c3e9190612a42565b6040516001600160a01b038516602482015260448101829052909150611ca490859063095ea7b360e01b906064015b60408051601f198184030181529190526020810180516001600160e01b03166001600160e01b03199093169290921790915261227b565b50505050565b6040516001600160a01b0380851660248301528316604482015260648101829052611ca49085906323b872dd60e01b90608401611c6d565b6001600160801b038083166000908152601085016020526040812060028101546005820154929391926103ab92918216916107b091600160801b900416866119d2565b60006103e8611d348184612b4a565b6111c39190612b70565b611d838282604051602401611d54929190612bf7565b60408051601f198184030181529190526020810180516001600160e01b0316632d839cb360e21b179052612357565b5050565b6000821580611d94575081155b15611da1575060006111c3565b81611db56002670de0b6b3a7640000612a2e565b611dc19060001961291a565b611dcb9190612a2e565b831115611dea5760405162a748d160e21b815260040160405180910390fd5b670de0b6b3a7640000611dfe600282612a2e565b611e0884866129f9565b611ba69190612a42565b600081611e32576040516308693c7b60e31b815260040160405180910390fd5b6000611e3f600284612a2e565b9050670de0b6b3a7640000611e568260001961291a565b611e609190612a2e565b841115611e7f5760405162a748d160e21b815260040160405180910390fd5b8281611e93670de0b6b3a7640000876129f9565b611e9d9190612a42565b610a9f9190612a2e565b6001600160801b0380831660009081526010850160205260409020600481015490914291161015611ca4576000808080611ee2888888612378565b92965090945092509050611eff6001600160801b03831687611ac5565b600d89018054601090611f23908490600160801b90046001600160801b03166129b8565b82546101009290920a6001600160801b038181021990931691831602179091556002870154611f5492501682611b3f565b611f5e9083612931565b600c89018054600090611f7b9084906001600160801b0316612931565b92506101000a8154816001600160801b0302191690836001600160801b0316021790555060008560050160109054906101000a90046001600160801b031684611fc491906129b8565b6004870154909150600160801b90046001600160801b0316612046576005860180546001600160801b0319166001600160801b03891617905588546040517f6f0af1abcf1ba2094b30510b922c357e153645953c99cedcd9c731cf49c0e4919161203d916001600160a01b03909116908b908b9061295c565b60405180910390a15b6005860180546001600160801b03908116600160801b8783168102919091179092556001600160801b03198782168302164282161760048901558a54600d8c01547f22f7e29f1509fbd47f3e61026d7920c0dd79fd86b88861a8e5f0f7d130a584e3936001600160a01b03909216928c926120c39204168b611b3f565b846040516120d49493929190612986565b60405180910390a1505050505050505050565b6000806120f8633b9aca00846129f9565b905082612109633b9aca0083612a2e565b146111c35760405162a748d160e21b815260040160405180910390fd5b600081612146576040516308693c7b60e31b815260040160405180910390fd5b6000612153600284612a2e565b9050676765c793fa10079d601b1b61216d8260001961291a565b6121779190612a2e565b8411156121965760405162a748d160e21b815260040160405180910390fd5b8281611e93676765c793fa10079d601b1b876129f9565b6000806121bf6002633b9aca00612a2e565b905060006121cd8483612a42565b9050818110156121f0576040516307af724160e11b815260040160405180910390fd5b6110ce633b9aca0082612a2e565b600082158061220b575081155b15612218575060006111c3565b8161222f6002676765c793fa10079d601b1b612a2e565b61223b9060001961291a565b6122459190612a2e565b8311156122645760405162a748d160e21b815260040160405180910390fd5b676765c793fa10079d601b1b611dfe600282612a2e565b60006122d0826040518060400160405280602081526020017f5361666545524332303a206c6f772d6c6576656c2063616c6c206661696c6564815250856001600160a01b03166125239092919063ffffffff16565b80519091501561235257808060200190518101906122ee9190612c19565b6123525760405162461bcd60e51b815260206004820152602a60248201527f5361666545524332303a204552433230206f7065726174696f6e20646964206e6044820152691bdd081cdd58d8d9595960b21b60648201526084015b60405180910390fd5b505050565b80516a636f6e736f6c652e6c6f67602083016000808483855afa5050505050565b6001600160801b0380831660009081526010850160205260408120600481015491928392839283929091600160801b9004166123c25785600080600094509450945094505061251a565b60048101546005820154600e8a01546001600160801b03600160801b9384900481169850928204831696506000929182169116111561240f5750600e8801546001600160801b031661241f565b5060058101546001600160801b03165b61242981886129b8565b92506124358989612532565b600d8a015490945060009061245a90600160801b90046001600160801b031689611b3f565b9050806001600160801b0316856001600160801b0316111561247a578094505b600a8a0154630100000090046001600160801b03166124e55761249d8488612931565b60028401549097506001600160801b0316156124e05760028301546124d3906001600160801b03908116906107b0908816611b69565b6124dd9088612931565b96505b612516565b600283015485906124ff906001600160801b031686611b3f565b6125099190612931565b6125139087612931565b95505b5050505b93509350935093565b6060610a9f84846000856125fe565b6001600160801b0380821660009081526010840160205260408120600c8501549192909116156111c157600c84015460048201546002830154610a9f926001600160801b03908116926107b0926125949290811691600160801b900416611b3f565b6004880154600b890154610ad6916001600160801b03600160801b918290048116926107b0926125c792910416836129b8565b60048901546125df906001600160801b0316426129b8565b60058d0154610ad69190600160801b90046001600160801b0316612b70565b60608247101561265f5760405162461bcd60e51b815260206004820152602660248201527f416464726573733a20696e73756666696369656e742062616c616e636520666f6044820152651c8818d85b1b60d21b6064820152608401612349565b6001600160a01b0385163b6126b65760405162461bcd60e51b815260206004820152601d60248201527f416464726573733a2063616c6c20746f206e6f6e2d636f6e74726163740000006044820152606401612349565b600080866001600160a01b031685876040516126d29190612c36565b60006040518083038185875af1925050503d806000811461270f576040519150601f19603f3d011682016040523d82523d6000602084013e612714565b606091505b509150915061272482828661272f565b979650505050505050565b6060831561273e5750816103af565b82511561274e5782518084602001fd5b8160405162461bcd60e51b81526004016123499190612c52565b80356001600160801b038116811461277f57600080fd5b919050565b60008060006060848603121561279957600080fd5b833592506127a960208501612768565b91506127b760408501612768565b90509250925092565b6001600160801b0391909116815260200190565b600080600080608085870312156127ea57600080fd5b843593506127fa60208601612768565b925061280860408601612768565b915061281660608601612768565b905092959194509250565b6000806040838503121561283457600080fd5b8235915061284460208401612768565b90509250929050565b60008060006060848603121561286257600080fd5b8335925060208401356001600160a01b03811681146127a957600080fd5b60006020828403121561289257600080fd5b5035919050565b80151581146128a757600080fd5b50565b600080604083850312156128bd57600080fd5b8235915060208301356128cf81612899565b809150509250929050565b600080604083850312156128ed57600080fd5b6128f683612768565b915061284460208401612768565b634e487b7160e01b600052601160045260246000fd5b60008282101561292c5761292c612904565b500390565b60006001600160801b0382811684821680830382111561295357612953612904565b01949350505050565b6001600160a01b039390931683526001600160801b03918216602084015216604082015260600190565b6001600160a01b039490941684526001600160801b039283166020850152908216604084015216606082015260800190565b60006001600160801b03838116908316818110156129d8576129d8612904565b039392505050565b6000602082840312156129f257600080fd5b5051919050565b6000816000190483118215151615612a1357612a13612904565b500290565b634e487b7160e01b600052601260045260246000fd5b600082612a3d57612a3d612a18565b500490565b60008219821115612a5557612a55612904565b500190565b600181815b80851115612a95578160001904821115612a7b57612a7b612904565b80851615612a8857918102915b93841c9390800290612a5f565b509250929050565b600082612aac575060016111c3565b81612ab9575060006111c3565b8160018114612acf5760028114612ad957612af5565b60019150506111c3565b60ff841115612aea57612aea612904565b50506001821b6111c3565b5060208310610133831016604e8410600b8410161715612b18575081810a6111c3565b612b228383612a5a565b8060001904821115612b3657612b36612904565b029392505050565b60006103af8383612a9d565b60006001600160801b0383811680612b6457612b64612a18565b92169190910492915050565b60006001600160801b0382811684821681151582840482111615612b9657612b96612904565b02949350505050565b60005b83811015612bba578181015183820152602001612ba2565b83811115611ca45750506000910152565b60008151808452612be3816020860160208601612b9f565b601f01601f19169290920160200192915050565b604081526000612c0a6040830185612bcb565b90508260208301529392505050565b600060208284031215612c2b57600080fd5b81516103af81612899565b60008251612c48818460208701612b9f565b9190910192915050565b6020815260006103af6020830184612bcb56fea2646970667358221220f94d893f048a4e2f0be18298919f0f76c7983a4fb21c56c29603e3b4a05b681464736f6c63430008090033",
  "devdoc": {
    "kind": "dev",
    "methods": {
      "addBondsToTick(Types.Pool storage,uint128,uint128,uint128)": {
        "details": "Makes all the state changes necessary to add bonds to a tick Updates tick data and conversion data*"
      },
      "computeAmountRepartitionForTick(Types.Pool storage,uint128,uint128,uint128)": {
        "details": "Computes how the position is split between deposit and bonds*"
      },
      "depositToTick(Types.Pool storage,uint128,uint128)": {
        "details": "Deposit to a target tick Updates tick data*"
      },
      "distributeLiquidityRewards(Types.Pool storage)": {
        "details": "Distributes remaining liquidity rewards reserve to lenders Called in case of pool default*"
      },
      "getBondsIssuanceParametersForTick(Types.Pool storage,uint128,uint128)": {
        "details": "Computes the quantity of bonds purchased, and the equivalent adjusted deposit amount used for the issuance*"
      },
      "getRepayValue(Types.Pool storage,bool)": {
        "details": "The return value includes only notional and accrued interest, it does not include any fees due for repay by the borrrower*"
      },
      "peekAccruedFeesShare(Types.Pool storage,uint128,uint128,uint128)": {
        "details": "Get share of accumulated fees from estimated current tick state*"
      },
      "repayForTick(Types.Pool storage,uint128,uint128)": {
        "details": "Updates tick data after a repayment*"
      },
      "topUpLiquidityRewards(Types.Pool storage,uint128)": {
        "details": "Top up liquidity rewards for later distribution*"
      },
      "withdrawDepositedAmountForTick(Types.Pool storage,uint128,uint128,uint128)": {
        "details": "Updates tick data after a withdrawal consisting of only amount deposited to yield provider*"
      }
    },
    "version": 1
  },
  "userdoc": {
    "kind": "user",
    "methods": {},
    "version": 1
  },
  "storageLayout": {
    "storage": [],
    "types": null
  }
}