{
  "address": "0xd4188B2E56098B13DB31F41E08357C5a8273E9Cf",
  "abi": [
    {
      "anonymous": false,
      "inputs": [
        {
          "indexed": true,
          "internalType": "address",
          "name": "owner",
          "type": "address"
        },
        {
          "indexed": true,
          "internalType": "address",
          "name": "spender",
          "type": "address"
        },
        {
          "indexed": false,
          "internalType": "uint256",
          "name": "value",
          "type": "uint256"
        }
      ],
      "name": "Approval",
      "type": "event"
    },
    {
      "anonymous": false,
      "inputs": [
        {
          "indexed": true,
          "internalType": "address",
          "name": "from",
          "type": "address"
        },
        {
          "indexed": true,
          "internalType": "address",
          "name": "to",
          "type": "address"
        },
        {
          "indexed": false,
          "internalType": "uint256",
          "name": "value",
          "type": "uint256"
        }
      ],
      "name": "Transfer",
      "type": "event"
    },
    {
      "inputs": [
        {
          "internalType": "address",
          "name": "owner",
          "type": "address"
        },
        {
          "internalType": "address",
          "name": "spender",
          "type": "address"
        }
      ],
      "name": "allowance",
      "outputs": [
        {
          "internalType": "uint256",
          "name": "",
          "type": "uint256"
        }
      ],
      "stateMutability": "view",
      "type": "function"
    },
    {
      "inputs": [
        {
          "internalType": "address",
          "name": "spender",
          "type": "address"
        },
        {
          "internalType": "uint256",
          "name": "amount",
          "type": "uint256"
        }
      ],
      "name": "approve",
      "outputs": [
        {
          "internalType": "bool",
          "name": "",
          "type": "bool"
        }
      ],
      "stateMutability": "nonpayable",
      "type": "function"
    },
    {
      "inputs": [
        {
          "internalType": "address",
          "name": "account",
          "type": "address"
        }
      ],
      "name": "balanceOf",
      "outputs": [
        {
          "internalType": "uint256",
          "name": "",
          "type": "uint256"
        }
      ],
      "stateMutability": "view",
      "type": "function"
    },
    {
      "inputs": [
        {
          "internalType": "uint256",
          "name": "amount",
          "type": "uint256"
        }
      ],
      "name": "burn",
      "outputs": [],
      "stateMutability": "nonpayable",
      "type": "function"
    },
    {
      "inputs": [],
      "name": "decimals",
      "outputs": [
        {
          "internalType": "uint8",
          "name": "",
          "type": "uint8"
        }
      ],
      "stateMutability": "view",
      "type": "function"
    },
    {
      "inputs": [
        {
          "internalType": "address",
          "name": "spender",
          "type": "address"
        },
        {
          "internalType": "uint256",
          "name": "subtractedValue",
          "type": "uint256"
        }
      ],
      "name": "decreaseAllowance",
      "outputs": [
        {
          "internalType": "bool",
          "name": "",
          "type": "bool"
        }
      ],
      "stateMutability": "nonpayable",
      "type": "function"
    },
    {
      "inputs": [
        {
          "internalType": "address",
          "name": "spender",
          "type": "address"
        },
        {
          "internalType": "uint256",
          "name": "addedValue",
          "type": "uint256"
        }
      ],
      "name": "increaseAllowance",
      "outputs": [
        {
          "internalType": "bool",
          "name": "",
          "type": "bool"
        }
      ],
      "stateMutability": "nonpayable",
      "type": "function"
    },
    {
      "inputs": [
        {
          "internalType": "address",
          "name": "account",
          "type": "address"
        },
        {
          "internalType": "uint256",
          "name": "amount",
          "type": "uint256"
        }
      ],
      "name": "mint",
      "outputs": [],
      "stateMutability": "nonpayable",
      "type": "function"
    },
    {
      "inputs": [],
      "name": "name",
      "outputs": [
        {
          "internalType": "string",
          "name": "",
          "type": "string"
        }
      ],
      "stateMutability": "view",
      "type": "function"
    },
    {
      "inputs": [],
      "name": "symbol",
      "outputs": [
        {
          "internalType": "string",
          "name": "",
          "type": "string"
        }
      ],
      "stateMutability": "view",
      "type": "function"
    },
    {
      "inputs": [],
      "name": "totalSupply",
      "outputs": [
        {
          "internalType": "uint256",
          "name": "",
          "type": "uint256"
        }
      ],
      "stateMutability": "view",
      "type": "function"
    },
    {
      "inputs": [
        {
          "internalType": "address",
          "name": "to",
          "type": "address"
        },
        {
          "internalType": "uint256",
          "name": "amount",
          "type": "uint256"
        }
      ],
      "name": "transfer",
      "outputs": [
        {
          "internalType": "bool",
          "name": "",
          "type": "bool"
        }
      ],
      "stateMutability": "nonpayable",
      "type": "function"
    },
    {
      "inputs": [
        {
          "internalType": "address",
          "name": "from",
          "type": "address"
        },
        {
          "internalType": "address",
          "name": "to",
          "type": "address"
        },
        {
          "internalType": "uint256",
          "name": "amount",
          "type": "uint256"
        }
      ],
      "name": "transferFrom",
      "outputs": [
        {
          "internalType": "bool",
          "name": "",
          "type": "bool"
        }
      ],
      "stateMutability": "nonpayable",
      "type": "function"
    }
  ],
  "transactionHash": "0x3e667339d1bc98c60bd39ae65c2cac1b2c937ffb4a1b93a165cc4cade9d2346f",
  "args": [],
  "numDeployments": 1,
  "solcInputHash": "a44d47f00d436b23a82c0c58b92fb136",
  "bytecode": "0x608060405234801561001057600080fd5b506040805180820182526006815265546f6b656e3160d01b602080830191825283518085019094526002845261543160f01b90840152815191929161005791600391610073565b50805161006b906004906020840190610073565b505050610147565b82805461007f9061010c565b90600052602060002090601f0160209004810192826100a157600085556100e7565b82601f106100ba57805160ff19168380011785556100e7565b828001600101855582156100e7579182015b828111156100e75782518255916020019190600101906100cc565b506100f39291506100f7565b5090565b5b808211156100f357600081556001016100f8565b600181811c9082168061012057607f821691505b6020821081141561014157634e487b7160e01b600052602260045260246000fd5b50919050565b610ab8806101566000396000f3fe608060405234801561001057600080fd5b50600436106100af5760003560e01c806306fdde03146100b4578063095ea7b3146100d257806318160ddd146100f557806323b872dd14610107578063313ce5671461011a578063395093511461012957806340c10f191461013c57806342966c681461015157806370a082311461016457806395d89b411461018d578063a457c2d714610195578063a9059cbb146101a8578063dd62ed3e146101bb575b600080fd5b6100bc6101ce565b6040516100c9919061089d565b60405180910390f35b6100e56100e036600461090e565b610260565b60405190151581526020016100c9565b6002545b6040519081526020016100c9565b6100e5610115366004610938565b610278565b604051601281526020016100c9565b6100e561013736600461090e565b6102ba565b61014f61014a36600461090e565b6102d7565b005b61014f61015f366004610974565b6102e5565b6100f961017236600461098d565b6001600160a01b031660009081526020819052604090205490565b6100bc6102f2565b6100e56101a336600461090e565b610301565b6100e56101b636600461090e565b610381565b6100f96101c93660046109af565b61038f565b6060600380546101dd906109e2565b80601f0160208091040260200160405190810160405280929190818152602001828054610209906109e2565b80156102565780601f1061022b57610100808354040283529160200191610256565b820191906000526020600020905b81548152906001019060200180831161023957829003601f168201915b5050505050905090565b60003361026e8185856103ba565b5060019392505050565b600080610285853361038f565b905060001981146102a4576102a4853361029f8685610a33565b6103ba565b6102af8585856104df565b506001949350505050565b60003361026e8185856102cd838361038f565b61029f9190610a4a565b6102e1828261069c565b5050565b6102ef3382610769565b50565b6060600480546101dd906109e2565b6000338161030f828661038f565b9050838110156103745760405162461bcd60e51b815260206004820152602560248201527f45524332303a2064656372656173656420616c6c6f77616e63652062656c6f77604482015264207a65726f60d81b60648201526084015b60405180910390fd5b6102af82868684036103ba565b60003361026e8185856104df565b6001600160a01b03918216600090815260016020908152604080832093909416825291909152205490565b6001600160a01b03831661041c5760405162461bcd60e51b8152602060048201526024808201527f45524332303a20617070726f76652066726f6d20746865207a65726f206164646044820152637265737360e01b606482015260840161036b565b6001600160a01b03821661047d5760405162461bcd60e51b815260206004820152602260248201527f45524332303a20617070726f766520746f20746865207a65726f206164647265604482015261737360f01b606482015260840161036b565b6001600160a01b0383811660008181526001602090815260408083209487168084529482529182902085905590518481527f8c5be1e5ebec7d5bd14f71427d1e84f3dd0314c0f7b2291e5b200ac8c7c3b92591015b60405180910390a3505050565b6001600160a01b0383166105435760405162461bcd60e51b815260206004820152602560248201527f45524332303a207472616e736665722066726f6d20746865207a65726f206164604482015264647265737360d81b606482015260840161036b565b6001600160a01b0382166105a55760405162461bcd60e51b815260206004820152602360248201527f45524332303a207472616e7366657220746f20746865207a65726f206164647260448201526265737360e81b606482015260840161036b565b6001600160a01b0383166000908152602081905260409020548181101561061d5760405162461bcd60e51b815260206004820152602660248201527f45524332303a207472616e7366657220616d6f756e7420657863656564732062604482015265616c616e636560d01b606482015260840161036b565b6001600160a01b03808516600090815260208190526040808220858503905591851681529081208054849290610654908490610a4a565b92505081905550826001600160a01b0316846001600160a01b0316600080516020610a638339815191528460405161068e91815260200190565b60405180910390a350505050565b6001600160a01b0382166106f25760405162461bcd60e51b815260206004820152601f60248201527f45524332303a206d696e7420746f20746865207a65726f206164647265737300604482015260640161036b565b80600260008282546107049190610a4a565b90915550506001600160a01b03821660009081526020819052604081208054839290610731908490610a4a565b90915550506040518181526001600160a01b03831690600090600080516020610a638339815191529060200160405180910390a35050565b6001600160a01b0382166107c95760405162461bcd60e51b815260206004820152602160248201527f45524332303a206275726e2066726f6d20746865207a65726f206164647265736044820152607360f81b606482015260840161036b565b6001600160a01b0382166000908152602081905260409020548181101561083d5760405162461bcd60e51b815260206004820152602260248201527f45524332303a206275726e20616d6f756e7420657863656564732062616c616e604482015261636560f01b606482015260840161036b565b6001600160a01b038316600090815260208190526040812083830390556002805484929061086c908490610a33565b90915550506040518281526000906001600160a01b03851690600080516020610a63833981519152906020016104d2565b600060208083528351808285015260005b818110156108ca578581018301518582016040015282016108ae565b818111156108dc576000604083870101525b50601f01601f1916929092016040019392505050565b80356001600160a01b038116811461090957600080fd5b919050565b6000806040838503121561092157600080fd5b61092a836108f2565b946020939093013593505050565b60008060006060848603121561094d57600080fd5b610956846108f2565b9250610964602085016108f2565b9150604084013590509250925092565b60006020828403121561098657600080fd5b5035919050565b60006020828403121561099f57600080fd5b6109a8826108f2565b9392505050565b600080604083850312156109c257600080fd5b6109cb836108f2565b91506109d9602084016108f2565b90509250929050565b600181811c908216806109f657607f821691505b60208210811415610a1757634e487b7160e01b600052602260045260246000fd5b50919050565b634e487b7160e01b600052601160045260246000fd5b600082821015610a4557610a45610a1d565b500390565b60008219821115610a5d57610a5d610a1d565b50019056feddf252ad1be2c89b69c2b068fc378daa952ba7f163c4a11628f55a4df523b3efa2646970667358221220c65361a78a43831086e4b456f289af057b6638d59a2f70fcbf7319889e21cc5d64736f6c63430008090033",
  "devdoc": {
    "kind": "dev",
    "methods": {
      "allowance(address,address)": {
        "details": "See {IERC20-allowance}."
      },
      "approve(address,uint256)": {
        "details": "See {IERC20-approve}. NOTE: If `amount` is the maximum `uint256`, the allowance is not updated on `transferFrom`. This is semantically equivalent to an infinite approval. Requirements: - `spender` cannot be the zero address."
      },
      "balanceOf(address)": {
        "details": "See {IERC20-balanceOf}."
      },
      "decimals()": {
        "details": "Returns the number of decimals used to get its user representation. For example, if `decimals` equals `2`, a balance of `505` tokens should be displayed to a user as `5.05` (`505 / 10 ** 2`). Tokens usually opt for a value of 18, imitating the relationship between Ether and Wei. This is the value {ERC20} uses, unless this function is overridden; NOTE: This information is only used for _display_ purposes: it in no way affects any of the arithmetic of the contract, including {IERC20-balanceOf} and {IERC20-transfer}."
      },
      "decreaseAllowance(address,uint256)": {
        "details": "Atomically decreases the allowance granted to `spender` by the caller. This is an alternative to {approve} that can be used as a mitigation for problems described in {IERC20-approve}. Emits an {Approval} event indicating the updated allowance. Requirements: - `spender` cannot be the zero address. - `spender` must have allowance for the caller of at least `subtractedValue`."
      },
      "increaseAllowance(address,uint256)": {
        "details": "Atomically increases the allowance granted to `spender` by the caller. This is an alternative to {approve} that can be used as a mitigation for problems described in {IERC20-approve}. Emits an {Approval} event indicating the updated allowance. Requirements: - `spender` cannot be the zero address."
      },
      "name()": {
        "details": "Returns the name of the token."
      },
      "symbol()": {
        "details": "Returns the symbol of the token, usually a shorter version of the name."
      },
      "totalSupply()": {
        "details": "See {IERC20-totalSupply}."
      },
      "transfer(address,uint256)": {
        "details": "See {IERC20-transfer}. Requirements: - `to` cannot be the zero address. - the caller must have a balance of at least `amount`."
      },
      "transferFrom(address,address,uint256)": {
        "details": "See {IERC20-transferFrom}. Emits an {Approval} event indicating the updated allowance. This is not required by the EIP. See the note at the beginning of {ERC20}. NOTE: Does not update the allowance if the current allowance is the maximum `uint256`. Requirements: - `from` and `to` cannot be the zero address. - `from` must have a balance of at least `amount`. - the caller must have allowance for ``from``'s tokens of at least `amount`."
      }
    },
    "version": 1
  },
  "userdoc": {
    "kind": "user",
    "methods": {},
    "version": 1
  },
  "storageLayout": {
    "storage": [
      {
        "astId": 3358,
        "contract": "src/mock/Token1.sol:Token1",
        "label": "_balances",
        "offset": 0,
        "slot": "0",
        "type": "t_mapping(t_address,t_uint256)"
      },
      {
        "astId": 3364,
        "contract": "src/mock/Token1.sol:Token1",
        "label": "_allowances",
        "offset": 0,
        "slot": "1",
        "type": "t_mapping(t_address,t_mapping(t_address,t_uint256))"
      },
      {
        "astId": 3366,
        "contract": "src/mock/Token1.sol:Token1",
        "label": "_totalSupply",
        "offset": 0,
        "slot": "2",
        "type": "t_uint256"
      },
      {
        "astId": 3368,
        "contract": "src/mock/Token1.sol:Token1",
        "label": "_name",
        "offset": 0,
        "slot": "3",
        "type": "t_string_storage"
      },
      {
        "astId": 3370,
        "contract": "src/mock/Token1.sol:Token1",
        "label": "_symbol",
        "offset": 0,
        "slot": "4",
        "type": "t_string_storage"
      }
    ],
    "types": {
      "t_address": {
        "encoding": "inplace",
        "label": "address",
        "numberOfBytes": "20"
      },
      "t_mapping(t_address,t_mapping(t_address,t_uint256))": {
        "encoding": "mapping",
        "key": "t_address",
        "label": "mapping(address => mapping(address => uint256))",
        "numberOfBytes": "32",
        "value": "t_mapping(t_address,t_uint256)"
      },
      "t_mapping(t_address,t_uint256)": {
        "encoding": "mapping",
        "key": "t_address",
        "label": "mapping(address => uint256)",
        "numberOfBytes": "32",
        "value": "t_uint256"
      },
      "t_string_storage": {
        "encoding": "bytes",
        "label": "string",
        "numberOfBytes": "32"
      },
      "t_uint256": {
        "encoding": "inplace",
        "label": "uint256",
        "numberOfBytes": "32"
      }
    }
  }
}