{
  "address": "0x140F2488cb28A803C6538897919c42Ab8808387e",
  "abi": [
    {
      "inputs": [],
      "name": "BP_BOND_ISSUANCE_ID_TOO_HIGH",
      "type": "error"
    },
    {
      "inputs": [],
      "name": "BP_BORROW_COOLDOWN_PERIOD_NOT_OVER",
      "type": "error"
    },
    {
      "inputs": [],
      "name": "BP_BORROW_MAX_BORROWABLE_AMOUNT_EXCEEDED",
      "type": "error"
    },
    {
      "inputs": [],
      "name": "BP_BORROW_OUT_OF_BOUND_AMOUNT",
      "type": "error"
    },
    {
      "inputs": [],
      "name": "BP_BORROW_UNSUFFICIENT_BORROWABLE_AMOUNT_WITHIN_BRACKETS",
      "type": "error"
    },
    {
      "inputs": [],
      "name": "BP_EARLY_REPAY_NOT_ACTIVATED",
      "type": "error"
    },
    {
      "inputs": [],
      "name": "BP_FLOW_NOT_ENOUGH",
      "type": "error"
    },
    {
      "inputs": [],
      "name": "BP_LOAN_ONGOING",
      "type": "error"
    },
    {
      "inputs": [],
      "name": "BP_MULTIPLE_BORROW_AFTER_MATURITY",
      "type": "error"
    },
    {
      "inputs": [],
      "name": "BP_NO_DEPOSIT_TO_WITHDRAW",
      "type": "error"
    },
    {
      "inputs": [],
      "name": "BP_OUT_OF_BOUND_MAX_RATE",
      "type": "error"
    },
    {
      "inputs": [],
      "name": "BP_OUT_OF_BOUND_MIN_RATE",
      "type": "error"
    },
    {
      "inputs": [],
      "name": "BP_POOL_DEFAULTED",
      "type": "error"
    },
    {
      "inputs": [],
      "name": "BP_POOL_NOT_ACTIVE",
      "type": "error"
    },
    {
      "inputs": [],
      "name": "BP_RATE_SPACING",
      "type": "error"
    },
    {
      "inputs": [],
      "name": "BP_REPAY_NO_ACTIVE_LOAN",
      "type": "error"
    },
    {
      "inputs": [],
      "name": "BP_TARGET_BOND_ISSUANCE_INDEX_EMPTY",
      "type": "error"
    },
    {
      "inputs": [],
      "name": "BP_UNMATCHED_TOKEN",
      "type": "error"
    },
    {
      "inputs": [],
      "name": "InvalidToken",
      "type": "error"
    },
    {
      "inputs": [],
      "name": "MATH_ADDITION_OVERFLOW",
      "type": "error"
    },
    {
      "inputs": [],
      "name": "MATH_DIVISION_BY_ZERO",
      "type": "error"
    },
    {
      "inputs": [],
      "name": "MATH_MULTIPLICATION_OVERFLOW",
      "type": "error"
    },
    {
      "inputs": [],
      "name": "PC_BORROWER_NOT_OWNER",
      "type": "error"
    },
    {
      "inputs": [],
      "name": "PC_ESTABLISHMENT_FEES_TOO_HIGH",
      "type": "error"
    },
    {
      "inputs": [],
      "name": "PC_NOT_ENOUGH_PROTOCOL_FEES",
      "type": "error"
    },
    {
      "inputs": [],
      "name": "PC_NO_ONGOING_LOAN",
      "type": "error"
    },
    {
      "inputs": [],
      "name": "PC_POOL_ALREADY_SET_FOR_BORROWER",
      "type": "error"
    },
    {
      "inputs": [],
      "name": "PC_POOL_DEFAULTED",
      "type": "error"
    },
    {
      "inputs": [],
      "name": "PC_POOL_NOT_ACTIVE",
      "type": "error"
    },
    {
      "inputs": [],
      "name": "PC_RATE_SPACING_COMPLIANCE",
      "type": "error"
    },
    {
      "inputs": [],
      "name": "PC_REPAYMENT_PERIOD_ONGOING",
      "type": "error"
    },
    {
      "inputs": [],
      "name": "PC_ZERO_ADDRESS",
      "type": "error"
    },
    {
      "inputs": [],
      "name": "PC_ZERO_POOL",
      "type": "error"
    },
    {
      "anonymous": false,
      "inputs": [
        {
          "indexed": true,
          "internalType": "address",
          "name": "OWNER",
          "type": "address"
        },
        {
          "indexed": false,
          "internalType": "uint128",
          "name": "normalizedBorrowedAmount",
          "type": "uint128"
        },
        {
          "indexed": false,
          "internalType": "uint128",
          "name": "establishmentFees",
          "type": "uint128"
        }
      ],
      "name": "Borrow",
      "type": "event"
    },
    {
      "anonymous": false,
      "inputs": [
        {
          "indexed": false,
          "internalType": "address",
          "name": "borrowerAddress",
          "type": "address"
        },
        {
          "indexed": false,
          "internalType": "address",
          "name": "ownerAddress",
          "type": "address"
        }
      ],
      "name": "BorrowerAllowed",
      "type": "event"
    },
    {
      "anonymous": false,
      "inputs": [
        {
          "indexed": false,
          "internalType": "address",
          "name": "borrowerAddress",
          "type": "address"
        },
        {
          "indexed": false,
          "internalType": "address",
          "name": "ownerAddress",
          "type": "address"
        }
      ],
      "name": "BorrowerDisallowed",
      "type": "event"
    },
    {
      "anonymous": false,
      "inputs": [
        {
          "indexed": false,
          "internalType": "address",
          "name": "ownerAddress",
          "type": "address"
        },
        {
          "indexed": false,
          "internalType": "uint128",
          "name": "normalizedAmount",
          "type": "uint128"
        },
        {
          "indexed": false,
          "internalType": "address",
          "name": "to",
          "type": "address"
        }
      ],
      "name": "ClaimProtocolFees",
      "type": "event"
    },
    {
      "anonymous": false,
      "inputs": [
        {
          "indexed": false,
          "internalType": "address",
          "name": "OWNER",
          "type": "address"
        },
        {
          "indexed": false,
          "internalType": "uint128",
          "name": "rate",
          "type": "uint128"
        },
        {
          "indexed": false,
          "internalType": "uint128",
          "name": "remainingLiquidityRewards",
          "type": "uint128"
        },
        {
          "indexed": false,
          "internalType": "uint128",
          "name": "addedAccruedFees",
          "type": "uint128"
        }
      ],
      "name": "CollectFeesForTick",
      "type": "event"
    },
    {
      "anonymous": false,
      "inputs": [
        {
          "indexed": false,
          "internalType": "address",
          "name": "ownerAddress",
          "type": "address"
        },
        {
          "indexed": false,
          "internalType": "uint128",
          "name": "distributedLiquidityRewards",
          "type": "uint128"
        }
      ],
      "name": "Default",
      "type": "event"
    },
    {
      "anonymous": false,
      "inputs": [
        {
          "indexed": true,
          "internalType": "address",
          "name": "OWNER",
          "type": "address"
        },
        {
          "indexed": false,
          "internalType": "uint128",
          "name": "normalizedRepayAmount",
          "type": "uint128"
        },
        {
          "indexed": false,
          "internalType": "uint128",
          "name": "repaymentFee",
          "type": "uint128"
        },
        {
          "indexed": false,
          "internalType": "uint128",
          "name": "normalizedDepositsAfterRepay",
          "type": "uint128"
        },
        {
          "indexed": false,
          "internalType": "uint128",
          "name": "nextLoanMinStart",
          "type": "uint128"
        }
      ],
      "name": "EarlyRepay",
      "type": "event"
    },
    {
      "anonymous": false,
      "inputs": [
        {
          "indexed": true,
          "internalType": "address",
          "name": "OWNER",
          "type": "address"
        },
        {
          "indexed": false,
          "internalType": "uint128",
          "name": "normalizedBorrowedAmount",
          "type": "uint128"
        },
        {
          "indexed": false,
          "internalType": "uint128",
          "name": "establishmentFees",
          "type": "uint128"
        }
      ],
      "name": "FurtherBorrow",
      "type": "event"
    },
    {
      "anonymous": false,
      "inputs": [
        {
          "indexed": false,
          "internalType": "uint8",
          "name": "version",
          "type": "uint8"
        }
      ],
      "name": "Initialized",
      "type": "event"
    },
    {
      "anonymous": false,
      "inputs": [
        {
          "indexed": true,
          "internalType": "address",
          "name": "OWNER",
          "type": "address"
        },
        {
          "indexed": false,
          "internalType": "uint128",
          "name": "normalizedRepayAmount",
          "type": "uint128"
        },
        {
          "indexed": false,
          "internalType": "uint128",
          "name": "lateRepayFee",
          "type": "uint128"
        },
        {
          "indexed": false,
          "internalType": "uint128",
          "name": "repaymentFee",
          "type": "uint128"
        },
        {
          "indexed": false,
          "internalType": "uint128",
          "name": "normalizedDepositsAfterRepay",
          "type": "uint128"
        },
        {
          "indexed": false,
          "internalType": "uint128",
          "name": "nextLoanMinStart",
          "type": "uint128"
        }
      ],
      "name": "LateRepay",
      "type": "event"
    },
    {
      "anonymous": false,
      "inputs": [
        {
          "indexed": false,
          "internalType": "address",
          "name": "account",
          "type": "address"
        }
      ],
      "name": "Paused",
      "type": "event"
    },
    {
      "anonymous": false,
      "inputs": [
        {
          "indexed": false,
          "internalType": "address",
          "name": "ownerAddress",
          "type": "address"
        }
      ],
      "name": "PoolActivated",
      "type": "event"
    },
    {
      "anonymous": false,
      "inputs": [
        {
          "indexed": false,
          "internalType": "address",
          "name": "ownerAddress",
          "type": "address"
        },
        {
          "indexed": false,
          "internalType": "uint128",
          "name": "collectedLiquidityRewards",
          "type": "uint128"
        }
      ],
      "name": "PoolClosed",
      "type": "event"
    },
    {
      "anonymous": false,
      "inputs": [
        {
          "components": [
            {
              "internalType": "address",
              "name": "poolOwner",
              "type": "address"
            },
            {
              "internalType": "address",
              "name": "underlyingToken",
              "type": "address"
            },
            {
              "internalType": "contract YearnFinanceWrapper",
              "name": "yieldProvider",
              "type": "address"
            },
            {
              "internalType": "uint128",
              "name": "minRate",
              "type": "uint128"
            },
            {
              "internalType": "uint128",
              "name": "maxRate",
              "type": "uint128"
            },
            {
              "internalType": "uint128",
              "name": "rateSpacing",
              "type": "uint128"
            },
            {
              "internalType": "uint128",
              "name": "maxBorrowableAmount",
              "type": "uint128"
            },
            {
              "internalType": "uint128",
              "name": "loanDuration",
              "type": "uint128"
            },
            {
              "internalType": "uint128",
              "name": "distributionRate",
              "type": "uint128"
            },
            {
              "internalType": "uint128",
              "name": "cooldownPeriod",
              "type": "uint128"
            },
            {
              "internalType": "uint128",
              "name": "repaymentPeriod",
              "type": "uint128"
            },
            {
              "internalType": "uint128",
              "name": "lateRepayFeePerBondRate",
              "type": "uint128"
            },
            {
              "internalType": "uint128",
              "name": "establishmentFeeRate",
              "type": "uint128"
            },
            {
              "internalType": "uint128",
              "name": "repaymentFeeRate",
              "type": "uint128"
            },
            {
              "internalType": "uint128",
              "name": "liquidityRewardsActivationThreshold",
              "type": "uint128"
            },
            {
              "internalType": "bool",
              "name": "earlyRepay",
              "type": "bool"
            }
          ],
          "indexed": false,
          "internalType": "struct IPoolsController.PoolCreationParams",
          "name": "params",
          "type": "tuple"
        }
      ],
      "name": "PoolCreated",
      "type": "event"
    },
    {
      "anonymous": false,
      "inputs": [
        {
          "indexed": true,
          "internalType": "address",
          "name": "OWNER",
          "type": "address"
        },
        {
          "indexed": false,
          "internalType": "uint128",
          "name": "normalizedRepayAmount",
          "type": "uint128"
        },
        {
          "indexed": false,
          "internalType": "uint128",
          "name": "repaymentFee",
          "type": "uint128"
        },
        {
          "indexed": false,
          "internalType": "uint128",
          "name": "normalizedDepositsAfterRepay",
          "type": "uint128"
        },
        {
          "indexed": false,
          "internalType": "uint128",
          "name": "nextLoanMinStart",
          "type": "uint128"
        }
      ],
      "name": "Repay",
      "type": "event"
    },
    {
      "anonymous": false,
      "inputs": [
        {
          "indexed": true,
          "internalType": "bytes32",
          "name": "role",
          "type": "bytes32"
        },
        {
          "indexed": true,
          "internalType": "bytes32",
          "name": "previousAdminRole",
          "type": "bytes32"
        },
        {
          "indexed": true,
          "internalType": "bytes32",
          "name": "newAdminRole",
          "type": "bytes32"
        }
      ],
      "name": "RoleAdminChanged",
      "type": "event"
    },
    {
      "anonymous": false,
      "inputs": [
        {
          "indexed": true,
          "internalType": "bytes32",
          "name": "role",
          "type": "bytes32"
        },
        {
          "indexed": true,
          "internalType": "address",
          "name": "account",
          "type": "address"
        },
        {
          "indexed": true,
          "internalType": "address",
          "name": "sender",
          "type": "address"
        }
      ],
      "name": "RoleGranted",
      "type": "event"
    },
    {
      "anonymous": false,
      "inputs": [
        {
          "indexed": true,
          "internalType": "bytes32",
          "name": "role",
          "type": "bytes32"
        },
        {
          "indexed": true,
          "internalType": "address",
          "name": "account",
          "type": "address"
        },
        {
          "indexed": true,
          "internalType": "address",
          "name": "sender",
          "type": "address"
        }
      ],
      "name": "RoleRevoked",
      "type": "event"
    },
    {
      "anonymous": false,
      "inputs": [
        {
          "indexed": false,
          "internalType": "uint128",
          "name": "establishmentRate",
          "type": "uint128"
        },
        {
          "indexed": false,
          "internalType": "address",
          "name": "ownerAddress",
          "type": "address"
        }
      ],
      "name": "SetEstablishmentFeeRate",
      "type": "event"
    },
    {
      "anonymous": false,
      "inputs": [
        {
          "indexed": false,
          "internalType": "uint128",
          "name": "distributionRate",
          "type": "uint128"
        },
        {
          "indexed": false,
          "internalType": "address",
          "name": "ownerAddress",
          "type": "address"
        }
      ],
      "name": "SetLiquidityRewardsDistributionRate",
      "type": "event"
    },
    {
      "anonymous": false,
      "inputs": [
        {
          "indexed": false,
          "internalType": "uint128",
          "name": "maxTokenDeposit",
          "type": "uint128"
        },
        {
          "indexed": false,
          "internalType": "address",
          "name": "ownerAddress",
          "type": "address"
        }
      ],
      "name": "SetMaxBorrowableAmount",
      "type": "event"
    },
    {
      "anonymous": false,
      "inputs": [
        {
          "indexed": false,
          "internalType": "uint128",
          "name": "repaymentFeeRate",
          "type": "uint128"
        },
        {
          "indexed": false,
          "internalType": "address",
          "name": "ownerAddress",
          "type": "address"
        }
      ],
      "name": "SetRepaymentFeeRate",
      "type": "event"
    },
    {
      "anonymous": false,
      "inputs": [
        {
          "indexed": false,
          "internalType": "address",
          "name": "token",
          "type": "address"
        },
        {
          "indexed": false,
          "internalType": "address",
          "name": "superToken",
          "type": "address"
        }
      ],
      "name": "SetTokenToSuperToken",
      "type": "event"
    },
    {
      "anonymous": false,
      "inputs": [
        {
          "indexed": false,
          "internalType": "address",
          "name": "OWNER",
          "type": "address"
        },
        {
          "indexed": false,
          "internalType": "uint128",
          "name": "rate",
          "type": "uint128"
        },
        {
          "indexed": false,
          "internalType": "uint128",
          "name": "adjustedRemainingAmountReduction",
          "type": "uint128"
        },
        {
          "indexed": false,
          "internalType": "uint128",
          "name": "loanedAmount",
          "type": "uint128"
        },
        {
          "indexed": false,
          "internalType": "uint128",
          "name": "atlendisLiquidityRatio",
          "type": "uint128"
        },
        {
          "indexed": false,
          "internalType": "uint128",
          "name": "unborrowedRatio",
          "type": "uint128"
        }
      ],
      "name": "TickBorrow",
      "type": "event"
    },
    {
      "anonymous": false,
      "inputs": [
        {
          "indexed": false,
          "internalType": "address",
          "name": "OWNER",
          "type": "address"
        },
        {
          "indexed": false,
          "internalType": "uint128",
          "name": "rate",
          "type": "uint128"
        },
        {
          "indexed": false,
          "internalType": "uint128",
          "name": "atlendisLiquidityRatio",
          "type": "uint128"
        }
      ],
      "name": "TickInitialized",
      "type": "event"
    },
    {
      "anonymous": false,
      "inputs": [
        {
          "indexed": false,
          "internalType": "address",
          "name": "OWNER",
          "type": "address"
        },
        {
          "indexed": false,
          "internalType": "uint128",
          "name": "rate",
          "type": "uint128"
        },
        {
          "indexed": false,
          "internalType": "uint128",
          "name": "adjustedPendingDeposit",
          "type": "uint128"
        }
      ],
      "name": "TickLoanDeposit",
      "type": "event"
    },
    {
      "anonymous": false,
      "inputs": [
        {
          "indexed": false,
          "internalType": "address",
          "name": "OWNER",
          "type": "address"
        },
        {
          "indexed": false,
          "internalType": "uint128",
          "name": "rate",
          "type": "uint128"
        },
        {
          "indexed": false,
          "internalType": "uint128",
          "name": "adjustedAvailableDeposit",
          "type": "uint128"
        },
        {
          "indexed": false,
          "internalType": "uint128",
          "name": "atlendisLiquidityRatio",
          "type": "uint128"
        }
      ],
      "name": "TickNoLoanDeposit",
      "type": "event"
    },
    {
      "anonymous": false,
      "inputs": [
        {
          "indexed": false,
          "internalType": "address",
          "name": "OWNER",
          "type": "address"
        },
        {
          "indexed": false,
          "internalType": "uint128",
          "name": "rate",
          "type": "uint128"
        },
        {
          "indexed": false,
          "internalType": "uint128",
          "name": "adjustedPendingAmount",
          "type": "uint128"
        },
        {
          "indexed": false,
          "internalType": "bool",
          "name": "poolBondIssuanceIndexIncremented",
          "type": "bool"
        }
      ],
      "name": "TickPendingDeposit",
      "type": "event"
    },
    {
      "anonymous": false,
      "inputs": [
        {
          "indexed": false,
          "internalType": "address",
          "name": "OWNER",
          "type": "address"
        },
        {
          "indexed": false,
          "internalType": "uint128",
          "name": "rate",
          "type": "uint128"
        },
        {
          "indexed": false,
          "internalType": "uint128",
          "name": "adjustedRemainingAmount",
          "type": "uint128"
        },
        {
          "indexed": false,
          "internalType": "uint128",
          "name": "atlendisLiquidityRatio",
          "type": "uint128"
        }
      ],
      "name": "TickRepay",
      "type": "event"
    },
    {
      "anonymous": false,
      "inputs": [
        {
          "indexed": false,
          "internalType": "address",
          "name": "OWNER",
          "type": "address"
        },
        {
          "indexed": false,
          "internalType": "uint128",
          "name": "rate",
          "type": "uint128"
        },
        {
          "indexed": false,
          "internalType": "uint128",
          "name": "adjustedAmountToWithdraw",
          "type": "uint128"
        }
      ],
      "name": "TickWithdrawPending",
      "type": "event"
    },
    {
      "anonymous": false,
      "inputs": [
        {
          "indexed": false,
          "internalType": "address",
          "name": "OWNER",
          "type": "address"
        },
        {
          "indexed": false,
          "internalType": "uint128",
          "name": "rate",
          "type": "uint128"
        },
        {
          "indexed": false,
          "internalType": "uint128",
          "name": "adjustedAmountToWithdraw",
          "type": "uint128"
        },
        {
          "indexed": false,
          "internalType": "uint128",
          "name": "atlendisLiquidityRatio",
          "type": "uint128"
        },
        {
          "indexed": false,
          "internalType": "uint128",
          "name": "accruedFeesToWithdraw",
          "type": "uint128"
        }
      ],
      "name": "TickWithdrawRemaining",
      "type": "event"
    },
    {
      "anonymous": false,
      "inputs": [
        {
          "indexed": false,
          "internalType": "address",
          "name": "OWNER",
          "type": "address"
        },
        {
          "indexed": false,
          "internalType": "uint128",
          "name": "normalizedAmount",
          "type": "uint128"
        }
      ],
      "name": "TopUpLiquidityRewards",
      "type": "event"
    },
    {
      "anonymous": false,
      "inputs": [
        {
          "indexed": false,
          "internalType": "address",
          "name": "account",
          "type": "address"
        }
      ],
      "name": "Unpaused",
      "type": "event"
    },
    {
      "inputs": [],
      "name": "DEFAULT_ADMIN_ROLE",
      "outputs": [
        {
          "internalType": "bytes32",
          "name": "",
          "type": "bytes32"
        }
      ],
      "stateMutability": "view",
      "type": "function"
    },
    {
      "inputs": [
        {
          "internalType": "address",
          "name": "borrowerAddress",
          "type": "address"
        },
        {
          "internalType": "address",
          "name": "ownerAddress",
          "type": "address"
        }
      ],
      "name": "allow",
      "outputs": [],
      "stateMutability": "nonpayable",
      "type": "function"
    },
    {
      "inputs": [
        {
          "internalType": "address",
          "name": "to",
          "type": "address"
        },
        {
          "internalType": "uint128",
          "name": "loanAmount",
          "type": "uint128"
        },
        {
          "internalType": "contract ISuperToken",
          "name": "_superToken",
          "type": "address"
        },
        {
          "internalType": "int96",
          "name": "flowRate",
          "type": "int96"
        }
      ],
      "name": "borrow",
      "outputs": [],
      "stateMutability": "nonpayable",
      "type": "function"
    },
    {
      "inputs": [
        {
          "internalType": "address",
          "name": "",
          "type": "address"
        }
      ],
      "name": "borrowerAuthorizedPools",
      "outputs": [
        {
          "internalType": "address",
          "name": "",
          "type": "address"
        }
      ],
      "stateMutability": "view",
      "type": "function"
    },
    {
      "inputs": [
        {
          "internalType": "address",
          "name": "ownerAddress",
          "type": "address"
        },
        {
          "internalType": "uint128",
          "name": "amount",
          "type": "uint128"
        },
        {
          "internalType": "address",
          "name": "to",
          "type": "address"
        }
      ],
      "name": "claimProtocolFees",
      "outputs": [],
      "stateMutability": "nonpayable",
      "type": "function"
    },
    {
      "inputs": [
        {
          "internalType": "address",
          "name": "ownerAddress",
          "type": "address"
        }
      ],
      "name": "collectFees",
      "outputs": [],
      "stateMutability": "nonpayable",
      "type": "function"
    },
    {
      "inputs": [
        {
          "internalType": "address",
          "name": "ownerAddress",
          "type": "address"
        },
        {
          "internalType": "uint128",
          "name": "rate",
          "type": "uint128"
        }
      ],
      "name": "collectFeesForTick",
      "outputs": [],
      "stateMutability": "nonpayable",
      "type": "function"
    },
    {
      "inputs": [
        {
          "components": [
            {
              "internalType": "address",
              "name": "poolOwner",
              "type": "address"
            },
            {
              "internalType": "address",
              "name": "underlyingToken",
              "type": "address"
            },
            {
              "internalType": "contract YearnFinanceWrapper",
              "name": "yieldProvider",
              "type": "address"
            },
            {
              "internalType": "uint128",
              "name": "minRate",
              "type": "uint128"
            },
            {
              "internalType": "uint128",
              "name": "maxRate",
              "type": "uint128"
            },
            {
              "internalType": "uint128",
              "name": "rateSpacing",
              "type": "uint128"
            },
            {
              "internalType": "uint128",
              "name": "maxBorrowableAmount",
              "type": "uint128"
            },
            {
              "internalType": "uint128",
              "name": "loanDuration",
              "type": "uint128"
            },
            {
              "internalType": "uint128",
              "name": "distributionRate",
              "type": "uint128"
            },
            {
              "internalType": "uint128",
              "name": "cooldownPeriod",
              "type": "uint128"
            },
            {
              "internalType": "uint128",
              "name": "repaymentPeriod",
              "type": "uint128"
            },
            {
              "internalType": "uint128",
              "name": "lateRepayFeePerBondRate",
              "type": "uint128"
            },
            {
              "internalType": "uint128",
              "name": "establishmentFeeRate",
              "type": "uint128"
            },
            {
              "internalType": "uint128",
              "name": "repaymentFeeRate",
              "type": "uint128"
            },
            {
              "internalType": "uint128",
              "name": "liquidityRewardsActivationThreshold",
              "type": "uint128"
            },
            {
              "internalType": "bool",
              "name": "earlyRepay",
              "type": "bool"
            }
          ],
          "internalType": "struct IPoolsController.PoolCreationParams",
          "name": "params",
          "type": "tuple"
        }
      ],
      "name": "createNewPool",
      "outputs": [],
      "stateMutability": "nonpayable",
      "type": "function"
    },
    {
      "inputs": [
        {
          "internalType": "uint128",
          "name": "rate",
          "type": "uint128"
        },
        {
          "internalType": "address",
          "name": "ownerAddress",
          "type": "address"
        },
        {
          "internalType": "address",
          "name": "underlyingToken",
          "type": "address"
        },
        {
          "internalType": "address",
          "name": "sender",
          "type": "address"
        },
        {
          "internalType": "uint128",
          "name": "normalizedAmount",
          "type": "uint128"
        }
      ],
      "name": "deposit",
      "outputs": [
        {
          "internalType": "uint128",
          "name": "adjustedAmount",
          "type": "uint128"
        },
        {
          "internalType": "uint128",
          "name": "bondsIssuanceIndex",
          "type": "uint128"
        }
      ],
      "stateMutability": "nonpayable",
      "type": "function"
    },
    {
      "inputs": [
        {
          "internalType": "address",
          "name": "borrowerAddress",
          "type": "address"
        },
        {
          "internalType": "address",
          "name": "ownerAddress",
          "type": "address"
        }
      ],
      "name": "disallow",
      "outputs": [],
      "stateMutability": "nonpayable",
      "type": "function"
    },
    {
      "inputs": [
        {
          "internalType": "uint128",
          "name": "normalizedBorrowedAmount",
          "type": "uint128"
        },
        {
          "internalType": "address",
          "name": "ownerAddress",
          "type": "address"
        }
      ],
      "name": "estimateLoanRate",
      "outputs": [
        {
          "internalType": "uint128",
          "name": "estimatedRate",
          "type": "uint128"
        }
      ],
      "stateMutability": "view",
      "type": "function"
    },
    {
      "inputs": [],
      "name": "freezePool",
      "outputs": [],
      "stateMutability": "nonpayable",
      "type": "function"
    },
    {
      "inputs": [
        {
          "internalType": "address",
          "name": "ownerAddress",
          "type": "address"
        },
        {
          "internalType": "uint128",
          "name": "rate",
          "type": "uint128"
        },
        {
          "internalType": "uint128",
          "name": "adjustedAmount",
          "type": "uint128"
        },
        {
          "internalType": "uint128",
          "name": "bondsIssuanceIndex",
          "type": "uint128"
        }
      ],
      "name": "getAmountRepartition",
      "outputs": [
        {
          "internalType": "uint128",
          "name": "bondsQuantity",
          "type": "uint128"
        },
        {
          "internalType": "uint128",
          "name": "normalizedDepositedAmount",
          "type": "uint128"
        }
      ],
      "stateMutability": "view",
      "type": "function"
    },
    {
      "inputs": [
        {
          "internalType": "address",
          "name": "ownerAddress",
          "type": "address"
        }
      ],
      "name": "getDefaultTimestamp",
      "outputs": [
        {
          "internalType": "uint128",
          "name": "defaultTimestamp",
          "type": "uint128"
        }
      ],
      "stateMutability": "view",
      "type": "function"
    },
    {
      "inputs": [
        {
          "internalType": "address",
          "name": "ownerAddress",
          "type": "address"
        }
      ],
      "name": "getPoolAggregates",
      "outputs": [
        {
          "internalType": "uint128",
          "name": "weightedAverageLendingRate",
          "type": "uint128"
        },
        {
          "internalType": "uint128",
          "name": "adjustedPendingDeposits",
          "type": "uint128"
        }
      ],
      "stateMutability": "view",
      "type": "function"
    },
    {
      "inputs": [
        {
          "internalType": "address",
          "name": "ownerAddress",
          "type": "address"
        }
      ],
      "name": "getPoolFeeRates",
      "outputs": [
        {
          "internalType": "uint128",
          "name": "establishmentFeeRate",
          "type": "uint128"
        },
        {
          "internalType": "uint128",
          "name": "repaymentFeeRate",
          "type": "uint128"
        }
      ],
      "stateMutability": "view",
      "type": "function"
    },
    {
      "inputs": [
        {
          "internalType": "address",
          "name": "ownerAddress",
          "type": "address"
        }
      ],
      "name": "getPoolMaturity",
      "outputs": [
        {
          "internalType": "uint128",
          "name": "poolCurrentMaturity",
          "type": "uint128"
        }
      ],
      "stateMutability": "view",
      "type": "function"
    },
    {
      "inputs": [
        {
          "internalType": "address",
          "name": "ownerAddress",
          "type": "address"
        }
      ],
      "name": "getPoolParameters",
      "outputs": [
        {
          "internalType": "address",
          "name": "underlyingToken",
          "type": "address"
        },
        {
          "internalType": "uint128",
          "name": "minRate",
          "type": "uint128"
        },
        {
          "internalType": "uint128",
          "name": "maxRate",
          "type": "uint128"
        },
        {
          "internalType": "uint128",
          "name": "rateSpacing",
          "type": "uint128"
        },
        {
          "internalType": "uint128",
          "name": "maxBorrowableAmount",
          "type": "uint128"
        },
        {
          "internalType": "uint128",
          "name": "loanDuration",
          "type": "uint128"
        },
        {
          "internalType": "uint128",
          "name": "liquidityRewardsDistributionRate",
          "type": "uint128"
        },
        {
          "internalType": "uint128",
          "name": "cooldownPeriod",
          "type": "uint128"
        },
        {
          "internalType": "uint128",
          "name": "repaymentPeriod",
          "type": "uint128"
        },
        {
          "internalType": "uint128",
          "name": "lateRepayFeePerBondRate",
          "type": "uint128"
        },
        {
          "internalType": "uint128",
          "name": "liquidityRewardsActivationThreshold",
          "type": "uint128"
        }
      ],
      "stateMutability": "view",
      "type": "function"
    },
    {
      "inputs": [
        {
          "internalType": "address",
          "name": "ownerAddress",
          "type": "address"
        }
      ],
      "name": "getPoolState",
      "outputs": [
        {
          "internalType": "bool",
          "name": "active",
          "type": "bool"
        },
        {
          "internalType": "bool",
          "name": "defaulted",
          "type": "bool"
        },
        {
          "internalType": "bool",
          "name": "closed",
          "type": "bool"
        },
        {
          "internalType": "uint128",
          "name": "currentMaturity",
          "type": "uint128"
        },
        {
          "internalType": "uint128",
          "name": "bondsIssuedQuantity",
          "type": "uint128"
        },
        {
          "internalType": "uint128",
          "name": "normalizedBorrowedAmount",
          "type": "uint128"
        },
        {
          "internalType": "uint128",
          "name": "normalizedAvailableDeposits",
          "type": "uint128"
        },
        {
          "internalType": "uint128",
          "name": "lowerInterestRate",
          "type": "uint128"
        },
        {
          "internalType": "uint128",
          "name": "nextLoanMinStart",
          "type": "uint128"
        },
        {
          "internalType": "uint128",
          "name": "remainingAdjustedLiquidityRewardsReserve",
          "type": "uint128"
        },
        {
          "internalType": "uint128",
          "name": "yieldProviderLiquidityRatio",
          "type": "uint128"
        },
        {
          "internalType": "uint128",
          "name": "currentBondsIssuanceIndex",
          "type": "uint128"
        }
      ],
      "stateMutability": "view",
      "type": "function"
    },
    {
      "inputs": [],
      "name": "getPoolsAddresses",
      "outputs": [
        {
          "internalType": "address[]",
          "name": "",
          "type": "address[]"
        }
      ],
      "stateMutability": "view",
      "type": "function"
    },
    {
      "inputs": [
        {
          "internalType": "address",
          "name": "ownerAddress",
          "type": "address"
        }
      ],
      "name": "getProtocolFees",
      "outputs": [
        {
          "internalType": "uint128",
          "name": "",
          "type": "uint128"
        }
      ],
      "stateMutability": "view",
      "type": "function"
    },
    {
      "inputs": [
        {
          "internalType": "address",
          "name": "ownerAddress",
          "type": "address"
        },
        {
          "internalType": "bool",
          "name": "earlyRepay",
          "type": "bool"
        }
      ],
      "name": "getRepayAmounts",
      "outputs": [
        {
          "internalType": "uint128",
          "name": "normalizedRepayAmount",
          "type": "uint128"
        },
        {
          "internalType": "uint128",
          "name": "lateRepayFee",
          "type": "uint128"
        },
        {
          "internalType": "uint128",
          "name": "repaymentFees",
          "type": "uint128"
        }
      ],
      "stateMutability": "view",
      "type": "function"
    },
    {
      "inputs": [
        {
          "internalType": "address",
          "name": "ownerAddress",
          "type": "address"
        },
        {
          "internalType": "uint128",
          "name": "loanAmount",
          "type": "uint128"
        }
      ],
      "name": "getRepaymentAmount",
      "outputs": [
        {
          "internalType": "uint128",
          "name": "",
          "type": "uint128"
        }
      ],
      "stateMutability": "view",
      "type": "function"
    },
    {
      "inputs": [
        {
          "internalType": "bytes32",
          "name": "role",
          "type": "bytes32"
        }
      ],
      "name": "getRoleAdmin",
      "outputs": [
        {
          "internalType": "bytes32",
          "name": "",
          "type": "bytes32"
        }
      ],
      "stateMutability": "view",
      "type": "function"
    },
    {
      "inputs": [
        {
          "internalType": "address",
          "name": "ownerAddress",
          "type": "address"
        },
        {
          "internalType": "uint128",
          "name": "rate",
          "type": "uint128"
        }
      ],
      "name": "getTickAmounts",
      "outputs": [
        {
          "internalType": "uint128",
          "name": "adjustedTotalAmount",
          "type": "uint128"
        },
        {
          "internalType": "uint128",
          "name": "adjustedRemainingAmount",
          "type": "uint128"
        },
        {
          "internalType": "uint128",
          "name": "bondsQuantity",
          "type": "uint128"
        },
        {
          "internalType": "uint128",
          "name": "adjustedPendingAmount",
          "type": "uint128"
        },
        {
          "internalType": "uint128",
          "name": "atlendisLiquidityRatio",
          "type": "uint128"
        },
        {
          "internalType": "uint128",
          "name": "accruedFees",
          "type": "uint128"
        }
      ],
      "stateMutability": "view",
      "type": "function"
    },
    {
      "inputs": [
        {
          "internalType": "address",
          "name": "ownerAddress",
          "type": "address"
        },
        {
          "internalType": "uint128",
          "name": "rate",
          "type": "uint128"
        }
      ],
      "name": "getTickLastUpdate",
      "outputs": [
        {
          "internalType": "uint128",
          "name": "lastFeeDistributionTimestamp",
          "type": "uint128"
        }
      ],
      "stateMutability": "view",
      "type": "function"
    },
    {
      "inputs": [
        {
          "internalType": "address",
          "name": "ownerAddress",
          "type": "address"
        },
        {
          "internalType": "uint128",
          "name": "rate",
          "type": "uint128"
        }
      ],
      "name": "getTickLiquidityRatio",
      "outputs": [
        {
          "internalType": "uint128",
          "name": "liquidityRatio",
          "type": "uint128"
        }
      ],
      "stateMutability": "view",
      "type": "function"
    },
    {
      "inputs": [
        {
          "internalType": "address",
          "name": "ownerAddress",
          "type": "address"
        },
        {
          "internalType": "uint128",
          "name": "rate",
          "type": "uint128"
        },
        {
          "internalType": "uint128",
          "name": "adjustedAmount",
          "type": "uint128"
        },
        {
          "internalType": "uint128",
          "name": "bondsIssuanceIndex",
          "type": "uint128"
        }
      ],
      "name": "getWithdrawAmounts",
      "outputs": [
        {
          "internalType": "uint128",
          "name": "adjustedAmountToWithdraw",
          "type": "uint128"
        },
        {
          "internalType": "uint128",
          "name": "depositedAmountToWithdraw",
          "type": "uint128"
        },
        {
          "internalType": "uint128",
          "name": "remainingBondsQuantity",
          "type": "uint128"
        },
        {
          "internalType": "uint128",
          "name": "bondsMaturity",
          "type": "uint128"
        }
      ],
      "stateMutability": "view",
      "type": "function"
    },
    {
      "inputs": [
        {
          "internalType": "bytes32",
          "name": "role",
          "type": "bytes32"
        },
        {
          "internalType": "address",
          "name": "account",
          "type": "address"
        }
      ],
      "name": "grantRole",
      "outputs": [],
      "stateMutability": "nonpayable",
      "type": "function"
    },
    {
      "inputs": [
        {
          "internalType": "bytes32",
          "name": "role",
          "type": "bytes32"
        },
        {
          "internalType": "address",
          "name": "account",
          "type": "address"
        }
      ],
      "name": "hasRole",
      "outputs": [
        {
          "internalType": "bool",
          "name": "",
          "type": "bool"
        }
      ],
      "stateMutability": "view",
      "type": "function"
    },
    {
      "inputs": [
        {
          "internalType": "address",
          "name": "governance",
          "type": "address"
        }
      ],
      "name": "initialize",
      "outputs": [],
      "stateMutability": "nonpayable",
      "type": "function"
    },
    {
      "inputs": [
        {
          "internalType": "address",
          "name": "ownerAddress",
          "type": "address"
        }
      ],
      "name": "isEarlyRepay",
      "outputs": [
        {
          "internalType": "bool",
          "name": "earlyRepay",
          "type": "bool"
        }
      ],
      "stateMutability": "view",
      "type": "function"
    },
    {
      "inputs": [],
      "name": "paused",
      "outputs": [
        {
          "internalType": "bool",
          "name": "",
          "type": "bool"
        }
      ],
      "stateMutability": "view",
      "type": "function"
    },
    {
      "inputs": [
        {
          "internalType": "uint256",
          "name": "",
          "type": "uint256"
        }
      ],
      "name": "poolsAddresses",
      "outputs": [
        {
          "internalType": "address",
          "name": "",
          "type": "address"
        }
      ],
      "stateMutability": "view",
      "type": "function"
    },
    {
      "inputs": [
        {
          "internalType": "bytes32",
          "name": "role",
          "type": "bytes32"
        },
        {
          "internalType": "address",
          "name": "account",
          "type": "address"
        }
      ],
      "name": "renounceRole",
      "outputs": [],
      "stateMutability": "nonpayable",
      "type": "function"
    },
    {
      "inputs": [],
      "name": "repay",
      "outputs": [],
      "stateMutability": "nonpayable",
      "type": "function"
    },
    {
      "inputs": [
        {
          "internalType": "bytes32",
          "name": "role",
          "type": "bytes32"
        },
        {
          "internalType": "address",
          "name": "account",
          "type": "address"
        }
      ],
      "name": "revokeRole",
      "outputs": [],
      "stateMutability": "nonpayable",
      "type": "function"
    },
    {
      "inputs": [
        {
          "internalType": "address",
          "name": "ownerAddress",
          "type": "address"
        }
      ],
      "name": "setDefault",
      "outputs": [],
      "stateMutability": "nonpayable",
      "type": "function"
    },
    {
      "inputs": [
        {
          "internalType": "uint128",
          "name": "establishmentFeeRate",
          "type": "uint128"
        },
        {
          "internalType": "address",
          "name": "ownerAddress",
          "type": "address"
        }
      ],
      "name": "setEstablishmentFeeRate",
      "outputs": [],
      "stateMutability": "nonpayable",
      "type": "function"
    },
    {
      "inputs": [
        {
          "internalType": "uint128",
          "name": "distributionRate",
          "type": "uint128"
        },
        {
          "internalType": "address",
          "name": "ownerAddress",
          "type": "address"
        }
      ],
      "name": "setLiquidityRewardsDistributionRate",
      "outputs": [],
      "stateMutability": "nonpayable",
      "type": "function"
    },
    {
      "inputs": [
        {
          "internalType": "uint128",
          "name": "maxBorrowableAmount",
          "type": "uint128"
        },
        {
          "internalType": "address",
          "name": "ownerAddress",
          "type": "address"
        }
      ],
      "name": "setMaxBorrowableAmount",
      "outputs": [],
      "stateMutability": "nonpayable",
      "type": "function"
    },
    {
      "inputs": [
        {
          "internalType": "uint128",
          "name": "repaymentFeeRate",
          "type": "uint128"
        },
        {
          "internalType": "address",
          "name": "ownerAddress",
          "type": "address"
        }
      ],
      "name": "setRepaymentFeeRate",
      "outputs": [],
      "stateMutability": "nonpayable",
      "type": "function"
    },
    {
      "inputs": [
        {
          "internalType": "address",
          "name": "token",
          "type": "address"
        },
        {
          "internalType": "address",
          "name": "superToken",
          "type": "address"
        }
      ],
      "name": "setTokenToSuperToken",
      "outputs": [],
      "stateMutability": "nonpayable",
      "type": "function"
    },
    {
      "inputs": [
        {
          "internalType": "bytes4",
          "name": "interfaceId",
          "type": "bytes4"
        }
      ],
      "name": "supportsInterface",
      "outputs": [
        {
          "internalType": "bool",
          "name": "",
          "type": "bool"
        }
      ],
      "stateMutability": "view",
      "type": "function"
    },
    {
      "inputs": [
        {
          "internalType": "address",
          "name": "",
          "type": "address"
        }
      ],
      "name": "tokenToSuperToken",
      "outputs": [
        {
          "internalType": "address",
          "name": "",
          "type": "address"
        }
      ],
      "stateMutability": "view",
      "type": "function"
    },
    {
      "inputs": [
        {
          "internalType": "uint128",
          "name": "amount",
          "type": "uint128"
        }
      ],
      "name": "topUpLiquidityRewards",
      "outputs": [],
      "stateMutability": "nonpayable",
      "type": "function"
    },
    {
      "inputs": [],
      "name": "unfreezePool",
      "outputs": [],
      "stateMutability": "nonpayable",
      "type": "function"
    },
    {
      "inputs": [
        {
          "internalType": "uint128",
          "name": "adjustedAmount",
          "type": "uint128"
        },
        {
          "internalType": "address",
          "name": "ownerAddress",
          "type": "address"
        },
        {
          "internalType": "uint128",
          "name": "oldRate",
          "type": "uint128"
        },
        {
          "internalType": "uint128",
          "name": "newRate",
          "type": "uint128"
        },
        {
          "internalType": "uint128",
          "name": "oldBondsIssuanceIndex",
          "type": "uint128"
        }
      ],
      "name": "updateRate",
      "outputs": [
        {
          "internalType": "uint128",
          "name": "newAdjustedAmount",
          "type": "uint128"
        },
        {
          "internalType": "uint128",
          "name": "newBondsIssuanceIndex",
          "type": "uint128"
        },
        {
          "internalType": "uint128",
          "name": "normalizedAmount",
          "type": "uint128"
        }
      ],
      "stateMutability": "nonpayable",
      "type": "function"
    },
    {
      "inputs": [
        {
          "internalType": "address",
          "name": "ownerAddress",
          "type": "address"
        },
        {
          "internalType": "uint128",
          "name": "rate",
          "type": "uint128"
        },
        {
          "internalType": "uint128",
          "name": "adjustedAmountToWithdraw",
          "type": "uint128"
        },
        {
          "internalType": "uint128",
          "name": "bondsIssuanceIndex",
          "type": "uint128"
        },
        {
          "internalType": "address",
          "name": "owner",
          "type": "address"
        }
      ],
      "name": "withdraw",
      "outputs": [
        {
          "internalType": "uint128",
          "name": "normalizedDepositedAmountToWithdraw",
          "type": "uint128"
        }
      ],
      "stateMutability": "nonpayable",
      "type": "function"
    }
  ],
  "transactionHash": "0x8590d525c09c7530ff8a766335cf7fcb96c120c7de2be94d9d87f7473327d961",
  "args": [],
  "numDeployments": 2,
  "solcInputHash": "3b9b89fc4608288c6e9955e64e3bfd9e",
  "bytecode": "0x608060405234801561001057600080fd5b50615f8780620000216000396000f3fe608060405234801561001057600080fd5b50600436106102ab5760003560e01c806387da020611610172578063c3d31fce116100d9578063d6b68dbc11610092578063d6b68dbc146108c8578063e06cffa8146108db578063e823d5cf146108ee578063ec04205b14610901578063f00bdd5114610a10578063f27dd8ab14610a23578063fe04d4c514610a3657600080fd5b8063c3d31fce14610861578063c4d66de814610869578063c55ae0381461087c578063c8954db91461088f578063d3c66f90146108a2578063d547741f146108b557600080fd5b80639c68153e1161012b5780639c68153e146107c55780639d82aa35146107d8578063a217fddf146107eb578063a480ca79146107f3578063a591972714610806578063a6b896fd1461084e57600080fd5b806387da0206146106af57806391d148541461077157806392b06322146107845780639611d5dd1461079757806397a4bd5a1461079f57806399b55762146107b257600080fd5b806345a4b417116102165780635d5f3f0e116101cf5780635d5f3f0e146106045780635f3386db14610617578063632805f81461062a578063775ad5271461064d5780637e5660d9146106605780637f726e581461067357600080fd5b806345a4b417146104f9578063473d49721461054657806347ce376f146105755780634c804cca146105bd578063530b7ba1146105d05780635c975abb146105f957600080fd5b80632f2ff15d116102685780632f2ff15d14610482578063326c62fa1461049557806334441590146104b657806336568abe146104c957806339e1d4b6146104dc578063402d8883146104f157600080fd5b806301ffc9a7146102b05780631ecfa93c146102d857806320992c4414610315578063248a9ca31461032a578063265cd7201461035b57806327f90f0a1461037b575b600080fd5b6102c36102be36600461537a565b610a5f565b60405190151581526020015b60405180910390f35b6102eb6102e63660046153d9565b610a96565b604080516001600160801b03948516815292841660208401529216918101919091526060016102cf565b61032861032336600461542e565b610c9c565b005b61034d610338366004615479565b60009081526065602052604090206001015490565b6040519081526020016102cf565b61036e610369366004615479565b610e9b565b6040516102cf9190615492565b6104116103893660046154a6565b6001600160a01b03908116600090815260ca6020526040902060018101546003820154600483015460058401546006850154600786015460089096015494909616966001600160801b0380851697600160801b958690048216978286169795879004831696838616969581900484169584841695938290048516949283169391900490911690565b604080516001600160a01b03909c168c526001600160801b039a8b1660208d0152988a16988b019890985295881660608a0152938716608089015291861660a0880152851660c0870152841660e08601528316610100850152821661012084015216610140820152610160016102cf565b6103286104903660046154c3565b610ec5565b6104a86104a33660046154f3565b610eef565b6040516102cf929190615564565b6102eb6104c436600461557e565b611165565b6103286104d73660046154c3565b6113f8565b6104e461147b565b6040516102cf91906155d1565b6103286114dd565b61052e6105073660046154a6565b6001600160a01b0316600090815260ca60205260409020600f01546001600160801b031690565b6040516001600160801b0390911681526020016102cf565b6102c36105543660046154a6565b6001600160a01b0316600090815260ca602052604090206009015460ff1690565b61052e61058336600461561e565b6001600160a01b0391909116600090815260ca602090815260408083206001600160801b0394851684526010019091529020600401541690565b61052e6105cb36600461561e565b611aa9565b61036e6105de3660046154a6565b60cd602052600090815260409020546001600160a01b031681565b60975460ff166102c3565b6104a861061236600461564c565b611b02565b61052e6106253660046156a8565b611d19565b61063d61063836600461564c565b611fb6565b6040516102cf94939291906156d6565b61032861065b366004615701565b6120c4565b61032861066e3660046156a8565b612210565b61052e6106813660046154a6565b6001600160a01b0316600090815260ca60205260409020600a0154630100000090046001600160801b031690565b61072f6106bd36600461561e565b6001600160a01b0391909116600090815260ca602090815260408083206001600160801b03948516845260100190915290206001810154600282015460038301546004840154600590940154600160801b80850487169793871696948516959285169492819004831693910490911690565b604080516001600160801b03978816815295871660208701529386169385019390935290841660608401528316608083015290911660a082015260c0016102cf565b6102c361077f3660046154c3565b6122ca565b61052e61079236600461571f565b6122f5565b61032861256c565b6103286107ad366004615782565b61258f565b6103286107c03660046156a8565b612cba565b6103286107d33660046156a8565b612d72565b6104a86107e63660046154a6565b612e5d565b61034d600081565b6103286108013660046154a6565b612fed565b6104a86108143660046154a6565b6001600160a01b0316600090815260ca6020526040902060078101546008909101546001600160801b03600160801b909204821692911690565b61032861085c3660046156a8565b613016565b6103286130ce565b6103286108773660046154a6565b6130ee565b61032861088a366004615701565b613280565b61032861089d3660046157da565b6133ce565b6103286108b0366004615701565b6135e1565b6103286108c33660046154c3565b6136a8565b61052e6108d636600461561e565b6136cd565b6103286108e936600461561e565b613767565b6103286108fc3660046154a6565b613791565b61099d61090f3660046154a6565b6001600160a01b0316600090815260ca60205260409020600a810154600b820154600c830154600d840154600e9094015460ff80851696610100860482169662010000870490921695630100000090046001600160801b039081169581811695600160801b918290048316958382169591839004841694848316949284900483169383831693920490911690565b604080519c15158d529a151560208d0152981515998b01999099526001600160801b0396871660608b015294861660808a015292851660a089015290841660c0880152831660e08701528216610100860152811661012085015291821661014084015216610160820152610180016102cf565b610328610a1e3660046157f7565b613acb565b61052e610a313660046154a6565b61402d565b61036e610a443660046154a6565b60c9602052600090815260409020546001600160a01b031681565b60006001600160e01b03198216637965db0b60e01b1480610a9057506301ffc9a760e01b6001600160e01b03198316145b92915050565b6001600160a01b038216600090815260ca6020526040808220905163839a9c2960e01b8152600481019190915282151560248201528190819081907319fFe0Ba818F4cd6fFE4AefF62ef306B795758e29063839a9c2990604401602060405180830381865af4158015610b0d573d6000803e3d6000fd5b505050506040513d601f19601f82011682018060405250810190610b319190615810565b6001600160a01b038716600090815260ca6020526040908190209051631d398d8d60e21b8152919250610bdc9183917319fFe0Ba818F4cd6fFE4AefF62ef306B795758e2916374e6363491610b8c9160040190815260200190565b602060405180830381865af4158015610ba9573d6000803e3d6000fd5b505050506040513d601f19601f82011682018060405250810190610bcd9190615810565b6001600160801b031690614073565b6001600160a01b038716600090815260ca602052604090209093507319fFe0Ba818F4cd6fFE4AefF62ef306B795758e290635ccb5f2f90610c1d8685615843565b6040518363ffffffff1660e01b8152600401610c3a92919061586e565b602060405180830381865af4158015610c57573d6000803e3d6000fd5b505050506040513d601f19601f82011682018060405250810190610c7b9190615810565b915082610c888383615843565b610c929190615843565b9350509250925092565b600080516020615ef2833981519152610cb481614092565b6001600160a01b038416600090815260ca6020526040812060010154610cee906001600160801b03861690600160a01b900460ff1661409c565b6001600160a01b03808716600081815260ca6020526040902054929350911614610d2b57604051630951899960e01b815260040160405180910390fd5b6001600160a01b038516600090815260cc60205260409020546001600160801b039081169082161115610d7157604051639f747ffd60e01b815260040160405180910390fd5b6001600160a01b038516600090815260cc602052604081208054839290610da29084906001600160801b0316615885565b82546001600160801b039182166101009390930a9283029190920219909116179055506001600160a01b03808616600090815260ca6020526040908190206002810154600191909101549151631a4ca37b60e21b8152908316926369328dec92610e1592911690889088906004016158ad565b6020604051808303816000875af1158015610e34573d6000803e3d6000fd5b505050506040513d601f19601f82011682018060405250810190610e5891906158d9565b507f4e7e16de98f6ba9d5f9254bd51366fd84453a61f6d5767ffc4b00d97d696c50f858285604051610e8c939291906158ad565b60405180910390a15050505050565b60cb8181548110610eab57600080fd5b6000918252602090912001546001600160a01b0316905081565b600082815260656020526040902060010154610ee081614092565b610eea83836140ce565b505050565b600080610efa614154565b600080516020615f32833981519152610f1281614092565b6001600160a01b038716600090815260ca60205260409020600a810154610100900460ff1615610f555760405163056efc7b60e01b815260040160405180910390fd5b600a81015460ff16610f7a5760405163c6d9b58160e01b815260040160405180910390fd5b60018101546001600160a01b03888116911614610faa5760405163623957d360e01b815260040160405180910390fd5b60038101546001600160801b03908116908a161015610fdc5760405163fca6b5cd60e01b815260040160405180910390fd5b60038101546001600160801b03600160801b9091048116908a161115611015576040516393c139e960e01b815260040160405180910390fd5b600481015460038201546001600160801b039182169161103691168b615885565b6110409190615908565b6001600160801b0316156110675760405163270955a760e01b815260040160405180910390fd5b604051631cd2ca1960e11b8152600094508493507319fFe0Ba818F4cd6fFE4AefF62ef306B795758e2906339a59432906110a99084908d908a9060040161592e565b6040805180830381865af41580156110c5573d6000803e3d6000fd5b505050506040513d601f19601f820116820180604052508101906110e9919061594d565b604051636839a26160e01b815291955093507319fFe0Ba818F4cd6fFE4AefF62ef306B795758e290636839a261906111299084908a908a9060040161597c565b60006040518083038186803b15801561114157600080fd5b505af4158015611155573d6000803e3d6000fd5b5050505050509550959350505050565b6000806000611172614154565b600080516020615f3283398151915261118a81614092565b6001600160a01b038816600090815260ca60205260409020600a81015462010000900460ff16156111ce5760405163056efc7b60e01b815260040160405180910390fd5b60006111dc8a8a8d8a611b02565b5090506001600160801b0381161561120757604051630d290b7960e31b815260040160405180910390fd5b60038201546001600160801b0390811690891610156112395760405163fca6b5cd60e01b815260040160405180910390fd5b60038201546001600160801b03600160801b90910481169089161115611272576040516393c139e960e01b815260040160405180910390fd5b600482015460038301546001600160801b039182169161129391168a615885565b61129d9190615908565b6001600160801b0316156112c45760405163270955a760e01b815260040160405180910390fd5b60006112e46112d4848c8b61419c565b6001600160801b038e16906141e9565b604051636ef48f5760e01b81529091507319fFe0Ba818F4cd6fFE4AefF62ef306B795758e290636ef48f57906113249086908e9086908e906004016159a4565b602060405180830381865af4158015611341573d6000803e3d6000fd5b505050506040513d601f19601f820116820180604052508101906113659190615810565b604051631cd2ca1960e11b81529095507319fFe0Ba818F4cd6fFE4AefF62ef306B795758e2906339a59432906113a39086908d908a9060040161592e565b6040805180830381865af41580156113bf573d6000803e3d6000fd5b505050506040513d601f19601f820116820180604052508101906113e3919061594d565b909d909c50949a509398505050505050505050565b6001600160a01b038116331461146d5760405162461bcd60e51b815260206004820152602f60248201527f416363657373436f6e74726f6c3a2063616e206f6e6c792072656e6f756e636560448201526e103937b632b9903337b91039b2b63360891b60648201526084015b60405180910390fd5b6114778282614218565b5050565b606060cb8054806020026020016040519081016040528092919081815260200182805480156114d357602002820191906000526020600020905b81546001600160a01b031681526001909101906020018083116114b5575b5050505050905090565b6114e5614154565b600080516020615f128339815191526114fd81614092565b33600090815260ca60205260409020600a810154630100000090046001600160801b031615801561153e5750600a81015460ff610100909104161515600114155b1561155c57604051631e13931b60e21b815260040160405180910390fd5b600a8101544263010000009091046001600160801b0316118080156115865750600982015460ff16155b156115a457604051632b604eef60e01b815260040160405180910390fd5b6115ad8261427f565b604051631d398d8d60e21b8152600481018390526000908190819081907319fFe0Ba818F4cd6fFE4AefF62ef306B795758e2906374e6363490602401602060405180830381865af4158015611606573d6000803e3d6000fd5b505050506040513d601f19601f8201168201806040525081019061162a9190615810565b600c870154909150600160801b90046001600160801b03165b60038701546001600160801b03600160801b90910481169082161161174857604051634de6e91560e01b815260009081907319fFe0Ba818F4cd6fFE4AefF62ef306B795758e290634de6e915906116a2908c908790899060040161592e565b6040805180830381865af41580156116be573d6000803e3d6000fd5b505050506040513d601f19601f820116820180604052508101906116e2919061594d565b90925090506116f18183615843565b6116fb9086615843565b94506117078188615843565b965060006117168a8589614377565b905080806117215750865b60048b015490975061174193506001600160801b03169150839050615843565b9050611643565b50604051635ccb5f2f60e01b81526000907319fFe0Ba818F4cd6fFE4AefF62ef306B795758e290635ccb5f2f90611785908a90879060040161586e565b602060405180830381865af41580156117a2573d6000803e3d6000fd5b505050506040513d601f19601f820116820180604052508101906117c69190615810565b90506117d28184615843565b604051636839a26160e01b81529093507319fFe0Ba818F4cd6fFE4AefF62ef306B795758e290636839a26190611810908a903390889060040161597c565b60006040518083038186803b15801561182857600080fd5b505af415801561183c573d6000803e3d6000fd5b505050600688015461185891506001600160801b031642615843565b600d880180546001600160801b039283166001600160801b031991821617909155600b89018054909116905533600090815260cc60205260408120805484939192916118a691859116615843565b92506101000a8154816001600160801b0302191690836001600160801b031602179055508287600a0160020160008282829054906101000a90046001600160801b03166118f39190615843565b82546101009290920a6001600160801b038181021990931691831602179091556006890154600a8a015461193b9350600160801b909104821691630100000090910416615843565b6001600160801b03164211156119bb57600c870154600d880154604080516001600160801b038088168252808a16602083015280861692820192909252928116606084015216608082015233907f8122edb1a4917454f85f9b09704f29ed2116612cc8f1a2554b80097dceeb5a839060a0015b60405180910390a2611a7b565b600a8701544263010000009091046001600160801b03161115611a2557600c870154600d88015460405133927fc6db71f000708261529893214115dc775666bfdeffe2ae11b7fe243ee0353e5d926119ae92889287926001600160801b03918216929116906156d6565b600c870154600d88015460405133927f85aff561fe55576b612fb98de2b2b1b5f64d13c985973d75b6cc4a09376155f192611a7292889287926001600160801b03918216929116906156d6565b60405180910390a25b505050600a840180546301000000600160981b0319169055505050600b0180546001600160801b0316905550565b6001600160a01b038216600090815260ca602090815260408083206001600160801b0380861685526010909101909252822060040154600160801b90041690819003610a905750676765c793fa10079d601b1b92915050565b6001600160a01b03808516600090815260ca60209081526040808320600281015482516325b0985360e21b81529251949586959294869492909116926396c2614c9260048082019392918290030181865afa158015611b65573d6000803e3d6000fd5b505050506040513d601f19601f82011682018060405250810190611b8991906158d9565b600e8301549091506001600160801b03600160801b90910481169086161115611bcc576000611bc16001600160801b038816836141e9565b935093505050611d10565b604051633d29c20960e01b81526000907319fFe0Ba818F4cd6fFE4AefF62ef306B795758e290633d29c20990611c0c9086908c908c908c906004016159a4565b6040805180830381865af4158015611c28573d6000803e3d6000fd5b505050506040513d601f19601f82011682018060405250810190611c4c919061594d565b9095509050600080611c5f858b866145c5565b5050604051632ca9e11360e11b815291935091506000907319fFe0Ba818F4cd6fFE4AefF62ef306B795758e290635953c22690611ca69089908f90899088906004016159a4565b602060405180830381865af4158015611cc3573d6000803e3d6000fd5b505050506040513d601f19601f82011682018060405250810190611ce79190615810565b905080611cfd6001600160801b038616856141e9565b611d079190615843565b96505050505050505b94509492505050565b6001600160a01b038116600090815260ca60205260408120600a8101548190630100000090046001600160801b0316151580611d5e5750600a820154610100900460ff165b80611d735750600a82015462010000900460ff165b80611d835750600a82015460ff16155b15611d9357600092505050610a90565b60048201546001600160801b03600160801b90910481169086161115611dcb576004820154600160801b90046001600160801b031694505b6002810154604080516325b0985360e21b815290516000926001600160a01b0316916396c2614c9160048083019260209291908290030181865afa158015611e17573d6000803e3d6000fd5b505050506040513d601f19601f82011682018060405250810190611e3b91906158d9565b60038401549091506001600160801b03168660005b60048501546003860154611e77916001600160801b0390811691600160801b900416615843565b6001600160801b0316836001600160801b031614611f64576000611e9c8785876145c5565b5050506001600160801b03808616600090815260108a01602052604081206002015492935091611ecd9116836141e9565b9050836001600160801b0316816001600160801b03161015611f1957611ef38185615885565b9350611f086001600160801b03821686614073565b611f129084615843565b9250611f43565b611f2c6001600160801b03851686614073565b611f369084615843565b9250600093505050611f64565b50506004850154611f5d906001600160801b031684615843565b9250611e50565b816001600160801b0316896001600160801b031603611f8c5760009650505050505050610a90565b611fa9611f99838b615885565b6001600160801b03831690614784565b9998505050505050505050565b6001600160a01b038416600090815260ca60205260408120600a8101548291829182919060ff16611ffa5760405163c6d9b58160e01b815260040160405180910390fd5b604051633d29c20960e01b81527319fFe0Ba818F4cd6fFE4AefF62ef306B795758e290633d29c209906120379084908c908c908c906004016159a4565b6040805180830381865af4158015612053573d6000803e3d6000fd5b505050506040513d601f19601f82011682018060405250810190612077919061594d565b95509250612099612089828a8961419c565b6001600160801b0387169061479c565b935080600a0160000160039054906101000a90046001600160801b0316915050945094509450949050565b600080516020615ef28339815191526120dc81614092565b6001600160a01b03821661210357604051635342e0a760e11b815260040160405180910390fd5b6001600160a01b03831661212a5760405163f15e745f60e01b815260040160405180910390fd5b6001600160a01b03808316600081815260ca60205260409020549091161461216557604051630951899960e01b815260040160405180910390fd5b6001600160a01b03808316600090815260ca60205260409020548482169116146121a257604051637e1c4b1160e11b815260040160405180910390fd5b6001600160a01b03838116600090815260c960205260409081902080546001600160a01b03191692851692909217909155517fa0bdc0fbc09f4ed7d0e01a12537839d8bd60334a4bfa65f0053c2d6972b4c9849061220390859085906159cb565b60405180910390a1505050565b600080516020615ef283398151915261222881614092565b6001600160a01b038216600090815260ca60205260409020600a015460ff1661226457604051630951899960e01b815260040160405180910390fd5b6001600160a01b038216600090815260ca60205260409081902060080180546001600160801b0319166001600160801b038616179055517ff81f6b13c0f245c7eb66e6de718d94a737f90b621fc61e666430cdcba6cf847c9061220390859085906159e5565b60009182526065602090815260408084206001600160a01b0393909316845291905290205460ff1690565b60006122ff614154565b600080516020615f3283398151915261231781614092565b6001600160a01b038716600090815260ca60205260409020600e81015461234f90600160801b90046001600160801b03166001615843565b6001600160801b0316856001600160801b031611156123815760405163019894df60e21b815260040160405180910390fd5b600e8101546001600160801b03600160801b9091048116908616118015816123c757506001600160801b0380891660009081526010840160205260409020600201541615155b806123f857508080156123f857506001600160801b0380891660009081526010840160205260409020600301541615155b6124155760405163436ec62560e01b815260040160405180910390fd5b6000876001600160801b03161161243f57604051636ba603b360e11b815260040160405180910390fd5b604051636ef48f5760e01b81527319fFe0Ba818F4cd6fFE4AefF62ef306B795758e290636ef48f579061247c9085908c908c908c906004016159a4565b602060405180830381865af4158015612499573d6000803e3d6000fd5b505050506040513d601f19601f820116820180604052508101906124bd9190615810565b600283015460018401549195506001600160a01b03908116916369328dec918116906124fd906001600160801b03891690600160a01b900460ff166147c6565b886040518463ffffffff1660e01b815260040161251c939291906158ad565b6020604051808303816000875af115801561253b573d6000803e3d6000fd5b505050506040513d601f19601f8201168201806040525081019061255f91906158d9565b5050505095945050505050565b600080516020615ef283398151915261258481614092565b61258c6147ef565b50565b612597614154565b7f9cdad79b210c03aa5c392bbd1aadc38f48d1763a9879534b7e8979048607fb796125c181614092565b6001600160a01b03808616600081815260c960209081526040808320548516835260ca8252808320938352808320600101548516835260cd90915290205490918581169116146126245760405163c1ab6dc160e01b815260040160405180910390fd5b600a810154610100900460ff161561264f5760405163056efc7b60e01b815260040160405180910390fd5b600a810154630100000090046001600160801b0316158015906126855750600a810154630100000090046001600160801b031642115b156126a357604051630fda546f60e41b815260040160405180910390fd5b60018101546000906126c9906001600160801b03881690600160a01b900460ff1661409c565b60078301549091506000906126f1906001600160801b0380851691600160801b900416614073565b905060006126ff8284615885565b6004850154600b86015491925083916001600160801b03600160801b9283900481169261273192889291900416615843565b6001600160801b031611156127595760405163aab4fe5160e01b815260040160405180910390fd5b600d8501546001600160801b03164210156127875760405163af26604960e01b815260040160405180910390fd5b6127908561427f565b600c8501546001600160801b0390811690851611156127c257604051634421566d60e11b815260040160405180910390fd5b6004850154600c86015485916000916127ee916001600160801b0390811691600160801b900416615885565b90505b6000826001600160801b0316118015612821575060038701546001600160801b03600160801b9091048116908216105b15612a0857600487015461283e906001600160801b031682615843565b6001600160801b03808216600090815260108a0160205260409020600201549192501615612a0357604051634c5e028760e11b815260009081907319fFe0Ba818F4cd6fFE4AefF62ef306B795758e2906398bc050e906128a6908c908790899060040161592e565b6040805180830381865af41580156128c2573d6000803e3d6000fd5b505050506040513d601f19601f820116820180604052508101906128e6919061594d565b60405163ca8701f360e01b815291935091507319fFe0Ba818F4cd6fFE4AefF62ef306B795758e29063ca8701f390612928908c908790879087906004016159a4565b60006040518083038186803b15801561294057600080fd5b505af4158015612954573d6000803e3d6000fd5b5050505080846129649190615885565b93506129f47319fFe0Ba818F4cd6fFE4AefF62ef306B795758e26387610e268560006040518363ffffffff1660e01b81526004016129a3929190615564565b602060405180830381865af41580156129c0573d6000803e3d6000fd5b505050506040513d601f19601f820116820180604052508101906129e49190615810565b6001600160801b03841690614073565b6129fe9086615843565b945050505b6127f1565b6001600160801b03821615612a3057604051630f0b666f60e01b815260040160405180910390fd5b600a870154630100000090046001600160801b0316600003612ad2576005870154612a64906001600160801b031642615a07565b600a880180546001600160801b03929092166301000000026301000000600160981b031990921691909117905560405133907fb238c9bb6ccde03fef7caa4e124c6dff77f0a5b70c7df429eb8f37bd3a48f8ba90612ac59087908990615564565b60405180910390a2612b16565b336001600160a01b03167faad6575ebfd3574ba48d8611bd3c09b1e51c4ff7ca6980f6eacac7b7ac3673158587604051612b0d929190615564565b60405180910390a25b600a870154600090612b4690630100000090046001600160801b03166bffffffffffffffffffffffff8c16615a1f565b9050806001600160801b0316846001600160801b03161115612b7b57604051637bfd5dc760e11b815260040160405180910390fd5b5033600090815260cc602052604081208054879290612ba49084906001600160801b0316615843565b92506101000a8154816001600160801b0302191690836001600160801b031602179055508587600a0160010160108282829054906101000a90046001600160801b0316612bf19190615843565b82546101009290920a6001600160801b03818102199093169183160217909155600289015460018a01546001600160a01b0391821693506369328dec9291811691612c499190891690600160a01b900460ff166147c6565b8f6040518463ffffffff1660e01b8152600401612c68939291906158ad565b6020604051808303816000875af1158015612c87573d6000803e3d6000fd5b505050506040513d601f19601f82011682018060405250810190612cab91906158d9565b50505050505050505050505050565b600080516020615ef2833981519152612cd281614092565b6001600160a01b03808316600081815260ca602052604090205490911614612d0d57604051630951899960e01b815260040160405180910390fd5b6001600160a01b038216600090815260ca60205260409081902060050180546001600160801b03808716600160801b029116179055517f67c55291cb70b5f0144aae4118b87e726866a80bda106e58e132aa625551f8579061220390859085906159e5565b600080516020615ef2833981519152612d8a81614092565b6001600160a01b038216600090815260ca60205260409020600a015460ff16612dc657604051630951899960e01b815260040160405180910390fd5b670de0b6b3a7640000836001600160801b03161115612df857604051633dedb6cb60e21b815260040160405180910390fd5b6001600160a01b038216600090815260ca60205260409081902060070180546001600160801b03808716600160801b029116179055517fefec478f5ee0b516cbe859014d4830648217ffb71b235c17f0015a12a4de224b9061220390859085906159e5565b6001600160a01b038116600090815260ca60205260408120600a8101548291908190630100000090046001600160801b03168303612ebb576004820154612eb490600160801b90046001600160801b031686611d19565b9350612fe6565b600381015460009081906001600160801b03165b60048401546003850154612ef6916001600160801b0390811691600160801b900416615843565b6001600160801b0316816001600160801b031614612fcd576001600160801b038082166000908152601087016020526040902060030154612f4091600160801b9091041682614073565b612f4a9084615843565b6001600160801b038083166000908152601088016020526040902060030154919450612f7e91600160801b90041683615843565b6001600160801b038083166000908152601088016020526040902060030154919350612fab911687615843565b6004850154909650612fc6906001600160801b031682615843565b9050612ecf565b612fe06001600160801b03841683614784565b96505050505b5050915091565b612ff5614154565b6001600160a01b038116600090815260ca602052604090206114778161427f565b600080516020615ef283398151915261302e81614092565b6001600160a01b03808316600081815260ca60205260409020549091161461306957604051630951899960e01b815260040160405180910390fd5b6001600160a01b038216600090815260ca60205260409081902060040180546001600160801b03808716600160801b029116179055517f1451569f54a4226b25194b628ff0b7be59bf83e6d5f74b486b88d45d7d80d9b49061220390859085906159e5565b600080516020615ef28339815191526130e681614092565b61258c61483b565b600054610100900460ff161580801561310e5750600054600160ff909116105b806131285750303b158015613128575060005460ff166001145b61318b5760405162461bcd60e51b815260206004820152602e60248201527f496e697469616c697a61626c653a20636f6e747261637420697320616c72656160448201526d191e481a5b9a5d1a585b1a5e995960921b6064820152608401611464565b6000805460ff1916600117905580156131ae576000805461ff0019166101001790555b6131b6614878565b6001600160a01b0382166131c8573391505b6131d36000836140ce565b6131eb600080516020615ef2833981519152836140ce565b613211600080516020615f12833981519152600080516020615ef28339815191526148af565b613237600080516020615f32833981519152600080516020615ef28339815191526148af565b8015611477576000805461ff0019169055604051600181527f7f26b83ff96e1f2b6a682f133852f6798a09c465da95921460cefb38474024989060200160405180910390a15050565b600080516020615ef283398151915261329881614092565b6001600160a01b0382166132bf57604051635342e0a760e11b815260040160405180910390fd5b6001600160a01b0383166132e65760405163f15e745f60e01b815260040160405180910390fd5b6001600160a01b03808316600081815260ca60205260409020549091161461332157604051630951899960e01b815260040160405180910390fd5b6001600160a01b03808316600090815260ca602052604090205484821691161461335e57604051637e1c4b1160e11b815260040160405180910390fd5b613376600080516020615f12833981519152846136a8565b6001600160a01b038316600090815260c960205260409081902080546001600160a01b0319169055517f02e49619408521be07696ec96b8ec59295aca0b168326260f1a22059631e2cdf9061220390859085906159cb565b6133d6614154565b600080516020615f128339815191526133ee81614092565b33600090815260ca602052604081206001810154909190613423906001600160801b03861690600160a01b900460ff1661409c565b604051636839a26160e01b81529091507319fFe0Ba818F4cd6fFE4AefF62ef306B795758e290636839a261906134619085903390869060040161597c565b60006040518083038186803b15801561347957600080fd5b505af415801561348d573d6000803e3d6000fd5b5050604051631a727b1960e31b8152600092507319fFe0Ba818F4cd6fFE4AefF62ef306B795758e2915063d393d8c8906134cd908690869060040161586e565b602060405180830381865af41580156134ea573d6000803e3d6000fd5b505050506040513d601f19601f8201168201806040525081019061350e9190615810565b600a84015490915060ff1615801561355757506008830154600d8401546001600160801b03600160801b9283900481169261354b920416836141e9565b6001600160801b031610155b156135b057600a8301805460ff1916600117905582546040517f5f1a2aad6c8125c39041f4e0e90bc4516abd322bec644d29276f7acc4b183ffe916135a7916001600160a01b0390911690615492565b60405180910390a15b7f55f3f2d2c632a076fddf6794d5cf693ea328d5223bd13d099d4a4bc5005f4a8f3383604051610e8c929190615a4e565b600080516020615ef28339815191526135f981614092565b6001600160a01b0383166136205760405163f15e745f60e01b815260040160405180910390fd5b6001600160a01b0382166136475760405163f15e745f60e01b815260040160405180910390fd5b6001600160a01b03838116600090815260cd60205260409081902080546001600160a01b03191692851692909217909155517fd91947eb8d21d5d2b42186ea9f1718c8ee615af367a9397fdbae0af9b202170b9061220390859085906159cb565b6000828152606560205260409020600101546136c381614092565b610eea8383614218565b6001600160a01b038216600090815260ca602052604080822090516338bbdcbd60e11b81527319fFe0Ba818F4cd6fFE4AefF62ef306B795758e290637177b97a9061371e908490879060040161586e565b602060405180830381865af415801561373b573d6000803e3d6000fd5b505050506040513d601f19601f8201168201806040525081019061375f9190615810565b949350505050565b61376f614154565b6001600160a01b038216600090815260ca60205260409020610eea81836148fa565b600080516020615ef28339815191526137a981614092565b6001600160a01b038216600090815260ca60205260409020600a810154610100900460ff16156137eb576040516209157360e41b815260040160405180910390fd5b600a810154630100000090046001600160801b031660000361382057604051633aa99c9b60e01b815260040160405180910390fd5b6006810154600a82015461384e916001600160801b03600160801b9091048116916301000000900416615843565b6001600160801b031642101561387757604051632b797db960e11b815260040160405180910390fd5b600a8101805461010061ff0019909116179055600f810180546001600160801b031916426001600160801b0316179055604051631d8e67b960e31b8152600481018290526000907319fFe0Ba818F4cd6fFE4AefF62ef306B795758e29063ec733dc890602401602060405180830381865af41580156138fa573d6000803e3d6000fd5b505050506040513d601f19601f8201168201806040525081019061391e9190615810565b600d830154909150600090600160801b90046001600160801b031615613a9a576002830154604080516325b0985360e21b815290516000926001600160a01b0316916396c2614c9160048083019260209291908290030181865afa15801561398a573d6000803e3d6000fd5b505050506040513d601f19601f820116820180604052508101906139ae91906158d9565b600d8501549091506139d090600160801b90046001600160801b0316826141e9565b600d850180546001600160801b0390811690915560028601546001600160a01b03898116600090815260ca6020526040902060019081015490890154949650918116936369328dec939290911691613a359190871690600160a01b900460ff166147c6565b336040518463ffffffff1660e01b8152600401613a54939291906158ad565b6020604051808303816000875af1158015613a73573d6000803e3d6000fd5b505050506040513d601f19601f82011682018060405250810190613a9791906158d9565b50505b7f846077ed9bc731d4a55621c64a72a5dcdb1c047b3de22f546d448b992e34d87b8583604051610e8c929190615a4e565b613ad4816149ae565b604051806102200160405280336001600160a01b03168152602001826020016020810190613b0291906154a6565b6001600160a01b03168152602001826020016020810190613b2391906154a6565b6001600160a01b031663313ce5676040518163ffffffff1660e01b8152600401602060405180830381865afa158015613b60573d6000803e3d6000fd5b505050506040513d601f19601f82011682018060405250810190613b849190615a70565b60ff168152602001613b9c60608401604085016154a6565b6001600160a01b03168152602001613bba60808401606085016157da565b6001600160801b03168152602001613bd860a08401608085016157da565b6001600160801b03168152602001613bf660c0840160a085016157da565b6001600160801b03168152602001613c1460e0840160c085016157da565b6001600160801b03168152602001613c33610100840160e085016157da565b6001600160801b03168152602001613c53610120840161010085016157da565b6001600160801b03168152602001613c73610140840161012085016157da565b6001600160801b03168152602001613c93610160840161014085016157da565b6001600160801b03168152602001613cb3610180840161016085016157da565b6001600160801b03168152602001613cd36101a0840161018085016157da565b6001600160801b03168152602001613cf36101c084016101a085016157da565b6001600160801b03168152602001613d136101e084016101c085016157da565b6001600160801b03168152602001613d3361020084016101e08501615a93565b1515905233600090815260ca6020908152604091829020835181546001600160a01b03199081166001600160a01b0392831617835592850151600183018054878701519284166001600160a81b031990911617600160a01b60ff90931692909202919091179055606080860151600284018054909516921691909117909255608084015160a08501516001600160801b03918216600160801b918316820217600384015560c086015160e08701519083169083168202176004840155610100860151610120870151908316908316820217600584015561014086015161016087015190831690831682021760068401556101808601516101a087015190831690831682021760078401556101c08601516101e0870151908316921602176008820155610200909301516009909301805460ff191693151593909317909255613e7f9183019083016154a6565b6001600160a01b03166396c2614c6040518163ffffffff1660e01b8152600401602060405180830381865afa158015613ebc573d6000803e3d6000fd5b505050506040513d601f19601f82011682018060405250810190613ee091906158d9565b33600081815260ca60209081526040808320600e0180546001600160801b0319166001600160801b03969096169590951790945560c9905282812080546001600160a01b0319908116841790915560cb805460018101825592527fa7ce836d032b2bf62b7e2097a8e0a6d8aeb35405ad15271e96d3b0188a1d06fb90910180549091169091179055517fa77a23a7d9735be89f9068c8700c055a4e28b9199f9370c5f761b436e5ee010390613f96908390615aae565b60405180910390a133600090815260ca6020526040812060080154600160801b90046001600160801b0316900361258c5733600090815260ca602052604090819020600a8101805460ff191660011790555490517f5f1a2aad6c8125c39041f4e0e90bc4516abd322bec644d29276f7acc4b183ffe91614022916001600160a01b039190911690615492565b60405180910390a150565b6001600160a01b038116600090815260ca602090815260408083206001015460cc909252822054610a90916001600160801b0390911690600160a01b900460ff166147c6565b600061408b6001600160801b03848116908416614ab1565b9392505050565b61258c8133614b3c565b60006140a982600a615d3f565b6140c4670de0b6b3a76400006001600160801b038616615d4b565b61408b9190615d6a565b6140d882826122ca565b6114775760008281526065602090815260408083206001600160a01b03851684529091529020805460ff191660011790556141103390565b6001600160a01b0316816001600160a01b0316837f2f8788117e7eff1d82e926ec794901d17c78024a50270940304540a733656f0d60405160405180910390a45050565b60975460ff161561419a5760405162461bcd60e51b815260206004820152601060248201526f14185d5cd8589b194e881c185d5cd95960821b6044820152606401611464565b565b6001600160801b038083166000908152601085016020908152604080832085851684529182905282205490921691908290036141e157676765c793fa10079d601b1b91505b509392505050565b600061408b614213836001600160801b031661420d866001600160801b0316614ba0565b90614bdf565b614c5c565b61422282826122ca565b156114775760008281526065602090815260408083206001600160a01b0385168085529252808320805460ff1916905551339285917ff6391f5c32d9c69d2a47ea670b442974b53935d1edc7fd64eb21e047a839171b9190a45050565b6002810154604080516325b0985360e21b815290516000926001600160a01b0316916396c2614c9160048083019260209291908290030181865afa1580156142cb573d6000803e3d6000fd5b505050506040513d601f19601f820116820180604052508101906142ef91906158d9565b600c830154909150600160801b90046001600160801b03165b60038301546001600160801b03600160801b90910481169082161161435157614332838284614cad565b600483015461434a906001600160801b031682615843565b9050614308565b50600e9190910180546001600160801b0319166001600160801b03909216919091179055565b6001600160801b038083166000908152601085016020526040812060038101549192909116156145ba57826143f357600e85018054600191906010906143ce908490600160801b90046001600160801b0316615843565b92506101000a8154816001600160801b0302191690836001600160801b031602179055505b6004810154600e86015461441b916001600160801b0391821691600160801b90910416614f1a565b600e86018054600160801b908190046001600160801b0390811660009081526020869052604080822080546001600160801b0319169684169690961790955592549190910481168252918120546003840154919261447c92811691166141e9565b600e870154600384015491925061449f916001600160801b0390811691166141e9565b600c870180546000906144bc9084906001600160801b0316615843565b92506101000a8154816001600160801b0302191690836001600160801b03160217905550808260010160108282829054906101000a90046001600160801b03166145069190615843565b82546101009290920a6001600160801b038181021990931691831602179091556001840154600285018054600160801b90920483166001600160801b031992831617905560038501805490911690558754604080516001600160a01b039092168252888316602083015291841691810191909152851560608201527fd56b2e5a640a6b5979db99e9a69997e0e14f83b4edabdfce985a1f7be59647c7915060800160405180910390a160019250505061408b565b506000949350505050565b6001600160801b0380831660009081526010850160205260408120600481015491928392839283929091600160801b90041682036146115785600080600094509450945094505061477b565b60048101546005820154600e8a01546001600160801b03600160801b9384900481169850928204831696506000929182169116111561465e5750600e8801546001600160801b031661466e565b5060058101546001600160801b03165b6146788188615885565b92506146848989614f32565b600d8a01549094506000906146a990600160801b90046001600160801b0316896141e9565b9050806001600160801b0316856001600160801b031611156146c9578094505b600a8a0154630100000090046001600160801b0316600003614746576146ef8488615843565b60028401549097506001600160801b031615614741576002830154614734906001600160801b0390811690614725908816615005565b6001600160801b031690614784565b61473e9088615843565b96505b614777565b60028301548590614760906001600160801b0316866141e9565b61476a9190615843565b6147749087615843565b95505b5050505b93509350935093565b600061408b6001600160801b03848116908416615019565b600061408b614213836001600160801b03166147c0866001600160801b0316614ba0565b906150b1565b6000670de0b6b3a76400006147dc83600a615d3f565b6140c4906001600160801b038616615d4b565b6147f761513b565b6097805460ff191690557f5db9ee0a495bf2e6ff9c91a7834c1ba4fdd244a5e8aa4e537bd38aeae4b073aa335b6040516148319190615492565b60405180910390a1565b614843614154565b6097805460ff191660011790557f62e78cea01bee320cd4e420270b5ea74000d11b0c9f74754ebdbfc544b05a2586148243390565b600054610100900460ff1661489f5760405162461bcd60e51b815260040161146490615d7e565b6148a7615184565b61419a6151ab565b600082815260656020526040808220600101805490849055905190918391839186917fbd79b86ffe0ab8e8776151514217cd7cacd52c909f66475c3af44e129f0b00ff9190a4505050565b6002820154604080516325b0985360e21b815290516000926001600160a01b0316916396c2614c9160048083019260209291908290030181865afa158015614946573d6000803e3d6000fd5b505050506040513d601f19601f8201168201806040525081019061496a91906158d9565b9050614977838383614cad565b6001600160801b039182166000908152601090930160205260409092206005018054919092166001600160801b0319909116179055565b6149be60c0820160a083016157da565b6149ce60808301606084016157da565b6149de60a08401608085016157da565b6149e89190615885565b6149f29190615908565b6001600160801b031615614a19576040516334cc2fed60e01b815260040160405180910390fd5b33614a3757604051635342e0a760e11b815260040160405180910390fd5b33600090815260ca60205260409020546001600160a01b031615614a6e57604051631953bac160e11b815260040160405180910390fd5b670de0b6b3a7640000614a896101a0830161018084016157da565b6001600160801b0316111561258c57604051633dedb6cb60e21b815260040160405180910390fd5b6000821580614abe575081155b15614acb57506000610a90565b81614adf6002670de0b6b3a7640000615d6a565b614aeb90600019615dc9565b614af59190615d6a565b831115614b145760405162a748d160e21b815260040160405180910390fd5b670de0b6b3a7640000614b28600282615d6a565b614b328486615d4b565b6140c49190615a07565b614b4682826122ca565b61147757614b5e816001600160a01b031660146151de565b614b698360206151de565b604051602001614b7a929190615e0c565b60408051601f198184030181529082905262461bcd60e51b825261146491600401615e7b565b600080614bb1633b9aca0084615d4b565b905082614bc2633b9aca0083615d6a565b14610a905760405162a748d160e21b815260040160405180910390fd5b6000821580614bec575081155b15614bf957506000610a90565b81614c106002676765c793fa10079d601b1b615d6a565b614c1c90600019615dc9565b614c269190615d6a565b831115614c455760405162a748d160e21b815260040160405180910390fd5b676765c793fa10079d601b1b614b28600282615d6a565b600080614c6e6002633b9aca00615d6a565b90506000614c7c8483615a07565b905081811015614c9f576040516307af724160e11b815260040160405180910390fd5b61375f633b9aca0082615d6a565b6001600160801b0380831660009081526010850160205260409020600481015490914291161015614f14576000808080614ce88888886145c5565b92965090945092509050614d056001600160801b0383168761479c565b600d89018054601090614d29908490600160801b90046001600160801b0316615885565b82546101009290920a6001600160801b038181021990931691831602179091556002870154614d5a925016826141e9565b614d649083615843565b600c89018054600090614d819084906001600160801b0316615843565b92506101000a8154816001600160801b0302191690836001600160801b0316021790555060008560050160109054906101000a90046001600160801b031684614dca9190615885565b6004870154909150600160801b90046001600160801b0316600003614e57576005860180546001600160801b0319166001600160801b038981169182179092558a54604080516001600160a01b039092168252928b166020820152918201527f6f0af1abcf1ba2094b30510b922c357e153645953c99cedcd9c731cf49c0e4919060600160405180910390a15b6005860180546001600160801b03908116600160801b8783168102919091179092556001600160801b03198782168302164282161760048901558a54600d8c01547f22f7e29f1509fbd47f3e61026d7920c0dd79fd86b88861a8e5f0f7d130a584e3936001600160a01b03909216928c92614ed49204168b6141e9565b604080516001600160a01b0390941684526001600160801b039283166020850152908216908301528316606082015260800160405180910390a150505050505b50505050565b600061408b6001600160801b038481169084166150b1565b6001600160801b0380821660009081526010840160205260408120600c850154919290911615614ffe57600c8401546004820154600283015461375f926001600160801b039081169261472592614f949290811691600160801b9004166141e9565b6004880154600b890154610bcd916001600160801b03600160801b9182900481169261472592614fc79291041683615885565b6004890154614fdf906001600160801b031642615885565b60058d0154610bcd9190600160801b90046001600160801b0316615a1f565b5092915050565b6000610a90826001600160801b0316614ba0565b60008160000361503c576040516308693c7b60e31b815260040160405180910390fd5b6000615049600284615d6a565b9050670de0b6b3a764000061506082600019615dc9565b61506a9190615d6a565b8411156150895760405162a748d160e21b815260040160405180910390fd5b828161509d670de0b6b3a764000087615d4b565b6150a79190615a07565b61375f9190615d6a565b6000816000036150d4576040516308693c7b60e31b815260040160405180910390fd5b60006150e1600284615d6a565b9050676765c793fa10079d601b1b6150fb82600019615dc9565b6151059190615d6a565b8411156151245760405162a748d160e21b815260040160405180910390fd5b828161509d676765c793fa10079d601b1b87615d4b565b60975460ff1661419a5760405162461bcd60e51b815260206004820152601460248201527314185d5cd8589b194e881b9bdd081c185d5cd95960621b6044820152606401611464565b600054610100900460ff1661419a5760405162461bcd60e51b815260040161146490615d7e565b600054610100900460ff166151d25760405162461bcd60e51b815260040161146490615d7e565b6097805460ff19169055565b606060006151ed836002615d4b565b6151f8906002615a07565b67ffffffffffffffff81111561521057615210615eae565b6040519080825280601f01601f19166020018201604052801561523a576020820181803683370190505b509050600360fc1b8160008151811061525557615255615ec4565b60200101906001600160f81b031916908160001a905350600f60fb1b8160018151811061528457615284615ec4565b60200101906001600160f81b031916908160001a90535060006152a8846002615d4b565b6152b3906001615a07565b90505b600181111561532b576f181899199a1a9b1b9c1cb0b131b232b360811b85600f16601081106152e7576152e7615ec4565b1a60f81b8282815181106152fd576152fd615ec4565b60200101906001600160f81b031916908160001a90535060049490941c9361532481615eda565b90506152b6565b50831561408b5760405162461bcd60e51b815260206004820181905260248201527f537472696e67733a20686578206c656e67746820696e73756666696369656e746044820152606401611464565b60006020828403121561538c57600080fd5b81356001600160e01b03198116811461408b57600080fd5b6001600160a01b038116811461258c57600080fd5b80356153c4816153a4565b919050565b803580151581146153c457600080fd5b600080604083850312156153ec57600080fd5b82356153f7816153a4565b9150615405602084016153c9565b90509250929050565b6001600160801b038116811461258c57600080fd5b80356153c48161540e565b60008060006060848603121561544357600080fd5b833561544e816153a4565b9250602084013561545e8161540e565b9150604084013561546e816153a4565b809150509250925092565b60006020828403121561548b57600080fd5b5035919050565b6001600160a01b0391909116815260200190565b6000602082840312156154b857600080fd5b813561408b816153a4565b600080604083850312156154d657600080fd5b8235915060208301356154e8816153a4565b809150509250929050565b600080600080600060a0868803121561550b57600080fd5b85356155168161540e565b94506020860135615526816153a4565b93506040860135615536816153a4565b92506060860135615546816153a4565b915060808601356155568161540e565b809150509295509295909350565b6001600160801b0392831681529116602082015260400190565b600080600080600060a0868803121561559657600080fd5b85356155a18161540e565b945060208601356155b1816153a4565b935060408601356155c18161540e565b925060608601356155468161540e565b6020808252825182820181905260009190848201906040850190845b818110156156125783516001600160a01b0316835292840192918401916001016155ed565b50909695505050505050565b6000806040838503121561563157600080fd5b823561563c816153a4565b915060208301356154e88161540e565b6000806000806080858703121561566257600080fd5b843561566d816153a4565b9350602085013561567d8161540e565b9250604085013561568d8161540e565b9150606085013561569d8161540e565b939692955090935050565b600080604083850312156156bb57600080fd5b82356156c68161540e565b915060208301356154e8816153a4565b6001600160801b03948516815292841660208401529083166040830152909116606082015260800190565b6000806040838503121561571457600080fd5b82356156c6816153a4565b600080600080600060a0868803121561573757600080fd5b8535615742816153a4565b945060208601356157528161540e565b935060408601356157628161540e565b925060608601356157728161540e565b91506080860135615556816153a4565b6000806000806080858703121561579857600080fd5b84356157a3816153a4565b935060208501356157b38161540e565b925060408501356157c3816153a4565b91506060850135600b81900b811461569d57600080fd5b6000602082840312156157ec57600080fd5b813561408b8161540e565b6000610200828403121561580a57600080fd5b50919050565b60006020828403121561582257600080fd5b815161408b8161540e565b634e487b7160e01b600052601160045260246000fd5b60006001600160801b038281168482168083038211156158655761586561582d565b01949350505050565b9182526001600160801b0316602082015260400190565b60006001600160801b03838116908316818110156158a5576158a561582d565b039392505050565b6001600160a01b0393841681526001600160801b03929092166020830152909116604082015260600190565b6000602082840312156158eb57600080fd5b5051919050565b634e487b7160e01b600052601260045260246000fd5b60006001600160801b0383811680615922576159226158f2565b92169190910692915050565b9283526001600160801b03918216602084015216604082015260600190565b6000806040838503121561596057600080fd5b825161596b8161540e565b60208401519092506154e88161540e565b9283526001600160a01b039190911660208301526001600160801b0316604082015260600190565b9384526001600160801b039283166020850152908216604084015216606082015260800190565b6001600160a01b0392831681529116602082015260400190565b6001600160801b039290921682526001600160a01b0316602082015260400190565b60008219821115615a1a57615a1a61582d565b500190565b60006001600160801b0382811684821681151582840482111615615a4557615a4561582d565b02949350505050565b6001600160a01b039290921682526001600160801b0316602082015260400190565b600060208284031215615a8257600080fd5b815160ff8116811461408b57600080fd5b600060208284031215615aa557600080fd5b61408b826153c9565b6102008101615acd82615ac0856153b9565b6001600160a01b03169052565b615ad9602084016153b9565b6001600160a01b03166020830152615af3604084016153b9565b6001600160a01b03166040830152615b0d60608401615423565b6001600160801b03166060830152615b2760808401615423565b6001600160801b03166080830152615b4160a08401615423565b6001600160801b031660a0830152615b5b60c08401615423565b6001600160801b031660c0830152615b7560e08401615423565b6001600160801b031660e0830152610100615b91848201615423565b6001600160801b031690830152610120615bac848201615423565b6001600160801b031690830152610140615bc7848201615423565b6001600160801b031690830152610160615be2848201615423565b6001600160801b031690830152610180615bfd848201615423565b6001600160801b0316908301526101a0615c18848201615423565b6001600160801b0316908301526101c0615c33848201615423565b6001600160801b0316908301526101e0615c4e8482016153c9565b1515920191909152919050565b600181815b80851115615c96578160001904821115615c7c57615c7c61582d565b80851615615c8957918102915b93841c9390800290615c60565b509250929050565b600082615cad57506001610a90565b81615cba57506000610a90565b8160018114615cd05760028114615cda57615cf6565b6001915050610a90565b60ff841115615ceb57615ceb61582d565b50506001821b610a90565b5060208310610133831016604e8410600b8410161715615d19575081810a610a90565b615d238383615c5b565b8060001904821115615d3757615d3761582d565b029392505050565b600061408b8383615c9e565b6000816000190483118215151615615d6557615d6561582d565b500290565b600082615d7957615d796158f2565b500490565b6020808252602b908201527f496e697469616c697a61626c653a20636f6e7472616374206973206e6f74206960408201526a6e697469616c697a696e6760a81b606082015260800190565b600082821015615ddb57615ddb61582d565b500390565b60005b83811015615dfb578181015183820152602001615de3565b83811115614f145750506000910152565b76020b1b1b2b9b9a1b7b73a3937b61d1030b1b1b7bab73a1604d1b815260008351615e3e816017850160208801615de0565b7001034b99036b4b9b9b4b733903937b6329607d1b6017918401918201528351615e6f816028840160208801615de0565b01602801949350505050565b6020815260008251806020840152615e9a816040850160208701615de0565b601f01601f19169190910160400192915050565b634e487b7160e01b600052604160045260246000fd5b634e487b7160e01b600052603260045260246000fd5b600081615ee957615ee961582d565b50600019019056fe71840dc4906352362b0cdaf79870196c8e42acafade72d5d5a6d59291253ceb12344277e405079ec07749d374ba0b5862a4e45a6a05ac889dbb4a991c6f9354d27160668f6d81898b09bdae61c61d2c7d23fe33a52ae9b38e5b92f00ced3806ba2646970667358221220273ce874c12116920dd4e880cdc45ae74a0cd1c722c536cd46cafffdfa1cc1e264736f6c634300080d0033",
  "deployedBytecode": "0x608060405234801561001057600080fd5b50600436106102ab5760003560e01c806387da020611610172578063c3d31fce116100d9578063d6b68dbc11610092578063d6b68dbc146108c8578063e06cffa8146108db578063e823d5cf146108ee578063ec04205b14610901578063f00bdd5114610a10578063f27dd8ab14610a23578063fe04d4c514610a3657600080fd5b8063c3d31fce14610861578063c4d66de814610869578063c55ae0381461087c578063c8954db91461088f578063d3c66f90146108a2578063d547741f146108b557600080fd5b80639c68153e1161012b5780639c68153e146107c55780639d82aa35146107d8578063a217fddf146107eb578063a480ca79146107f3578063a591972714610806578063a6b896fd1461084e57600080fd5b806387da0206146106af57806391d148541461077157806392b06322146107845780639611d5dd1461079757806397a4bd5a1461079f57806399b55762146107b257600080fd5b806345a4b417116102165780635d5f3f0e116101cf5780635d5f3f0e146106045780635f3386db14610617578063632805f81461062a578063775ad5271461064d5780637e5660d9146106605780637f726e581461067357600080fd5b806345a4b417146104f9578063473d49721461054657806347ce376f146105755780634c804cca146105bd578063530b7ba1146105d05780635c975abb146105f957600080fd5b80632f2ff15d116102685780632f2ff15d14610482578063326c62fa1461049557806334441590146104b657806336568abe146104c957806339e1d4b6146104dc578063402d8883146104f157600080fd5b806301ffc9a7146102b05780631ecfa93c146102d857806320992c4414610315578063248a9ca31461032a578063265cd7201461035b57806327f90f0a1461037b575b600080fd5b6102c36102be36600461537a565b610a5f565b60405190151581526020015b60405180910390f35b6102eb6102e63660046153d9565b610a96565b604080516001600160801b03948516815292841660208401529216918101919091526060016102cf565b61032861032336600461542e565b610c9c565b005b61034d610338366004615479565b60009081526065602052604090206001015490565b6040519081526020016102cf565b61036e610369366004615479565b610e9b565b6040516102cf9190615492565b6104116103893660046154a6565b6001600160a01b03908116600090815260ca6020526040902060018101546003820154600483015460058401546006850154600786015460089096015494909616966001600160801b0380851697600160801b958690048216978286169795879004831696838616969581900484169584841695938290048516949283169391900490911690565b604080516001600160a01b03909c168c526001600160801b039a8b1660208d0152988a16988b019890985295881660608a0152938716608089015291861660a0880152851660c0870152841660e08601528316610100850152821661012084015216610140820152610160016102cf565b6103286104903660046154c3565b610ec5565b6104a86104a33660046154f3565b610eef565b6040516102cf929190615564565b6102eb6104c436600461557e565b611165565b6103286104d73660046154c3565b6113f8565b6104e461147b565b6040516102cf91906155d1565b6103286114dd565b61052e6105073660046154a6565b6001600160a01b0316600090815260ca60205260409020600f01546001600160801b031690565b6040516001600160801b0390911681526020016102cf565b6102c36105543660046154a6565b6001600160a01b0316600090815260ca602052604090206009015460ff1690565b61052e61058336600461561e565b6001600160a01b0391909116600090815260ca602090815260408083206001600160801b0394851684526010019091529020600401541690565b61052e6105cb36600461561e565b611aa9565b61036e6105de3660046154a6565b60cd602052600090815260409020546001600160a01b031681565b60975460ff166102c3565b6104a861061236600461564c565b611b02565b61052e6106253660046156a8565b611d19565b61063d61063836600461564c565b611fb6565b6040516102cf94939291906156d6565b61032861065b366004615701565b6120c4565b61032861066e3660046156a8565b612210565b61052e6106813660046154a6565b6001600160a01b0316600090815260ca60205260409020600a0154630100000090046001600160801b031690565b61072f6106bd36600461561e565b6001600160a01b0391909116600090815260ca602090815260408083206001600160801b03948516845260100190915290206001810154600282015460038301546004840154600590940154600160801b80850487169793871696948516959285169492819004831693910490911690565b604080516001600160801b03978816815295871660208701529386169385019390935290841660608401528316608083015290911660a082015260c0016102cf565b6102c361077f3660046154c3565b6122ca565b61052e61079236600461571f565b6122f5565b61032861256c565b6103286107ad366004615782565b61258f565b6103286107c03660046156a8565b612cba565b6103286107d33660046156a8565b612d72565b6104a86107e63660046154a6565b612e5d565b61034d600081565b6103286108013660046154a6565b612fed565b6104a86108143660046154a6565b6001600160a01b0316600090815260ca6020526040902060078101546008909101546001600160801b03600160801b909204821692911690565b61032861085c3660046156a8565b613016565b6103286130ce565b6103286108773660046154a6565b6130ee565b61032861088a366004615701565b613280565b61032861089d3660046157da565b6133ce565b6103286108b0366004615701565b6135e1565b6103286108c33660046154c3565b6136a8565b61052e6108d636600461561e565b6136cd565b6103286108e936600461561e565b613767565b6103286108fc3660046154a6565b613791565b61099d61090f3660046154a6565b6001600160a01b0316600090815260ca60205260409020600a810154600b820154600c830154600d840154600e9094015460ff80851696610100860482169662010000870490921695630100000090046001600160801b039081169581811695600160801b918290048316958382169591839004841694848316949284900483169383831693920490911690565b604080519c15158d529a151560208d0152981515998b01999099526001600160801b0396871660608b015294861660808a015292851660a089015290841660c0880152831660e08701528216610100860152811661012085015291821661014084015216610160820152610180016102cf565b610328610a1e3660046157f7565b613acb565b61052e610a313660046154a6565b61402d565b61036e610a443660046154a6565b60c9602052600090815260409020546001600160a01b031681565b60006001600160e01b03198216637965db0b60e01b1480610a9057506301ffc9a760e01b6001600160e01b03198316145b92915050565b6001600160a01b038216600090815260ca6020526040808220905163839a9c2960e01b81526004810191909152821515602482015281908190819073__$ca2bba44fde77ee89f0ecd8cad9e71ea90$__9063839a9c2990604401602060405180830381865af4158015610b0d573d6000803e3d6000fd5b505050506040513d601f19601f82011682018060405250810190610b319190615810565b6001600160a01b038716600090815260ca6020526040908190209051631d398d8d60e21b8152919250610bdc91839173__$ca2bba44fde77ee89f0ecd8cad9e71ea90$__916374e6363491610b8c9160040190815260200190565b602060405180830381865af4158015610ba9573d6000803e3d6000fd5b505050506040513d601f19601f82011682018060405250810190610bcd9190615810565b6001600160801b031690614073565b6001600160a01b038716600090815260ca6020526040902090935073__$ca2bba44fde77ee89f0ecd8cad9e71ea90$__90635ccb5f2f90610c1d8685615843565b6040518363ffffffff1660e01b8152600401610c3a92919061586e565b602060405180830381865af4158015610c57573d6000803e3d6000fd5b505050506040513d601f19601f82011682018060405250810190610c7b9190615810565b915082610c888383615843565b610c929190615843565b9350509250925092565b600080516020615ef2833981519152610cb481614092565b6001600160a01b038416600090815260ca6020526040812060010154610cee906001600160801b03861690600160a01b900460ff1661409c565b6001600160a01b03808716600081815260ca6020526040902054929350911614610d2b57604051630951899960e01b815260040160405180910390fd5b6001600160a01b038516600090815260cc60205260409020546001600160801b039081169082161115610d7157604051639f747ffd60e01b815260040160405180910390fd5b6001600160a01b038516600090815260cc602052604081208054839290610da29084906001600160801b0316615885565b82546001600160801b039182166101009390930a9283029190920219909116179055506001600160a01b03808616600090815260ca6020526040908190206002810154600191909101549151631a4ca37b60e21b8152908316926369328dec92610e1592911690889088906004016158ad565b6020604051808303816000875af1158015610e34573d6000803e3d6000fd5b505050506040513d601f19601f82011682018060405250810190610e5891906158d9565b507f4e7e16de98f6ba9d5f9254bd51366fd84453a61f6d5767ffc4b00d97d696c50f858285604051610e8c939291906158ad565b60405180910390a15050505050565b60cb8181548110610eab57600080fd5b6000918252602090912001546001600160a01b0316905081565b600082815260656020526040902060010154610ee081614092565b610eea83836140ce565b505050565b600080610efa614154565b600080516020615f32833981519152610f1281614092565b6001600160a01b038716600090815260ca60205260409020600a810154610100900460ff1615610f555760405163056efc7b60e01b815260040160405180910390fd5b600a81015460ff16610f7a5760405163c6d9b58160e01b815260040160405180910390fd5b60018101546001600160a01b03888116911614610faa5760405163623957d360e01b815260040160405180910390fd5b60038101546001600160801b03908116908a161015610fdc5760405163fca6b5cd60e01b815260040160405180910390fd5b60038101546001600160801b03600160801b9091048116908a161115611015576040516393c139e960e01b815260040160405180910390fd5b600481015460038201546001600160801b039182169161103691168b615885565b6110409190615908565b6001600160801b0316156110675760405163270955a760e01b815260040160405180910390fd5b604051631cd2ca1960e11b81526000945084935073__$ca2bba44fde77ee89f0ecd8cad9e71ea90$__906339a59432906110a99084908d908a9060040161592e565b6040805180830381865af41580156110c5573d6000803e3d6000fd5b505050506040513d601f19601f820116820180604052508101906110e9919061594d565b604051636839a26160e01b8152919550935073__$ca2bba44fde77ee89f0ecd8cad9e71ea90$__90636839a261906111299084908a908a9060040161597c565b60006040518083038186803b15801561114157600080fd5b505af4158015611155573d6000803e3d6000fd5b5050505050509550959350505050565b6000806000611172614154565b600080516020615f3283398151915261118a81614092565b6001600160a01b038816600090815260ca60205260409020600a81015462010000900460ff16156111ce5760405163056efc7b60e01b815260040160405180910390fd5b60006111dc8a8a8d8a611b02565b5090506001600160801b0381161561120757604051630d290b7960e31b815260040160405180910390fd5b60038201546001600160801b0390811690891610156112395760405163fca6b5cd60e01b815260040160405180910390fd5b60038201546001600160801b03600160801b90910481169089161115611272576040516393c139e960e01b815260040160405180910390fd5b600482015460038301546001600160801b039182169161129391168a615885565b61129d9190615908565b6001600160801b0316156112c45760405163270955a760e01b815260040160405180910390fd5b60006112e46112d4848c8b61419c565b6001600160801b038e16906141e9565b604051636ef48f5760e01b815290915073__$ca2bba44fde77ee89f0ecd8cad9e71ea90$__90636ef48f57906113249086908e9086908e906004016159a4565b602060405180830381865af4158015611341573d6000803e3d6000fd5b505050506040513d601f19601f820116820180604052508101906113659190615810565b604051631cd2ca1960e11b815290955073__$ca2bba44fde77ee89f0ecd8cad9e71ea90$__906339a59432906113a39086908d908a9060040161592e565b6040805180830381865af41580156113bf573d6000803e3d6000fd5b505050506040513d601f19601f820116820180604052508101906113e3919061594d565b909d909c50949a509398505050505050505050565b6001600160a01b038116331461146d5760405162461bcd60e51b815260206004820152602f60248201527f416363657373436f6e74726f6c3a2063616e206f6e6c792072656e6f756e636560448201526e103937b632b9903337b91039b2b63360891b60648201526084015b60405180910390fd5b6114778282614218565b5050565b606060cb8054806020026020016040519081016040528092919081815260200182805480156114d357602002820191906000526020600020905b81546001600160a01b031681526001909101906020018083116114b5575b5050505050905090565b6114e5614154565b600080516020615f128339815191526114fd81614092565b33600090815260ca60205260409020600a810154630100000090046001600160801b031615801561153e5750600a81015460ff610100909104161515600114155b1561155c57604051631e13931b60e21b815260040160405180910390fd5b600a8101544263010000009091046001600160801b0316118080156115865750600982015460ff16155b156115a457604051632b604eef60e01b815260040160405180910390fd5b6115ad8261427f565b604051631d398d8d60e21b81526004810183905260009081908190819073__$ca2bba44fde77ee89f0ecd8cad9e71ea90$__906374e6363490602401602060405180830381865af4158015611606573d6000803e3d6000fd5b505050506040513d601f19601f8201168201806040525081019061162a9190615810565b600c870154909150600160801b90046001600160801b03165b60038701546001600160801b03600160801b90910481169082161161174857604051634de6e91560e01b8152600090819073__$ca2bba44fde77ee89f0ecd8cad9e71ea90$__90634de6e915906116a2908c908790899060040161592e565b6040805180830381865af41580156116be573d6000803e3d6000fd5b505050506040513d601f19601f820116820180604052508101906116e2919061594d565b90925090506116f18183615843565b6116fb9086615843565b94506117078188615843565b965060006117168a8589614377565b905080806117215750865b60048b015490975061174193506001600160801b03169150839050615843565b9050611643565b50604051635ccb5f2f60e01b815260009073__$ca2bba44fde77ee89f0ecd8cad9e71ea90$__90635ccb5f2f90611785908a90879060040161586e565b602060405180830381865af41580156117a2573d6000803e3d6000fd5b505050506040513d601f19601f820116820180604052508101906117c69190615810565b90506117d28184615843565b604051636839a26160e01b815290935073__$ca2bba44fde77ee89f0ecd8cad9e71ea90$__90636839a26190611810908a903390889060040161597c565b60006040518083038186803b15801561182857600080fd5b505af415801561183c573d6000803e3d6000fd5b505050600688015461185891506001600160801b031642615843565b600d880180546001600160801b039283166001600160801b031991821617909155600b89018054909116905533600090815260cc60205260408120805484939192916118a691859116615843565b92506101000a8154816001600160801b0302191690836001600160801b031602179055508287600a0160020160008282829054906101000a90046001600160801b03166118f39190615843565b82546101009290920a6001600160801b038181021990931691831602179091556006890154600a8a015461193b9350600160801b909104821691630100000090910416615843565b6001600160801b03164211156119bb57600c870154600d880154604080516001600160801b038088168252808a16602083015280861692820192909252928116606084015216608082015233907f8122edb1a4917454f85f9b09704f29ed2116612cc8f1a2554b80097dceeb5a839060a0015b60405180910390a2611a7b565b600a8701544263010000009091046001600160801b03161115611a2557600c870154600d88015460405133927fc6db71f000708261529893214115dc775666bfdeffe2ae11b7fe243ee0353e5d926119ae92889287926001600160801b03918216929116906156d6565b600c870154600d88015460405133927f85aff561fe55576b612fb98de2b2b1b5f64d13c985973d75b6cc4a09376155f192611a7292889287926001600160801b03918216929116906156d6565b60405180910390a25b505050600a840180546301000000600160981b0319169055505050600b0180546001600160801b0316905550565b6001600160a01b038216600090815260ca602090815260408083206001600160801b0380861685526010909101909252822060040154600160801b90041690819003610a905750676765c793fa10079d601b1b92915050565b6001600160a01b03808516600090815260ca60209081526040808320600281015482516325b0985360e21b81529251949586959294869492909116926396c2614c9260048082019392918290030181865afa158015611b65573d6000803e3d6000fd5b505050506040513d601f19601f82011682018060405250810190611b8991906158d9565b600e8301549091506001600160801b03600160801b90910481169086161115611bcc576000611bc16001600160801b038816836141e9565b935093505050611d10565b604051633d29c20960e01b815260009073__$ca2bba44fde77ee89f0ecd8cad9e71ea90$__90633d29c20990611c0c9086908c908c908c906004016159a4565b6040805180830381865af4158015611c28573d6000803e3d6000fd5b505050506040513d601f19601f82011682018060405250810190611c4c919061594d565b9095509050600080611c5f858b866145c5565b5050604051632ca9e11360e11b8152919350915060009073__$ca2bba44fde77ee89f0ecd8cad9e71ea90$__90635953c22690611ca69089908f90899088906004016159a4565b602060405180830381865af4158015611cc3573d6000803e3d6000fd5b505050506040513d601f19601f82011682018060405250810190611ce79190615810565b905080611cfd6001600160801b038616856141e9565b611d079190615843565b96505050505050505b94509492505050565b6001600160a01b038116600090815260ca60205260408120600a8101548190630100000090046001600160801b0316151580611d5e5750600a820154610100900460ff165b80611d735750600a82015462010000900460ff165b80611d835750600a82015460ff16155b15611d9357600092505050610a90565b60048201546001600160801b03600160801b90910481169086161115611dcb576004820154600160801b90046001600160801b031694505b6002810154604080516325b0985360e21b815290516000926001600160a01b0316916396c2614c9160048083019260209291908290030181865afa158015611e17573d6000803e3d6000fd5b505050506040513d601f19601f82011682018060405250810190611e3b91906158d9565b60038401549091506001600160801b03168660005b60048501546003860154611e77916001600160801b0390811691600160801b900416615843565b6001600160801b0316836001600160801b031614611f64576000611e9c8785876145c5565b5050506001600160801b03808616600090815260108a01602052604081206002015492935091611ecd9116836141e9565b9050836001600160801b0316816001600160801b03161015611f1957611ef38185615885565b9350611f086001600160801b03821686614073565b611f129084615843565b9250611f43565b611f2c6001600160801b03851686614073565b611f369084615843565b9250600093505050611f64565b50506004850154611f5d906001600160801b031684615843565b9250611e50565b816001600160801b0316896001600160801b031603611f8c5760009650505050505050610a90565b611fa9611f99838b615885565b6001600160801b03831690614784565b9998505050505050505050565b6001600160a01b038416600090815260ca60205260408120600a8101548291829182919060ff16611ffa5760405163c6d9b58160e01b815260040160405180910390fd5b604051633d29c20960e01b815273__$ca2bba44fde77ee89f0ecd8cad9e71ea90$__90633d29c209906120379084908c908c908c906004016159a4565b6040805180830381865af4158015612053573d6000803e3d6000fd5b505050506040513d601f19601f82011682018060405250810190612077919061594d565b95509250612099612089828a8961419c565b6001600160801b0387169061479c565b935080600a0160000160039054906101000a90046001600160801b0316915050945094509450949050565b600080516020615ef28339815191526120dc81614092565b6001600160a01b03821661210357604051635342e0a760e11b815260040160405180910390fd5b6001600160a01b03831661212a5760405163f15e745f60e01b815260040160405180910390fd5b6001600160a01b03808316600081815260ca60205260409020549091161461216557604051630951899960e01b815260040160405180910390fd5b6001600160a01b03808316600090815260ca60205260409020548482169116146121a257604051637e1c4b1160e11b815260040160405180910390fd5b6001600160a01b03838116600090815260c960205260409081902080546001600160a01b03191692851692909217909155517fa0bdc0fbc09f4ed7d0e01a12537839d8bd60334a4bfa65f0053c2d6972b4c9849061220390859085906159cb565b60405180910390a1505050565b600080516020615ef283398151915261222881614092565b6001600160a01b038216600090815260ca60205260409020600a015460ff1661226457604051630951899960e01b815260040160405180910390fd5b6001600160a01b038216600090815260ca60205260409081902060080180546001600160801b0319166001600160801b038616179055517ff81f6b13c0f245c7eb66e6de718d94a737f90b621fc61e666430cdcba6cf847c9061220390859085906159e5565b60009182526065602090815260408084206001600160a01b0393909316845291905290205460ff1690565b60006122ff614154565b600080516020615f3283398151915261231781614092565b6001600160a01b038716600090815260ca60205260409020600e81015461234f90600160801b90046001600160801b03166001615843565b6001600160801b0316856001600160801b031611156123815760405163019894df60e21b815260040160405180910390fd5b600e8101546001600160801b03600160801b9091048116908616118015816123c757506001600160801b0380891660009081526010840160205260409020600201541615155b806123f857508080156123f857506001600160801b0380891660009081526010840160205260409020600301541615155b6124155760405163436ec62560e01b815260040160405180910390fd5b6000876001600160801b03161161243f57604051636ba603b360e11b815260040160405180910390fd5b604051636ef48f5760e01b815273__$ca2bba44fde77ee89f0ecd8cad9e71ea90$__90636ef48f579061247c9085908c908c908c906004016159a4565b602060405180830381865af4158015612499573d6000803e3d6000fd5b505050506040513d601f19601f820116820180604052508101906124bd9190615810565b600283015460018401549195506001600160a01b03908116916369328dec918116906124fd906001600160801b03891690600160a01b900460ff166147c6565b886040518463ffffffff1660e01b815260040161251c939291906158ad565b6020604051808303816000875af115801561253b573d6000803e3d6000fd5b505050506040513d601f19601f8201168201806040525081019061255f91906158d9565b5050505095945050505050565b600080516020615ef283398151915261258481614092565b61258c6147ef565b50565b612597614154565b7f9cdad79b210c03aa5c392bbd1aadc38f48d1763a9879534b7e8979048607fb796125c181614092565b6001600160a01b03808616600081815260c960209081526040808320548516835260ca8252808320938352808320600101548516835260cd90915290205490918581169116146126245760405163c1ab6dc160e01b815260040160405180910390fd5b600a810154610100900460ff161561264f5760405163056efc7b60e01b815260040160405180910390fd5b600a810154630100000090046001600160801b0316158015906126855750600a810154630100000090046001600160801b031642115b156126a357604051630fda546f60e41b815260040160405180910390fd5b60018101546000906126c9906001600160801b03881690600160a01b900460ff1661409c565b60078301549091506000906126f1906001600160801b0380851691600160801b900416614073565b905060006126ff8284615885565b6004850154600b86015491925083916001600160801b03600160801b9283900481169261273192889291900416615843565b6001600160801b031611156127595760405163aab4fe5160e01b815260040160405180910390fd5b600d8501546001600160801b03164210156127875760405163af26604960e01b815260040160405180910390fd5b6127908561427f565b600c8501546001600160801b0390811690851611156127c257604051634421566d60e11b815260040160405180910390fd5b6004850154600c86015485916000916127ee916001600160801b0390811691600160801b900416615885565b90505b6000826001600160801b0316118015612821575060038701546001600160801b03600160801b9091048116908216105b15612a0857600487015461283e906001600160801b031682615843565b6001600160801b03808216600090815260108a0160205260409020600201549192501615612a0357604051634c5e028760e11b8152600090819073__$ca2bba44fde77ee89f0ecd8cad9e71ea90$__906398bc050e906128a6908c908790899060040161592e565b6040805180830381865af41580156128c2573d6000803e3d6000fd5b505050506040513d601f19601f820116820180604052508101906128e6919061594d565b60405163ca8701f360e01b8152919350915073__$ca2bba44fde77ee89f0ecd8cad9e71ea90$__9063ca8701f390612928908c908790879087906004016159a4565b60006040518083038186803b15801561294057600080fd5b505af4158015612954573d6000803e3d6000fd5b5050505080846129649190615885565b93506129f473__$ca2bba44fde77ee89f0ecd8cad9e71ea90$__6387610e268560006040518363ffffffff1660e01b81526004016129a3929190615564565b602060405180830381865af41580156129c0573d6000803e3d6000fd5b505050506040513d601f19601f820116820180604052508101906129e49190615810565b6001600160801b03841690614073565b6129fe9086615843565b945050505b6127f1565b6001600160801b03821615612a3057604051630f0b666f60e01b815260040160405180910390fd5b600a870154630100000090046001600160801b0316600003612ad2576005870154612a64906001600160801b031642615a07565b600a880180546001600160801b03929092166301000000026301000000600160981b031990921691909117905560405133907fb238c9bb6ccde03fef7caa4e124c6dff77f0a5b70c7df429eb8f37bd3a48f8ba90612ac59087908990615564565b60405180910390a2612b16565b336001600160a01b03167faad6575ebfd3574ba48d8611bd3c09b1e51c4ff7ca6980f6eacac7b7ac3673158587604051612b0d929190615564565b60405180910390a25b600a870154600090612b4690630100000090046001600160801b03166bffffffffffffffffffffffff8c16615a1f565b9050806001600160801b0316846001600160801b03161115612b7b57604051637bfd5dc760e11b815260040160405180910390fd5b5033600090815260cc602052604081208054879290612ba49084906001600160801b0316615843565b92506101000a8154816001600160801b0302191690836001600160801b031602179055508587600a0160010160108282829054906101000a90046001600160801b0316612bf19190615843565b82546101009290920a6001600160801b03818102199093169183160217909155600289015460018a01546001600160a01b0391821693506369328dec9291811691612c499190891690600160a01b900460ff166147c6565b8f6040518463ffffffff1660e01b8152600401612c68939291906158ad565b6020604051808303816000875af1158015612c87573d6000803e3d6000fd5b505050506040513d601f19601f82011682018060405250810190612cab91906158d9565b50505050505050505050505050565b600080516020615ef2833981519152612cd281614092565b6001600160a01b03808316600081815260ca602052604090205490911614612d0d57604051630951899960e01b815260040160405180910390fd5b6001600160a01b038216600090815260ca60205260409081902060050180546001600160801b03808716600160801b029116179055517f67c55291cb70b5f0144aae4118b87e726866a80bda106e58e132aa625551f8579061220390859085906159e5565b600080516020615ef2833981519152612d8a81614092565b6001600160a01b038216600090815260ca60205260409020600a015460ff16612dc657604051630951899960e01b815260040160405180910390fd5b670de0b6b3a7640000836001600160801b03161115612df857604051633dedb6cb60e21b815260040160405180910390fd5b6001600160a01b038216600090815260ca60205260409081902060070180546001600160801b03808716600160801b029116179055517fefec478f5ee0b516cbe859014d4830648217ffb71b235c17f0015a12a4de224b9061220390859085906159e5565b6001600160a01b038116600090815260ca60205260408120600a8101548291908190630100000090046001600160801b03168303612ebb576004820154612eb490600160801b90046001600160801b031686611d19565b9350612fe6565b600381015460009081906001600160801b03165b60048401546003850154612ef6916001600160801b0390811691600160801b900416615843565b6001600160801b0316816001600160801b031614612fcd576001600160801b038082166000908152601087016020526040902060030154612f4091600160801b9091041682614073565b612f4a9084615843565b6001600160801b038083166000908152601088016020526040902060030154919450612f7e91600160801b90041683615843565b6001600160801b038083166000908152601088016020526040902060030154919350612fab911687615843565b6004850154909650612fc6906001600160801b031682615843565b9050612ecf565b612fe06001600160801b03841683614784565b96505050505b5050915091565b612ff5614154565b6001600160a01b038116600090815260ca602052604090206114778161427f565b600080516020615ef283398151915261302e81614092565b6001600160a01b03808316600081815260ca60205260409020549091161461306957604051630951899960e01b815260040160405180910390fd5b6001600160a01b038216600090815260ca60205260409081902060040180546001600160801b03808716600160801b029116179055517f1451569f54a4226b25194b628ff0b7be59bf83e6d5f74b486b88d45d7d80d9b49061220390859085906159e5565b600080516020615ef28339815191526130e681614092565b61258c61483b565b600054610100900460ff161580801561310e5750600054600160ff909116105b806131285750303b158015613128575060005460ff166001145b61318b5760405162461bcd60e51b815260206004820152602e60248201527f496e697469616c697a61626c653a20636f6e747261637420697320616c72656160448201526d191e481a5b9a5d1a585b1a5e995960921b6064820152608401611464565b6000805460ff1916600117905580156131ae576000805461ff0019166101001790555b6131b6614878565b6001600160a01b0382166131c8573391505b6131d36000836140ce565b6131eb600080516020615ef2833981519152836140ce565b613211600080516020615f12833981519152600080516020615ef28339815191526148af565b613237600080516020615f32833981519152600080516020615ef28339815191526148af565b8015611477576000805461ff0019169055604051600181527f7f26b83ff96e1f2b6a682f133852f6798a09c465da95921460cefb38474024989060200160405180910390a15050565b600080516020615ef283398151915261329881614092565b6001600160a01b0382166132bf57604051635342e0a760e11b815260040160405180910390fd5b6001600160a01b0383166132e65760405163f15e745f60e01b815260040160405180910390fd5b6001600160a01b03808316600081815260ca60205260409020549091161461332157604051630951899960e01b815260040160405180910390fd5b6001600160a01b03808316600090815260ca602052604090205484821691161461335e57604051637e1c4b1160e11b815260040160405180910390fd5b613376600080516020615f12833981519152846136a8565b6001600160a01b038316600090815260c960205260409081902080546001600160a01b0319169055517f02e49619408521be07696ec96b8ec59295aca0b168326260f1a22059631e2cdf9061220390859085906159cb565b6133d6614154565b600080516020615f128339815191526133ee81614092565b33600090815260ca602052604081206001810154909190613423906001600160801b03861690600160a01b900460ff1661409c565b604051636839a26160e01b815290915073__$ca2bba44fde77ee89f0ecd8cad9e71ea90$__90636839a261906134619085903390869060040161597c565b60006040518083038186803b15801561347957600080fd5b505af415801561348d573d6000803e3d6000fd5b5050604051631a727b1960e31b81526000925073__$ca2bba44fde77ee89f0ecd8cad9e71ea90$__915063d393d8c8906134cd908690869060040161586e565b602060405180830381865af41580156134ea573d6000803e3d6000fd5b505050506040513d601f19601f8201168201806040525081019061350e9190615810565b600a84015490915060ff1615801561355757506008830154600d8401546001600160801b03600160801b9283900481169261354b920416836141e9565b6001600160801b031610155b156135b057600a8301805460ff1916600117905582546040517f5f1a2aad6c8125c39041f4e0e90bc4516abd322bec644d29276f7acc4b183ffe916135a7916001600160a01b0390911690615492565b60405180910390a15b7f55f3f2d2c632a076fddf6794d5cf693ea328d5223bd13d099d4a4bc5005f4a8f3383604051610e8c929190615a4e565b600080516020615ef28339815191526135f981614092565b6001600160a01b0383166136205760405163f15e745f60e01b815260040160405180910390fd5b6001600160a01b0382166136475760405163f15e745f60e01b815260040160405180910390fd5b6001600160a01b03838116600090815260cd60205260409081902080546001600160a01b03191692851692909217909155517fd91947eb8d21d5d2b42186ea9f1718c8ee615af367a9397fdbae0af9b202170b9061220390859085906159cb565b6000828152606560205260409020600101546136c381614092565b610eea8383614218565b6001600160a01b038216600090815260ca602052604080822090516338bbdcbd60e11b815273__$ca2bba44fde77ee89f0ecd8cad9e71ea90$__90637177b97a9061371e908490879060040161586e565b602060405180830381865af415801561373b573d6000803e3d6000fd5b505050506040513d601f19601f8201168201806040525081019061375f9190615810565b949350505050565b61376f614154565b6001600160a01b038216600090815260ca60205260409020610eea81836148fa565b600080516020615ef28339815191526137a981614092565b6001600160a01b038216600090815260ca60205260409020600a810154610100900460ff16156137eb576040516209157360e41b815260040160405180910390fd5b600a810154630100000090046001600160801b031660000361382057604051633aa99c9b60e01b815260040160405180910390fd5b6006810154600a82015461384e916001600160801b03600160801b9091048116916301000000900416615843565b6001600160801b031642101561387757604051632b797db960e11b815260040160405180910390fd5b600a8101805461010061ff0019909116179055600f810180546001600160801b031916426001600160801b0316179055604051631d8e67b960e31b81526004810182905260009073__$ca2bba44fde77ee89f0ecd8cad9e71ea90$__9063ec733dc890602401602060405180830381865af41580156138fa573d6000803e3d6000fd5b505050506040513d601f19601f8201168201806040525081019061391e9190615810565b600d830154909150600090600160801b90046001600160801b031615613a9a576002830154604080516325b0985360e21b815290516000926001600160a01b0316916396c2614c9160048083019260209291908290030181865afa15801561398a573d6000803e3d6000fd5b505050506040513d601f19601f820116820180604052508101906139ae91906158d9565b600d8501549091506139d090600160801b90046001600160801b0316826141e9565b600d850180546001600160801b0390811690915560028601546001600160a01b03898116600090815260ca6020526040902060019081015490890154949650918116936369328dec939290911691613a359190871690600160a01b900460ff166147c6565b336040518463ffffffff1660e01b8152600401613a54939291906158ad565b6020604051808303816000875af1158015613a73573d6000803e3d6000fd5b505050506040513d601f19601f82011682018060405250810190613a9791906158d9565b50505b7f846077ed9bc731d4a55621c64a72a5dcdb1c047b3de22f546d448b992e34d87b8583604051610e8c929190615a4e565b613ad4816149ae565b604051806102200160405280336001600160a01b03168152602001826020016020810190613b0291906154a6565b6001600160a01b03168152602001826020016020810190613b2391906154a6565b6001600160a01b031663313ce5676040518163ffffffff1660e01b8152600401602060405180830381865afa158015613b60573d6000803e3d6000fd5b505050506040513d601f19601f82011682018060405250810190613b849190615a70565b60ff168152602001613b9c60608401604085016154a6565b6001600160a01b03168152602001613bba60808401606085016157da565b6001600160801b03168152602001613bd860a08401608085016157da565b6001600160801b03168152602001613bf660c0840160a085016157da565b6001600160801b03168152602001613c1460e0840160c085016157da565b6001600160801b03168152602001613c33610100840160e085016157da565b6001600160801b03168152602001613c53610120840161010085016157da565b6001600160801b03168152602001613c73610140840161012085016157da565b6001600160801b03168152602001613c93610160840161014085016157da565b6001600160801b03168152602001613cb3610180840161016085016157da565b6001600160801b03168152602001613cd36101a0840161018085016157da565b6001600160801b03168152602001613cf36101c084016101a085016157da565b6001600160801b03168152602001613d136101e084016101c085016157da565b6001600160801b03168152602001613d3361020084016101e08501615a93565b1515905233600090815260ca6020908152604091829020835181546001600160a01b03199081166001600160a01b0392831617835592850151600183018054878701519284166001600160a81b031990911617600160a01b60ff90931692909202919091179055606080860151600284018054909516921691909117909255608084015160a08501516001600160801b03918216600160801b918316820217600384015560c086015160e08701519083169083168202176004840155610100860151610120870151908316908316820217600584015561014086015161016087015190831690831682021760068401556101808601516101a087015190831690831682021760078401556101c08601516101e0870151908316921602176008820155610200909301516009909301805460ff191693151593909317909255613e7f9183019083016154a6565b6001600160a01b03166396c2614c6040518163ffffffff1660e01b8152600401602060405180830381865afa158015613ebc573d6000803e3d6000fd5b505050506040513d601f19601f82011682018060405250810190613ee091906158d9565b33600081815260ca60209081526040808320600e0180546001600160801b0319166001600160801b03969096169590951790945560c9905282812080546001600160a01b0319908116841790915560cb805460018101825592527fa7ce836d032b2bf62b7e2097a8e0a6d8aeb35405ad15271e96d3b0188a1d06fb90910180549091169091179055517fa77a23a7d9735be89f9068c8700c055a4e28b9199f9370c5f761b436e5ee010390613f96908390615aae565b60405180910390a133600090815260ca6020526040812060080154600160801b90046001600160801b0316900361258c5733600090815260ca602052604090819020600a8101805460ff191660011790555490517f5f1a2aad6c8125c39041f4e0e90bc4516abd322bec644d29276f7acc4b183ffe91614022916001600160a01b039190911690615492565b60405180910390a150565b6001600160a01b038116600090815260ca602090815260408083206001015460cc909252822054610a90916001600160801b0390911690600160a01b900460ff166147c6565b600061408b6001600160801b03848116908416614ab1565b9392505050565b61258c8133614b3c565b60006140a982600a615d3f565b6140c4670de0b6b3a76400006001600160801b038616615d4b565b61408b9190615d6a565b6140d882826122ca565b6114775760008281526065602090815260408083206001600160a01b03851684529091529020805460ff191660011790556141103390565b6001600160a01b0316816001600160a01b0316837f2f8788117e7eff1d82e926ec794901d17c78024a50270940304540a733656f0d60405160405180910390a45050565b60975460ff161561419a5760405162461bcd60e51b815260206004820152601060248201526f14185d5cd8589b194e881c185d5cd95960821b6044820152606401611464565b565b6001600160801b038083166000908152601085016020908152604080832085851684529182905282205490921691908290036141e157676765c793fa10079d601b1b91505b509392505050565b600061408b614213836001600160801b031661420d866001600160801b0316614ba0565b90614bdf565b614c5c565b61422282826122ca565b156114775760008281526065602090815260408083206001600160a01b0385168085529252808320805460ff1916905551339285917ff6391f5c32d9c69d2a47ea670b442974b53935d1edc7fd64eb21e047a839171b9190a45050565b6002810154604080516325b0985360e21b815290516000926001600160a01b0316916396c2614c9160048083019260209291908290030181865afa1580156142cb573d6000803e3d6000fd5b505050506040513d601f19601f820116820180604052508101906142ef91906158d9565b600c830154909150600160801b90046001600160801b03165b60038301546001600160801b03600160801b90910481169082161161435157614332838284614cad565b600483015461434a906001600160801b031682615843565b9050614308565b50600e9190910180546001600160801b0319166001600160801b03909216919091179055565b6001600160801b038083166000908152601085016020526040812060038101549192909116156145ba57826143f357600e85018054600191906010906143ce908490600160801b90046001600160801b0316615843565b92506101000a8154816001600160801b0302191690836001600160801b031602179055505b6004810154600e86015461441b916001600160801b0391821691600160801b90910416614f1a565b600e86018054600160801b908190046001600160801b0390811660009081526020869052604080822080546001600160801b0319169684169690961790955592549190910481168252918120546003840154919261447c92811691166141e9565b600e870154600384015491925061449f916001600160801b0390811691166141e9565b600c870180546000906144bc9084906001600160801b0316615843565b92506101000a8154816001600160801b0302191690836001600160801b03160217905550808260010160108282829054906101000a90046001600160801b03166145069190615843565b82546101009290920a6001600160801b038181021990931691831602179091556001840154600285018054600160801b90920483166001600160801b031992831617905560038501805490911690558754604080516001600160a01b039092168252888316602083015291841691810191909152851560608201527fd56b2e5a640a6b5979db99e9a69997e0e14f83b4edabdfce985a1f7be59647c7915060800160405180910390a160019250505061408b565b506000949350505050565b6001600160801b0380831660009081526010850160205260408120600481015491928392839283929091600160801b90041682036146115785600080600094509450945094505061477b565b60048101546005820154600e8a01546001600160801b03600160801b9384900481169850928204831696506000929182169116111561465e5750600e8801546001600160801b031661466e565b5060058101546001600160801b03165b6146788188615885565b92506146848989614f32565b600d8a01549094506000906146a990600160801b90046001600160801b0316896141e9565b9050806001600160801b0316856001600160801b031611156146c9578094505b600a8a0154630100000090046001600160801b0316600003614746576146ef8488615843565b60028401549097506001600160801b031615614741576002830154614734906001600160801b0390811690614725908816615005565b6001600160801b031690614784565b61473e9088615843565b96505b614777565b60028301548590614760906001600160801b0316866141e9565b61476a9190615843565b6147749087615843565b95505b5050505b93509350935093565b600061408b6001600160801b03848116908416615019565b600061408b614213836001600160801b03166147c0866001600160801b0316614ba0565b906150b1565b6000670de0b6b3a76400006147dc83600a615d3f565b6140c4906001600160801b038616615d4b565b6147f761513b565b6097805460ff191690557f5db9ee0a495bf2e6ff9c91a7834c1ba4fdd244a5e8aa4e537bd38aeae4b073aa335b6040516148319190615492565b60405180910390a1565b614843614154565b6097805460ff191660011790557f62e78cea01bee320cd4e420270b5ea74000d11b0c9f74754ebdbfc544b05a2586148243390565b600054610100900460ff1661489f5760405162461bcd60e51b815260040161146490615d7e565b6148a7615184565b61419a6151ab565b600082815260656020526040808220600101805490849055905190918391839186917fbd79b86ffe0ab8e8776151514217cd7cacd52c909f66475c3af44e129f0b00ff9190a4505050565b6002820154604080516325b0985360e21b815290516000926001600160a01b0316916396c2614c9160048083019260209291908290030181865afa158015614946573d6000803e3d6000fd5b505050506040513d601f19601f8201168201806040525081019061496a91906158d9565b9050614977838383614cad565b6001600160801b039182166000908152601090930160205260409092206005018054919092166001600160801b0319909116179055565b6149be60c0820160a083016157da565b6149ce60808301606084016157da565b6149de60a08401608085016157da565b6149e89190615885565b6149f29190615908565b6001600160801b031615614a19576040516334cc2fed60e01b815260040160405180910390fd5b33614a3757604051635342e0a760e11b815260040160405180910390fd5b33600090815260ca60205260409020546001600160a01b031615614a6e57604051631953bac160e11b815260040160405180910390fd5b670de0b6b3a7640000614a896101a0830161018084016157da565b6001600160801b0316111561258c57604051633dedb6cb60e21b815260040160405180910390fd5b6000821580614abe575081155b15614acb57506000610a90565b81614adf6002670de0b6b3a7640000615d6a565b614aeb90600019615dc9565b614af59190615d6a565b831115614b145760405162a748d160e21b815260040160405180910390fd5b670de0b6b3a7640000614b28600282615d6a565b614b328486615d4b565b6140c49190615a07565b614b4682826122ca565b61147757614b5e816001600160a01b031660146151de565b614b698360206151de565b604051602001614b7a929190615e0c565b60408051601f198184030181529082905262461bcd60e51b825261146491600401615e7b565b600080614bb1633b9aca0084615d4b565b905082614bc2633b9aca0083615d6a565b14610a905760405162a748d160e21b815260040160405180910390fd5b6000821580614bec575081155b15614bf957506000610a90565b81614c106002676765c793fa10079d601b1b615d6a565b614c1c90600019615dc9565b614c269190615d6a565b831115614c455760405162a748d160e21b815260040160405180910390fd5b676765c793fa10079d601b1b614b28600282615d6a565b600080614c6e6002633b9aca00615d6a565b90506000614c7c8483615a07565b905081811015614c9f576040516307af724160e11b815260040160405180910390fd5b61375f633b9aca0082615d6a565b6001600160801b0380831660009081526010850160205260409020600481015490914291161015614f14576000808080614ce88888886145c5565b92965090945092509050614d056001600160801b0383168761479c565b600d89018054601090614d29908490600160801b90046001600160801b0316615885565b82546101009290920a6001600160801b038181021990931691831602179091556002870154614d5a925016826141e9565b614d649083615843565b600c89018054600090614d819084906001600160801b0316615843565b92506101000a8154816001600160801b0302191690836001600160801b0316021790555060008560050160109054906101000a90046001600160801b031684614dca9190615885565b6004870154909150600160801b90046001600160801b0316600003614e57576005860180546001600160801b0319166001600160801b038981169182179092558a54604080516001600160a01b039092168252928b166020820152918201527f6f0af1abcf1ba2094b30510b922c357e153645953c99cedcd9c731cf49c0e4919060600160405180910390a15b6005860180546001600160801b03908116600160801b8783168102919091179092556001600160801b03198782168302164282161760048901558a54600d8c01547f22f7e29f1509fbd47f3e61026d7920c0dd79fd86b88861a8e5f0f7d130a584e3936001600160a01b03909216928c92614ed49204168b6141e9565b604080516001600160a01b0390941684526001600160801b039283166020850152908216908301528316606082015260800160405180910390a150505050505b50505050565b600061408b6001600160801b038481169084166150b1565b6001600160801b0380821660009081526010840160205260408120600c850154919290911615614ffe57600c8401546004820154600283015461375f926001600160801b039081169261472592614f949290811691600160801b9004166141e9565b6004880154600b890154610bcd916001600160801b03600160801b9182900481169261472592614fc79291041683615885565b6004890154614fdf906001600160801b031642615885565b60058d0154610bcd9190600160801b90046001600160801b0316615a1f565b5092915050565b6000610a90826001600160801b0316614ba0565b60008160000361503c576040516308693c7b60e31b815260040160405180910390fd5b6000615049600284615d6a565b9050670de0b6b3a764000061506082600019615dc9565b61506a9190615d6a565b8411156150895760405162a748d160e21b815260040160405180910390fd5b828161509d670de0b6b3a764000087615d4b565b6150a79190615a07565b61375f9190615d6a565b6000816000036150d4576040516308693c7b60e31b815260040160405180910390fd5b60006150e1600284615d6a565b9050676765c793fa10079d601b1b6150fb82600019615dc9565b6151059190615d6a565b8411156151245760405162a748d160e21b815260040160405180910390fd5b828161509d676765c793fa10079d601b1b87615d4b565b60975460ff1661419a5760405162461bcd60e51b815260206004820152601460248201527314185d5cd8589b194e881b9bdd081c185d5cd95960621b6044820152606401611464565b600054610100900460ff1661419a5760405162461bcd60e51b815260040161146490615d7e565b600054610100900460ff166151d25760405162461bcd60e51b815260040161146490615d7e565b6097805460ff19169055565b606060006151ed836002615d4b565b6151f8906002615a07565b67ffffffffffffffff81111561521057615210615eae565b6040519080825280601f01601f19166020018201604052801561523a576020820181803683370190505b509050600360fc1b8160008151811061525557615255615ec4565b60200101906001600160f81b031916908160001a905350600f60fb1b8160018151811061528457615284615ec4565b60200101906001600160f81b031916908160001a90535060006152a8846002615d4b565b6152b3906001615a07565b90505b600181111561532b576f181899199a1a9b1b9c1cb0b131b232b360811b85600f16601081106152e7576152e7615ec4565b1a60f81b8282815181106152fd576152fd615ec4565b60200101906001600160f81b031916908160001a90535060049490941c9361532481615eda565b90506152b6565b50831561408b5760405162461bcd60e51b815260206004820181905260248201527f537472696e67733a20686578206c656e67746820696e73756666696369656e746044820152606401611464565b60006020828403121561538c57600080fd5b81356001600160e01b03198116811461408b57600080fd5b6001600160a01b038116811461258c57600080fd5b80356153c4816153a4565b919050565b803580151581146153c457600080fd5b600080604083850312156153ec57600080fd5b82356153f7816153a4565b9150615405602084016153c9565b90509250929050565b6001600160801b038116811461258c57600080fd5b80356153c48161540e565b60008060006060848603121561544357600080fd5b833561544e816153a4565b9250602084013561545e8161540e565b9150604084013561546e816153a4565b809150509250925092565b60006020828403121561548b57600080fd5b5035919050565b6001600160a01b0391909116815260200190565b6000602082840312156154b857600080fd5b813561408b816153a4565b600080604083850312156154d657600080fd5b8235915060208301356154e8816153a4565b809150509250929050565b600080600080600060a0868803121561550b57600080fd5b85356155168161540e565b94506020860135615526816153a4565b93506040860135615536816153a4565b92506060860135615546816153a4565b915060808601356155568161540e565b809150509295509295909350565b6001600160801b0392831681529116602082015260400190565b600080600080600060a0868803121561559657600080fd5b85356155a18161540e565b945060208601356155b1816153a4565b935060408601356155c18161540e565b925060608601356155468161540e565b6020808252825182820181905260009190848201906040850190845b818110156156125783516001600160a01b0316835292840192918401916001016155ed565b50909695505050505050565b6000806040838503121561563157600080fd5b823561563c816153a4565b915060208301356154e88161540e565b6000806000806080858703121561566257600080fd5b843561566d816153a4565b9350602085013561567d8161540e565b9250604085013561568d8161540e565b9150606085013561569d8161540e565b939692955090935050565b600080604083850312156156bb57600080fd5b82356156c68161540e565b915060208301356154e8816153a4565b6001600160801b03948516815292841660208401529083166040830152909116606082015260800190565b6000806040838503121561571457600080fd5b82356156c6816153a4565b600080600080600060a0868803121561573757600080fd5b8535615742816153a4565b945060208601356157528161540e565b935060408601356157628161540e565b925060608601356157728161540e565b91506080860135615556816153a4565b6000806000806080858703121561579857600080fd5b84356157a3816153a4565b935060208501356157b38161540e565b925060408501356157c3816153a4565b91506060850135600b81900b811461569d57600080fd5b6000602082840312156157ec57600080fd5b813561408b8161540e565b6000610200828403121561580a57600080fd5b50919050565b60006020828403121561582257600080fd5b815161408b8161540e565b634e487b7160e01b600052601160045260246000fd5b60006001600160801b038281168482168083038211156158655761586561582d565b01949350505050565b9182526001600160801b0316602082015260400190565b60006001600160801b03838116908316818110156158a5576158a561582d565b039392505050565b6001600160a01b0393841681526001600160801b03929092166020830152909116604082015260600190565b6000602082840312156158eb57600080fd5b5051919050565b634e487b7160e01b600052601260045260246000fd5b60006001600160801b0383811680615922576159226158f2565b92169190910692915050565b9283526001600160801b03918216602084015216604082015260600190565b6000806040838503121561596057600080fd5b825161596b8161540e565b60208401519092506154e88161540e565b9283526001600160a01b039190911660208301526001600160801b0316604082015260600190565b9384526001600160801b039283166020850152908216604084015216606082015260800190565b6001600160a01b0392831681529116602082015260400190565b6001600160801b039290921682526001600160a01b0316602082015260400190565b60008219821115615a1a57615a1a61582d565b500190565b60006001600160801b0382811684821681151582840482111615615a4557615a4561582d565b02949350505050565b6001600160a01b039290921682526001600160801b0316602082015260400190565b600060208284031215615a8257600080fd5b815160ff8116811461408b57600080fd5b600060208284031215615aa557600080fd5b61408b826153c9565b6102008101615acd82615ac0856153b9565b6001600160a01b03169052565b615ad9602084016153b9565b6001600160a01b03166020830152615af3604084016153b9565b6001600160a01b03166040830152615b0d60608401615423565b6001600160801b03166060830152615b2760808401615423565b6001600160801b03166080830152615b4160a08401615423565b6001600160801b031660a0830152615b5b60c08401615423565b6001600160801b031660c0830152615b7560e08401615423565b6001600160801b031660e0830152610100615b91848201615423565b6001600160801b031690830152610120615bac848201615423565b6001600160801b031690830152610140615bc7848201615423565b6001600160801b031690830152610160615be2848201615423565b6001600160801b031690830152610180615bfd848201615423565b6001600160801b0316908301526101a0615c18848201615423565b6001600160801b0316908301526101c0615c33848201615423565b6001600160801b0316908301526101e0615c4e8482016153c9565b1515920191909152919050565b600181815b80851115615c96578160001904821115615c7c57615c7c61582d565b80851615615c8957918102915b93841c9390800290615c60565b509250929050565b600082615cad57506001610a90565b81615cba57506000610a90565b8160018114615cd05760028114615cda57615cf6565b6001915050610a90565b60ff841115615ceb57615ceb61582d565b50506001821b610a90565b5060208310610133831016604e8410600b8410161715615d19575081810a610a90565b615d238383615c5b565b8060001904821115615d3757615d3761582d565b029392505050565b600061408b8383615c9e565b6000816000190483118215151615615d6557615d6561582d565b500290565b600082615d7957615d796158f2565b500490565b6020808252602b908201527f496e697469616c697a61626c653a20636f6e7472616374206973206e6f74206960408201526a6e697469616c697a696e6760a81b606082015260800190565b600082821015615ddb57615ddb61582d565b500390565b60005b83811015615dfb578181015183820152602001615de3565b83811115614f145750506000910152565b76020b1b1b2b9b9a1b7b73a3937b61d1030b1b1b7bab73a1604d1b815260008351615e3e816017850160208801615de0565b7001034b99036b4b9b9b4b733903937b6329607d1b6017918401918201528351615e6f816028840160208801615de0565b01602801949350505050565b6020815260008251806020840152615e9a816040850160208701615de0565b601f01601f19169190910160400192915050565b634e487b7160e01b600052604160045260246000fd5b634e487b7160e01b600052603260045260246000fd5b600081615ee957615ee961582d565b50600019019056fe71840dc4906352362b0cdaf79870196c8e42acafade72d5d5a6d59291253ceb12344277e405079ec07749d374ba0b5862a4e45a6a05ac889dbb4a991c6f9354d27160668f6d81898b09bdae61c61d2c7d23fe33a52ae9b38e5b92f00ced3806ba2646970667358221220273ce874c12116920dd4e880cdc45ae74a0cd1c722c536cd46cafffdfa1cc1e264736f6c634300080d0033",
  "libraries": {
    "PoolLogic": "0x19fFe0Ba818F4cd6fFE4AefF62ef306B795758e2"
  },
  "devdoc": {
    "errors": {
      "InvalidToken()": [
        {
          "details": "Thrown when the token being streamed to this contract is invalid"
        }
      ]
    },
    "kind": "dev",
    "methods": {
      "allow(address,address)": {
        "params": {
          "borrowerAddress": "The address to allow",
          "ownerAddress": "The identifier of the pool*"
        }
      },
      "borrow(address,uint128,address,int96)": {
        "params": {
          "loanAmount": "The total amount of the loan*",
          "to": "The address to which the borrowed funds should be sent."
        }
      },
      "claimProtocolFees(address,uint128,address)": {
        "params": {
          "amount": "The amount of tokens claimed",
          "ownerAddress": "The identifier of the pool",
          "to": "The address receiving the fees*"
        }
      },
      "collectFees(address)": {
        "params": {
          "ownerAddress": "The identifier of the pool*"
        }
      },
      "collectFeesForTick(address,uint128)": {
        "params": {
          "ownerAddress": "The identifier of the pool*"
        }
      },
      "createNewPool((address,address,address,uint128,uint128,uint128,uint128,uint128,uint128,uint128,uint128,uint128,uint128,uint128,uint128,bool))": {
        "params": {
          "params": "The parameters of the new pool*"
        }
      },
      "deposit(uint128,address,address,address,uint128)": {
        "params": {
          "normalizedAmount": "The amount of the given asset to deposit",
          "ownerAddress": "The identifier of the pool",
          "rate": "The rate at which to bid for a bond",
          "sender": "The lender address who calls the deposit function on the Position",
          "underlyingToken": "Contract' address of the token to be deposited"
        },
        "returns": {
          "adjustedAmount": "Deposited amount adjusted with current liquidity index",
          "bondsIssuanceIndex": "The identifier of the borrow group to which the deposit has been allocated*"
        }
      },
      "disallow(address,address)": {
        "params": {
          "borrowerAddress": "The address to disallow",
          "ownerAddress": "The identifier of the pool*"
        }
      },
      "estimateLoanRate(uint128,address)": {
        "params": {
          "normalizedBorrowedAmount": "The amount to be borrowed from the pool",
          "ownerAddress": "The identifier of the pool"
        },
        "returns": {
          "estimatedRate": "The estimated loan rate for the current state of the pool*"
        }
      },
      "getAmountRepartition(address,uint128,uint128,uint128)": {
        "params": {
          "adjustedAmount": "Adjusted amount of tokens currently on third party yield provider",
          "bondsIssuanceIndex": "The identifier of the borrow group",
          "ownerAddress": "The identifier of the pool",
          "rate": "Tick's rate"
        },
        "returns": {
          "bondsQuantity": "Quantity of bonds held",
          "normalizedDepositedAmount": "Amount of deposit currently on third party yield provider*"
        }
      },
      "getDefaultTimestamp(address)": {
        "returns": {
          "defaultTimestamp": "The timestamp at which the pool was defaulted*"
        }
      },
      "getPoolAggregates(address)": {
        "params": {
          "ownerAddress": "The identifier of the pool"
        },
        "returns": {
          "adjustedPendingDeposits": "Amount of tokens deposited after bond issuance and currently on third party yield provider*",
          "weightedAverageLendingRate": "The average deposit bidding rate in the order book"
        }
      },
      "getPoolFeeRates(address)": {
        "returns": {
          "establishmentFeeRate": "Amount of fees paid to the protocol at borrow time",
          "repaymentFeeRate": "Amount of fees paid to the protocol at repay time*"
        }
      },
      "getPoolMaturity(address)": {
        "params": {
          "ownerAddress": "The identifier of the pool"
        },
        "returns": {
          "poolCurrentMaturity": "The pool's current maturity*"
        }
      },
      "getPoolParameters(address)": {
        "params": {
          "ownerAddress": "The identifier of the pool"
        },
        "returns": {
          "cooldownPeriod": "Period after a loan during which a borrower cannot take another loan",
          "lateRepayFeePerBondRate": "Penalty a borrower has to pay when it repays late",
          "liquidityRewardsActivationThreshold": "Minimum amount of liqudity rewards a borrower has to deposit to active the pool*",
          "liquidityRewardsDistributionRate": "Rate at which liquidity rewards are distributed to lenders",
          "loanDuration": "Duration of a loan in the pool",
          "maxBorrowableAmount": "Maximum amount of tokens that can be borrowed from the pool",
          "maxRate": "Maximum rate of deposits accepted in the pool",
          "minRate": "Minimum rate of deposits accepted in the pool",
          "rateSpacing": "Difference between two rates in the pool",
          "repaymentPeriod": "Period after a loan end during which a borrower can repay without penalty",
          "underlyingToken": "Address of the underlying token of the pool"
        }
      },
      "getPoolState(address)": {
        "params": {
          "ownerAddress": "The identifier of the pool"
        },
        "returns": {
          "active": "Signals if a pool is active and ready to accept deposits",
          "bondsIssuedQuantity": "Amount of bonds issued, to be repaid at maturity",
          "closed": "Signals if a pool was closed",
          "currentBondsIssuanceIndex": "Current borrow period identifier of the pool*",
          "currentMaturity": "End timestamp of current loan",
          "defaulted": "Signals if a pool was defaulted",
          "lowerInterestRate": "Minimum rate at which a deposit was made",
          "nextLoanMinStart": "Cool down period, minimum timestamp after which a new loan can be taken",
          "normalizedAvailableDeposits": "Actual amount of tokens available to be borrowed",
          "normalizedBorrowedAmount": "Actual amount of tokens that were borrowed",
          "remainingAdjustedLiquidityRewardsReserve": "Remaining liquidity rewards to be distributed to lenders",
          "yieldProviderLiquidityRatio": "Last recorded yield provider liquidity ratio"
        }
      },
      "getPoolsAddresses()": {
        "returns": {
          "_0": "pools array with pools created*"
        }
      },
      "getRepayAmounts(address,bool)": {
        "params": {
          "ownerAddress": "The identifier of the pool"
        },
        "returns": {
          "normalizedRepayAmount": "Total repay amount*"
        }
      },
      "getRoleAdmin(bytes32)": {
        "details": "Returns the admin role that controls `role`. See {grantRole} and {revokeRole}. To change a role's admin, use {_setRoleAdmin}."
      },
      "getTickAmounts(address,uint128)": {
        "params": {
          "ownerAddress": "The identifier of the pool",
          "rate": "The tick rate from which to get data"
        },
        "returns": {
          "accruedFees": "The total fees claimable in the current tick, either from yield provider interests or liquidity rewards accrual*",
          "adjustedPendingAmount": "Amount of deposit in tick deposited with the underlying yield provider that were deposited after bond issuance",
          "adjustedRemainingAmount": "Amount of tokens in tick deposited with the underlying yield provider that were deposited before bond issuance",
          "adjustedTotalAmount": "Total amount of deposit in the tick, excluding the pending amounts",
          "atlendisLiquidityRatio": "The liquidity ratio of the given tick",
          "bondsQuantity": "The quantity of bonds within the tick"
        }
      },
      "getTickLastUpdate(address,uint128)": {
        "params": {
          "ownerAddress": "The identifier of the pool pool",
          "rate": "The tick rate from which to get data"
        },
        "returns": {
          "lastFeeDistributionTimestamp": "Timestamp of the last fee's distribution to the tick*"
        }
      },
      "getTickLiquidityRatio(address,uint128)": {
        "params": {
          "ownerAddress": "The identifier of the pool",
          "rate": "The tick rate from which to extract the liquidity ratio"
        },
        "returns": {
          "liquidityRatio": "The liquidity ratio of the given tick*"
        }
      },
      "getWithdrawAmounts(address,uint128,uint128,uint128)": {
        "details": "This method is meant to be used exclusively with the withdraw() method Under certain circumstances, this method can return incorrect values, that would otherwise be rejected by the checks made in the withdraw() method",
        "params": {
          "adjustedAmount": "The amount of tokens in the position, adjusted to the deposit liquidity ratio",
          "bondsIssuanceIndex": "An index determining deposit timing",
          "ownerAddress": "The identifier of the pool",
          "rate": "The rate the position is bidding for"
        },
        "returns": {
          "adjustedAmountToWithdraw": "The amount of tokens to withdraw, adjuste for borrow pool use",
          "bondsMaturity": "The maturity of bonds remaining within the position after withdraw*",
          "depositedAmountToWithdraw": "The amount of tokens to withdraw, adjuste for position use",
          "remainingBondsQuantity": "The quantity of bonds remaining within the position"
        }
      },
      "grantRole(bytes32,address)": {
        "details": "Grants `role` to `account`. If `account` had not been already granted `role`, emits a {RoleGranted} event. Requirements: - the caller must have ``role``'s admin role. May emit a {RoleGranted} event."
      },
      "hasRole(bytes32,address)": {
        "details": "Returns `true` if `account` has been granted `role`."
      },
      "isEarlyRepay(address)": {
        "returns": {
          "earlyRepay": "Flag that signifies whether the early repay feature is activated or not*"
        }
      },
      "paused()": {
        "details": "Returns true if the contract is paused, and false otherwise."
      },
      "renounceRole(bytes32,address)": {
        "details": "Revokes `role` from the calling account. Roles are often managed via {grantRole} and {revokeRole}: this function's purpose is to provide a mechanism for accounts to lose their privileges if they are compromised (such as when a trusted device is misplaced). If the calling account had been revoked `role`, emits a {RoleRevoked} event. Requirements: - the caller must be `account`. May emit a {RoleRevoked} event."
      },
      "revokeRole(bytes32,address)": {
        "details": "Revokes `role` from `account`. If `account` had been granted `role`, emits a {RoleRevoked} event. Requirements: - the caller must have ``role``'s admin role. May emit a {RoleRevoked} event."
      },
      "setDefault(address)": {
        "params": {
          "ownerAddress": "The identifier of the pool to default*"
        }
      },
      "supportsInterface(bytes4)": {
        "details": "See {IERC165-supportsInterface}."
      },
      "topUpLiquidityRewards(uint128)": {
        "params": {
          "amount": "Amount of tokens that will be add up to the pool's liquidity rewards reserve*"
        }
      },
      "updateRate(uint128,address,uint128,uint128,uint128)": {
        "params": {
          "adjustedAmount": "The adjusted balance of tokens of the given position",
          "newRate": "The new rate of the position",
          "oldBondsIssuanceIndex": "The identifier of the borrow group from the given position",
          "oldRate": "The current rate of the position",
          "ownerAddress": "The identifier of the pool"
        },
        "returns": {
          "newAdjustedAmount": "The updated amount of tokens of the position adjusted by the new tick's global liquidity ratio",
          "newBondsIssuanceIndex": "The new borrow group id to which the updated position is linked*"
        }
      },
      "withdraw(address,uint128,uint128,uint128,address)": {
        "params": {
          "adjustedAmountToWithdraw": "The actual amount of tokens to withdraw from the position",
          "bondsIssuanceIndex": "An index determining deposit timing",
          "owner": "The address to which the withdrawns funds are sent",
          "ownerAddress": "The identifier of the pool",
          "rate": "The rate the position is bidding for"
        },
        "returns": {
          "normalizedDepositedAmountToWithdraw": "Actual amount of tokens withdrawn and sent to the lender*"
        }
      }
    },
    "version": 1
  },
  "userdoc": {
    "events": {
      "Borrow(address,uint128,uint128)": {
        "notice": "Emitted after a successful borrow"
      },
      "BorrowerAllowed(address,address)": {
        "notice": "Emitted after a borrower address was allowed to borrow from a pool"
      },
      "BorrowerDisallowed(address,address)": {
        "notice": "Emitted after a borrower address was disallowed to borrow from a pool"
      },
      "ClaimProtocolFees(address,uint128,address)": {
        "notice": "Emitted after governance claims the fees associated with a pool"
      },
      "CollectFeesForTick(address,uint128,uint128,uint128)": {
        "notice": "Emitted when liquidity rewards are distributed to a tick"
      },
      "Default(address,uint128)": {
        "notice": "Emitted when a pool defaults on its loan repayment"
      },
      "EarlyRepay(address,uint128,uint128,uint128,uint128)": {
        "notice": "Emitted after a successful early repay"
      },
      "FurtherBorrow(address,uint128,uint128)": {
        "notice": "Emitted after a successful further borrow"
      },
      "LateRepay(address,uint128,uint128,uint128,uint128,uint128)": {
        "notice": "Emitted after a successful repay, made after the repayment period Includes a late repay fee"
      },
      "PoolActivated(address)": {
        "notice": "Emitted when a pool is active, i.e. after the borrower deposits enough tokens in its pool liquidity rewards reserve as agreed before the pool creation"
      },
      "PoolClosed(address,uint128)": {
        "notice": "Emitted after pool is closed"
      },
      "PoolCreated((address,address,address,uint128,uint128,uint128,uint128,uint128,uint128,uint128,uint128,uint128,uint128,uint128,uint128,bool))": {
        "notice": "Emitted after a pool was creted*"
      },
      "Repay(address,uint128,uint128,uint128,uint128)": {
        "notice": "Emitted after a successful repay"
      },
      "SetEstablishmentFeeRate(uint128,address)": {
        "notice": "Emitted after governance sets the establishment fee for a pool*"
      },
      "SetLiquidityRewardsDistributionRate(uint128,address)": {
        "notice": "Emitted after governance sets the liquidity rewards distribution rate for a pool*"
      },
      "SetMaxBorrowableAmount(uint128,address)": {
        "notice": "Emitted after governance sets the maximum borrowable amount for a pool*"
      },
      "SetRepaymentFeeRate(uint128,address)": {
        "notice": "Emitted after governance sets the repayment fee for a pool*"
      },
      "SetTokenToSuperToken(address,address)": {
        "notice": "Emitted after governance sets the super token address for a regular token."
      },
      "TickBorrow(address,uint128,uint128,uint128,uint128,uint128)": {
        "notice": "Emitted when a borrow successfully impacts a tick"
      },
      "TickInitialized(address,uint128,uint128)": {
        "notice": "Emitted when a tick is initialized, i.e. when its first deposited in"
      },
      "TickLoanDeposit(address,uint128,uint128)": {
        "notice": "Emitted after a deposit on a tick that was done during a loan"
      },
      "TickNoLoanDeposit(address,uint128,uint128,uint128)": {
        "notice": "Emitted after a deposit on a tick that was done without an active loan"
      },
      "TickPendingDeposit(address,uint128,uint128,bool)": {
        "notice": "Emitted when pending amounts are merged with the rest of the pool during a repay"
      },
      "TickRepay(address,uint128,uint128,uint128)": {
        "notice": "Emitted when funds from a tick are repaid by the borrower"
      },
      "TickWithdrawPending(address,uint128,uint128)": {
        "notice": "Emitted when a withdraw is done outside of a loan on the tick"
      },
      "TickWithdrawRemaining(address,uint128,uint128,uint128,uint128)": {
        "notice": "Emitted when a withdraw is done during a loan on the tick"
      },
      "TopUpLiquidityRewards(address,uint128)": {
        "notice": "Emitted after a borrower successfully deposits tokens in its pool liquidity rewards reserve"
      }
    },
    "kind": "user",
    "methods": {
      "allow(address,address)": {
        "notice": "Allow an address to interact with a borrower pool"
      },
      "borrow(address,uint128,address,int96)": {
        "notice": "Called after a superfluid stream of money is created to sell bonds to the order book. The affected ticks get updated according the amount of bonds sold."
      },
      "claimProtocolFees(address,uint128,address)": {
        "notice": "Withdraws protocol fees to a target address"
      },
      "collectFees(address)": {
        "notice": "Collect yield provider fees as well as liquidity rewards for the whole pool Iterates over all pool initialized ticks"
      },
      "collectFeesForTick(address,uint128)": {
        "notice": "Collect yield provider fees as well as liquidity rewards for the target tick"
      },
      "createNewPool((address,address,address,uint128,uint128,uint128,uint128,uint128,uint128,uint128,uint128,uint128,uint128,uint128,uint128,bool))": {
        "notice": "Creates a new pool"
      },
      "deposit(uint128,address,address,address,uint128)": {
        "notice": "Gets called within the Position.deposit() function and enables a lender to deposit assets into a given pool's order book. The lender specifies a rate (price) at which it is willing to lend out its assets (bid on the zero coupon bond). The full amount will initially be deposited on the underlying yield provider until the borrower sells bonds at the specified rate."
      },
      "disallow(address,address)": {
        "notice": "Remove borrower pool interaction rights from an address"
      },
      "estimateLoanRate(uint128,address)": {
        "notice": "Estimates the lending rate corresponding to the input amount, depending on the current state of the pool"
      },
      "freezePool()": {
        "notice": "Stops all actions on all pools*"
      },
      "getAmountRepartition(address,uint128,uint128,uint128)": {
        "notice": "Returns the token amount's repartition between bond quantity and normalized deposited amount currently placed on third party yield provider"
      },
      "getDefaultTimestamp(address)": {
        "notice": "Returns the state of a pool"
      },
      "getPoolAggregates(address)": {
        "notice": "Returns the current state of the pool's parameters"
      },
      "getPoolFeeRates(address)": {
        "notice": "Returns the fee rates of a pool"
      },
      "getPoolMaturity(address)": {
        "notice": "Returns the current maturity of the pool"
      },
      "getPoolParameters(address)": {
        "notice": "Returns the parameters of a pool"
      },
      "getPoolState(address)": {
        "notice": "Returns the state of a pool"
      },
      "getPoolsAddresses()": {
        "notice": "Returns all the pools created"
      },
      "getRepayAmounts(address,bool)": {
        "notice": "Returns the total amount a borrower has to repay to a pool. Includes borrowed amount, late repay fees and protocol fees"
      },
      "getTickAmounts(address,uint128)": {
        "notice": "Returns the repartition between bonds and deposits of the given tick."
      },
      "getTickLastUpdate(address,uint128)": {
        "notice": "Returns the timestamp of the last fee distribution to the tick"
      },
      "getTickLiquidityRatio(address,uint128)": {
        "notice": "Returns the liquidity ratio of a given tick in a pool's order book. The liquidity ratio is an accounting construct to deduce the accrued interest over time."
      },
      "getWithdrawAmounts(address,uint128,uint128,uint128)": {
        "notice": "Gets called within the Position.withdraw() function and enables a lender to evaluate the exact amount of tokens it is allowed to withdraw"
      },
      "isEarlyRepay(address)": {
        "notice": "Returns the state of a pool"
      },
      "repay()": {
        "notice": "Repays a currently outstanding bonds of the given pool.*"
      },
      "setDefault(address)": {
        "notice": "Flags the pool as defaulted"
      },
      "setEstablishmentFeeRate(uint128,address)": {
        "notice": "Set the pool establishment protocol fee rate*"
      },
      "setLiquidityRewardsDistributionRate(uint128,address)": {
        "notice": "Set the pool liquidity rewards distribution rate*"
      },
      "setMaxBorrowableAmount(uint128,address)": {
        "notice": "Set the maximum amount of tokens that can be borrowed in the target pool*"
      },
      "setRepaymentFeeRate(uint128,address)": {
        "notice": "Set the pool repayment protocol fee rate*"
      },
      "setTokenToSuperToken(address,address)": {
        "notice": "Set the corresponding superToken address for the regular token address*"
      },
      "topUpLiquidityRewards(uint128)": {
        "notice": "Called by the borrower to top up liquidity rewards' reserve that is distributed to liquidity providers at the pre-defined distribution rate."
      },
      "unfreezePool()": {
        "notice": "Cancel a freeze, makes actions available again on all pools*"
      },
      "updateRate(uint128,address,uint128,uint128,uint128)": {
        "notice": "Gets called within Position.updateRate() and updates the order book ticks affected by the position updating its rate. This is only possible as long as there are no bonds in the position, i.e the full position currently lies with the yield provider"
      },
      "withdraw(address,uint128,uint128,uint128,address)": {
        "notice": "Gets called within the Position.withdraw() function and enables a lender to withdraw assets that are deposited with the underlying yield provider"
      }
    },
    "version": 1
  },
  "storageLayout": {
    "storage": [
      {
        "astId": 419,
        "contract": "src/BorrowerPools.sol:BorrowerPools",
        "label": "_initialized",
        "offset": 0,
        "slot": "0",
        "type": "t_uint8"
      },
      {
        "astId": 422,
        "contract": "src/BorrowerPools.sol:BorrowerPools",
        "label": "_initializing",
        "offset": 1,
        "slot": "0",
        "type": "t_bool"
      },
      {
        "astId": 1369,
        "contract": "src/BorrowerPools.sol:BorrowerPools",
        "label": "__gap",
        "offset": 0,
        "slot": "1",
        "type": "t_array(t_uint256)50_storage"
      },
      {
        "astId": 1639,
        "contract": "src/BorrowerPools.sol:BorrowerPools",
        "label": "__gap",
        "offset": 0,
        "slot": "51",
        "type": "t_array(t_uint256)50_storage"
      },
      {
        "astId": 39,
        "contract": "src/BorrowerPools.sol:BorrowerPools",
        "label": "_roles",
        "offset": 0,
        "slot": "101",
        "type": "t_mapping(t_bytes32,t_struct(RoleData)34_storage)"
      },
      {
        "astId": 338,
        "contract": "src/BorrowerPools.sol:BorrowerPools",
        "label": "__gap",
        "offset": 0,
        "slot": "102",
        "type": "t_array(t_uint256)49_storage"
      },
      {
        "astId": 584,
        "contract": "src/BorrowerPools.sol:BorrowerPools",
        "label": "_paused",
        "offset": 0,
        "slot": "151",
        "type": "t_bool"
      },
      {
        "astId": 689,
        "contract": "src/BorrowerPools.sol:BorrowerPools",
        "label": "__gap",
        "offset": 0,
        "slot": "152",
        "type": "t_array(t_uint256)49_storage"
      },
      {
        "astId": 17807,
        "contract": "src/BorrowerPools.sol:BorrowerPools",
        "label": "borrowerAuthorizedPools",
        "offset": 0,
        "slot": "201",
        "type": "t_mapping(t_address,t_address)"
      },
      {
        "astId": 17812,
        "contract": "src/BorrowerPools.sol:BorrowerPools",
        "label": "pools",
        "offset": 0,
        "slot": "202",
        "type": "t_mapping(t_address,t_struct(Pool)25128_storage)"
      },
      {
        "astId": 17815,
        "contract": "src/BorrowerPools.sol:BorrowerPools",
        "label": "poolsAddresses",
        "offset": 0,
        "slot": "203",
        "type": "t_array(t_address)dyn_storage"
      },
      {
        "astId": 17819,
        "contract": "src/BorrowerPools.sol:BorrowerPools",
        "label": "protocolFees",
        "offset": 0,
        "slot": "204",
        "type": "t_mapping(t_address,t_uint128)"
      },
      {
        "astId": 17823,
        "contract": "src/BorrowerPools.sol:BorrowerPools",
        "label": "tokenToSuperToken",
        "offset": 0,
        "slot": "205",
        "type": "t_mapping(t_address,t_address)"
      }
    ],
    "types": {
      "t_address": {
        "encoding": "inplace",
        "label": "address",
        "numberOfBytes": "20"
      },
      "t_array(t_address)dyn_storage": {
        "base": "t_address",
        "encoding": "dynamic_array",
        "label": "address[]",
        "numberOfBytes": "32"
      },
      "t_array(t_uint256)49_storage": {
        "base": "t_uint256",
        "encoding": "inplace",
        "label": "uint256[49]",
        "numberOfBytes": "1568"
      },
      "t_array(t_uint256)50_storage": {
        "base": "t_uint256",
        "encoding": "inplace",
        "label": "uint256[50]",
        "numberOfBytes": "1600"
      },
      "t_bool": {
        "encoding": "inplace",
        "label": "bool",
        "numberOfBytes": "1"
      },
      "t_bytes32": {
        "encoding": "inplace",
        "label": "bytes32",
        "numberOfBytes": "32"
      },
      "t_contract(YearnFinanceWrapper)21480": {
        "encoding": "inplace",
        "label": "contract YearnFinanceWrapper",
        "numberOfBytes": "20"
      },
      "t_mapping(t_address,t_address)": {
        "encoding": "mapping",
        "key": "t_address",
        "label": "mapping(address => address)",
        "numberOfBytes": "32",
        "value": "t_address"
      },
      "t_mapping(t_address,t_bool)": {
        "encoding": "mapping",
        "key": "t_address",
        "label": "mapping(address => bool)",
        "numberOfBytes": "32",
        "value": "t_bool"
      },
      "t_mapping(t_address,t_struct(Pool)25128_storage)": {
        "encoding": "mapping",
        "key": "t_address",
        "label": "mapping(address => struct Types.Pool)",
        "numberOfBytes": "32",
        "value": "t_struct(Pool)25128_storage"
      },
      "t_mapping(t_address,t_uint128)": {
        "encoding": "mapping",
        "key": "t_address",
        "label": "mapping(address => uint128)",
        "numberOfBytes": "32",
        "value": "t_uint128"
      },
      "t_mapping(t_bytes32,t_struct(RoleData)34_storage)": {
        "encoding": "mapping",
        "key": "t_bytes32",
        "label": "mapping(bytes32 => struct AccessControlUpgradeable.RoleData)",
        "numberOfBytes": "32",
        "value": "t_struct(RoleData)34_storage"
      },
      "t_mapping(t_uint128,t_uint128)": {
        "encoding": "mapping",
        "key": "t_uint128",
        "label": "mapping(uint128 => uint128)",
        "numberOfBytes": "32",
        "value": "t_uint128"
      },
      "t_mapping(t_uint256,t_struct(Tick)25053_storage)": {
        "encoding": "mapping",
        "key": "t_uint256",
        "label": "mapping(uint256 => struct Types.Tick)",
        "numberOfBytes": "32",
        "value": "t_struct(Tick)25053_storage"
      },
      "t_struct(Pool)25128_storage": {
        "encoding": "inplace",
        "label": "struct Types.Pool",
        "members": [
          {
            "astId": 25119,
            "contract": "src/BorrowerPools.sol:BorrowerPools",
            "label": "parameters",
            "offset": 0,
            "slot": "0",
            "type": "t_struct(PoolParameters)25089_storage"
          },
          {
            "astId": 25122,
            "contract": "src/BorrowerPools.sol:BorrowerPools",
            "label": "state",
            "offset": 0,
            "slot": "10",
            "type": "t_struct(PoolState)25116_storage"
          },
          {
            "astId": 25127,
            "contract": "src/BorrowerPools.sol:BorrowerPools",
            "label": "ticks",
            "offset": 0,
            "slot": "16",
            "type": "t_mapping(t_uint256,t_struct(Tick)25053_storage)"
          }
        ],
        "numberOfBytes": "544"
      },
      "t_struct(PoolParameters)25089_storage": {
        "encoding": "inplace",
        "label": "struct Types.PoolParameters",
        "members": [
          {
            "astId": 25055,
            "contract": "src/BorrowerPools.sol:BorrowerPools",
            "label": "OWNER",
            "offset": 0,
            "slot": "0",
            "type": "t_address"
          },
          {
            "astId": 25057,
            "contract": "src/BorrowerPools.sol:BorrowerPools",
            "label": "UNDERLYING_TOKEN",
            "offset": 0,
            "slot": "1",
            "type": "t_address"
          },
          {
            "astId": 25059,
            "contract": "src/BorrowerPools.sol:BorrowerPools",
            "label": "TOKEN_DECIMALS",
            "offset": 20,
            "slot": "1",
            "type": "t_uint8"
          },
          {
            "astId": 25062,
            "contract": "src/BorrowerPools.sol:BorrowerPools",
            "label": "YIELD_PROVIDER",
            "offset": 0,
            "slot": "2",
            "type": "t_contract(YearnFinanceWrapper)21480"
          },
          {
            "astId": 25064,
            "contract": "src/BorrowerPools.sol:BorrowerPools",
            "label": "MIN_RATE",
            "offset": 0,
            "slot": "3",
            "type": "t_uint128"
          },
          {
            "astId": 25066,
            "contract": "src/BorrowerPools.sol:BorrowerPools",
            "label": "MAX_RATE",
            "offset": 16,
            "slot": "3",
            "type": "t_uint128"
          },
          {
            "astId": 25068,
            "contract": "src/BorrowerPools.sol:BorrowerPools",
            "label": "RATE_SPACING",
            "offset": 0,
            "slot": "4",
            "type": "t_uint128"
          },
          {
            "astId": 25070,
            "contract": "src/BorrowerPools.sol:BorrowerPools",
            "label": "MAX_BORROWABLE_AMOUNT",
            "offset": 16,
            "slot": "4",
            "type": "t_uint128"
          },
          {
            "astId": 25072,
            "contract": "src/BorrowerPools.sol:BorrowerPools",
            "label": "LOAN_DURATION",
            "offset": 0,
            "slot": "5",
            "type": "t_uint128"
          },
          {
            "astId": 25074,
            "contract": "src/BorrowerPools.sol:BorrowerPools",
            "label": "LIQUIDITY_REWARDS_DISTRIBUTION_RATE",
            "offset": 16,
            "slot": "5",
            "type": "t_uint128"
          },
          {
            "astId": 25076,
            "contract": "src/BorrowerPools.sol:BorrowerPools",
            "label": "COOLDOWN_PERIOD",
            "offset": 0,
            "slot": "6",
            "type": "t_uint128"
          },
          {
            "astId": 25078,
            "contract": "src/BorrowerPools.sol:BorrowerPools",
            "label": "REPAYMENT_PERIOD",
            "offset": 16,
            "slot": "6",
            "type": "t_uint128"
          },
          {
            "astId": 25080,
            "contract": "src/BorrowerPools.sol:BorrowerPools",
            "label": "LATE_REPAY_FEE_PER_BOND_RATE",
            "offset": 0,
            "slot": "7",
            "type": "t_uint128"
          },
          {
            "astId": 25082,
            "contract": "src/BorrowerPools.sol:BorrowerPools",
            "label": "ESTABLISHMENT_FEE_RATE",
            "offset": 16,
            "slot": "7",
            "type": "t_uint128"
          },
          {
            "astId": 25084,
            "contract": "src/BorrowerPools.sol:BorrowerPools",
            "label": "REPAYMENT_FEE_RATE",
            "offset": 0,
            "slot": "8",
            "type": "t_uint128"
          },
          {
            "astId": 25086,
            "contract": "src/BorrowerPools.sol:BorrowerPools",
            "label": "LIQUIDITY_REWARDS_ACTIVATION_THRESHOLD",
            "offset": 16,
            "slot": "8",
            "type": "t_uint128"
          },
          {
            "astId": 25088,
            "contract": "src/BorrowerPools.sol:BorrowerPools",
            "label": "EARLY_REPAY",
            "offset": 0,
            "slot": "9",
            "type": "t_bool"
          }
        ],
        "numberOfBytes": "320"
      },
      "t_struct(PoolState)25116_storage": {
        "encoding": "inplace",
        "label": "struct Types.PoolState",
        "members": [
          {
            "astId": 25091,
            "contract": "src/BorrowerPools.sol:BorrowerPools",
            "label": "active",
            "offset": 0,
            "slot": "0",
            "type": "t_bool"
          },
          {
            "astId": 25093,
            "contract": "src/BorrowerPools.sol:BorrowerPools",
            "label": "defaulted",
            "offset": 1,
            "slot": "0",
            "type": "t_bool"
          },
          {
            "astId": 25095,
            "contract": "src/BorrowerPools.sol:BorrowerPools",
            "label": "closed",
            "offset": 2,
            "slot": "0",
            "type": "t_bool"
          },
          {
            "astId": 25097,
            "contract": "src/BorrowerPools.sol:BorrowerPools",
            "label": "currentMaturity",
            "offset": 3,
            "slot": "0",
            "type": "t_uint128"
          },
          {
            "astId": 25099,
            "contract": "src/BorrowerPools.sol:BorrowerPools",
            "label": "bondsIssuedQuantity",
            "offset": 0,
            "slot": "1",
            "type": "t_uint128"
          },
          {
            "astId": 25101,
            "contract": "src/BorrowerPools.sol:BorrowerPools",
            "label": "normalizedBorrowedAmount",
            "offset": 16,
            "slot": "1",
            "type": "t_uint128"
          },
          {
            "astId": 25103,
            "contract": "src/BorrowerPools.sol:BorrowerPools",
            "label": "normalizedAvailableDeposits",
            "offset": 0,
            "slot": "2",
            "type": "t_uint128"
          },
          {
            "astId": 25105,
            "contract": "src/BorrowerPools.sol:BorrowerPools",
            "label": "lowerInterestRate",
            "offset": 16,
            "slot": "2",
            "type": "t_uint128"
          },
          {
            "astId": 25107,
            "contract": "src/BorrowerPools.sol:BorrowerPools",
            "label": "nextLoanMinStart",
            "offset": 0,
            "slot": "3",
            "type": "t_uint128"
          },
          {
            "astId": 25109,
            "contract": "src/BorrowerPools.sol:BorrowerPools",
            "label": "remainingAdjustedLiquidityRewardsReserve",
            "offset": 16,
            "slot": "3",
            "type": "t_uint128"
          },
          {
            "astId": 25111,
            "contract": "src/BorrowerPools.sol:BorrowerPools",
            "label": "yieldProviderLiquidityRatio",
            "offset": 0,
            "slot": "4",
            "type": "t_uint128"
          },
          {
            "astId": 25113,
            "contract": "src/BorrowerPools.sol:BorrowerPools",
            "label": "currentBondsIssuanceIndex",
            "offset": 16,
            "slot": "4",
            "type": "t_uint128"
          },
          {
            "astId": 25115,
            "contract": "src/BorrowerPools.sol:BorrowerPools",
            "label": "defaultTimestamp",
            "offset": 0,
            "slot": "5",
            "type": "t_uint128"
          }
        ],
        "numberOfBytes": "192"
      },
      "t_struct(RoleData)34_storage": {
        "encoding": "inplace",
        "label": "struct AccessControlUpgradeable.RoleData",
        "members": [
          {
            "astId": 31,
            "contract": "src/BorrowerPools.sol:BorrowerPools",
            "label": "members",
            "offset": 0,
            "slot": "0",
            "type": "t_mapping(t_address,t_bool)"
          },
          {
            "astId": 33,
            "contract": "src/BorrowerPools.sol:BorrowerPools",
            "label": "adminRole",
            "offset": 0,
            "slot": "1",
            "type": "t_bytes32"
          }
        ],
        "numberOfBytes": "64"
      },
      "t_struct(Tick)25053_storage": {
        "encoding": "inplace",
        "label": "struct Types.Tick",
        "members": [
          {
            "astId": 25032,
            "contract": "src/BorrowerPools.sol:BorrowerPools",
            "label": "bondsIssuanceIndexMultiplier",
            "offset": 0,
            "slot": "0",
            "type": "t_mapping(t_uint128,t_uint128)"
          },
          {
            "astId": 25034,
            "contract": "src/BorrowerPools.sol:BorrowerPools",
            "label": "bondsQuantity",
            "offset": 0,
            "slot": "1",
            "type": "t_uint128"
          },
          {
            "astId": 25036,
            "contract": "src/BorrowerPools.sol:BorrowerPools",
            "label": "adjustedTotalAmount",
            "offset": 16,
            "slot": "1",
            "type": "t_uint128"
          },
          {
            "astId": 25038,
            "contract": "src/BorrowerPools.sol:BorrowerPools",
            "label": "adjustedRemainingAmount",
            "offset": 0,
            "slot": "2",
            "type": "t_uint128"
          },
          {
            "astId": 25040,
            "contract": "src/BorrowerPools.sol:BorrowerPools",
            "label": "adjustedWithdrawnAmount",
            "offset": 16,
            "slot": "2",
            "type": "t_uint128"
          },
          {
            "astId": 25042,
            "contract": "src/BorrowerPools.sol:BorrowerPools",
            "label": "adjustedPendingAmount",
            "offset": 0,
            "slot": "3",
            "type": "t_uint128"
          },
          {
            "astId": 25044,
            "contract": "src/BorrowerPools.sol:BorrowerPools",
            "label": "normalizedLoanedAmount",
            "offset": 16,
            "slot": "3",
            "type": "t_uint128"
          },
          {
            "astId": 25046,
            "contract": "src/BorrowerPools.sol:BorrowerPools",
            "label": "lastFeeDistributionTimestamp",
            "offset": 0,
            "slot": "4",
            "type": "t_uint128"
          },
          {
            "astId": 25048,
            "contract": "src/BorrowerPools.sol:BorrowerPools",
            "label": "atlendisLiquidityRatio",
            "offset": 16,
            "slot": "4",
            "type": "t_uint128"
          },
          {
            "astId": 25050,
            "contract": "src/BorrowerPools.sol:BorrowerPools",
            "label": "yieldProviderLiquidityRatio",
            "offset": 0,
            "slot": "5",
            "type": "t_uint128"
          },
          {
            "astId": 25052,
            "contract": "src/BorrowerPools.sol:BorrowerPools",
            "label": "accruedFees",
            "offset": 16,
            "slot": "5",
            "type": "t_uint128"
          }
        ],
        "numberOfBytes": "192"
      },
      "t_uint128": {
        "encoding": "inplace",
        "label": "uint128",
        "numberOfBytes": "16"
      },
      "t_uint256": {
        "encoding": "inplace",
        "label": "uint256",
        "numberOfBytes": "32"
      },
      "t_uint8": {
        "encoding": "inplace",
        "label": "uint8",
        "numberOfBytes": "1"
      }
    }
  }
}