{
  "address": "0x19fFe0Ba818F4cd6fFE4AefF62ef306B795758e2",
  "abi": [
    {
      "inputs": [],
      "name": "MATH_ADDITION_OVERFLOW",
      "type": "error"
    },
    {
      "inputs": [],
      "name": "MATH_DIVISION_BY_ZERO",
      "type": "error"
    },
    {
      "inputs": [],
      "name": "MATH_MULTIPLICATION_OVERFLOW",
      "type": "error"
    },
    {
      "anonymous": false,
      "inputs": [
        {
          "indexed": false,
          "internalType": "address",
          "name": "borrower",
          "type": "address"
        },
        {
          "indexed": false,
          "internalType": "uint128",
          "name": "rate",
          "type": "uint128"
        },
        {
          "indexed": false,
          "internalType": "uint128",
          "name": "remainingLiquidityRewards",
          "type": "uint128"
        },
        {
          "indexed": false,
          "internalType": "uint128",
          "name": "addedAccruedFees",
          "type": "uint128"
        }
      ],
      "name": "CollectFeesForTick",
      "type": "event"
    },
    {
      "anonymous": false,
      "inputs": [
        {
          "indexed": false,
          "internalType": "address",
          "name": "ownerAddress",
          "type": "address"
        }
      ],
      "name": "PoolActivated",
      "type": "event"
    },
    {
      "anonymous": false,
      "inputs": [
        {
          "indexed": false,
          "internalType": "address",
          "name": "borrower",
          "type": "address"
        },
        {
          "indexed": false,
          "internalType": "uint128",
          "name": "rate",
          "type": "uint128"
        },
        {
          "indexed": false,
          "internalType": "uint128",
          "name": "adjustedRemainingAmountReduction",
          "type": "uint128"
        },
        {
          "indexed": false,
          "internalType": "uint128",
          "name": "loanedAmount",
          "type": "uint128"
        },
        {
          "indexed": false,
          "internalType": "uint128",
          "name": "atlendisLiquidityRatio",
          "type": "uint128"
        },
        {
          "indexed": false,
          "internalType": "uint128",
          "name": "unborrowedRatio",
          "type": "uint128"
        }
      ],
      "name": "TickBorrow",
      "type": "event"
    },
    {
      "anonymous": false,
      "inputs": [
        {
          "indexed": false,
          "internalType": "address",
          "name": "borrower",
          "type": "address"
        },
        {
          "indexed": false,
          "internalType": "uint128",
          "name": "rate",
          "type": "uint128"
        },
        {
          "indexed": false,
          "internalType": "uint128",
          "name": "atlendisLiquidityRatio",
          "type": "uint128"
        }
      ],
      "name": "TickInitialized",
      "type": "event"
    },
    {
      "anonymous": false,
      "inputs": [
        {
          "indexed": false,
          "internalType": "address",
          "name": "borrower",
          "type": "address"
        },
        {
          "indexed": false,
          "internalType": "uint128",
          "name": "rate",
          "type": "uint128"
        },
        {
          "indexed": false,
          "internalType": "uint128",
          "name": "adjustedPendingDeposit",
          "type": "uint128"
        }
      ],
      "name": "TickLoanDeposit",
      "type": "event"
    },
    {
      "anonymous": false,
      "inputs": [
        {
          "indexed": false,
          "internalType": "address",
          "name": "borrower",
          "type": "address"
        },
        {
          "indexed": false,
          "internalType": "uint128",
          "name": "rate",
          "type": "uint128"
        },
        {
          "indexed": false,
          "internalType": "uint128",
          "name": "adjustedPendingDeposit",
          "type": "uint128"
        },
        {
          "indexed": false,
          "internalType": "uint128",
          "name": "atlendisLiquidityRatio",
          "type": "uint128"
        }
      ],
      "name": "TickNoLoanDeposit",
      "type": "event"
    },
    {
      "anonymous": false,
      "inputs": [
        {
          "indexed": false,
          "internalType": "address",
          "name": "borrower",
          "type": "address"
        },
        {
          "indexed": false,
          "internalType": "uint128",
          "name": "rate",
          "type": "uint128"
        },
        {
          "indexed": false,
          "internalType": "uint128",
          "name": "adjustedPendingAmount",
          "type": "uint128"
        },
        {
          "indexed": false,
          "internalType": "bool",
          "name": "poolBondIssuanceIndexIncremented",
          "type": "bool"
        }
      ],
      "name": "TickPendingDeposit",
      "type": "event"
    },
    {
      "anonymous": false,
      "inputs": [
        {
          "indexed": false,
          "internalType": "address",
          "name": "borrower",
          "type": "address"
        },
        {
          "indexed": false,
          "internalType": "uint128",
          "name": "rate",
          "type": "uint128"
        },
        {
          "indexed": false,
          "internalType": "uint128",
          "name": "newAdjustedRemainingAmount",
          "type": "uint128"
        },
        {
          "indexed": false,
          "internalType": "uint128",
          "name": "atlendisLiquidityRatio",
          "type": "uint128"
        }
      ],
      "name": "TickRepay",
      "type": "event"
    },
    {
      "anonymous": false,
      "inputs": [
        {
          "indexed": false,
          "internalType": "address",
          "name": "borrower",
          "type": "address"
        },
        {
          "indexed": false,
          "internalType": "uint128",
          "name": "rate",
          "type": "uint128"
        },
        {
          "indexed": false,
          "internalType": "uint128",
          "name": "adjustedAmountToWithdraw",
          "type": "uint128"
        }
      ],
      "name": "TickWithdrawPending",
      "type": "event"
    },
    {
      "anonymous": false,
      "inputs": [
        {
          "indexed": false,
          "internalType": "address",
          "name": "borrower",
          "type": "address"
        },
        {
          "indexed": false,
          "internalType": "uint128",
          "name": "rate",
          "type": "uint128"
        },
        {
          "indexed": false,
          "internalType": "uint128",
          "name": "adjustedAmountToWithdraw",
          "type": "uint128"
        },
        {
          "indexed": false,
          "internalType": "uint128",
          "name": "atlendisLiquidityRatio",
          "type": "uint128"
        },
        {
          "indexed": false,
          "internalType": "uint128",
          "name": "accruedFeesToWithdraw",
          "type": "uint128"
        }
      ],
      "name": "TickWithdrawRemaining",
      "type": "event"
    },
    {
      "anonymous": false,
      "inputs": [
        {
          "indexed": false,
          "internalType": "address",
          "name": "borrower",
          "type": "address"
        },
        {
          "indexed": false,
          "internalType": "uint128",
          "name": "addedLiquidityRewards",
          "type": "uint128"
        }
      ],
      "name": "TopUpLiquidityRewards",
      "type": "event"
    },
    {
      "inputs": [],
      "name": "RAY",
      "outputs": [
        {
          "internalType": "uint256",
          "name": "",
          "type": "uint256"
        }
      ],
      "stateMutability": "view",
      "type": "function"
    },
    {
      "inputs": [],
      "name": "SECONDS_PER_YEAR",
      "outputs": [
        {
          "internalType": "uint256",
          "name": "",
          "type": "uint256"
        }
      ],
      "stateMutability": "view",
      "type": "function"
    },
    {
      "inputs": [],
      "name": "WAD",
      "outputs": [
        {
          "internalType": "uint256",
          "name": "",
          "type": "uint256"
        }
      ],
      "stateMutability": "view",
      "type": "function"
    },
    {
      "inputs": [
        {
          "internalType": "uint128",
          "name": "rate",
          "type": "uint128"
        },
        {
          "internalType": "uint128",
          "name": "loanDuration",
          "type": "uint128"
        }
      ],
      "name": "getTickBondPrice",
      "outputs": [
        {
          "internalType": "uint128",
          "name": "price",
          "type": "uint128"
        }
      ],
      "stateMutability": "pure",
      "type": "function"
    }
  ],
  "transactionHash": "0x9e9ed9604269f8c163163e6b9d373e9722e2dbc95c06ebbff365d1b74f45997f",
  "args": [],
  "numDeployments": 2,
  "solcInputHash": "096043261f950c0fc713eb6537ea2194",
  "bytecode": "0x612e7661003a600b82828239805160001a60731461002d57634e487b7160e01b600052600060045260246000fd5b30600052607381538281f3fe73000000000000000000000000000000000000000030146080604052600436106101365760003560e01c80636ef48f57116100b757806398bc050e1161007b57806398bc050e146102d4578063ca8701f3146102f4578063d393d8c814610314578063e6a69ab814610334578063ec733dc81461033f57600080fd5b80636ef48f57146102685780637177b97a1461028857806374e636341461029b578063839a9c29146102ae57806387610e26146102c157600080fd5b8063552033c4116100fe578063552033c4146101f15780635953c226146102115780635ccb5f2f146102245780636839a261146102375780636a1460241461025957600080fd5b8063163e99251461013b5780631aceb8a31461017357806339a594321461019e5780633d29c209146101be5780634de6e915146101d1575b600080fd5b61014e6101493660046129a1565b61035f565b604080516001600160801b039384168152929091166020830152015b60405180910390f35b6101866101813660046129a1565b6104c5565b6040516001600160801b03909116815260200161016a565b8180156101aa57600080fd5b5061014e6101b93660046129a1565b61058f565b61014e6101cc3660046129dd565b61089d565b8180156101dd57600080fd5b5061014e6101ec3660046129a1565b610a6b565b610203676765c793fa10079d601b1b81565b60405190815260200161016a565b61018661021f3660046129dd565b610c20565b610186610232366004612a2a565b610c82565b81801561024357600080fd5b50610257610252366004612a56565b610cc0565b005b610203670de0b6b3a764000081565b81801561027457600080fd5b506101866102833660046129dd565b610db5565b610186610296366004612a2a565b611209565b6101866102a9366004612a89565b61135f565b6101866102bc366004612ab3565b6113fe565b6101866102cf366004612ae3565b6114f1565b8180156102e057600080fd5b5061014e6102ef3660046129a1565b61153c565b81801561030057600080fd5b5061025761030f3660046129dd565b6116f9565b81801561032057600080fd5b5061018661032f366004612a2a565b611975565b6102036301e1338081565b81801561034b57600080fd5b5061018661035a366004612a89565b611a48565b6001600160801b03808316600090815260108501602052604081206004810154600282015492938493868216926103a29291821691600160801b90910416611c3f565b6001600160801b0316106103b85783915061044e565b6005810154600482015460028301546001600160801b0380881693600160801b908190048216936103ef9383169291900416611c3f565b6103f99190612b23565b6001600160801b03161061040f5783915061044e565b6005810154600482015460028301546001600160801b03600160801b9384900481169361044193928216920416611c3f565b61044b9190612b23565b91505b600a8601546000906104a4908790630100000090046001600160801b03161561049157600a8901546102cf904290630100000090046001600160801b0316612b4e565b60058901546001600160801b03166114f1565b90506104b96001600160801b03841682611c6e565b93505050935093915050565b600a830154600090630100000090046001600160801b0316421161052457600a84015461051d9061050d9084906102cf904290630100000090046001600160801b0316612b76565b6001600160801b03851690611c86565b9050610588565b600f8401546001600160801b0342811691161561054b5750600f8401546001600160801b03165b600a850154610584906105749085906102cf90630100000090046001600160801b031685612b76565b6001600160801b03861690611c6e565b9150505b9392505050565b6001600160801b0382166000908152601084016020526040812081906105b58686611c9e565b600a860154630100000090046001600160801b0316156106935760058101546105ea906001600160801b038681169116611d52565b600382018054919450849160009061060c9084906001600160801b0316612b23565b82546101009290920a6001600160801b03818102199093169183160217909155600e8801546106459250600160801b9004166001612b23565b86546040519193507f6b32953a10c12f4f709f00322897857fe00fa2b561933e0455a84ec2b988394a91610686916001600160a01b03169088908790612b8d565b60405180910390a161083a565b60048101546001600160801b03600160801b9091048116906106b790861682611d52565b9350838260010160108282829054906101000a90046001600160801b03166106df9190612b23565b92506101000a8154816001600160801b0302191690836001600160801b03160217905550838260020160008282829054906101000a90046001600160801b03166107299190612b23565b82546101009290920a6001600160801b03818102199093169183160217909155600e890154600c8a018054600160801b909204831696508893509160009161077391859116612b23565b92506101000a8154816001600160801b0302191690836001600160801b031602179055506107d96107c98789600a0160040160109054906101000a90046001600160801b03168a611d7c9092919063ffffffff16565b6001600160801b03861690611d52565b875460048401546040519296507feb939464eaf5658e2bd584955706dfc8718bc675077d094a211b8cac0dc0211992610830926001600160a01b0316918a918991600160801b90046001600160801b031690612bb7565b60405180910390a1505b600c860154600160801b90046001600160801b031615806108725750600c8601546001600160801b03600160801b9091048116908616105b1561089457600c860180546001600160801b03808816600160801b0291161790555b50935093915050565b6001600160801b0380841660009081526010860160205260408120600e87015491928392600160801b9004811690851611156108e0576000859250925050610a62565b6108fe6108ee888887611d7c565b6001600160801b03871690611c3f565b6001820154909550600090600160801b90046001600160801b03161561099b57600282015460018301546109989161094d916001600160801b03600160801b9283900481169290910416612b23565b6002840154600185015461098991610979916001600160801b0391821691600160801b90910416612b4e565b6001600160801b038a1690611c86565b6001600160801b031690611c6e565b90505b806001600160801b0316866001600160801b031610610a3257600282015460018301546001600160801b03918216600160801b9091049091161115610a215760028201546001830154610a1e91610a06916001600160801b0391821691600160801b90910416612b4e565b6001840154610989906001600160801b031684611c86565b93505b610a2b8187612b4e565b9250610a5f565b6001820154610a58906001600160801b03600160801b8204811691610989911689611c86565b9350600092505b50505b94509492505050565b6001600160801b03808316600090815260108501602052604081206001810154919283921615610894576001810154610aaf9087906001600160801b0316876104c5565b9250610ac46001600160801b03851684611c86565b6003820154909250600090610ae990600160801b90046001600160801b031685612b4e565b9050610b45610b378360010160109054906101000a90046001600160801b031685848660050160109054906101000a90046001600160801b0316610b2d9190612b23565b6109899190612b23565b6001600160801b0316611dc9565b600483018054601090610b69908490600160801b90046001600160801b0316612b23565b82546101009290920a6001600160801b038181021990931691831602179091556001840180546001600160801b031916908190556003850180548316905560058501805483169055600160801b908190048216600286018190558a5460048701546040517fff35c143d5dc744162bac187e3560816b62bc72c20ec53e36395daef9e03e44d9650610c0e956001600160a01b03909316948d9493920490911690612bb7565b60405180910390a15050935093915050565b6001600160801b0380841660009081526010860160205260408120600281015491929091168203610c55576000915050610c7a565b6002810154610c76906001600160801b039081169061098990861687611c86565b9150505b949350505050565b6008820154600b830154600091610588916001600160801b0391821691610cb191600160801b90041685612b4e565b6001600160801b031690611c86565b60018301546001600160a01b03811690600090610cf1906001600160801b03851690600160a01b900460ff16611ddd565b60028601549091506001600160a01b0390811690610d1b908416826001600160801b038516611e10565b610d396001600160a01b03841686306001600160801b038616611efb565b60405163b6b55f2560e01b81526001600160801b03831660048201526001600160a01b0382169063b6b55f25906024016020604051808303816000875af1158015610d88573d6000803e3d6000fd5b505050506040513d601f19601f82011682018060405250810190610dac9190612be9565b50505050505050565b6001600160801b03831660009081526010850160205260408120610dd98686611c9e565b600e8601546001600160801b03600160801b909104811690841611611043576000610e05878787611f33565b9050808260050160108282829054906101000a90046001600160801b0316610e2d9190612b4e565b92506101000a8154816001600160801b0302191690836001600160801b03160217905550848260010160108282829054906101000a90046001600160801b0316610e779190612b4e565b92506101000a8154816001600160801b0302191690836001600160801b03160217905550848260020160008282829054906101000a90046001600160801b0316610ec19190612b4e565b92506101000a8154816001600160801b0302191690836001600160801b0316021790555080610f198360040160109054906101000a90046001600160801b0316876001600160801b0316611c3f90919063ffffffff16565b610f239190612b23565b9250610f37836001600160801b0316611f76565b600c88018054600090610f549084906001600160801b0316612b4e565b82546101009290920a6001600160801b03818102199093169183160217909155600184015416159050610fcc57848260020160108282829054906101000a90046001600160801b0316610fa79190612b23565b92506101000a8154816001600160801b0302191690836001600160801b031602179055505b86546004830154604080516001600160a01b0390931683526001600160801b03898116602085015288811684830152600160801b909204821660608401529083166080830152517f1730e9224e5c01521101f332272398652a257d5d98db66bba89c1ec90f1bffed9181900360a00190a1506110e1565b6003810180548591906000906110639084906001600160801b0316612b4e565b82546101009290920a6001600160801b03818102199093169183160217909155600583015461109792508682169116611c3f565b86546040519193507f13251a991ec2ae0985d69e3040c4494fc01b6d47783d144eefcc8c704e90d448916110d8916001600160a01b03169088908890612b8d565b60405180910390a15b600c8601546001600160801b03868116600160801b9092041614801561111957506001810154600160801b90046001600160801b0316155b15611200576004860154600090611139906001600160801b031687612b23565b90505b60038701546001600160801b03600160801b90910481169082161180159061118857506001600160801b038082166000908152601089016020526040902060010154600160801b900416155b156111ac5760048701546111a5906001600160801b031682612b23565b905061113c565b60038701546001600160801b03600160801b9091048116908216106111e157600c870180546001600160801b031690556111fe565b600c870180546001600160801b03808416600160801b0291161790555b505b50949350505050565b60018201546000908190611231906001600160801b03851690600160a01b900460ff16611f8f565b6007850154909150600090611259906001600160801b0380851691600160801b900416611c86565b6004860154600c870154919450849250839160009161128c916001600160801b0391821691600160801b90910416612b4e565b90505b6000826001600160801b03161180156112bf575060038701546001600160801b03600160801b9091048116908216105b156113555760048701546112dc906001600160801b031682612b23565b6001600160801b03808216600090815260108a01602052604090206002015491925016156113505760008061131289848661035f565b90925090506113218185612b4e565b93506113416113318460006114f1565b6001600160801b03841690611c86565b61134b9088612b23565b965050505b61128f565b5050505092915050565b6006810154600a8201546000918291611392916001600160801b03600160801b9091048116916301000000900416612b23565b6001600160801b03169050804211156113f857600f8301546000906001600160801b03166113c057426113cf565b600f8401546001600160801b03165b60078501549091506001600160801b03166113ea8383612b76565b6113f49190612c02565b9250505b50919050565b600a820154600090630100000090046001600160801b03168103611424575060006114eb565b8161145857600a830154630100000090046001600160801b031642116114585750600b8201546001600160801b03166114eb565b600c830154600160801b90046001600160801b03165b60038401546001600160801b03600160801b9091048116908216116114e9576001600160801b0380821660009081526010860160205260409020600181015490916114bc91879116846104c5565b6114c69084612b23565b60048601549093506114e291506001600160801b031682612b23565b905061146e565b505b92915050565b60006105886301e133806115116001600160801b03808616908716612c02565b61151b9190612c37565b61152d90670de0b6b3a7640000612c4b565b670de0b6b3a764000090611c6e565b6001600160801b038083166000908152601085016020526040812060048101546002820154929384938682169261157f9291821691600160801b90910416611c3f565b6001600160801b0316106115955783915061044e565b6005810154600482015460028301546001600160801b0380881693600160801b908190048216936115cc9383169291900416611c3f565b6115d69190612b23565b6001600160801b031610611666576004810154600282015485935061160f916001600160801b0391821691600160801b90910416611c3f565b6116199085612b4e565b60058201805460109061163d908490600160801b90046001600160801b0316612b4e565b92506101000a8154816001600160801b0302191690836001600160801b0316021790555061044e565b6005810154600482015460028301546001600160801b03600160801b9384900481169361169893928216920416611c3f565b6116a29190612b23565b6005820180546001600160801b031690559150600a8601546000906104a49087906001600160801b036301000000909104161561049157600a8901546102cf904290630100000090046001600160801b0316612b4e565b6001600160801b038084166000908152601086016020526040812060018101805491938693919261172c91859116612b23565b92506101000a8154816001600160801b0302191690836001600160801b0316021790555060006117858260040160109054906101000a90046001600160801b0316846001600160801b0316611d5290919063ffffffff16565b60028301549091506001600160801b0390811690821611156117b1575060028101546001600160801b03165b6002820180548291906000906117d19084906001600160801b0316612b4e565b92506101000a8154816001600160801b0302191690836001600160801b03160217905550828260030160108282829054906101000a90046001600160801b031661181b9190612b23565b82546101009290920a6001600160801b03818102199093169183160217909155600184015460028501546000935061185e9290811691600160801b900416611c6e565b87546004850154604080516001600160a01b0390931683526001600160801b038a81166020850152868116848301528881166060850152600160801b9092048216608084015290831660a0830152519192507fc60ea0182cc3972769ae86644c38db9bfeb957d141f01b27ff56b35b5097dda5919081900360c00190a1600b870180548691906000906118fb9084906001600160801b0316612b23565b92506101000a8154816001600160801b0302191690836001600160801b031602179055508387600a0160020160008282829054906101000a90046001600160801b03166119489190612b4e565b92506101000a8154816001600160801b0302191690836001600160801b0316021790555050505050505050565b6002820154604080516325b0985360e21b815290516000926001600160a01b0316916396c2614c9160048083019260209291908290030181865afa1580156119c1573d6000803e3d6000fd5b505050506040513d601f19601f820116820180604052508101906119e59190612be9565b90506119fa6001600160801b03831682611d52565b600d84018054601090611a1e908490600160801b90046001600160801b0316612b23565b92506101000a8154816001600160801b0302191690836001600160801b0316021790555092915050565b600c8101546002820154604080516325b0985360e21b81529051600093600160801b90046001600160801b03169284926001600160a01b03909116916396c2614c916004808201926020929091908290030181865afa158015611aaf573d6000803e3d6000fd5b505050506040513d601f19601f82011682018060405250810190611ad39190612be9565b600d850154909150611af590600160801b90046001600160801b031682611c3f565b600c850180549194508491600090611b179084906001600160801b0316612b23565b82546101009290920a6001600160801b03818102199093169183160217909155600d860180549091169055505b6001600160801b0380831660009081526010860160205260409020600101541615801590611b8a575060038401546001600160801b03600160801b909104811690831611155b15611c3857600b8401546001600160801b038381166000908152601087016020526040902060010154611bc892821691610989918782169116611c86565b6001600160801b0380841660009081526010808801602052604090912060050180549092611c00918591600160801b90910416612b23565b82546101009290920a6001600160801b038181021990931691831602179091556004860154611c3192501683612b23565b9150611b44565b5050919050565b6000610588611c69836001600160801b0316611c63866001600160801b0316611fb7565b90611ff6565b612087565b60006105886001600160801b038481169084166120d8565b60006105886001600160801b03848116908416612170565b6002820154604080516325b0985360e21b815290516000926001600160a01b0316916396c2614c9160048083019260209291908290030181865afa158015611cea573d6000803e3d6000fd5b505050506040513d601f19601f82011682018060405250810190611d0e9190612be9565b9050611d1b8383836121e7565b6001600160801b039182166000908152601090930160205260409092206005018054919092166001600160801b0319909116179055565b6000610588611c69836001600160801b0316611d76866001600160801b0316611fb7565b9061242a565b6001600160801b03808316600090815260108501602090815260408083208585168452918290528220549092169190829003611dc157676765c793fa10079d601b1b91505b509392505050565b60006114eb826001600160801b0316611fb7565b6000670de0b6b3a7640000611df383600a612d47565b611e06906001600160801b038616612c02565b6105889190612c37565b604051636eb1769f60e11b81523060048201526001600160a01b038381166024830152600091839186169063dd62ed3e90604401602060405180830381865afa158015611e61573d6000803e3d6000fd5b505050506040513d601f19601f82011682018060405250810190611e859190612be9565b611e8f9190612c4b565b6040516001600160a01b038516602482015260448101829052909150611ef590859063095ea7b360e01b906064015b60408051601f198184030181529190526020810180516001600160e01b03166001600160e01b0319909316929092179091526124b4565b50505050565b6040516001600160a01b0380851660248301528316604482015260648101829052611ef59085906323b872dd60e01b90608401611ebe565b6001600160801b03808316600090815260108501602052604081206002810154600582015492939192610584929182169161098991600160801b90041686611c86565b60006103e8611f858184612d53565b6114eb9190612d79565b6000611f9c82600a612d47565b611e06670de0b6b3a76400006001600160801b038616612c02565b600080611fc8633b9aca0084612c02565b905082611fd9633b9aca0083612c37565b146114eb5760405162a748d160e21b815260040160405180910390fd5b6000821580612003575081155b15612010575060006114eb565b816120276002676765c793fa10079d601b1b612c37565b61203390600019612b76565b61203d9190612c37565b83111561205c5760405162a748d160e21b815260040160405180910390fd5b676765c793fa10079d601b1b612073600282612c37565b61207d8486612c02565b611e069190612c4b565b6000806120996002633b9aca00612c37565b905060006120a78483612c4b565b9050818110156120ca576040516307af724160e11b815260040160405180910390fd5b6113f4633b9aca0082612c37565b6000816000036120fb576040516308693c7b60e31b815260040160405180910390fd5b6000612108600284612c37565b9050670de0b6b3a764000061211f82600019612b76565b6121299190612c37565b8411156121485760405162a748d160e21b815260040160405180910390fd5b828161215c670de0b6b3a764000087612c02565b6121669190612c4b565b610c7a9190612c37565b600082158061217d575081155b1561218a575060006114eb565b8161219e6002670de0b6b3a7640000612c37565b6121aa90600019612b76565b6121b49190612c37565b8311156121d35760405162a748d160e21b815260040160405180910390fd5b670de0b6b3a7640000612073600282612c37565b6001600160801b0380831660009081526010850160205260409020600481015490914291161015611ef5576000808080612222888888612590565b9296509094509250905061223f6001600160801b03831687611d52565b600d89018054601090612263908490600160801b90046001600160801b0316612b4e565b82546101009290920a6001600160801b03818102199093169183160217909155600287015461229492501682611c3f565b61229e9083612b23565b600c890180546000906122bb9084906001600160801b0316612b23565b92506101000a8154816001600160801b0302191690836001600160801b0316021790555060008560050160109054906101000a90046001600160801b0316846123049190612b4e565b6004870154909150600160801b90046001600160801b0316600003612389576005860180546001600160801b0319166001600160801b03891617905588546040517f6f0af1abcf1ba2094b30510b922c357e153645953c99cedcd9c731cf49c0e49191612380916001600160a01b03909116908b908b90612b8d565b60405180910390a15b6005860180546001600160801b03908116600160801b8783168102919091179092556001600160801b03198782168302164282161760048901558a54600d8c01547f22f7e29f1509fbd47f3e61026d7920c0dd79fd86b88861a8e5f0f7d130a584e3936001600160a01b03909216928c926124069204168b611c3f565b846040516124179493929190612bb7565b60405180910390a1505050505050505050565b60008160000361244d576040516308693c7b60e31b815260040160405180910390fd5b600061245a600284612c37565b9050676765c793fa10079d601b1b61247482600019612b76565b61247e9190612c37565b84111561249d5760405162a748d160e21b815260040160405180910390fd5b828161215c676765c793fa10079d601b1b87612c02565b6000612509826040518060400160405280602081526020017f5361666545524332303a206c6f772d6c6576656c2063616c6c206661696c6564815250856001600160a01b03166127409092919063ffffffff16565b80519091501561258b57808060200190518101906125279190612da8565b61258b5760405162461bcd60e51b815260206004820152602a60248201527f5361666545524332303a204552433230206f7065726174696f6e20646964206e6044820152691bdd081cdd58d8d9595960b21b60648201526084015b60405180910390fd5b505050565b6001600160801b0380831660009081526010850160205260408120600481015491928392839283929091600160801b90041682036125dc57856000806000945094509450945050612737565b60048101546005820154600e8a01546001600160801b03600160801b938490048116985092820483169650600092918216911611156126295750600e8801546001600160801b0316612639565b5060058101546001600160801b03165b6126438188612b4e565b925061264f898961274f565b600d8a015490945060009061267490600160801b90046001600160801b031689611c3f565b9050806001600160801b0316856001600160801b03161115612694578094505b600a8a0154630100000090046001600160801b0316600003612702576126ba8488612b23565b60028401549097506001600160801b0316156126fd5760028301546126f0906001600160801b0390811690610989908816611dc9565b6126fa9088612b23565b96505b612733565b6002830154859061271c906001600160801b031686611c3f565b6127269190612b23565b6127309087612b23565b95505b5050505b93509350935093565b6060610c7a848460008561281b565b6001600160801b0380821660009081526010840160205260408120600c8501549192909116156114e957600c84015460048201546002830154610c7a926001600160801b0390811692610989926127b19290811691600160801b900416611c3f565b6004880154600b890154610cb1916001600160801b03600160801b91829004811692610989926127e49291041683612b4e565b60048901546127fc906001600160801b031642612b4e565b60058d0154610cb19190600160801b90046001600160801b0316612d79565b60608247101561287c5760405162461bcd60e51b815260206004820152602660248201527f416464726573733a20696e73756666696369656e742062616c616e636520666f6044820152651c8818d85b1b60d21b6064820152608401612582565b6001600160a01b0385163b6128d35760405162461bcd60e51b815260206004820152601d60248201527f416464726573733a2063616c6c20746f206e6f6e2d636f6e74726163740000006044820152606401612582565b600080866001600160a01b031685876040516128ef9190612df1565b60006040518083038185875af1925050503d806000811461292c576040519150601f19603f3d011682016040523d82523d6000602084013e612931565b606091505b509150915061294182828661294c565b979650505050505050565b6060831561295b575081610588565b82511561296b5782518084602001fd5b8160405162461bcd60e51b81526004016125829190612e0d565b80356001600160801b038116811461299c57600080fd5b919050565b6000806000606084860312156129b657600080fd5b833592506129c660208501612985565b91506129d460408501612985565b90509250925092565b600080600080608085870312156129f357600080fd5b84359350612a0360208601612985565b9250612a1160408601612985565b9150612a1f60608601612985565b905092959194509250565b60008060408385031215612a3d57600080fd5b82359150612a4d60208401612985565b90509250929050565b600080600060608486031215612a6b57600080fd5b8335925060208401356001600160a01b03811681146129c657600080fd5b600060208284031215612a9b57600080fd5b5035919050565b8015158114612ab057600080fd5b50565b60008060408385031215612ac657600080fd5b823591506020830135612ad881612aa2565b809150509250929050565b60008060408385031215612af657600080fd5b612aff83612985565b9150612a4d60208401612985565b634e487b7160e01b600052601160045260246000fd5b60006001600160801b03828116848216808303821115612b4557612b45612b0d565b01949350505050565b60006001600160801b0383811690831681811015612b6e57612b6e612b0d565b039392505050565b600082821015612b8857612b88612b0d565b500390565b6001600160a01b039390931683526001600160801b03918216602084015216604082015260600190565b6001600160a01b039490941684526001600160801b039283166020850152908216604084015216606082015260800190565b600060208284031215612bfb57600080fd5b5051919050565b6000816000190483118215151615612c1c57612c1c612b0d565b500290565b634e487b7160e01b600052601260045260246000fd5b600082612c4657612c46612c21565b500490565b60008219821115612c5e57612c5e612b0d565b500190565b600181815b80851115612c9e578160001904821115612c8457612c84612b0d565b80851615612c9157918102915b93841c9390800290612c68565b509250929050565b600082612cb5575060016114eb565b81612cc2575060006114eb565b8160018114612cd85760028114612ce257612cfe565b60019150506114eb565b60ff841115612cf357612cf3612b0d565b50506001821b6114eb565b5060208310610133831016604e8410600b8410161715612d21575081810a6114eb565b612d2b8383612c63565b8060001904821115612d3f57612d3f612b0d565b029392505050565b60006105888383612ca6565b60006001600160801b0383811680612d6d57612d6d612c21565b92169190910492915050565b60006001600160801b0382811684821681151582840482111615612d9f57612d9f612b0d565b02949350505050565b600060208284031215612dba57600080fd5b815161058881612aa2565b60005b83811015612de0578181015183820152602001612dc8565b83811115611ef55750506000910152565b60008251612e03818460208701612dc5565b9190910192915050565b6020815260008251806020840152612e2c816040850160208701612dc5565b601f01601f1916919091016040019291505056fea2646970667358221220727417d395c9d1125656277695bd67393b1c1866ed0b544d9938dd99daee50f764736f6c634300080d0033",
  "devdoc": {
    "kind": "dev",
    "methods": {
      "_getRepaymentAmount(Types.Pool storage,uint128)": {
        "params": {
          "loanAmount": "The total amount of the loan"
        },
        "returns": {
          "repaymentAmount": "The total amount to be repaid *"
        }
      },
      "addBondsToTick(Types.Pool storage,uint128,uint128,uint128)": {
        "details": "Makes all the state changes necessary to add bonds to a tick Updates tick data and conversion data*"
      },
      "calculateBondIssuanceForTick(Types.Pool storage,uint128,uint128)": {
        "details": "Computes the quantity of bonds that would be purchased.*"
      },
      "computeAmountRepartitionForTick(Types.Pool storage,uint128,uint128,uint128)": {
        "details": "Computes how the position is split between deposit and bonds*"
      },
      "depositToTick(Types.Pool storage,uint128,uint128)": {
        "details": "Deposit to a target tick Updates tick data*"
      },
      "distributeLiquidityRewards(Types.Pool storage)": {
        "details": "Distributes remaining liquidity rewards reserve to lenders Called in case of pool default*"
      },
      "getBondsIssuanceParametersForTick(Types.Pool storage,uint128,uint128)": {
        "details": "Computes the quantity of bonds purchased, and the equivalent adjusted deposit amount used for the issuance*"
      },
      "getRepayValue(Types.Pool storage,bool)": {
        "details": "The return value includes only notional and accrued interest, it does not include any fees due for repay by the borrrower*"
      },
      "getTickBondPrice(uint128,uint128)": {
        "params": {
          "loanDuration": "The duration of the loan",
          "rate": "The rate of the loan"
        },
        "returns": {
          "price": "The price per bond*"
        }
      },
      "peekAccruedFeesShare(Types.Pool storage,uint128,uint128,uint128)": {
        "details": "Get share of accumulated fees from estimated current tick state*"
      },
      "repayForTick(Types.Pool storage,uint128,uint128)": {
        "details": "Updates tick data after a repayment*"
      },
      "topUpLiquidityRewards(Types.Pool storage,uint128)": {
        "details": "Top up liquidity rewards for later distribution*"
      },
      "withdrawDepositedAmountForTick(Types.Pool storage,uint128,uint128,uint128)": {
        "details": "Updates tick data after a withdrawal consisting of only amount deposited to yield provider*"
      }
    },
    "version": 1
  },
  "userdoc": {
    "kind": "user",
    "methods": {
      "_getRepaymentAmount(Types.Pool storage,uint128)": {
        "notice": "Get repaymentAmount for a given loanAmount"
      },
      "getTickBondPrice(uint128,uint128)": {
        "notice": "Calculates the proce per bond accordingly to rate and loanDuration "
      }
    },
    "version": 1
  },
  "storageLayout": {
    "storage": [],
    "types": null
  }
}