{
  "address": "0xF3725dB5376D76c52d9A0B089fe3C88a7c60440c",
  "abi": [
    {
      "inputs": [],
      "name": "POD_BAD_INPUT",
      "type": "error"
    },
    {
      "anonymous": false,
      "inputs": [
        {
          "indexed": false,
          "internalType": "address",
          "name": "poolIdentifier",
          "type": "address"
        },
        {
          "indexed": false,
          "internalType": "address",
          "name": "ownerAddress",
          "type": "address"
        }
      ],
      "name": "SetPoolIdentifier",
      "type": "event"
    },
    {
      "inputs": [
        {
          "internalType": "address",
          "name": "ownerAddress",
          "type": "address"
        }
      ],
      "name": "getPoolIdentifier",
      "outputs": [
        {
          "internalType": "address",
          "name": "",
          "type": "address"
        }
      ],
      "stateMutability": "view",
      "type": "function"
    },
    {
      "inputs": [
        {
          "internalType": "address",
          "name": "poolIdentifier",
          "type": "address"
        },
        {
          "internalType": "address",
          "name": "ownerAddress",
          "type": "address"
        }
      ],
      "name": "setPoolIdentifier",
      "outputs": [],
      "stateMutability": "nonpayable",
      "type": "function"
    },
    {
      "inputs": [
        {
          "internalType": "contract IPositionManager",
          "name": "position",
          "type": "address"
        },
        {
          "internalType": "uint128",
          "name": "tokenId",
          "type": "uint128"
        }
      ],
      "name": "tokenURI",
      "outputs": [
        {
          "internalType": "string",
          "name": "",
          "type": "string"
        }
      ],
      "stateMutability": "view",
      "type": "function"
    }
  ],
  "transactionHash": "0x71fd8b20252e22dd06b74ae93660714703df0e6140a2d60f670ac39e2a91311c",
  "args": [],
  "numDeployments": 1,
  "solcInputHash": "a44d47f00d436b23a82c0c58b92fb136",
  "bytecode": "0x608060405234801561001057600080fd5b50614771806100206000396000f3fe608060405234801561001057600080fd5b50600436106100415760003560e01c806386ec5b94146100465780639251796c1461008f578063bc32e1d4146100af575b600080fd5b6100726100543660046122ca565b6001600160a01b039081166000908152602081905260409020541690565b6040516001600160a01b0390911681526020015b60405180910390f35b6100a261009d366004612303565b6100c4565b604051610086919061236c565b6100c26100bd36600461239f565b61030a565b005b60606000806000856001600160a01b0316636206ea32866040518263ffffffff1660e01b81526004016100f791906123cd565b60e06040518083038186803b15801561010f57600080fd5b505afa158015610123573d6000803e3d6000fd5b505050506040513d601f19601f8201168201806040525081019061014791906123e1565b50505093509350509250600080876001600160a01b031663d89f46ab886040518263ffffffff1660e01b815260040161018091906123cd565b604080518083038186803b15801561019757600080fd5b505afa1580156101ab573d6000803e3d6000fd5b505050506040513d601f19601f820116820180604052508101906101cf919061247d565b915091506000836001600160a01b03166395d89b416040518163ffffffff1660e01b815260040160006040518083038186803b15801561020e57600080fd5b505afa158015610222573d6000803e3d6000fd5b505050506040513d6000823e601f3d908101601f1916820160405261024a91908101906124c2565b9050600061029e6102596103a5565b610261610ae4565b610269610b10565b6102778d8c888d8b8d611412565b60405160200161028a949392919061258a565b604051602081830303815290604052611468565b90506102dc6102ac8a6115cd565b6001600160a01b03808a166000908152602081815260409182902054915161028a9493929092169186910161270b565b6040516020016102ec9190612912565b60405160208183030381529060405297505050505050505092915050565b806001600160a01b0316826001600160a01b03161461033c57604051631370d24960e31b815260040160405180910390fd5b6001600160a01b038181166000818152602081815260409182902080546001600160a01b031916948716948517905581519384528301919091527fb134970c5b69ac0cd66ace474412a334a644ce332f9b3cd5e0914dbc6ef47625910160405180910390a15050565b6060604051602001610ad0907f3c7374796c6520747970653d22746578742f637373223e2e7374317b66696c6c81527f3a6e6f6e653b7374726f6b653a233737373138383b7374726f6b652d7769647460208201527f683a302e353b7374726f6b652d6d697465726c696d69743a31303b7d2e73743260408201527f7b66696c6c3a233737373138383b7d2e7374337b66696c6c3a2346464646464660608201527f3b7d2e7374347b66696c6c3a234643423445303b7d2e7374357b666f6e742d6660808201527f616d696c793a27526f626f746f2d626f6c64273b666f6e742d73697a653a313660a08201527f70783b7d3c2f7374796c653e3c72616469616c4772616469656e742069643d2260c08201527f53564749445f315f222063783d223235332e34383834222063793d223431372e60e08201527f343238342220723d223337332e3231393122206772616469656e745472616e736101008201527f666f726d3d226d617472697828302e383938362030203020302e3836333320336101208201527f382e3230332031362e383935332922206772616469656e74556e6974733d22756101408201527f73657253706163654f6e557365223e3c73746f7020206f66667365743d2230226101608201527f207374796c653d2273746f702d636f6c6f723a23334130303346222f3e3c737461018082015260008051602061471c8339815191526101a08201527f3a23304130303241222f3e3c2f72616469616c4772616469656e743e3c7061746101c08201527f68207374796c653d2266696c6c3a75726c282353564749445f315f293b7374726101e08201527f6f6b653a234646464646463b7374726f6b652d77696474683a302e343430343b6102008201527f7374726f6b652d6d697465726c696d69743a31303b2220643d224d302c3734396102208201527f2e3956342e3643302c322e312c322e312c302c342e362c30683532322e3863326102408201527f2e352c302c342e362c322e312c342e362c342e36763734352e3363302c322e356102608201527f2d322e312c342e362d342e362c342e3648342e3643322e312c3735342e352c306102808201527f2c3735322e342c302c3734392e397a222f3e3c7265637420783d2232372e33226102a08201527f20793d2236312e342220636c6173733d22737431222077696474683d223437376102c08201527f2e3822206865696768743d223537322e39222f3e3c6c696e6520636c6173733d6102e08201527f22737431222078313d2232372e33222079313d223533382e37222078323d22356103008201527f30352e31222079323d223533382e37222f3e3c6c696e6520636c6173733d22736103208201527f7431222078313d2232372e33222079313d223434332e36222078323d223530356103408201527f2e31222079323d223434332e36222f3e3c6c696e6520636c6173733d227374316103608201527f222078313d2232372e33222079313d223334382e31222078323d223530352e316103808201527f222079323d223334382e31222f3e3c6c696e6520636c6173733d2273743122206103a08201527f78313d2232372e33222079313d223235322e35222078323d223530352e3122206103c08201527f79323d223235322e35222f3e3c6c696e6520636c6173733d22737431222078316103e08201527f3d2232372e33222079313d22313537222078323d223530352e31222079323d226104008201527f313537222f3e3c6c696e6520636c6173733d22737431222078313d223132322e6104208201527f38222079313d2236312e34222078323d223132322e38222079323d223633342e6104408201527f33222f3e3c6c696e6520636c6173733d22737431222078313d223231382e34226104608201527f2079313d2236312e34222078323d223231382e34222079323d223633342e33226104808201527f2f3e3c6c696e6520636c6173733d22737431222078313d22333134222079313d6104a08201527f2236312e34222078323d22333134222079323d223633342e33222f3e3c6c696e6104c08201527f6520636c6173733d22737431222078313d223430392e35222079313d2236312e6104e08201527f34222078323d223430392e35222079323d223633342e33222f3e3c636972636c6105008201527f6520636c6173733d22737432222063783d223430392e35222063793d223135376105208201527f2220723d22352e34222f3e3c636972636c6520636c6173733d227374322220636105408201527f783d223530352e31222063793d223334372e382220723d22352e34222f3e3c636105608201527f6972636c6520636c6173733d22737432222063783d2232372e33222063793d226105808201527f3533382e372220723d22352e34222f3e3c636972636c6520636c6173733d22736105a08201527f7432222063783d2232372e33222063793d223135362e342220723d22352e34226105c082015261179f60f11b6105e08201526105e20190565b604051602081830303815290604052905090565b6060610aee611702565b610af6611713565b610afe61200e565b604051602001610ad093929190612957565b6060604051602001610ad0907f3c7061746820636c6173733d227374332220643d224d3337382e322c33302e3581527f6c352e342c31392e31682d322e336c2d302e382d332e31483337366c2d302e3860208201527f2c332e31682d322e334c3337382e322c33302e357a204d3338302c34342e356c60408201527f2d312e322d342e386c2d302e352d322e326c2d302e352c322e326c2d312e332c60608201527f342e38483338307a222f3e3c7061746820636c6173733d227374332220643d2260808201527f4d3339352e322c33332e31682d322e39563331683876322e31682d322e39763160a08201527f362e35682d322e325633332e317a222f3e3c7061746820636c6173733d22737460c08201527f332220643d224d3431302e362c333168322e327631362e3568342e387632682d60e08201527f375633317a222f3e3c7061746820636c6173733d227374332220643d224d34326101008201527f372e352c333168362e3276322e31682d342e3176372e3168332e3576322e31686101208201527f2d332e3576352e3368342e3176322e31682d362e325633317a222f3e3c7061746101408201527f6820636c6173733d227374332220643d224d3434342e362c33302e336c352e386101608201527f2c392e376c312e332c322e336c2d302e312d322e3256333168322e327631396c6101808201527f2d352e392d392e376c2d312e332d326c302e312c3276392e33682d322e3256336101a08201527f302e337a222f3e3c7061746820636c6173733d227374332220643d224d3436356101c08201527f2e332c33302e3863312e332c302e312c322e342c302e332c332e352c302e38636101e08201527f312c302e352c312e392c312e312c322e372c312e3963302e372c302e382c312e6102008201527f332c312e382c312e372c322e3963302e342c312e312c302e362c322e342c302e6102208201527f362c332e3963302c312e342d302e322c322e372d302e362c332e39632d302e346102408201527f2c312e312d312c322e312d312e372c322e39632d302e372c302e382d312e362c6102608201527f312e342d322e372c312e39632d312c302e352d322e322c302e372d332e352c306102808201527f2e385633302e387a204d3436372e352c34372e3363302e352d302e322c312d306102a08201527f2e342c312e352d302e3763302e352d302e332c302e392d302e382c312e332d316102c08201527f2e3463302e342d302e362c302e372d312e322c302e392d3263302e322d302e386102e08201527f2c302e342d312e382c302e342d322e3863302d312e312d302e312d322d302e346103008201527f2d322e38632d302e322d302e382d302e352d312e352d302e392d32632d302e346103208201527f2d302e362d302e382d312d312e332d312e34632d302e352d302e332d312d302e6103408201527f362d312e352d302e375634372e337a222f3e3c7061746820636c6173733d22736103608201527f74332220643d224d3438342e342c333168322e327631382e36682d322e3256336103808201527f317a222f3e3c7061746820636c6173733d227374332220643d224d3439382c346103a08201527f362e3863302e342c302e322c302e382c302e342c312e322c302e3663302e342c6103c08201527f302e322c302e392c302e332c312e342c302e3363302e332c302c302e362c302c6103e08201527f302e392d302e3173302e352d302e322c302e372d302e3463302e322d302e322c6104008201527f302e342d302e342c302e352d302e3763302e312d302e332c302e322d302e362c6104208201527f302e322d3163302d302e332c302d302e352d302e312d302e38632d302e312d306104408201527f2e332d302e322d302e362d302e332d302e39632d302e322d302e332d302e332d6104608201527f302e372d302e362d31632d302e322d302e342d302e352d302e382d302e392d316104808201527f2e326c2d312e352d312e39632d302e342d302e352d302e372d302e392d312d316104a08201527f2e34632d302e332d302e342d302e352d302e382d302e362d312e32632d302e326104c08201527f2d302e342d302e332d302e382d302e342d312e31632d302e312d302e342d302e6104e08201527f312d302e372d302e312d312e3163302d302e362c302e312d312e312c302e332d6105008201527f312e3663302e322d302e352c302e352d302e392c302e382d312e3363302e342d6105208201527f302e342c302e382d302e362c312e332d302e3863302e352d302e322c312e312d6105408201527f302e332c312e372d302e3363302e352c302c312c302e312c312e362c302e32636105608201527f302e352c302e312c312c302e342c312e352c302e366c2d302e392c312e38632d6105808201527f302e332d302e322d302e362d302e332d302e392d302e34632d302e332d302e316105a08201527f2d302e372d302e322d312d302e32632d302e362c302d312e312c302e322d312e6105c08201527f352c302e35632d302e342c302e342d302e362c302e392d302e362c312e3563306105e08201527f2c302e322c302c302e342c302e312c302e3663302c302e322c302e312c302e346106008201527f2c302e322c302e3663302e312c302e322c302e322c302e352c302e342c302e376106208201527f63302e322c302e332c302e342c302e362c302e362c302e396c322e322c322e396106408201527f63302e332c302e342c302e352c302e372c302e382c312e3163302e322c302e346106608201527f2c302e352c302e372c302e362c312e3163302e322c302e342c302e332c302e386106808201527f2c302e342c312e3263302e312c302e342c302e322c302e382c302e322c312e336106a08201527f63302c302e372d302e312c312e332d302e332c312e39632d302e322c302e362d6106c08201527f302e352c312d302e392c312e34632d302e342c302e342d302e392c302e372d316106e08201527f2e342c302e39632d302e362c302e322d312e322c302e332d312e382c302e33636107008201527f2d302e372c302d312e332d302e312d322d302e33632d302e362d302e322d312e61072082015279191698171a9698971b1698171c261a1c9c161a1b171c3d11179f60311b61074082015261075a0190565b606061141d8761201f565b61142687612050565b61142f866121d4565b61143a888787612238565b60405160200161144d949392919061299a565b60405160208183030381529060405290509695505050505050565b606081516000141561148857505060408051602081019091526000815290565b60006040518060600160405280604081526020016146dc60409139905060006003845160026114b79190612a07565b6114c19190612a35565b6114cc906004612a49565b905060006114db826020612a07565b6001600160401b038111156114f2576114f26124ac565b6040519080825280601f01601f19166020018201604052801561151c576020820181803683370190505b509050818152600183018586518101602084015b81831015611588576003830192508251603f8160121c168501518253600182019150603f81600c1c168501518253600182019150603f8160061c168501518253600182019150603f8116850151825350600101611530565b6003895106600181146115a257600281146115b3576115bf565b613d3d60f01b6001198301526115bf565b603d60f81b6000198301525b509398975050505050505050565b60606001600160801b0382166115fa5750506040805180820190915260018152600360fc1b602082015290565b8160005b6001600160801b0382161561162d578061161781612a68565b91506116269050600a83612a8f565b91506115fe565b6000816001600160801b03166001600160401b03811115611650576116506124ac565b6040519080825280601f01601f19166020018201604052801561167a576020820181803683370190505b508593509050815b6001600160801b038416156116f95761169c600a85612ab5565b6116a7906030612adb565b60f81b826116b483612b06565b9250826001600160801b0316815181106116d0576116d0612b29565b60200101906001600160f81b031916908160001a9053506116f2600a85612a8f565b9350611682565b50949350505050565b6060604051602001610ad090612b3f565b6060604051602001610ad0907f3c636972636c65207374796c653d2266696c6c3a23303030304646222063783d81527f22313134222063793d223332302220723d223338222f3e3c6c696e656172477260208201527f616469656e742069643d223722206772616469656e74556e6974733d2275736560408201527f7253706163654f6e557365222078313d223237392e38303038222079313d223160608201527f3230332e303338222078323d223537382e39313239222079323d22313230332e60808201527f30333822206772616469656e745472616e73666f726d3d226d6174726978283060a08201527f2031202d31203020313434342e34303532202d35342e3434363229223e3c737460c08201527f6f7020206f66667365743d223022207374796c653d2273746f702d636f6c6f7260e08201527f3a23464142324445222f3e3c73746f7020206f66667365743d223122207374796101008201527f6c653d2273746f702d636f6c6f723a23303030304646222f3e3c2f6c696e65616101208201527f724772616469656e743e3c636972636c65207374796c653d2266696c6c3a75726101408201527f6c282337293b222063783d223234312e34222063793d223337342e392220723d6101608201527f223134392e36222f3e3c6c696e6561724772616469656e742069643d223822206101808201527f6772616469656e74556e6974733d227573657253706163654f6e5573652220786101a08201527f313d223230322e39353031222079313d223339302e34323039222078323d22316101c08201527f30392e36333533222079323d223438332e37333537223e3c73746f7020206f666101e08201527f667365743d223022207374796c653d2273746f702d636f6c6f723a23304230346102008201527f3433222f3e3c73746f7020206f66667365743d22302e3531373322207374796c6102208201527f653d2273746f702d636f6c6f723a23314231343634222f3e3c73746f7020206f6102408201527f66667365743d223122207374796c653d2273746f702d636f6c6f723a233245336102608201527f313930222f3e3c2f6c696e6561724772616469656e743e3c70617468207374796102808201527f6c653d2266696c6c3a75726c282338293b2220643d224d3230372e382c3339396102a08201527f2e366332372e372c34312e382c33312e352c38382c382e362c3130332e32632d6102c08201527f32332c31352e322d36342d362e332d39312e372d34382e31732d33312e352d386102e08201527f382d382e362d3130332e32433133392c3333362e332c3138302e312c3335372e6103008201527f392c3230372e382c3339392e367a222f3e3c6c696e6561724772616469656e746103208201527f2069643d223922206772616469656e74556e6974733d227573657253706163656103408201527f4f6e557365222078313d223730352e38393035222079313d223834312e3932326103608201527f33222078323d223739372e34393035222079323d223834312e393232332220676103808201527f72616469656e745472616e73666f726d3d226d6174726978282d302e373037316103a08201527f20302e37303731202d302e37303731202d302e3730373120313236332e3134396103c08201527f35203532322e3832303629223e3c73746f7020206f66667365743d22302e32316103e08201527f363522207374796c653d2273746f702d636f6c6f723a23464142324445222f3e6104008201527f3c73746f7020206f66667365743d223122207374796c653d2273746f702d636f6104208201527f6c6f723a23303046464646222f3e3c2f6c696e6561724772616469656e743e3c6104408201527f636972636c65207374796c653d2266696c6c3a75726c282339293b222063783d6104608201527f223133362e33222063793d223435392220723d2234352e38222f3e3c6c696e656104808201527f61724772616469656e742069643d22313022206772616469656e74556e6974736104a08201527f3d227573657253706163654f6e557365222078313d22313538392e39373738226104c08201527f2079313d223831372e3737222078323d22313630352e33343835222079323d226104e08201527f3836302e3534303522206772616469656e745472616e73666f726d3d226d61746105008201527f726978282d302e39383332202d302e3138323520302e31383235202d302e39386105208201527f333220313739392e3832353120313437312e3032333129223e3c73746f7020206105408201527f6f66667365743d223022207374796c653d2273746f702d636f6c6f723a2330426105608201527f30343433222f3e3c73746f7020206f66667365743d22302e35313733222073746105808201527f796c653d2273746f702d636f6c6f723a23314231343634222f3e3c73746f70206105a08201527f206f66667365743d223122207374796c653d2273746f702d636f6c6f723a23326105c08201527f4533313930222f3e3c2f6c696e6561724772616469656e743e3c636972636c656105e08201527f207374796c653d2266696c6c3a75726c28233130293b222063783d223338312e6106008201527f34222063793d223334392e382220723d2232322e31222f3e3c6c696e656172476106208201527f72616469656e742069643d22313122206772616469656e74556e6974733d22756106408201527f73657253706163654f6e557365222078313d223232352e36393634222079313d6106608201527f223230312e30373339222078323d223232372e34393334222079323d223237326106808201527f2e30353439223e3c73746f7020206f66667365743d223022207374796c653d226106a08201527f73746f702d636f6c6f723a23464336454330222f3e3c73746f7020206f6666736106c08201527f65743d223122207374796c653d2273746f702d636f6c6f723a233943303035446106e08201527f222f3e3c2f6c696e6561724772616469656e743e3c636972636c65207374796c6107008201527f653d2266696c6c3a75726c28233131293b222063783d223232362e3722206379610720820152721e91191a18171c1110391e91199a171b91179f60691b6107408201526107530190565b6060604051602001610ad090613665565b606061202a826115cd565b60405160200161203a9190614045565b6040516020818303038152906040529050919050565b6001600160a01b038082166000908152602081815260409182902054915160609392909216916121bd918391017f3c7061746820636c6173733d227374312220643d224d32392e322c3634322e3781527f683335362e3763312e312c302c322e312c312e332c322e312c322e387632342e60208201527f3763302c312e352d312c322e382d322e312c322e384832392e32632d312e312c60408201527f302d322e312d312e332d322e312d322e38762d32342e374332372e312c3634336060808301919091527f2e392c32382c3634322e372c32392e322c3634322e377a222f3e3c746578742060808301527f7472616e73666f726d3d226d617472697828312030203020312033372e35303660a08301527f35203636332e35343237292220636c6173733d2273743320737435223e506f6f60c0830152620361d160ed1b60e08301529190911b6001600160601b03191660e3820152661e17ba32bc3a1f60c91b60f782015260fe0190565b604051602081830303815290604052915050919050565b6060662386f26fc10000655af3107a40006121f76121f28386612a8f565b6115cd565b61220f826122058588612ab5565b6121f29190612a8f565b60405160200161222092919061426d565b60405160208183030381529060405292505050919050565b6060670de0b6b3a7640000662386f26fc100006122586121f28387612a8f565b612266826122058589612ab5565b876122746121f28689612a8f565b61228285612205888b612ab5565b8a604051602001612298969594939291906143ca565b604051602081830303815290604052925050509392505050565b6001600160a01b03811681146122c757600080fd5b50565b6000602082840312156122dc57600080fd5b81356122e7816122b2565b9392505050565b6001600160801b03811681146122c757600080fd5b6000806040838503121561231657600080fd5b8235612321816122b2565b91506020830135612331816122ee565b809150509250929050565b60005b8381101561235757818101518382015260200161233f565b83811115612366576000848401525b50505050565b602081526000825180602084015261238b81604085016020870161233c565b601f01601f19169190910160400192915050565b600080604083850312156123b257600080fd5b82356123bd816122b2565b91506020830135612331816122b2565b6001600160801b0391909116815260200190565b600080600080600080600060e0888a0312156123fc57600080fd5b8751612407816122b2565b6020890151909750612418816122ee565b6040890151909650612429816122ee565b606089015190955061243a816122b2565b608089015190945061244b816122ee565b60a089015190935061245c816122ee565b60c089015190925061246d816122ee565b8091505092959891949750929550565b6000806040838503121561249057600080fd5b825161249b816122ee565b6020840151909250612331816122ee565b634e487b7160e01b600052604160045260246000fd5b6000602082840312156124d457600080fd5b81516001600160401b03808211156124eb57600080fd5b818401915084601f8301126124ff57600080fd5b815181811115612511576125116124ac565b604051601f8201601f19908116603f01168101908382118183101715612539576125396124ac565b8160405282815287602084870101111561255257600080fd5b61256383602083016020880161233c565b979650505050505050565b6000815161258081856020860161233c565b9290920192915050565b7f3c7376672076657273696f6e3d22312e31222069643d224c617965725f31222081527f786d6c6e733d22687474703a2f2f7777772e77332e6f72672f323030302f737660208201527f672220786d6c6e733a786c696e6b3d22687474703a2f2f7777772e77332e6f7260408201527f672f313939392f786c696e6b2220783d223070782220793d223070782220766960608201527f6577426f783d2230203020353332203735342e3522207374796c653d22656e6160808201527f626c652d6261636b67726f756e643a6e65772030203020353332203735342e3560a0820152771d91103c36b61d39b830b1b29e91383932b9b2b93b32911f60411b60c0820152600085516126a18160d8850160208a0161233c565b8551908301906126b88160d8840160208a0161233c565b85519101906126ce8160d884016020890161233c565b84519101906126e48160d884016020880161233c565b6126ff60d882840101651e17b9bb339f60d11b815260060190565b98975050505050505050565b727b226e616d65223a22506f736974696f6e202360681b8152835160009061273a81601385016020890161233c565b7f222c226465736372697074696f6e223a224120506f736974696f6e206f6e20746013918401918201527f68652041746c656e6469732070726f746f636f6c20666f7220706f6f6c2000006033820152606085901b6001600160601b03191660518201527f2e2054686973204e465420726570726573656e747320796f757220736861726560658201527f206f662074686520706f6f6c2c20697473207468656f7269746963616c20707260858201527f69636520646570656e6473206f6e2074686520737461747573206f662074686560a58201527f20706f6f6c2c202074686520616d6f756e74206f6620746f6b656e7320796f7560c58201527f206f726967696e616c6c79206465706f736974656420616e642074686520646960e58201527f66666572656e74207265776172647320616c6c6f636174656420746f2069742e6101058201527f2265787465726e616c5f75726c223a2268747470733a2f2f6170702e61746c656101258201527f6e6469732e696f2f222c22696d616765223a2022646174613a696d6167652f736101458201526d1d99cade1b5b0ed8985cd94d8d0b60921b6101658201526129086128fa61017383018661256e565b61227d60f01b815260020190565b9695505050505050565b7f646174613a6170706c69636174696f6e2f6a736f6e3b6261736536342c00000081526000825161294a81601d85016020870161233c565b91909101601d0192915050565b6000845161296981846020890161233c565b84519083019061297d81836020890161233c565b845191019061299081836020880161233c565b0195945050505050565b600085516129ac818460208a0161233c565b8551908301906129c0818360208a0161233c565b85519101906129d381836020890161233c565b84519101906129e681836020880161233c565b019695505050505050565b634e487b7160e01b600052601160045260246000fd5b60008219821115612a1a57612a1a6129f1565b500190565b634e487b7160e01b600052601260045260246000fd5b600082612a4457612a44612a1f565b500490565b6000816000190483118215151615612a6357612a636129f1565b500290565b60006001600160801b0382811680821415612a8557612a856129f1565b6001019392505050565b60006001600160801b0383811680612aa957612aa9612a1f565b92169190910492915050565b60006001600160801b0383811680612acf57612acf612a1f565b92169190910692915050565b60006001600160801b03828116848216808303821115612afd57612afd6129f1565b01949350505050565b60006001600160801b03821680612b1f57612b1f6129f1565b6000190192915050565b634e487b7160e01b600052603260045260246000fd5b7f3c6c696e6561724772616469656e742069643d223122206772616469656e745581527f6e6974733d227573657253706163654f6e557365222078313d223530322e383660208201527f3634222079313d223438352e36303537222078323d223538372e38303139222060408201527f79323d223438352e3630353722206772616469656e745472616e73666f726d3d60608201527f226d6174726978282d302e37303936202d302e3730343620302e37303436202d60808201527f302e37303936203134372e39313939203835382e3139323129223e3c73746f7060a08201527f20206f66667365743d223022207374796c653d2273746f702d636f6c6f723a2360c082018190527f464142324445222f3e3c73746f7020206f66667365743d223122207374796c6560e08301527f3d2273746f702d636f6c6f723a23303030304646222f3e3c2f6c696e656172476101008301527f72616469656e743e3c636972636c65207374796c653d2266696c6c3a75726c286101208301527f2331293b222063783d223130332e31222063793d223132392e342220723d22346101408301527f322e35222f3e3c6c696e6561724772616469656e742069643d223222206772616101608301526000805160206146bc8339815191526101808301527f343835332e383335222079313d223938342e35383333222078323d22343835346101a08301527f2e38323138222079323d22313032332e3535383822206772616469656e7454726101c08301527f616e73666f726d3d226d6174726978282d302e39373732202d302e32313233206101e08301527f302e32313233202d302e3937373220343636372e3036303520323232382e31356102008301527f353329223e3c73746f7020206f66667365743d223022207374796c653d2273746102208301527f6f702d636f6c6f723a23303046464646222f3e3c73746f7020206f66667365746102408301527f3d223122207374796c653d2273746f702d636f6c6f723a23464646463030222f6102608301527f3e3c2f6c696e6561724772616469656e743e3c636972636c65207374796c653d6102808301527f2266696c6c3a75726c282332293b222063783d223133362e37222063793d22326102a08301527f31352e332220723d223139222f3e3c6c696e6561724772616469656e742069646102c08301527f3d223322206772616469656e74556e6974733d227573657253706163654f6e556102e08301527f7365222078313d223639372e31303838222079313d223638352e3632353722206103008301527f78323d223738342e36383237222079323d223638352e363235372220677261646103208301527f69656e745472616e73666f726d3d226d6174726978282d322e3034323620302e6103408301527f36373637202d302e37343331202d302e3833353320323237322e3033313220326103608301527f36342e3638343429223e3c73746f70206f66667365743d223022207374796c656103808301527f3d2273746f702d636f6c6f723a23303046464646222f3e3c73746f7020206f666103a08301527f667365743d223122207374796c653d2273746f702d636f6c6f723a23394446436103c08301527f3932222f3e3c2f6c696e6561724772616469656e743e3c6c696e65207374796c6103e08301527f653d2266696c6c3a6e6f6e653b7374726f6b653a75726c282333293b7374726f6104008301527f6b652d77696474683a342e3134323b7374726f6b652d6c696e656361703a726f6104208301527f756e643b7374726f6b652d6c696e656a6f696e3a726f756e643b7374726f6b656104408301527f2d6d697465726c696d69743a31303b222078313d223334322e36222079313d226104608301527f3137342e32222078323d223135352e39222079323d223231322e34222f3e3c6c6104808301527f696e6561724772616469656e742069643d223422206772616469656e74556e696104a08301527f74733d227573657253706163654f6e557365222078313d223334382e373632386104c08301527f222079313d223131392e37373634222078323d223335302e38383939222079326104e08301527f3d223230332e37393833223e3c73746f7020206f66667365743d2230222073746105008301527f796c653d2273746f702d636f6c6f723a23303046464646222f3e3c73746f70206105208301527f206f66667365743d223122207374796c653d2273746f702d636f6c6f723a23306105408301527f3030304646222f3e3c2f6c696e6561724772616469656e743e3c636972636c656105608301527f207374796c653d2266696c6c3a75726c282334293b222063783d2233353022206105808301527f63793d223136362e382220723d223431222f3e3c636972636c65207374796c656105a08301527f3d2266696c6c3a234646464630303b222063783d223335342e38222063793d226105c08301527f37302220723d22352e39222f3e3c6c696e6561724772616469656e742069643d6105e08301527f223522206772616469656e74556e6974733d227573657253706163654f6e55736106008301527f65222078313d223134302e37373536222079313d223233302e313132322220786106208301527f323d223232382e39343132222079323d223233302e31313232223e3c73746f706106408301526106608201527f394446433932222f3e3c73746f7020206f66667365743d223122207374796c656106808201527f3d2273746f702d636f6c6f723a23464637424143222f3e3c2f6c696e656172476106a08201527f72616469656e743e3c6c696e65207374796c653d2266696c6c3a6e6f6e653b736106c08201527f74726f6b653a75726c282335293b7374726f6b652d77696474683a342e3733336106e08201527f373b7374726f6b652d6c696e656361703a726f756e643b7374726f6b652d6c696107008201527f6e656a6f696e3a726f756e643b7374726f6b652d6d697465726c696d69743a316107208201527f303b222078313d223134332e31222079313d223231392e32222078323d2232326107408201527f362e36222079323d223234312e31222f3e3c6c696e6561724772616469656e746107608201527f2069643d223622206772616469656e74556e6974733d227573657253706163656107808201527f4f6e557365222078313d223639352e30323834222079313d223831322e3737356107a08201527f35222078323d223738332e37383538222079323d223831322e373735352220676107c08201527f72616469656e745472616e73666f726d3d226d6174726978282d312e313733376107e08201527f20302e39363937202d302e38323434202d302e3634313220313832322e3437346108008201526a101898971b9c9c1b14911f60a91b6108208201527f3c73746f7020206f66667365743d223022207374796c653d2273746f702d636f61082b8201527f6c6f723a23333533444637222f3e3c73746f7020206f66667365743d2231222061084b8201527f7374796c653d2273746f702d636f6c6f723a23464637424143222f3e3c2f6c6961086b8201527f6e6561724772616469656e743e3c6c696e65207374796c653d2266696c6c3a6e61088b8201527f6f6e653b7374726f6b653a75726c282336293b7374726f6b652d77696474683a6108ab8201527f352e333235343b7374726f6b652d6c696e656361703a726f756e643b7374726f6108cb8201527f6b652d6c696e656a6f696e3a726f756e643b7374726f6b652d6d697465726c696108eb8201527f6d69743a31303b222078313d223334322e36222079313d223137342e3222207861090b82015275191e9119191b171b11103c991e91191a18971891179f60511b61092b820152600061094182015b92915050565b7f3c6c696e6561724772616469656e742069643d22313222206772616469656e7481527f556e6974733d227573657253706163654f6e557365222078313d223438342e3160208201527f323733222079313d223239352e35353132222078323d223438352e333939342260408201527f2079323d223334352e3739353922206772616469656e745472616e73666f726d60608201527f3d226d617472697828302e3930343520302e34323636202d302e34323636203060808201527f2e39303435203139332e33333039202d34372e30353529223e3c73746f70202060a08201527f6f66667365743d223022207374796c653d2273746f702d636f6c6f723a23464360c08201527f36454330222f3e3c73746f7020206f66667365743d223122207374796c653d2260e08201527f73746f702d636f6c6f723a23394330303544222f3e3c2f6c696e6561724772616101008201527f6469656e743e3c636972636c65207374796c653d2266696c6c3a75726c2823316101208201527f32293b222063783d223439332e38222063793d223435322e352220723d2232346101408201527f2e35222f3e3c6c696e6561724772616469656e742069643d22313322206772616101608201526000805160206146bc8339815191526101808201527f3532382e30383732222079313d223434342e33343034222078323d223532392e6101a08201527f30383934222079323d223438332e3932323722206772616469656e745472616e6101c08201527f73666f726d3d226d617472697828302e3930343520302e34323636202d302e346101e08201527f32363620302e39303435203139332e33333039202d34372e30353529223e3c736102008201527f746f7020206f66667365743d223022207374796c653d2273746f702d636f6c6f6102208201527f723a23303046464646222f3e3c73746f7020206f66667365743d2231222073746102408201527f796c653d2273746f702d636f6c6f723a23303030304646222f3e3c2f6c696e656102608201527f61724772616469656e743e3c636972636c65207374796c653d2266696c6c3a756102808201527f726c28233133293b222063783d223437322e35222063793d223630302e3422206102a08201527f723d2231392e33222f3e3c6c696e6561724772616469656e742069643d2231346102c08201527f22206772616469656e74556e6974733d227573657253706163654f6e557365226102e08201527f2078313d22313031372e34333134222079313d223435332e32363231222078326103008201527f3d22313130362e31383837222079323d223435332e32363231222067726164696103208201527f656e745472616e73666f726d3d226d6174726978282d302e3834393720302e316103408201527f333938202d382e323539333936652d3032202d302e3938373620313336392e366103608201527f353938203839332e3739373929223e3c73746f7020206f66667365743d2230226103808201527f207374796c653d2273746f702d636f6c6f723a23344336464635222f3e3c73746103a08201527f6f7020206f66667365743d22302e3336333422207374796c653d2273746f702d6103c08201527f636f6c6f723a23344134464431222f3e3c73746f7020206f66667365743d22316103e08201527f22207374796c653d2273746f702d636f6c6f723a23343531303841222f3e3c2f6104008201527f6c696e6561724772616469656e743e3c6c696e65207374796c653d2266696c6c6104208201527f3a6e6f6e653b7374726f6b653a75726c28233134293b7374726f6b652d7769646104408201527f74683a352e333235343b7374726f6b652d6c696e656361703a726f756e643b736104608201527f74726f6b652d6c696e656a6f696e3a726f756e643b7374726f6b652d6d6974656104808201527f726c696d69743a31303b222078313d223436362e34222079313d223539392e356104a08201527f222078323d223339332e37222079323d223538392e36222f3e3c6c696e6561726104c08201527f4772616469656e742069643d22313522206772616469656e74556e6974733d226104e08201527f7573657253706163654f6e557365222078313d223534352e34383433222079316105008201527f3d223631372e33353437222078323d223633342e32343136222079323d2236316105208201527f372e3335343722206772616469656e745472616e73666f726d3d226d617472696105408201527f78282d312e3139343320312e35363733202d312e30343832202d302e333136206105608201527f313737382e32303534202d3230392e3538323929223e3c73746f7020206f66666105808201527f7365743d223022207374796c653d2273746f702d636f6c6f723a2341413436386105a08201527f38222f3e3c73746f7020206f66667365743d223122207374796c653d2273746f6105c08201527f702d636f6c6f723a23333533444637222f3e3c2f6c696e6561724772616469656105e08201527f6e743e3c6c696e65207374796c653d2266696c6c3a6e6f6e653b7374726f6b656106008201527f3a75726c28233135293b7374726f6b652d77696474683a352e333235343b73746106208201527f726f6b652d6c696e656361703a726f756e643b7374726f6b652d6c696e656a6f6106408201527f696e3a726f756e643b7374726f6b652d6d697465726c696d69743a31303b22206106608201527f78313d223438372e39222079313d223435372e39222078323d223336352e33226106808201527f2079323d223538312e37222f3e3c6c696e6561724772616469656e742069643d6106a08201527f22313622206772616469656e74556e6974733d227573657253706163654f6e556106c08201527f7365222078313d223432332e35383733222079313d223534392e3331343822206106e08201527f78323d223432342e37313637222079323d223434332e313530322220677261646107008201527f69656e745472616e73666f726d3d226d617472697828302e3930343520302e346107208201527f323636202d302e3432363620302e39303435203139332e33333039202d34372e61074082015265181a9a94911f60d11b6107608201527f3c73746f7020206f66667365743d22392e353935393630652d303222207374796107668201527f6c653d2273746f702d636f6c6f723a23333831303737222f3e3c73746f7020206107868201527f6f66667365743d223122207374796c653d2273746f702d636f6c6f723a2337436107a68201527f31444339222f3e3c2f6c696e6561724772616469656e743e3c636972636c65206107c68201527f7374796c653d2266696c6c3a75726c28233136293b222063783d223336352e386107e682015276111031bc9e911a9c18971b1110391e91199c971991179f60491b610806820152600061081d820161365f565b7f3c6c696e6561724772616469656e742069643d22313722206772616469656e7481527f556e6974733d227573657253706163654f6e557365222078313d2233382e373160208201527f3732222079313d22322e37343633222078323d223130322e353239222079323d60408201527f2236362e35353831223e3c73746f7020206f66667365743d22302e323136352260608201527f207374796c653d2273746f702d636f6c6f723a23464142324445222f3e3c7374608082015260008051602061471c83398151915260a08201527f3a23303046464646222f3e3c2f6c696e6561724772616469656e743e3c70617460c08201527f68207374796c653d2266696c6c3a75726c28233137293b2220643d224d31323160e08201527f2e322c35342e314832382e38632d302e392c302d312e372d302e372d312e372d6101008201527f312e375632352e3563302d302e392c302e372d312e372c312e372d312e3768396101208201527f322e3463302e392c302c312e372c302e372c312e372c312e377632362e3943316101408201527f32322e382c35332e342c3132322e312c35342e312c3132312e322c35342e317a61016082015260008051602061469c8339815191526101808201527f20312034312e393934332034332e37313036292220636c6173733d22737435226101a08201526401f24a21d160dd1b6101c082015260006122e761425a6101c584018561256e565b661e17ba32bc3a1f60c91b815260070190565b7f3c7061746820636c6173733d227374312220643d224d3339382e312c3634322e81527f38683130342e3563312e312c302c312e392c302e392c312e392c312e3976323660208201527f2e3463302c312e312d302e392c312e392d312e392c312e39483339382e31632d60408201527f312e312c302d312e392d302e392d312e392d312e39762d32362e34433339362e60608201527f322c3634332e372c3339372e312c3634322e382c3339382e312c3634322e387a608082015260008051602061469c83398151915260a08201527f2031203432302e33323631203636322e34363739292220636c6173733d22737460c08201526b0199039ba1a911f24972917160a51b60e08201526000835161438c8160ec85016020880161233c565b601760f91b60ec9184019182015283516143ad8160ed84016020880161233c565b61290860ed8284010167129e17ba32bc3a1f60c11b815260080190565b7f3c7061746820636c6173733d227374312220643d224d3235392e382c3731312e81527f364832392e39632d312e332c302d322e332d312e362d322e332d332e35762d3260208201527f332e3263302d322c312d332e352c322e332d332e35683232392e3963312e332c60408201527f302c322e332c312e362c322e332c332e357632332e32433236322e312c37313060608201527f2c3236312c3731312e362c3235392e382c3731312e367a222f3e3c746578742060808201527f7472616e73666f726d3d226d617472697828312030203020312033382e30333060a08201527f34203730322e31393235292220636c6173733d2273743320737435223e00000060c0820152600087516144e68160dd850160208c0161233c565b601760f91b60dd9184019182015287516145078160de840160208c0161233c565b61468d61467061466a61466461465761465161452860de888a01018f61256e565b7f204465706f7369746564203c2f746578743e3c7061746820636c6173733d227381527f74312220643d224d3530312e382c3731312e36483237312e32632d312e332c3060208201527f2d322e332d312e362d322e332d332e35762d32332e3263302d322c312d332e3560408201527f2c322e332d332e35683233302e3763312e332c302c322e332c312e362c322e3360608201527f2c332e357632332e32433530342e312c3731302c3530332e312c3731312e362c60808201527f3530312e382c3731312e367a222f3e3c74657874207472616e73666f726d3d2260a08201527f6d61747269782831203020302031203237382e38393331203730322e3139313960c08201527214911031b630b9b99e9139ba199039ba1a911f60691b60e082015260f30190565b8c61256e565b601760f91b815260010190565b8961256e565b8761256e565b70102137b93937bbb2b2101e17ba32bc3a1f60791b815260110190565b9a995050505050505050505056fe222f3e3c74657874207472616e73666f726d3d226d61747269782831203020306469656e74556e6974733d227573657253706163654f6e557365222078313d224142434445464748494a4b4c4d4e4f505152535455565758595a6162636465666768696a6b6c6d6e6f707172737475767778797a303132333435363738392b2f6f7020206f66667365743d223122207374796c653d2273746f702d636f6c6f72a2646970667358221220cc7e45977a2a7ca205f7c6f37723c3ca3f9217140d7145b5f300b2bfe6f6798364736f6c63430008090033",
  "devdoc": {
    "kind": "dev",
    "methods": {
      "getPoolIdentifier(address)": {
        "params": {
          "ownerAddress": "The identifier of the pool*"
        }
      },
      "setPoolIdentifier(address,address)": {
        "params": {
          "ownerAddress": "The identifier of the pool*",
          "poolIdentifier": "The identifier off the pool "
        }
      },
      "tokenURI(address,uint128)": {
        "params": {
          "position": "The address of the position manager contract",
          "tokenId": "The tokenId of the position*"
        }
      }
    },
    "version": 1
  },
  "userdoc": {
    "events": {
      "SetPoolIdentifier(address,address)": {
        "notice": "Emitted after the string identifier of a pool has been set"
      }
    },
    "kind": "user",
    "methods": {
      "getPoolIdentifier(address)": {
        "notice": "Get the pool identifier corresponding to the input pool hash"
      },
      "setPoolIdentifier(address,address)": {
        "notice": "Set the pool string identifier corresponding to the input pool hash"
      },
      "tokenURI(address,uint128)": {
        "notice": "Returns the encoded svg for positions artwork"
      }
    },
    "version": 1
  },
  "storageLayout": {
    "storage": [
      {
        "astId": 16856,
        "contract": "src/PositionDescriptor.sol:PositionDescriptor",
        "label": "_poolIdentifiers",
        "offset": 0,
        "slot": "0",
        "type": "t_mapping(t_address,t_address)"
      }
    ],
    "types": {
      "t_address": {
        "encoding": "inplace",
        "label": "address",
        "numberOfBytes": "20"
      },
      "t_mapping(t_address,t_address)": {
        "encoding": "mapping",
        "key": "t_address",
        "label": "mapping(address => address)",
        "numberOfBytes": "32",
        "value": "t_address"
      }
    }
  }
}