{
  "address": "0x1fdc677fcAb246F8C7D10eABB3EA4229ee7D2378",
  "abi": [
    {
      "anonymous": false,
      "inputs": [
        {
          "indexed": true,
          "internalType": "address",
          "name": "owner",
          "type": "address"
        },
        {
          "indexed": true,
          "internalType": "address",
          "name": "spender",
          "type": "address"
        },
        {
          "indexed": false,
          "internalType": "uint256",
          "name": "value",
          "type": "uint256"
        }
      ],
      "name": "Approval",
      "type": "event"
    },
    {
      "anonymous": false,
      "inputs": [
        {
          "indexed": true,
          "internalType": "address",
          "name": "from",
          "type": "address"
        },
        {
          "indexed": true,
          "internalType": "address",
          "name": "to",
          "type": "address"
        },
        {
          "indexed": false,
          "internalType": "uint256",
          "name": "value",
          "type": "uint256"
        }
      ],
      "name": "Transfer",
      "type": "event"
    },
    {
      "inputs": [
        {
          "internalType": "address",
          "name": "owner",
          "type": "address"
        },
        {
          "internalType": "address",
          "name": "spender",
          "type": "address"
        }
      ],
      "name": "allowance",
      "outputs": [
        {
          "internalType": "uint256",
          "name": "",
          "type": "uint256"
        }
      ],
      "stateMutability": "view",
      "type": "function"
    },
    {
      "inputs": [
        {
          "internalType": "address",
          "name": "spender",
          "type": "address"
        },
        {
          "internalType": "uint256",
          "name": "amount",
          "type": "uint256"
        }
      ],
      "name": "approve",
      "outputs": [
        {
          "internalType": "bool",
          "name": "",
          "type": "bool"
        }
      ],
      "stateMutability": "nonpayable",
      "type": "function"
    },
    {
      "inputs": [
        {
          "internalType": "address",
          "name": "account",
          "type": "address"
        }
      ],
      "name": "balanceOf",
      "outputs": [
        {
          "internalType": "uint256",
          "name": "",
          "type": "uint256"
        }
      ],
      "stateMutability": "view",
      "type": "function"
    },
    {
      "inputs": [
        {
          "internalType": "uint256",
          "name": "amount",
          "type": "uint256"
        }
      ],
      "name": "burn",
      "outputs": [],
      "stateMutability": "nonpayable",
      "type": "function"
    },
    {
      "inputs": [],
      "name": "decimals",
      "outputs": [
        {
          "internalType": "uint8",
          "name": "",
          "type": "uint8"
        }
      ],
      "stateMutability": "view",
      "type": "function"
    },
    {
      "inputs": [
        {
          "internalType": "address",
          "name": "spender",
          "type": "address"
        },
        {
          "internalType": "uint256",
          "name": "subtractedValue",
          "type": "uint256"
        }
      ],
      "name": "decreaseAllowance",
      "outputs": [
        {
          "internalType": "bool",
          "name": "",
          "type": "bool"
        }
      ],
      "stateMutability": "nonpayable",
      "type": "function"
    },
    {
      "inputs": [
        {
          "internalType": "address",
          "name": "spender",
          "type": "address"
        },
        {
          "internalType": "uint256",
          "name": "addedValue",
          "type": "uint256"
        }
      ],
      "name": "increaseAllowance",
      "outputs": [
        {
          "internalType": "bool",
          "name": "",
          "type": "bool"
        }
      ],
      "stateMutability": "nonpayable",
      "type": "function"
    },
    {
      "inputs": [
        {
          "internalType": "address",
          "name": "account",
          "type": "address"
        },
        {
          "internalType": "uint256",
          "name": "amount",
          "type": "uint256"
        }
      ],
      "name": "mint",
      "outputs": [],
      "stateMutability": "nonpayable",
      "type": "function"
    },
    {
      "inputs": [],
      "name": "name",
      "outputs": [
        {
          "internalType": "string",
          "name": "",
          "type": "string"
        }
      ],
      "stateMutability": "view",
      "type": "function"
    },
    {
      "inputs": [],
      "name": "symbol",
      "outputs": [
        {
          "internalType": "string",
          "name": "",
          "type": "string"
        }
      ],
      "stateMutability": "view",
      "type": "function"
    },
    {
      "inputs": [],
      "name": "totalSupply",
      "outputs": [
        {
          "internalType": "uint256",
          "name": "",
          "type": "uint256"
        }
      ],
      "stateMutability": "view",
      "type": "function"
    },
    {
      "inputs": [
        {
          "internalType": "address",
          "name": "to",
          "type": "address"
        },
        {
          "internalType": "uint256",
          "name": "amount",
          "type": "uint256"
        }
      ],
      "name": "transfer",
      "outputs": [
        {
          "internalType": "bool",
          "name": "",
          "type": "bool"
        }
      ],
      "stateMutability": "nonpayable",
      "type": "function"
    },
    {
      "inputs": [
        {
          "internalType": "address",
          "name": "from",
          "type": "address"
        },
        {
          "internalType": "address",
          "name": "to",
          "type": "address"
        },
        {
          "internalType": "uint256",
          "name": "amount",
          "type": "uint256"
        }
      ],
      "name": "transferFrom",
      "outputs": [
        {
          "internalType": "bool",
          "name": "",
          "type": "bool"
        }
      ],
      "stateMutability": "nonpayable",
      "type": "function"
    }
  ],
  "transactionHash": "0x602dbad5cfa0825dc650d6c1c9d0afde210a98ba2461cebcd6bbb72777deaf9c",
  "args": [],
  "numDeployments": 2,
  "solcInputHash": "096043261f950c0fc713eb6537ea2194",
  "bytecode": "0x608060405234801561001057600080fd5b506040805180820182526006815265546f6b656e3160d01b602080830191825283518085019094526002845261543160f01b90840152815191929161005791600391610073565b50805161006b906004906020840190610073565b505050610146565b82805461007f9061010c565b90600052602060002090601f0160209004810192826100a157600085556100e7565b82601f106100ba57805160ff19168380011785556100e7565b828001600101855582156100e7579182015b828111156100e75782518255916020019190600101906100cc565b506100f39291506100f7565b5090565b5b808211156100f357600081556001016100f8565b600181811c9082168061012057607f821691505b60208210810361014057634e487b7160e01b600052602260045260246000fd5b50919050565b610ac7806101556000396000f3fe608060405234801561001057600080fd5b50600436106100bf5760003560e01c806340c10f191161007c57806340c10f191461014c57806342966c681461016157806370a082311461017457806395d89b411461019d578063a457c2d7146101a5578063a9059cbb146101b8578063dd62ed3e146101cb57600080fd5b806306fdde03146100c4578063095ea7b3146100e257806318160ddd1461010557806323b872dd14610117578063313ce5671461012a5780633950935114610139575b600080fd5b6100cc6101de565b6040516100d991906108ad565b60405180910390f35b6100f56100f036600461091e565b610270565b60405190151581526020016100d9565b6002545b6040519081526020016100d9565b6100f5610125366004610948565b610288565b604051601281526020016100d9565b6100f561014736600461091e565b6102ca565b61015f61015a36600461091e565b6102e7565b005b61015f61016f366004610984565b6102f5565b61010961018236600461099d565b6001600160a01b031660009081526020819052604090205490565b6100cc610302565b6100f56101b336600461091e565b610311565b6100f56101c636600461091e565b610391565b6101096101d93660046109bf565b61039f565b6060600380546101ed906109f2565b80601f0160208091040260200160405190810160405280929190818152602001828054610219906109f2565b80156102665780601f1061023b57610100808354040283529160200191610266565b820191906000526020600020905b81548152906001019060200180831161024957829003601f168201915b5050505050905090565b60003361027e8185856103ca565b5060019392505050565b600080610295853361039f565b905060001981146102b4576102b485336102af8685610a42565b6103ca565b6102bf8585856104ef565b506001949350505050565b60003361027e8185856102dd838361039f565b6102af9190610a59565b6102f182826106ac565b5050565b6102ff3382610779565b50565b6060600480546101ed906109f2565b6000338161031f828661039f565b9050838110156103845760405162461bcd60e51b815260206004820152602560248201527f45524332303a2064656372656173656420616c6c6f77616e63652062656c6f77604482015264207a65726f60d81b60648201526084015b60405180910390fd5b6102bf82868684036103ca565b60003361027e8185856104ef565b6001600160a01b03918216600090815260016020908152604080832093909416825291909152205490565b6001600160a01b03831661042c5760405162461bcd60e51b8152602060048201526024808201527f45524332303a20617070726f76652066726f6d20746865207a65726f206164646044820152637265737360e01b606482015260840161037b565b6001600160a01b03821661048d5760405162461bcd60e51b815260206004820152602260248201527f45524332303a20617070726f766520746f20746865207a65726f206164647265604482015261737360f01b606482015260840161037b565b6001600160a01b0383811660008181526001602090815260408083209487168084529482529182902085905590518481527f8c5be1e5ebec7d5bd14f71427d1e84f3dd0314c0f7b2291e5b200ac8c7c3b92591015b60405180910390a3505050565b6001600160a01b0383166105535760405162461bcd60e51b815260206004820152602560248201527f45524332303a207472616e736665722066726f6d20746865207a65726f206164604482015264647265737360d81b606482015260840161037b565b6001600160a01b0382166105b55760405162461bcd60e51b815260206004820152602360248201527f45524332303a207472616e7366657220746f20746865207a65726f206164647260448201526265737360e81b606482015260840161037b565b6001600160a01b0383166000908152602081905260409020548181101561062d5760405162461bcd60e51b815260206004820152602660248201527f45524332303a207472616e7366657220616d6f756e7420657863656564732062604482015265616c616e636560d01b606482015260840161037b565b6001600160a01b03808516600090815260208190526040808220858503905591851681529081208054849290610664908490610a59565b92505081905550826001600160a01b0316846001600160a01b0316600080516020610a728339815191528460405161069e91815260200190565b60405180910390a350505050565b6001600160a01b0382166107025760405162461bcd60e51b815260206004820152601f60248201527f45524332303a206d696e7420746f20746865207a65726f206164647265737300604482015260640161037b565b80600260008282546107149190610a59565b90915550506001600160a01b03821660009081526020819052604081208054839290610741908490610a59565b90915550506040518181526001600160a01b03831690600090600080516020610a728339815191529060200160405180910390a35050565b6001600160a01b0382166107d95760405162461bcd60e51b815260206004820152602160248201527f45524332303a206275726e2066726f6d20746865207a65726f206164647265736044820152607360f81b606482015260840161037b565b6001600160a01b0382166000908152602081905260409020548181101561084d5760405162461bcd60e51b815260206004820152602260248201527f45524332303a206275726e20616d6f756e7420657863656564732062616c616e604482015261636560f01b606482015260840161037b565b6001600160a01b038316600090815260208190526040812083830390556002805484929061087c908490610a42565b90915550506040518281526000906001600160a01b03851690600080516020610a72833981519152906020016104e2565b600060208083528351808285015260005b818110156108da578581018301518582016040015282016108be565b818111156108ec576000604083870101525b50601f01601f1916929092016040019392505050565b80356001600160a01b038116811461091957600080fd5b919050565b6000806040838503121561093157600080fd5b61093a83610902565b946020939093013593505050565b60008060006060848603121561095d57600080fd5b61096684610902565b925061097460208501610902565b9150604084013590509250925092565b60006020828403121561099657600080fd5b5035919050565b6000602082840312156109af57600080fd5b6109b882610902565b9392505050565b600080604083850312156109d257600080fd5b6109db83610902565b91506109e960208401610902565b90509250929050565b600181811c90821680610a0657607f821691505b602082108103610a2657634e487b7160e01b600052602260045260246000fd5b50919050565b634e487b7160e01b600052601160045260246000fd5b600082821015610a5457610a54610a2c565b500390565b60008219821115610a6c57610a6c610a2c565b50019056feddf252ad1be2c89b69c2b068fc378daa952ba7f163c4a11628f55a4df523b3efa2646970667358221220051100426b75d6cb401b6e863af12f96b00eb0af83bea6b4df7984ac4eadf25364736f6c634300080d0033",
  "devdoc": {
    "kind": "dev",
    "methods": {
      "allowance(address,address)": {
        "details": "See {IERC20-allowance}."
      },
      "approve(address,uint256)": {
        "details": "See {IERC20-approve}. NOTE: If `amount` is the maximum `uint256`, the allowance is not updated on `transferFrom`. This is semantically equivalent to an infinite approval. Requirements: - `spender` cannot be the zero address."
      },
      "balanceOf(address)": {
        "details": "See {IERC20-balanceOf}."
      },
      "decimals()": {
        "details": "Returns the number of decimals used to get its user representation. For example, if `decimals` equals `2`, a balance of `505` tokens should be displayed to a user as `5.05` (`505 / 10 ** 2`). Tokens usually opt for a value of 18, imitating the relationship between Ether and Wei. This is the value {ERC20} uses, unless this function is overridden; NOTE: This information is only used for _display_ purposes: it in no way affects any of the arithmetic of the contract, including {IERC20-balanceOf} and {IERC20-transfer}."
      },
      "decreaseAllowance(address,uint256)": {
        "details": "Atomically decreases the allowance granted to `spender` by the caller. This is an alternative to {approve} that can be used as a mitigation for problems described in {IERC20-approve}. Emits an {Approval} event indicating the updated allowance. Requirements: - `spender` cannot be the zero address. - `spender` must have allowance for the caller of at least `subtractedValue`."
      },
      "increaseAllowance(address,uint256)": {
        "details": "Atomically increases the allowance granted to `spender` by the caller. This is an alternative to {approve} that can be used as a mitigation for problems described in {IERC20-approve}. Emits an {Approval} event indicating the updated allowance. Requirements: - `spender` cannot be the zero address."
      },
      "name()": {
        "details": "Returns the name of the token."
      },
      "symbol()": {
        "details": "Returns the symbol of the token, usually a shorter version of the name."
      },
      "totalSupply()": {
        "details": "See {IERC20-totalSupply}."
      },
      "transfer(address,uint256)": {
        "details": "See {IERC20-transfer}. Requirements: - `to` cannot be the zero address. - the caller must have a balance of at least `amount`."
      },
      "transferFrom(address,address,uint256)": {
        "details": "See {IERC20-transferFrom}. Emits an {Approval} event indicating the updated allowance. This is not required by the EIP. See the note at the beginning of {ERC20}. NOTE: Does not update the allowance if the current allowance is the maximum `uint256`. Requirements: - `from` and `to` cannot be the zero address. - `from` must have a balance of at least `amount`. - the caller must have allowance for ``from``'s tokens of at least `amount`."
      }
    },
    "version": 1
  },
  "userdoc": {
    "kind": "user",
    "methods": {},
    "version": 1
  },
  "storageLayout": {
    "storage": [
      {
        "astId": 3357,
        "contract": "src/mock/Token1.sol:Token1",
        "label": "_balances",
        "offset": 0,
        "slot": "0",
        "type": "t_mapping(t_address,t_uint256)"
      },
      {
        "astId": 3363,
        "contract": "src/mock/Token1.sol:Token1",
        "label": "_allowances",
        "offset": 0,
        "slot": "1",
        "type": "t_mapping(t_address,t_mapping(t_address,t_uint256))"
      },
      {
        "astId": 3365,
        "contract": "src/mock/Token1.sol:Token1",
        "label": "_totalSupply",
        "offset": 0,
        "slot": "2",
        "type": "t_uint256"
      },
      {
        "astId": 3367,
        "contract": "src/mock/Token1.sol:Token1",
        "label": "_name",
        "offset": 0,
        "slot": "3",
        "type": "t_string_storage"
      },
      {
        "astId": 3369,
        "contract": "src/mock/Token1.sol:Token1",
        "label": "_symbol",
        "offset": 0,
        "slot": "4",
        "type": "t_string_storage"
      }
    ],
    "types": {
      "t_address": {
        "encoding": "inplace",
        "label": "address",
        "numberOfBytes": "20"
      },
      "t_mapping(t_address,t_mapping(t_address,t_uint256))": {
        "encoding": "mapping",
        "key": "t_address",
        "label": "mapping(address => mapping(address => uint256))",
        "numberOfBytes": "32",
        "value": "t_mapping(t_address,t_uint256)"
      },
      "t_mapping(t_address,t_uint256)": {
        "encoding": "mapping",
        "key": "t_address",
        "label": "mapping(address => uint256)",
        "numberOfBytes": "32",
        "value": "t_uint256"
      },
      "t_string_storage": {
        "encoding": "bytes",
        "label": "string",
        "numberOfBytes": "32"
      },
      "t_uint256": {
        "encoding": "inplace",
        "label": "uint256",
        "numberOfBytes": "32"
      }
    }
  }
}