{
  "address": "0x834f235f973D0f4CB8A8BeC478e135e8cf0b66E9",
  "abi": [
    {
      "name": "Transfer",
      "inputs": [
        {
          "name": "sender",
          "type": "address",
          "indexed": true
        },
        {
          "name": "receiver",
          "type": "address",
          "indexed": true
        },
        {
          "name": "value",
          "type": "uint256",
          "indexed": false
        }
      ],
      "anonymous": false,
      "type": "event"
    },
    {
      "name": "Approval",
      "inputs": [
        {
          "name": "owner",
          "type": "address",
          "indexed": true
        },
        {
          "name": "spender",
          "type": "address",
          "indexed": true
        },
        {
          "name": "value",
          "type": "uint256",
          "indexed": false
        }
      ],
      "anonymous": false,
      "type": "event"
    },
    {
      "name": "StrategyAdded",
      "inputs": [
        {
          "name": "strategy",
          "type": "address",
          "indexed": true
        },
        {
          "name": "debtRatio",
          "type": "uint256",
          "indexed": false
        },
        {
          "name": "minDebtPerHarvest",
          "type": "uint256",
          "indexed": false
        },
        {
          "name": "maxDebtPerHarvest",
          "type": "uint256",
          "indexed": false
        },
        {
          "name": "performanceFee",
          "type": "uint256",
          "indexed": false
        }
      ],
      "anonymous": false,
      "type": "event"
    },
    {
      "name": "StrategyReported",
      "inputs": [
        {
          "name": "strategy",
          "type": "address",
          "indexed": true
        },
        {
          "name": "gain",
          "type": "uint256",
          "indexed": false
        },
        {
          "name": "loss",
          "type": "uint256",
          "indexed": false
        },
        {
          "name": "debtPaid",
          "type": "uint256",
          "indexed": false
        },
        {
          "name": "totalGain",
          "type": "uint256",
          "indexed": false
        },
        {
          "name": "totalLoss",
          "type": "uint256",
          "indexed": false
        },
        {
          "name": "totalDebt",
          "type": "uint256",
          "indexed": false
        },
        {
          "name": "debtAdded",
          "type": "uint256",
          "indexed": false
        },
        {
          "name": "debtRatio",
          "type": "uint256",
          "indexed": false
        }
      ],
      "anonymous": false,
      "type": "event"
    },
    {
      "name": "UpdateGovernance",
      "inputs": [
        {
          "name": "governance",
          "type": "address",
          "indexed": false
        }
      ],
      "anonymous": false,
      "type": "event"
    },
    {
      "name": "UpdateManagement",
      "inputs": [
        {
          "name": "management",
          "type": "address",
          "indexed": false
        }
      ],
      "anonymous": false,
      "type": "event"
    },
    {
      "name": "UpdateRewards",
      "inputs": [
        {
          "name": "rewards",
          "type": "address",
          "indexed": false
        }
      ],
      "anonymous": false,
      "type": "event"
    },
    {
      "name": "UpdateDepositLimit",
      "inputs": [
        {
          "name": "depositLimit",
          "type": "uint256",
          "indexed": false
        }
      ],
      "anonymous": false,
      "type": "event"
    },
    {
      "name": "UpdatePerformanceFee",
      "inputs": [
        {
          "name": "performanceFee",
          "type": "uint256",
          "indexed": false
        }
      ],
      "anonymous": false,
      "type": "event"
    },
    {
      "name": "UpdateManagementFee",
      "inputs": [
        {
          "name": "managementFee",
          "type": "uint256",
          "indexed": false
        }
      ],
      "anonymous": false,
      "type": "event"
    },
    {
      "name": "UpdateGuardian",
      "inputs": [
        {
          "name": "guardian",
          "type": "address",
          "indexed": false
        }
      ],
      "anonymous": false,
      "type": "event"
    },
    {
      "name": "EmergencyShutdown",
      "inputs": [
        {
          "name": "active",
          "type": "bool",
          "indexed": false
        }
      ],
      "anonymous": false,
      "type": "event"
    },
    {
      "name": "UpdateWithdrawalQueue",
      "inputs": [
        {
          "name": "queue",
          "type": "address[20]",
          "indexed": false
        }
      ],
      "anonymous": false,
      "type": "event"
    },
    {
      "name": "StrategyUpdateDebtRatio",
      "inputs": [
        {
          "name": "strategy",
          "type": "address",
          "indexed": true
        },
        {
          "name": "debtRatio",
          "type": "uint256",
          "indexed": false
        }
      ],
      "anonymous": false,
      "type": "event"
    },
    {
      "name": "StrategyUpdateMinDebtPerHarvest",
      "inputs": [
        {
          "name": "strategy",
          "type": "address",
          "indexed": true
        },
        {
          "name": "minDebtPerHarvest",
          "type": "uint256",
          "indexed": false
        }
      ],
      "anonymous": false,
      "type": "event"
    },
    {
      "name": "StrategyUpdateMaxDebtPerHarvest",
      "inputs": [
        {
          "name": "strategy",
          "type": "address",
          "indexed": true
        },
        {
          "name": "maxDebtPerHarvest",
          "type": "uint256",
          "indexed": false
        }
      ],
      "anonymous": false,
      "type": "event"
    },
    {
      "name": "StrategyUpdatePerformanceFee",
      "inputs": [
        {
          "name": "strategy",
          "type": "address",
          "indexed": true
        },
        {
          "name": "performanceFee",
          "type": "uint256",
          "indexed": false
        }
      ],
      "anonymous": false,
      "type": "event"
    },
    {
      "name": "StrategyMigrated",
      "inputs": [
        {
          "name": "oldVersion",
          "type": "address",
          "indexed": true
        },
        {
          "name": "newVersion",
          "type": "address",
          "indexed": true
        }
      ],
      "anonymous": false,
      "type": "event"
    },
    {
      "name": "StrategyRevoked",
      "inputs": [
        {
          "name": "strategy",
          "type": "address",
          "indexed": true
        }
      ],
      "anonymous": false,
      "type": "event"
    },
    {
      "name": "StrategyRemovedFromQueue",
      "inputs": [
        {
          "name": "strategy",
          "type": "address",
          "indexed": true
        }
      ],
      "anonymous": false,
      "type": "event"
    },
    {
      "name": "StrategyAddedToQueue",
      "inputs": [
        {
          "name": "strategy",
          "type": "address",
          "indexed": true
        }
      ],
      "anonymous": false,
      "type": "event"
    },
    {
      "stateMutability": "nonpayable",
      "type": "constructor",
      "inputs": [
        {
          "name": "token",
          "type": "address"
        },
        {
          "name": "governance",
          "type": "address"
        },
        {
          "name": "rewards",
          "type": "address"
        },
        {
          "name": "nameOverride",
          "type": "string"
        },
        {
          "name": "symbolOverride",
          "type": "string"
        },
        {
          "name": "guardian",
          "type": "address"
        },
        {
          "name": "management",
          "type": "address"
        }
      ],
      "outputs": []
    },
    {
      "stateMutability": "pure",
      "type": "function",
      "name": "apiVersion",
      "inputs": [],
      "outputs": [
        {
          "name": "",
          "type": "string"
        }
      ]
    },
    {
      "stateMutability": "nonpayable",
      "type": "function",
      "name": "setName",
      "inputs": [
        {
          "name": "name",
          "type": "string"
        }
      ],
      "outputs": []
    },
    {
      "stateMutability": "nonpayable",
      "type": "function",
      "name": "setSymbol",
      "inputs": [
        {
          "name": "symbol",
          "type": "string"
        }
      ],
      "outputs": []
    },
    {
      "stateMutability": "nonpayable",
      "type": "function",
      "name": "setGovernance",
      "inputs": [
        {
          "name": "governance",
          "type": "address"
        }
      ],
      "outputs": []
    },
    {
      "stateMutability": "nonpayable",
      "type": "function",
      "name": "acceptGovernance",
      "inputs": [],
      "outputs": []
    },
    {
      "stateMutability": "nonpayable",
      "type": "function",
      "name": "setManagement",
      "inputs": [
        {
          "name": "management",
          "type": "address"
        }
      ],
      "outputs": []
    },
    {
      "stateMutability": "nonpayable",
      "type": "function",
      "name": "setRewards",
      "inputs": [
        {
          "name": "rewards",
          "type": "address"
        }
      ],
      "outputs": []
    },
    {
      "stateMutability": "nonpayable",
      "type": "function",
      "name": "setLockedProfitDegradation",
      "inputs": [
        {
          "name": "degradation",
          "type": "uint256"
        }
      ],
      "outputs": []
    },
    {
      "stateMutability": "nonpayable",
      "type": "function",
      "name": "setDepositLimit",
      "inputs": [
        {
          "name": "limit",
          "type": "uint256"
        }
      ],
      "outputs": []
    },
    {
      "stateMutability": "nonpayable",
      "type": "function",
      "name": "setPerformanceFee",
      "inputs": [
        {
          "name": "fee",
          "type": "uint256"
        }
      ],
      "outputs": []
    },
    {
      "stateMutability": "nonpayable",
      "type": "function",
      "name": "setManagementFee",
      "inputs": [
        {
          "name": "fee",
          "type": "uint256"
        }
      ],
      "outputs": []
    },
    {
      "stateMutability": "nonpayable",
      "type": "function",
      "name": "setGuardian",
      "inputs": [
        {
          "name": "guardian",
          "type": "address"
        }
      ],
      "outputs": []
    },
    {
      "stateMutability": "nonpayable",
      "type": "function",
      "name": "setEmergencyShutdown",
      "inputs": [
        {
          "name": "active",
          "type": "bool"
        }
      ],
      "outputs": []
    },
    {
      "stateMutability": "nonpayable",
      "type": "function",
      "name": "setWithdrawalQueue",
      "inputs": [
        {
          "name": "queue",
          "type": "address[20]"
        }
      ],
      "outputs": []
    },
    {
      "stateMutability": "nonpayable",
      "type": "function",
      "name": "transfer",
      "inputs": [
        {
          "name": "receiver",
          "type": "address"
        },
        {
          "name": "amount",
          "type": "uint256"
        }
      ],
      "outputs": [
        {
          "name": "",
          "type": "bool"
        }
      ]
    },
    {
      "stateMutability": "nonpayable",
      "type": "function",
      "name": "transferFrom",
      "inputs": [
        {
          "name": "sender",
          "type": "address"
        },
        {
          "name": "receiver",
          "type": "address"
        },
        {
          "name": "amount",
          "type": "uint256"
        }
      ],
      "outputs": [
        {
          "name": "",
          "type": "bool"
        }
      ]
    },
    {
      "stateMutability": "nonpayable",
      "type": "function",
      "name": "approve",
      "inputs": [
        {
          "name": "spender",
          "type": "address"
        },
        {
          "name": "amount",
          "type": "uint256"
        }
      ],
      "outputs": [
        {
          "name": "",
          "type": "bool"
        }
      ]
    },
    {
      "stateMutability": "nonpayable",
      "type": "function",
      "name": "increaseAllowance",
      "inputs": [
        {
          "name": "spender",
          "type": "address"
        },
        {
          "name": "amount",
          "type": "uint256"
        }
      ],
      "outputs": [
        {
          "name": "",
          "type": "bool"
        }
      ]
    },
    {
      "stateMutability": "nonpayable",
      "type": "function",
      "name": "decreaseAllowance",
      "inputs": [
        {
          "name": "spender",
          "type": "address"
        },
        {
          "name": "amount",
          "type": "uint256"
        }
      ],
      "outputs": [
        {
          "name": "",
          "type": "bool"
        }
      ]
    },
    {
      "stateMutability": "nonpayable",
      "type": "function",
      "name": "permit",
      "inputs": [
        {
          "name": "owner",
          "type": "address"
        },
        {
          "name": "spender",
          "type": "address"
        },
        {
          "name": "amount",
          "type": "uint256"
        },
        {
          "name": "expiry",
          "type": "uint256"
        },
        {
          "name": "signature",
          "type": "bytes"
        }
      ],
      "outputs": [
        {
          "name": "",
          "type": "bool"
        }
      ]
    },
    {
      "stateMutability": "view",
      "type": "function",
      "name": "totalAssets",
      "inputs": [],
      "outputs": [
        {
          "name": "",
          "type": "uint256"
        }
      ]
    },
    {
      "stateMutability": "nonpayable",
      "type": "function",
      "name": "deposit",
      "inputs": [],
      "outputs": [
        {
          "name": "",
          "type": "uint256"
        }
      ]
    },
    {
      "stateMutability": "nonpayable",
      "type": "function",
      "name": "deposit",
      "inputs": [
        {
          "name": "_amount",
          "type": "uint256"
        }
      ],
      "outputs": [
        {
          "name": "",
          "type": "uint256"
        }
      ]
    },
    {
      "stateMutability": "nonpayable",
      "type": "function",
      "name": "deposit",
      "inputs": [
        {
          "name": "_amount",
          "type": "uint256"
        },
        {
          "name": "recipient",
          "type": "address"
        }
      ],
      "outputs": [
        {
          "name": "",
          "type": "uint256"
        }
      ]
    },
    {
      "stateMutability": "view",
      "type": "function",
      "name": "maxAvailableShares",
      "inputs": [],
      "outputs": [
        {
          "name": "",
          "type": "uint256"
        }
      ]
    },
    {
      "stateMutability": "nonpayable",
      "type": "function",
      "name": "withdraw",
      "inputs": [],
      "outputs": [
        {
          "name": "",
          "type": "uint256"
        }
      ]
    },
    {
      "stateMutability": "nonpayable",
      "type": "function",
      "name": "withdraw",
      "inputs": [
        {
          "name": "maxShares",
          "type": "uint256"
        }
      ],
      "outputs": [
        {
          "name": "",
          "type": "uint256"
        }
      ]
    },
    {
      "stateMutability": "nonpayable",
      "type": "function",
      "name": "withdraw",
      "inputs": [
        {
          "name": "maxShares",
          "type": "uint256"
        },
        {
          "name": "recipient",
          "type": "address"
        }
      ],
      "outputs": [
        {
          "name": "",
          "type": "uint256"
        }
      ]
    },
    {
      "stateMutability": "nonpayable",
      "type": "function",
      "name": "withdraw",
      "inputs": [
        {
          "name": "maxShares",
          "type": "uint256"
        },
        {
          "name": "recipient",
          "type": "address"
        },
        {
          "name": "maxLoss",
          "type": "uint256"
        }
      ],
      "outputs": [
        {
          "name": "",
          "type": "uint256"
        }
      ]
    },
    {
      "stateMutability": "view",
      "type": "function",
      "name": "pricePerShare",
      "inputs": [],
      "outputs": [
        {
          "name": "",
          "type": "uint256"
        }
      ]
    },
    {
      "stateMutability": "nonpayable",
      "type": "function",
      "name": "addStrategy",
      "inputs": [
        {
          "name": "strategy",
          "type": "address"
        },
        {
          "name": "debtRatio",
          "type": "uint256"
        },
        {
          "name": "minDebtPerHarvest",
          "type": "uint256"
        },
        {
          "name": "maxDebtPerHarvest",
          "type": "uint256"
        },
        {
          "name": "performanceFee",
          "type": "uint256"
        }
      ],
      "outputs": []
    },
    {
      "stateMutability": "nonpayable",
      "type": "function",
      "name": "updateStrategyDebtRatio",
      "inputs": [
        {
          "name": "strategy",
          "type": "address"
        },
        {
          "name": "debtRatio",
          "type": "uint256"
        }
      ],
      "outputs": []
    },
    {
      "stateMutability": "nonpayable",
      "type": "function",
      "name": "updateStrategyMinDebtPerHarvest",
      "inputs": [
        {
          "name": "strategy",
          "type": "address"
        },
        {
          "name": "minDebtPerHarvest",
          "type": "uint256"
        }
      ],
      "outputs": []
    },
    {
      "stateMutability": "nonpayable",
      "type": "function",
      "name": "updateStrategyMaxDebtPerHarvest",
      "inputs": [
        {
          "name": "strategy",
          "type": "address"
        },
        {
          "name": "maxDebtPerHarvest",
          "type": "uint256"
        }
      ],
      "outputs": []
    },
    {
      "stateMutability": "nonpayable",
      "type": "function",
      "name": "updateStrategyPerformanceFee",
      "inputs": [
        {
          "name": "strategy",
          "type": "address"
        },
        {
          "name": "performanceFee",
          "type": "uint256"
        }
      ],
      "outputs": []
    },
    {
      "stateMutability": "nonpayable",
      "type": "function",
      "name": "migrateStrategy",
      "inputs": [
        {
          "name": "oldVersion",
          "type": "address"
        },
        {
          "name": "newVersion",
          "type": "address"
        }
      ],
      "outputs": []
    },
    {
      "stateMutability": "nonpayable",
      "type": "function",
      "name": "revokeStrategy",
      "inputs": [],
      "outputs": []
    },
    {
      "stateMutability": "nonpayable",
      "type": "function",
      "name": "revokeStrategy",
      "inputs": [
        {
          "name": "strategy",
          "type": "address"
        }
      ],
      "outputs": []
    },
    {
      "stateMutability": "nonpayable",
      "type": "function",
      "name": "addStrategyToQueue",
      "inputs": [
        {
          "name": "strategy",
          "type": "address"
        }
      ],
      "outputs": []
    },
    {
      "stateMutability": "nonpayable",
      "type": "function",
      "name": "removeStrategyFromQueue",
      "inputs": [
        {
          "name": "strategy",
          "type": "address"
        }
      ],
      "outputs": []
    },
    {
      "stateMutability": "view",
      "type": "function",
      "name": "debtOutstanding",
      "inputs": [],
      "outputs": [
        {
          "name": "",
          "type": "uint256"
        }
      ]
    },
    {
      "stateMutability": "view",
      "type": "function",
      "name": "debtOutstanding",
      "inputs": [
        {
          "name": "strategy",
          "type": "address"
        }
      ],
      "outputs": [
        {
          "name": "",
          "type": "uint256"
        }
      ]
    },
    {
      "stateMutability": "view",
      "type": "function",
      "name": "creditAvailable",
      "inputs": [],
      "outputs": [
        {
          "name": "",
          "type": "uint256"
        }
      ]
    },
    {
      "stateMutability": "view",
      "type": "function",
      "name": "creditAvailable",
      "inputs": [
        {
          "name": "strategy",
          "type": "address"
        }
      ],
      "outputs": [
        {
          "name": "",
          "type": "uint256"
        }
      ]
    },
    {
      "stateMutability": "view",
      "type": "function",
      "name": "availableDepositLimit",
      "inputs": [],
      "outputs": [
        {
          "name": "",
          "type": "uint256"
        }
      ]
    },
    {
      "stateMutability": "view",
      "type": "function",
      "name": "expectedReturn",
      "inputs": [],
      "outputs": [
        {
          "name": "",
          "type": "uint256"
        }
      ]
    },
    {
      "stateMutability": "view",
      "type": "function",
      "name": "expectedReturn",
      "inputs": [
        {
          "name": "strategy",
          "type": "address"
        }
      ],
      "outputs": [
        {
          "name": "",
          "type": "uint256"
        }
      ]
    },
    {
      "stateMutability": "nonpayable",
      "type": "function",
      "name": "report",
      "inputs": [
        {
          "name": "gain",
          "type": "uint256"
        },
        {
          "name": "loss",
          "type": "uint256"
        },
        {
          "name": "_debtPayment",
          "type": "uint256"
        }
      ],
      "outputs": [
        {
          "name": "",
          "type": "uint256"
        }
      ]
    },
    {
      "stateMutability": "nonpayable",
      "type": "function",
      "name": "sweep",
      "inputs": [
        {
          "name": "token",
          "type": "address"
        }
      ],
      "outputs": []
    },
    {
      "stateMutability": "nonpayable",
      "type": "function",
      "name": "sweep",
      "inputs": [
        {
          "name": "token",
          "type": "address"
        },
        {
          "name": "amount",
          "type": "uint256"
        }
      ],
      "outputs": []
    },
    {
      "stateMutability": "view",
      "type": "function",
      "name": "name",
      "inputs": [],
      "outputs": [
        {
          "name": "",
          "type": "string"
        }
      ]
    },
    {
      "stateMutability": "view",
      "type": "function",
      "name": "symbol",
      "inputs": [],
      "outputs": [
        {
          "name": "",
          "type": "string"
        }
      ]
    },
    {
      "stateMutability": "view",
      "type": "function",
      "name": "decimals",
      "inputs": [],
      "outputs": [
        {
          "name": "",
          "type": "uint256"
        }
      ]
    },
    {
      "stateMutability": "view",
      "type": "function",
      "name": "balanceOf",
      "inputs": [
        {
          "name": "arg0",
          "type": "address"
        }
      ],
      "outputs": [
        {
          "name": "",
          "type": "uint256"
        }
      ]
    },
    {
      "stateMutability": "view",
      "type": "function",
      "name": "allowance",
      "inputs": [
        {
          "name": "arg0",
          "type": "address"
        },
        {
          "name": "arg1",
          "type": "address"
        }
      ],
      "outputs": [
        {
          "name": "",
          "type": "uint256"
        }
      ]
    },
    {
      "stateMutability": "view",
      "type": "function",
      "name": "totalSupply",
      "inputs": [],
      "outputs": [
        {
          "name": "",
          "type": "uint256"
        }
      ]
    },
    {
      "stateMutability": "view",
      "type": "function",
      "name": "token",
      "inputs": [],
      "outputs": [
        {
          "name": "",
          "type": "address"
        }
      ]
    },
    {
      "stateMutability": "view",
      "type": "function",
      "name": "governance",
      "inputs": [],
      "outputs": [
        {
          "name": "",
          "type": "address"
        }
      ]
    },
    {
      "stateMutability": "view",
      "type": "function",
      "name": "management",
      "inputs": [],
      "outputs": [
        {
          "name": "",
          "type": "address"
        }
      ]
    },
    {
      "stateMutability": "view",
      "type": "function",
      "name": "guardian",
      "inputs": [],
      "outputs": [
        {
          "name": "",
          "type": "address"
        }
      ]
    },
    {
      "stateMutability": "view",
      "type": "function",
      "name": "strategies",
      "inputs": [
        {
          "name": "arg0",
          "type": "address"
        }
      ],
      "outputs": [
        {
          "name": "",
          "type": "tuple",
          "components": [
            {
              "name": "performanceFee",
              "type": "uint256"
            },
            {
              "name": "activation",
              "type": "uint256"
            },
            {
              "name": "debtRatio",
              "type": "uint256"
            },
            {
              "name": "minDebtPerHarvest",
              "type": "uint256"
            },
            {
              "name": "maxDebtPerHarvest",
              "type": "uint256"
            },
            {
              "name": "lastReport",
              "type": "uint256"
            },
            {
              "name": "totalDebt",
              "type": "uint256"
            },
            {
              "name": "totalGain",
              "type": "uint256"
            },
            {
              "name": "totalLoss",
              "type": "uint256"
            }
          ]
        }
      ]
    },
    {
      "stateMutability": "view",
      "type": "function",
      "name": "withdrawalQueue",
      "inputs": [
        {
          "name": "arg0",
          "type": "uint256"
        }
      ],
      "outputs": [
        {
          "name": "",
          "type": "address"
        }
      ]
    },
    {
      "stateMutability": "view",
      "type": "function",
      "name": "emergencyShutdown",
      "inputs": [],
      "outputs": [
        {
          "name": "",
          "type": "bool"
        }
      ]
    },
    {
      "stateMutability": "view",
      "type": "function",
      "name": "depositLimit",
      "inputs": [],
      "outputs": [
        {
          "name": "",
          "type": "uint256"
        }
      ]
    },
    {
      "stateMutability": "view",
      "type": "function",
      "name": "debtRatio",
      "inputs": [],
      "outputs": [
        {
          "name": "",
          "type": "uint256"
        }
      ]
    },
    {
      "stateMutability": "view",
      "type": "function",
      "name": "totalDebt",
      "inputs": [],
      "outputs": [
        {
          "name": "",
          "type": "uint256"
        }
      ]
    },
    {
      "stateMutability": "view",
      "type": "function",
      "name": "lastReport",
      "inputs": [],
      "outputs": [
        {
          "name": "",
          "type": "uint256"
        }
      ]
    },
    {
      "stateMutability": "view",
      "type": "function",
      "name": "activation",
      "inputs": [],
      "outputs": [
        {
          "name": "",
          "type": "uint256"
        }
      ]
    },
    {
      "stateMutability": "view",
      "type": "function",
      "name": "lockedProfit",
      "inputs": [],
      "outputs": [
        {
          "name": "",
          "type": "uint256"
        }
      ]
    },
    {
      "stateMutability": "view",
      "type": "function",
      "name": "lockedProfitDegradation",
      "inputs": [],
      "outputs": [
        {
          "name": "",
          "type": "uint256"
        }
      ]
    },
    {
      "stateMutability": "view",
      "type": "function",
      "name": "rewards",
      "inputs": [],
      "outputs": [
        {
          "name": "",
          "type": "address"
        }
      ]
    },
    {
      "stateMutability": "view",
      "type": "function",
      "name": "managementFee",
      "inputs": [],
      "outputs": [
        {
          "name": "",
          "type": "uint256"
        }
      ]
    },
    {
      "stateMutability": "view",
      "type": "function",
      "name": "performanceFee",
      "inputs": [],
      "outputs": [
        {
          "name": "",
          "type": "uint256"
        }
      ]
    },
    {
      "stateMutability": "view",
      "type": "function",
      "name": "nonces",
      "inputs": [
        {
          "name": "arg0",
          "type": "address"
        }
      ],
      "outputs": [
        {
          "name": "",
          "type": "uint256"
        }
      ]
    },
    {
      "stateMutability": "view",
      "type": "function",
      "name": "DOMAIN_SEPARATOR",
      "inputs": [],
      "outputs": [
        {
          "name": "",
          "type": "bytes32"
        }
      ]
    }
  ],
  "transactionHash": "0xfe88b2db3fcd9679761176b69decbef36b625342f6667beb9be228f07c001d86",
  "args": [
    "0x1714B9AF0BF10F9EdE7aEE00584B2B731437EdFA",
    "0xfd94B585517d532BC4B80E35bC26383E7834f8b9",
    "0xfd94B585517d532BC4B80E35bC26383E7834f8b9",
    "Test Vault",
    "TV",
    "0xfd94B585517d532BC4B80E35bC26383E7834f8b9",
    "0xfd94B585517d532BC4B80E35bC26383E7834f8b9"
  ],
  "numDeployments": 1,
  "bytecode": "0x6020613e7f6000396000518060a01c613e7a576040526020613e9f6000396000518060a01c613e7a576060526020613ebf6000396000518060a01c613e7a576080526020613edf6000396000516040602082613e7f0160003960005111613e7a57602081613e7f016000396000518060a052602082018181613e7f0160c0395050506020613eff6000396000516020602082613e7f0160003960005111613e7a57602081613e7f01600039600051806101005260208201602081613e7f01600039600051610120525050506020613f1f6000396000518060a01c613e7a57610140526020613f3f6000396000518060a01c613e7a576101605234613e7a57602954613e7a57604051600a5560006101a0526101a080516020820120905060a05160c020186102025760006040516395d89b416101c05260606101c060046101dc845afa610151573d600060003e3d6000fd5b60403d10613e7a576101c0516101c0016014815111613e7a5780518061024052602082018051610260525050506102409050805160208201836102e001815181525050808301925050506007610280527f20795661756c74000000000000000000000000000000000000000000000000006102a052610280805160208201836102e00181518152505080830192505050806102c0526102c0905080518060015560208201805160025550505061023e565b60a05180600155600081601f0160051c60028111613e7a57801561023a57905b8060051b60c001518160020155600101818118610222575b5050505b60006101a0526101a080516020820120905061010051610120201861033857600060026101c0527f79760000000000000000000000000000000000000000000000000000000000006101e0526101c0805160208201836102e001815181525050808301925050506040516395d89b41610200526060610200600461021c845afa6102cd573d600060003e3d6000fd5b60403d10613e7a5761020051610200016014815111613e7a57805180610280526020820180516102a0525050506102809050805160208201836102e00181518152505080830192505050806102c0526102c09050805180600455602082018051600555505050610349565b610100518060045561012051600555505b60405163313ce5676101a05260206101a060046101bc845afa610371573d600060003e3d6000fd5b60203d10613e7a576101a0905051610180526101805160065560ff6101805111613e7a57606051600b557f8d55d160c0009eb3d739442df0a3ca089ed64378bfac017e7ddad463f9815b876060516101a05260206101a0a161016051600c557fff54978127edd34aec0f9061fb3b155fbe0ededdfa881ee3e0d541d3a1eef438610160516101a05260206101a0a1608051602c557fdf3c41a916aecbf42361a147f8348c242662c3ce20ecef30e826b80642477a3d6080516101a05260206101a0a161014051600d557f837b9ad138a0a1839a9637afce5306a5c13e23eb63365686843a5319a243609c610140516101a05260206101a0a16103e8602e557f0810a1c261ca2c0cd86a0152c51c43ba9dc329639d2349f98140891b2ea798eb6103e86101a05260206101a0a160c8602d557f7a7883b0074f96e2c7fab65eb25abf624c488761a5db889e3bb84855dcc6daaf60c86101a05260206101a0a142602855426029556529d635a8e000602b5560007f8b73c3c69bb8fe3d512ecc4cf759cc79239f7b179b0ffacaa9a75d522b39400f816102400152602081019050600b6101a0527f596561726e205661756c740000000000000000000000000000000000000000006101c0526101a080516020820120905081610240015260208101905060056101e0527f302e342e33000000000000000000000000000000000000000000000000000000610200526101e08051602082012090508161024001526020810190504681610240015260208101905030816102400152602081019050806102205261022090508051602082012090506030556138a16105d8610000396138a1610000f36003361161000c57612ad5565b60003560e01c3461388f576325829410811861009f576004361861388f5760208060805260056040527f302e342e3300000000000000000000000000000000000000000000000000000060605260408160800181518082526020830160208301815181525050508051806020830101601f82600003163682375050601f19601f8251602001011690509050810190506080f35b63c47f00278118610119576044361061388f57600435600401602a81351161388f57803580604052602082018181606037505050600b54331861388f5760405180600155600081601f0160051c6002811161388f57801561011457905b8060051b6060015181600201556001018181186100fc575b505050005b63b84c82468118610166576044361061388f57600435600401601481351161388f57803580604052602082018035606052505050600b54331861388f576040518060045560605160055550005b63ab033ea98118610198576024361861388f576004358060a01c61388f57604052600b54331861388f57604051600e55005b63238efcbc81186101e4576004361861388f57600e54331861388f5733600b557f8d55d160c0009eb3d739442df0a3ca089ed64378bfac017e7ddad463f9815b873360405260206040a1005b63d4a22bde8118610242576024361861388f576004358060a01c61388f57604052600b54331861388f57604051600c557fff54978127edd34aec0f9061fb3b155fbe0ededdfa881ee3e0d541d3a1eef43860405160605260206060a1005b63ec38a86281186102ba576024361861388f576004358060a01c61388f57604052600b54331861388f5760405130811861027d576001610280565b80155b905061388f57604051602c557fdf3c41a916aecbf42361a147f8348c242662c3ce20ecef30e826b80642477a3d60405160605260206060a1005b637a55036581186102ef576024361861388f57600b54331861388f57670de0b6b3a76400006004351161388f57600435602b55005b63bdc8144b811861033f576024361861388f57600b54331861388f576004356025557fae565aab888bca5e19e25a13db7b0c9144305bf55cb0f3f4d724f730e5acdd6260043560405260206040a1005b6370897b23811861039a576024361861388f57600b54331861388f576113886004351161388f57600435602e557f0810a1c261ca2c0cd86a0152c51c43ba9dc329639d2349f98140891b2ea798eb60043560405260206040a1005b63fe56e23281186103f5576024361861388f57600b54331861388f576127106004351161388f57600435602d557f7a7883b0074f96e2c7fab65eb25abf624c488761a5db889e3bb84855dcc6daaf60043560405260206040a1005b638a0dac4a8118610469576024361861388f576004358060a01c61388f5760405233600d54811861042757600161042e565b600b548118155b90501561388f57604051600d557f837b9ad138a0a1839a9637afce5306a5c13e23eb63365686843a5319a243609c60405160605260206060a1005b6314c6440281186104f3576024361861388f576004358060011c61388f5760405260405161049f57600b54331861388f576104bf565b33600d5481186104b05760016104b7565b600b548118155b90501561388f575b6040516024557fba40372a3a724dca3c57156128ef1e896724b65b37a17f190b1ad5de68f3a4f360405160605260206060a1005b639414841581186108b657610284361861388f576004358060a01c61388f576040526024358060a01c61388f576060526044358060a01c61388f576080526064358060a01c61388f5760a0526084358060a01c61388f5760c05260a4358060a01c61388f5760e05260c4358060a01c61388f576101005260e4358060a01c61388f5761012052610104358060a01c61388f5761014052610124358060a01c61388f5761016052610144358060a01c61388f5761018052610164358060a01c61388f576101a052610184358060a01c61388f576101c0526101a4358060a01c61388f576101e0526101c4358060a01c61388f57610200526101e4358060a01c61388f5761022052610204358060a01c61388f5761024052610224358060a01c61388f5761026052610244358060a01c61388f5761028052610264358060a01c61388f576102a05233600c54811861064a576001610651565b600b548118155b90501561388f57610280366102c03760006014905b8061054052610540516013811161388f5760100154610540516013811161388f5760051b6102c00152610540516013811161388f5760051b604001516106c357610540516013811161388f5760051b6102c0015161388f576107f0565b610540516013811161388f5760051b6102c001511561388f57600f610540516013811161388f5760051b604001516020526000526040600020600181019050541561388f5760006105605260006014905b8061058052610580516013811161388f5760051b6040015161073b576001610560526107b7565b610580516013811161388f5760051b6102c00151610540516013811161388f5760051b604001511861076e576001610560525b610540516105805111610780576107ac565b610580516013811161388f5760051b60400151610540516013811161388f5760051b604001511461388f575b600101818118610714575b5050610560511561388f57610540516013811161388f5760051b60400151610540516013811161388f5760100155600101818118610666575b50507f695ac3ac73f08f2002284ffe563cefe798ee2878a5e04219522e2e99eb89d16860405161054052606051610560526080516105805260a0516105a05260c0516105c05260e0516105e052610100516106005261012051610620526101405161064052610160516106605261018051610680526101a0516106a0526101c0516106c0526101e0516106e052610200516107005261022051610720526102405161074052610260516107605261028051610780526102a0516107a052610280610540a1005b63a9059cbb81186108fa576044361861388f576004358060a01c61388f5760c0523360405260c0516060526024356080526108ef612d4c565b600160e052602060e0f35b6323b872dd8118610a23576064361861388f576004358060a01c61388f5760c0526024358060a01c61388f5760e0527fffffffffffffffffffffffffffffffffffffffffffffffffffffffffffffffff600860c051602052600052604060002080336020526000526040600020905054146109fc57600860c05160205260005260406000208033602052600052604060002090505460443580820382811161388f57905090506101005261010051600860c0516020526000526040600020803360205260005260406000209050553360c0517f8c5be1e5ebec7d5bd14f71427d1e84f3dd0314c0f7b2291e5b200ac8c7c3b92561010051610120526020610120a35b60c05160405260e051606052604435608052610a16612d4c565b6001610100526020610100f35b63095ea7b38118610aa2576044361861388f576004358060a01c61388f576040526024356008336020526000526040600020806040516020526000526040600020905055604051337f8c5be1e5ebec7d5bd14f71427d1e84f3dd0314c0f7b2291e5b200ac8c7c3b92560243560605260206060a3600160605260206060f35b63395093518118610b50576044361861388f576004358060a01c61388f5760405260083360205260005260406000208060405160205260005260406000209050805460243580820182811061388f5790509050815550604051337f8c5be1e5ebec7d5bd14f71427d1e84f3dd0314c0f7b2291e5b200ac8c7c3b925600833602052600052604060002080604051602052600052604060002090505460605260206060a3600160605260206060f35b63a457c2d78118610bfe576044361861388f576004358060a01c61388f5760405260083360205260005260406000208060405160205260005260406000209050805460243580820382811161388f5790509050815550604051337f8c5be1e5ebec7d5bd14f71427d1e84f3dd0314c0f7b2291e5b200ac8c7c3b925600833602052600052604060002080604051602052600052604060002090505460605260206060a3600160605260206060f35b639fd5a6cf8118610ed85760c4361061388f576004358060a01c61388f576040526024358060a01c61388f57606052608435600401604181351161388f5780358060805260208201818160a0375050506040511561388f57606435610c64576001610c6b565b4260643510155b1561388f57602f6040516020526000526040600020546101005260006002610140527f19010000000000000000000000000000000000000000000000000000000000006101605261014080516020820183610280018151815250508083019250505060305481610280015260208101905060007f6e71edae12b1b97f4d1f60370fef10105fa2faae0126114a169c64845d6126c9816101a00152602081019050604051816101a00152602081019050606051816101a00152602081019050604435816101a0015260208101905061010051816101a00152602081019050606435816101a0015260208101905080610180526101809050805160208201209050816102800152602081019050806102605261026090508051602082012090506101205260805160201161388f5760a051610180526020610160526101606020810151815160200360031b1c90506101405260805160401161388f5760c0516101a0526020610180526101806020810151815160200360031b1c90506101605260805160411161388f5760e0516101c05260016101a0526101a06020810151815160200360031b1c905061018052604051610120516101a052610180516101c052610140516101e05261016051610200526020600060806101a060015afa506000511861388f5760443560086040516020526000526040600020806060516020526000526040600020905055610100516001810181811061388f579050602f6040516020526000526040600020556060516040517f8c5be1e5ebec7d5bd14f71427d1e84f3dd0314c0f7b2291e5b200ac8c7c3b9256044356101a05260206101a0a360016101a05260206101a0f35b6301e1d1148118610efb576004361861388f576020610ef76080612de8565b6080f35b63d0e30db08118610f3d576004361861388f577fffffffffffffffffffffffffffffffffffffffffffffffffffffffffffffffff610220523361024052610f8b565b63b6b55f258118610f61576024361861388f57600435610220523361024052610f8b565b636e553f6581186110bd576044361861388f57600435610220526024358060a01c61388f57610240525b60005460021461388f57600260005560245461388f5761024051308114610fb457801515610fb7565b60005b90501561388f576102205161026052610260511961104057602554610fdd610280612de8565b6102805180820382811161388f5790509050600a546370a082316102a052336102c05260206102a060246102bc845afa61101c573d600060003e3d6000fd5b60203d1061388f576102a0905051808281188284100218905090506102605261106a565b60255461104e610280612de8565b610280516102605180820182811061388f57905090501161388f575b610260511561388f576102405160c0526102605160e05261108c6102a0612ef1565b6102a05161028052600a5460405233606052306080526102605160a0526110b1612c09565b60206102806003600055f35b6375de29028118611191576004361861388f57600a546370a082316101405230610160526020610140602461015c845afa6110fd573d600060003e3d6000fd5b60203d1061388f5761014090505160c052611119610180613021565b610180516101205260006014905b8060100154610140526101405161113d57611188565b61012051600f6101405160205260005260406000206006810190505460c052611167610160613021565b6101605180820182811061388f579050905061012052600101818118611127575b50506020610120f35b633ccfd60b81186111d9576004361861388f577fffffffffffffffffffffffffffffffffffffffffffffffffffffffffffffffff6101e0523361020052600161022052611267565b632e1a7d4d8118611203576024361861388f576004356101e0523361020052600161022052611267565b62f714ce8118611236576044361861388f576004356101e0526024358060a01c61388f5761020052600161022052611267565b63e63697c88118611683576064361861388f576004356101e0526024358060a01c61388f5761020052604435610220525b60005460021461388f5760026000556101e05161024052612710610220511161388f5761024051196112a757600733602052600052604060002054610240525b600733602052600052604060002054610240511161388f57610240511561388f576102405160c0526112da610280612fd5565b6102805161026052600a546370a0823161028052306102a0526020610280602461029c845afa61130f573d600060003e3d6000fd5b60203d1061388f576102809050516102605111156115ec5760006102c05260006014905b80601001546102e0526102e05161134957611529565b600a546370a082316103205230610340526020610320602461033c845afa611376573d600060003e3d6000fd5b60203d1061388f576103209050516103005261030051610260511161139a57611529565b610260516103005180820382811161388f57905090506103205261032051600f6102e0516020526000526040600020600681019050548082811882841002189050905061032052610320516113ee5761151e565b6102e051632e1a7d4d6103605261032051610380526020610360602461037c6000855af1611421573d600060003e3d6000fd5b60203d1061388f5761036090505161034052600a546370a0823161038052306103a0526020610380602461039c845afa611460573d600060003e3d6000fd5b60203d1061388f576103809050516103005180820382811161388f57905090506103605261034051156114d757610260516103405180820382811161388f5790509050610260526102c0516103405180820182811061388f57905090506102c0526102e051604052610340516060526114d7613079565b600f6102e051602052600052604060002060068101905080546103605180820382811161388f57905090508155506027546103605180820382811161388f57905090506027555b600101818118611333575b5050600a546370a082316103005230610320526020610300602461031c845afa611558573d600060003e3d6000fd5b60203d1061388f576103009050516102e0526102e0516102605111156115ad576102e05161026052610260516102c05180820182811061388f579050905060c0526115a4610300613021565b61030051610240525b61022051610260516102c05180820182811061388f579050905080820281158383830414171561388f5790509050612710810490506102c0511161388f575b6009546102405180820382811161388f5790509050600955600733602052600052604060002080546102405180820382811161388f57905090508155506000337fddf252ad1be2c89b69c2b068fc378daa952ba7f163c4a11628f55a4df523b3ef61024051610280526020610280a3600a546040526102005160605261026051608052611677612adb565b60206102606003600055f35b6399530b0681186116bc576004361861388f576020600654604d811161388f5780600a0a905060c0526116b7610100612fd5565b610100f35b6314b4e26e81186118815760a4361861388f576004358060a01c61388f5760a05260235461388f5760245461388f57600b54331861388f5760a0511561388f57600f60a05160205260005260406000206001810190505461388f5760a05163fbfa77cf60c052602060c0600460dc845afa61173c573d600060003e3d6000fd5b60203d1061388f5760c0518060a01c61388f5761010052610100905051301861388f5760a051631f1fcd5160c052602060c0600460dc845afa611784573d600060003e3d6000fd5b60203d1061388f5760c0518060a01c61388f5761010052610100905051600a541861388f5761271060265460243580820182811061388f57905090501161388f576064356044351161388f576113886084351161388f57600f60a051602052600052604060002060843581554260018201556024356002820155604435600382015560643560048201554260058201556000600682015560006007820155600060088201555060a0517f5a6abd2af9fe6c0554fa08649e2d86e4393ff19dc304d072d38d295c9291d4dc6080602460c037608060c0a260265460243580820182811061388f579050905060265560a05160235561187f6131ab565b005b637c6a4f248118611975576044361861388f576004358060a01c61388f5760405233600c5481186118b35760016118ba565b600b548118155b90501561388f57600f6040516020526000526040600020600181019050541561388f57602654600f60405160205260005260406000206002810190505480820382811161388f5790509050602655602435600f60405160205260005260406000206002810190505560265460243580820182811061388f57905090506026556127106026541161388f576040517fbda9398315c83ccef012bcaa318a2ff7b680f36429d36597bd4bc25ac11ead5960243560605260206060a2005b63e722befe8118611a3b576044361861388f576004358060a01c61388f5760405233600c5481186119a75760016119ae565b600b548118155b90501561388f57600f6040516020526000526040600020600181019050541561388f57602435600f6040516020526000526040600020600481019050541061388f57602435600f6040516020526000526040600020600381019050556040517f0b728ad785976532c4aaadde09b1cba5f262a7090e83c62d2377bc405678b29c60243560605260206060a2005b634757a1568118611b01576044361861388f576004358060a01c61388f5760405233600c548118611a6d576001611a74565b600b548118155b90501561388f57600f6040516020526000526040600020600181019050541561388f57602435600f6040516020526000526040600020600381019050541161388f57602435600f6040516020526000526040600020600481019050556040517f1796a8e0760e2de5b72e7bf64fccb7666c48ceab94cb6cae7cb7eff4b6f641ab60243560605260206060a2005b63d0194ed68118611b97576044361861388f576004358060a01c61388f57604052600b54331861388f576113886024351161388f57600f6040516020526000526040600020600181019050541561388f57602435600f6040516020526000526040600020556040517fe57488a65fa53066d4c25bac90db47dda4e5de3025ac12bf76ff07211cf7f39e60243560605260206060a2005b636cb56d198118611db3576044361861388f576004358060a01c61388f576060526024358060a01c61388f57608052600b54331861388f576080511561388f57600f6060516020526000526040600020600181019050541561388f57600f60805160205260005260406000206001810190505461388f57600f6060516020526000526040600020805460a052600181015460c052600281015460e05260038101546101005260048101546101205260058101546101405260068101546101605260078101546101805260088101546101a05250606051604052611c78613236565b60265460e05180820182811061388f57905090506026556000600f606051602052600052604060002060068101905055600f608051602052600052604060002060a051815561014051600182015560e051600282015561010051600382015561012051600482015561014051600582015561016051600682015560006007820155600060088201555060605163ce5494bb6101c0526080516101e052803b1561388f5760006101c060246101dc6000855af1611d39573d600060003e3d6000fd5b506080516060517f100b69bb6b504e1252e36b375233158edee64d071b399e2f81473a695fd1b02160006101c0a360006014905b806101c0526060516101c0516013811161388f576010015418611da4576080516101c0516013811161388f57601001555050611db1565b600101818118611d6d5750505b005b63a0e4af9a8118611dcf576004361861388f5733606052611df1565b63bb994d488118611e4c576024361861388f576004358060a01c61388f576060525b336060518118611e02576001611e19565b600b548118611e12576001611e19565b600d548118155b90501561388f57600f6060516020526000526040600020600281019050541561388f57606051604052611e4a613236565b005b63f76e4caa8118611f35576024361861388f576004358060a01c61388f5760a05233600c548118611e7e576001611e85565b600b548118155b90501561388f57600f60a0516020526000526040600020600181019050541561388f57600060c05260006014905b806010015460e05260e051611ec757611ef0565b60a05160e0511461388f5760c0516001810181811061388f57905060c052600101818118611eb3575b5050601360c0511161388f5760a051602355611f0a6131ab565b60a0517fa8727d412c6fa1e2497d6d6f275e2d9fe4d9318d5b793632e60ad9d38ee8f1fa600060e0a2005b63b22439f58118611ff3576024361861388f576004358060a01c61388f5760a05233600c548118611f67576001611f6e565b600b548118155b90501561388f5760006014905b8060c05260a05160c0516013811161388f576010015418611fdf57600060c0516013811161388f5760100155611faf6131ab565b60a0517f8e1ec3c16d6a67ea8effe2ac7adef9c2de0bc0dc47c49cdf18f6a8b0048085be600060e0a25050611ff1565b600101818118611f7b57505060006000fd5b005b63bf3759b5811861200f576004361861388f573360e052612031565b63bdcf36bb8118612049576024361861388f576004358060a01c61388f5760e0525b602060e0516080526120446101006132a5565b610100f35b63112c1f9b8118612066576004361861388f57336101e052612089565b63d764801381186120a2576024361861388f576004358060a01c61388f576101e0525b60206101e05160805261209d610200613371565b610200f35b63153c27c48118612104576004361861388f576120bf6080612de8565b608051602554116120dc5760006080526020608061210256612102565b6025546120e960a0612de8565b60a05180820382811161388f579050905060c052602060c05bf35b63d3406abd8118612121576004361861388f573361012052612144565b6333586b67811861215d576024361861388f576004358060a01c61388f57610120525b60206101205160405261215861014061353d565b610140f35b63a1d9bafc811861255f576064361861388f57600f336020526000526040600020600181019050541561388f5760043560443580820182811061388f5790509050600a546370a0823161028052336102a0526020610280602461029c845afa6121cb573d600060003e3d6000fd5b60203d1061388f576102809050511061388f57602435156121f857336040526024356060526121f8613079565b33610160526004356101805261220f6102a061364e565b6102a05161028052600f336020526000526040600020600781019050805460043580820182811061388f5790509050815550336080526122506102c0613371565b6102c0516102a052336080526122676102e06132a5565b6102e0516102c0526044356102c051808281188284100218905090506102e0526102e051156122ee57600f33602052600052604060002060068101905080546102e05180820382811161388f57905090508155506027546102e05180820382811161388f57905090506027556102c0516102e05180820382811161388f57905090506102c0525b6102a0511561233b57600f33602052600052604060002060068101905080546102a05180820182811061388f57905090508155506027546102a05180820182811061388f57905090506027555b6004356102e05180820182811061388f5790509050610300526102a05161030051106123a2576102a0516103005111156123cd57600a546040523360605230608052610300516102a05180820382811161388f579050905060a0526123cd612c09566123cd565b600a54604052336060526102a0516103005180820382811161388f57905090506080526123cd612adb565b6123d8610340612e34565b6103405160043580820182811061388f57905090506102805180820382811161388f5790509050610320526024356103205111612419576000602a55612432565b6103205160243580820382811161388f5790509050602a555b42600f3360205260005260406000206005810190505542602855337f67f96d2854a335a4cadb49f84fd3ca6f990744ddb3feceeb4b349d2d53d32ad360406004610340376102e05161038052600f336020526000526040600020600781019050546103a052600f336020526000526040600020600881019050546103c052600f336020526000526040600020600681019050546103e0526102a05161040052600f3360205260005260406000206002810190505461042052610100610340a2600f33602052600052604060002060028101905054612511576001612515565b6024545b6125275760206102c061255d5661255d565b60203363efbb5cb0610340526020610340600461035c845afa61254f573d600060003e3d6000fd5b60203d1061388f5761034090505bf35b6301681a62811861259c576024361861388f577fffffffffffffffffffffffffffffffffffffffffffffffffffffffffffffffff610200526125b7565b636ea056a9811861264b576044361861388f57602435610200525b6004358060a01c61388f576101e052600b54331861388f57600a546101e0511461388f576102005161022052610220511961262d576101e0516370a082316102405230610260526020610240602461025c845afa61261a573d600060003e3d6000fd5b60203d1061388f57610240905051610220525b6101e051604052600b5460605261022051608052612649612adb565b005b6306fdde0381186126d0576004361861388f576020806040528060400160015480825260208201600082601f0160051c6002811161388f5780156126a257905b80600201548160051b84015260010181811861268b575b505050508051806020830101601f82600003163682375050601f19601f825160200101169050810190506040f35b6395d89b418118612728576004361861388f576020806040528060400160045480825260208201600554815250508051806020830101601f82600003163682375050601f19601f825160200101169050810190506040f35b63313ce5678118612747576004361861388f5760065460405260206040f35b6370a082318118612782576024361861388f576004358060a01c61388f57604052600760405160205260005260406000205460605260206060f35b63dd62ed3e81186127dc576044361861388f576004358060a01c61388f576040526024358060a01c61388f576060526008604051602052600052604060002080606051602052600052604060002090505460805260206080f35b6318160ddd81186127fb576004361861388f5760095460405260206040f35b63fc0c546a811861281a576004361861388f57600a5460405260206040f35b635aa6e6758118612839576004361861388f57600b5460405260206040f35b6388a8d6028118612858576004361861388f57600c5460405260206040f35b63452a93208118612877576004361861388f57600d5460405260206040f35b6339ebf82381186128f9576024361861388f576004358060a01c61388f57604052600f604051602052600052604060002080546060526001810154608052600281015460a052600381015460c052600481015460e052600581015461010052600681015461012052600781015461014052600881015461016052506101206060f35b63c822adda8118612924576024361861388f576004356013811161388f576010015460405260206040f35b633403c2fc8118612943576004361861388f5760245460405260206040f35b63ecf708588118612962576004361861388f5760255460405260206040f35b63cea55f578118612981576004361861388f5760265460405260206040f35b63fc7b9c1881186129a0576004361861388f5760275460405260206040f35b63c3535b5281186129bf576004361861388f5760285460405260206040f35b633629c8de81186129de576004361861388f5760295460405260206040f35b6344b8139681186129fd576004361861388f57602a5460405260206040f35b63422327168118612a1c576004361861388f57602b5460405260206040f35b639ec5a8948118612a3b576004361861388f57602c5460405260206040f35b63a6f7f5d68118612a5a576004361861388f57602d5460405260206040f35b63877887828118612a79576004361861388f57602e5460405260206040f35b637ecebe008118612ab4576024361861388f576004358060a01c61388f57604052602f60405160205260005260406000205460605260206060f35b633644e5158118612ad3576004361861388f5760305460405260206040f35b505b60006000fd5b6000600460e0527fa9059cbb000000000000000000000000000000000000000000000000000000006101005260e08051602082018361014001815181525050808301925050506060518161014001526020810190506080518161014001526020810190508061012052610120505060206101c06101205161014060006040515af1612b6b573d600060003e3d6000fd5b3d602081183d60201002186101a0526101a080518060a05260208201805160c05250505060a05115612c075760c05160a05160200360031b1c612c0757601060e0527f5472616e73666572206661696c656421000000000000000000000000000000006101005260e05060e0518061010001601f826000031636823750506308c379a060a052602060c052601f19601f60e051011660440160bcfd5b565b60006004610100527f23b872dd000000000000000000000000000000000000000000000000000000006101205261010080516020820183610160018151815250508083019250505060605181610160015260208101905060805181610160015260208101905060a0518161016001526020810190508061014052610140505060206102006101405161016060006040515af1612caa573d600060003e3d6000fd5b3d602081183d60201002186101e0526101e080518060c05260208201805160e05250505060c05115612d4a5760e05160c05160200360031b1c612d4a576010610100527f5472616e73666572206661696c656421000000000000000000000000000000006101205261010050610100518061012001601f826000031636823750506308c379a060c052602060e052601f19601f61010051011660440160dcfd5b565b606051308114612d5e57801515612d61565b60005b90501561388f5760076040516020526000526040600020805460805180820382811161388f579050905081555060076060516020526000526040600020805460805180820182811061388f57905090508155506060516040517fddf252ad1be2c89b69c2b068fc378daa952ba7f163c4a11628f55a4df523b3ef60805160a052602060a0a3565b600a546370a0823160405230606052602060406024605c845afa612e11573d600060003e3d6000fd5b60203d1061388f57604090505160275480820182811061388f5790509050815250565b4260285480820382811161388f5790509050602b5480820281158383830414171561388f5790509050604052670de0b6b3a763ffff6040511115612e80576000815250612ec256612ec2565b602a5460605260605160405160605180820281158383830414171561388f5790509050670de0b6b3a76400008104905080820382811161388f57905090508152505b565b612ece6080612de8565b608051612edb60a0612e34565b60a05180820382811161388f5790509050815250565b600061010052600954610120526101205115612f475760e0516101205180820281158383830414171561388f5790509050612f2d610140612ec4565b61014051801561388f578082049050905061010052612f4f565b60e051610100525b610100511561388f57610120516101005180820182811061388f5790509050600955600760c051602052600052604060002080546101005180820182811061388f579050905081555060c05160007fddf252ad1be2c89b69c2b068fc378daa952ba7f163c4a11628f55a4df523b3ef61010051610140526020610140a361010051815250565b600954612fe75760c05181525061301f565b60c051612ff460e0612ec4565b60e05180820281158383830414171561388f5790509050600954801561388f57808204905090508152505b565b61302c610100612ec4565b6101005160e05260e051156130715760c05160095480820281158383830414171561388f579050905060e051801561388f578082049050905081525061307756613077565b60008152505b565b600f6040516020526000526040600020600681019050546080526060516080511061388f576026541561313b5760605160265480820281158383830414171561388f5790509050602754801561388f5780820490509050600f6040516020526000526040600020600281019050548082811882841002189050905060a052600f6040516020526000526040600020600281019050805460a05180820382811161388f579050905081555060265460a05180820382811161388f57905090506026555b600f6040516020526000526040600020600881019050805460605180820182811061388f579050905081555060805160605180820382811161388f5790509050600f60405160205260005260406000206006810190505560275460605180820382811161388f5790509050602755565b600060405260006014905b806060526060516013811161388f57601001546080526080516131eb576040516001810181811061388f579050604052613228565b604051156132285760805160605160405180820382811161388f57905090506013811161388f576010015560006060516013811161388f57601001555b6001018181186131b6575050565b602654600f60405160205260005260406000206002810190505480820382811161388f57905090506026556000600f6040516020526000526040600020600281019050556040517f4201c688d84c01154d321afa0c72f1bffe9eef53005c9de9d035074e71e9b32a60006060a2565b6026546132cb57600f60805160205260005260406000206006810190505481525061336f565b600f6080516020526000526040600020600281019050546132ec60c0612de8565b60c05180820281158383830414171561388f57905090506127108104905060a052600f60805160205260005260406000206006810190505460c0526024546133685760a05160c051111561335a5760c05160a05180820382811161388f579050905081525061336f5661336f565b600081525061336f5661336f565b60c0518152505b565b6024541561338357600081525061353b565b61338d60c0612de8565b60c05160a05260265460a05180820281158383830414171561388f57905090506127108104905060c05260275460e052600f60805160205260005260406000206002810190505460a05180820281158383830414171561388f57905090506127108104905061010052600f60805160205260005260406000206006810190505461012052600f60805160205260005260406000206003810190505461014052600f60805160205260005260406000206004810190505461016052610120516101005111156134625760e05160c0511115613465565b60015b1561347457600081525061353b565b610100516101205180820382811161388f5790509050610180526101805160c05160e05180820382811161388f5790509050808281188284100218905090506101805261018051600a546370a082316101a052306101c05260206101a060246101bc845afa6134e8573d600060003e3d6000fd5b60203d1061388f576101a090505180828118828410021890509050610180526101405161018051106135355761018051610160518082811882841002189050905081525061353b5661353b565b60008152505b565b600f6040516020526000526040600020600581019050546060524260605180820382811161388f5790509050608052606051600f60405160205260005260406000206001810190505480820382811161388f579050905060a052608051156135f55760a051156135ee576040516322f3e2d460c052602060c0600460dc845afa6135cc573d600060003e3d6000fd5b60203d1061388f5760c0518060011c61388f57610100526101009050516135f8565b60006135f8565b60005b61360a57600081525061364c5661364c565b600f60405160205260005260406000206007810190505460805180820281158383830414171561388f579050905060a051801561388f57808204905090508152505b565b42600f6101605160205260005260406000206005810190505480820382811161388f57905090506101a0526101a0511561388f576101805161369457600081525061388d565b600f6101605160205260005260406000206006810190505461016051638e6350e26101e05260206101e060046101fc845afa6136d5573d600060003e3d6000fd5b60203d1061388f576101e090505180820382811161388f57905090506101a05180820281158383830414171561388f5790509050602d5480820281158383830414171561388f5790509050612710810490506301e18558810490506101c05261018051600f6101605160205260005260406000205480820281158383830414171561388f5790509050612710810490506101e05261018051602e5480820281158383830414171561388f57905090506127108104905061020052610200516101e05180820182811061388f57905090506101c05180820182811061388f579050905061022052610180516102205111156137d25761018051610220525b6102205115613885573060c0526102205160e0526137f1610260612ef1565b61026051610240526101e0511561384d576101e0516102405180820281158383830414171561388f579050905061022051801561388f57808204905090506102605230604052610160516060526102605160805261384d612d4c565b600730602052600052604060002054156138855730604052602c54606052600730602052600052604060002054608052613885612d4c565b610220518152505b565b600080fda165767970657283000306000b005b600080fd"
}