{
  "address": "0x114eadD0D07adca01133A8a674832fE8114bF269",
  "abi": [
    {
      "inputs": [
        {
          "internalType": "address",
          "name": "_token",
          "type": "address"
        },
        {
          "internalType": "address",
          "name": "_registry",
          "type": "address"
        },
        {
          "internalType": "string",
          "name": "name",
          "type": "string"
        },
        {
          "internalType": "string",
          "name": "symbol",
          "type": "string"
        }
      ],
      "stateMutability": "nonpayable",
      "type": "constructor"
    },
    {
      "anonymous": false,
      "inputs": [
        {
          "indexed": true,
          "internalType": "address",
          "name": "owner",
          "type": "address"
        },
        {
          "indexed": true,
          "internalType": "address",
          "name": "spender",
          "type": "address"
        },
        {
          "indexed": false,
          "internalType": "uint256",
          "name": "value",
          "type": "uint256"
        }
      ],
      "name": "Approval",
      "type": "event"
    },
    {
      "anonymous": false,
      "inputs": [
        {
          "indexed": true,
          "internalType": "address",
          "name": "from",
          "type": "address"
        },
        {
          "indexed": true,
          "internalType": "address",
          "name": "to",
          "type": "address"
        },
        {
          "indexed": false,
          "internalType": "uint256",
          "name": "value",
          "type": "uint256"
        }
      ],
      "name": "Transfer",
      "type": "event"
    },
    {
      "inputs": [],
      "name": "DOMAIN_SEPARATOR",
      "outputs": [
        {
          "internalType": "bytes32",
          "name": "",
          "type": "bytes32"
        }
      ],
      "stateMutability": "view",
      "type": "function"
    },
    {
      "inputs": [],
      "name": "DOMAIN_TYPEHASH",
      "outputs": [
        {
          "internalType": "bytes32",
          "name": "",
          "type": "bytes32"
        }
      ],
      "stateMutability": "view",
      "type": "function"
    },
    {
      "inputs": [],
      "name": "PERMIT_TYPEHASH",
      "outputs": [
        {
          "internalType": "bytes32",
          "name": "",
          "type": "bytes32"
        }
      ],
      "stateMutability": "view",
      "type": "function"
    },
    {
      "inputs": [],
      "name": "acceptAffiliate",
      "outputs": [],
      "stateMutability": "nonpayable",
      "type": "function"
    },
    {
      "inputs": [],
      "name": "affiliate",
      "outputs": [
        {
          "internalType": "address",
          "name": "",
          "type": "address"
        }
      ],
      "stateMutability": "view",
      "type": "function"
    },
    {
      "inputs": [],
      "name": "allVaults",
      "outputs": [
        {
          "internalType": "contract VaultAPI[]",
          "name": "",
          "type": "address[]"
        }
      ],
      "stateMutability": "view",
      "type": "function"
    },
    {
      "inputs": [
        {
          "internalType": "address",
          "name": "owner",
          "type": "address"
        },
        {
          "internalType": "address",
          "name": "spender",
          "type": "address"
        }
      ],
      "name": "allowance",
      "outputs": [
        {
          "internalType": "uint256",
          "name": "",
          "type": "uint256"
        }
      ],
      "stateMutability": "view",
      "type": "function"
    },
    {
      "inputs": [
        {
          "internalType": "address",
          "name": "spender",
          "type": "address"
        },
        {
          "internalType": "uint256",
          "name": "amount",
          "type": "uint256"
        }
      ],
      "name": "approve",
      "outputs": [
        {
          "internalType": "bool",
          "name": "",
          "type": "bool"
        }
      ],
      "stateMutability": "nonpayable",
      "type": "function"
    },
    {
      "inputs": [
        {
          "internalType": "address",
          "name": "account",
          "type": "address"
        }
      ],
      "name": "balanceOf",
      "outputs": [
        {
          "internalType": "uint256",
          "name": "",
          "type": "uint256"
        }
      ],
      "stateMutability": "view",
      "type": "function"
    },
    {
      "inputs": [],
      "name": "bestVault",
      "outputs": [
        {
          "internalType": "contract VaultAPI",
          "name": "",
          "type": "address"
        }
      ],
      "stateMutability": "view",
      "type": "function"
    },
    {
      "inputs": [],
      "name": "decimals",
      "outputs": [
        {
          "internalType": "uint8",
          "name": "",
          "type": "uint8"
        }
      ],
      "stateMutability": "view",
      "type": "function"
    },
    {
      "inputs": [
        {
          "internalType": "address",
          "name": "spender",
          "type": "address"
        },
        {
          "internalType": "uint256",
          "name": "subtractedValue",
          "type": "uint256"
        }
      ],
      "name": "decreaseAllowance",
      "outputs": [
        {
          "internalType": "bool",
          "name": "",
          "type": "bool"
        }
      ],
      "stateMutability": "nonpayable",
      "type": "function"
    },
    {
      "inputs": [
        {
          "internalType": "uint256",
          "name": "amount",
          "type": "uint256"
        }
      ],
      "name": "deposit",
      "outputs": [
        {
          "internalType": "uint256",
          "name": "deposited",
          "type": "uint256"
        }
      ],
      "stateMutability": "nonpayable",
      "type": "function"
    },
    {
      "inputs": [],
      "name": "getReserveNormalizedIncome",
      "outputs": [
        {
          "internalType": "uint256",
          "name": "",
          "type": "uint256"
        }
      ],
      "stateMutability": "view",
      "type": "function"
    },
    {
      "inputs": [
        {
          "internalType": "address",
          "name": "spender",
          "type": "address"
        },
        {
          "internalType": "uint256",
          "name": "addedValue",
          "type": "uint256"
        }
      ],
      "name": "increaseAllowance",
      "outputs": [
        {
          "internalType": "bool",
          "name": "",
          "type": "bool"
        }
      ],
      "stateMutability": "nonpayable",
      "type": "function"
    },
    {
      "inputs": [
        {
          "internalType": "uint256",
          "name": "amount",
          "type": "uint256"
        },
        {
          "internalType": "uint256",
          "name": "maxMigrationLoss",
          "type": "uint256"
        }
      ],
      "name": "migrate",
      "outputs": [
        {
          "internalType": "uint256",
          "name": "",
          "type": "uint256"
        }
      ],
      "stateMutability": "nonpayable",
      "type": "function"
    },
    {
      "inputs": [
        {
          "internalType": "uint256",
          "name": "amount",
          "type": "uint256"
        }
      ],
      "name": "migrate",
      "outputs": [
        {
          "internalType": "uint256",
          "name": "",
          "type": "uint256"
        }
      ],
      "stateMutability": "nonpayable",
      "type": "function"
    },
    {
      "inputs": [],
      "name": "migrate",
      "outputs": [
        {
          "internalType": "uint256",
          "name": "",
          "type": "uint256"
        }
      ],
      "stateMutability": "nonpayable",
      "type": "function"
    },
    {
      "inputs": [],
      "name": "name",
      "outputs": [
        {
          "internalType": "string",
          "name": "",
          "type": "string"
        }
      ],
      "stateMutability": "view",
      "type": "function"
    },
    {
      "inputs": [
        {
          "internalType": "address",
          "name": "",
          "type": "address"
        }
      ],
      "name": "nonces",
      "outputs": [
        {
          "internalType": "uint256",
          "name": "",
          "type": "uint256"
        }
      ],
      "stateMutability": "view",
      "type": "function"
    },
    {
      "inputs": [],
      "name": "pendingAffiliate",
      "outputs": [
        {
          "internalType": "address",
          "name": "",
          "type": "address"
        }
      ],
      "stateMutability": "view",
      "type": "function"
    },
    {
      "inputs": [
        {
          "internalType": "address",
          "name": "owner",
          "type": "address"
        },
        {
          "internalType": "address",
          "name": "spender",
          "type": "address"
        },
        {
          "internalType": "uint256",
          "name": "amount",
          "type": "uint256"
        },
        {
          "internalType": "uint256",
          "name": "deadline",
          "type": "uint256"
        },
        {
          "internalType": "uint8",
          "name": "v",
          "type": "uint8"
        },
        {
          "internalType": "bytes32",
          "name": "r",
          "type": "bytes32"
        },
        {
          "internalType": "bytes32",
          "name": "s",
          "type": "bytes32"
        }
      ],
      "name": "permit",
      "outputs": [],
      "stateMutability": "nonpayable",
      "type": "function"
    },
    {
      "inputs": [],
      "name": "pricePerShare",
      "outputs": [
        {
          "internalType": "uint256",
          "name": "",
          "type": "uint256"
        }
      ],
      "stateMutability": "view",
      "type": "function"
    },
    {
      "inputs": [],
      "name": "registry",
      "outputs": [
        {
          "internalType": "contract RegistryAPI",
          "name": "",
          "type": "address"
        }
      ],
      "stateMutability": "view",
      "type": "function"
    },
    {
      "inputs": [
        {
          "internalType": "address",
          "name": "_affiliate",
          "type": "address"
        }
      ],
      "name": "setAffiliate",
      "outputs": [],
      "stateMutability": "nonpayable",
      "type": "function"
    },
    {
      "inputs": [
        {
          "internalType": "address",
          "name": "_registry",
          "type": "address"
        }
      ],
      "name": "setRegistry",
      "outputs": [],
      "stateMutability": "nonpayable",
      "type": "function"
    },
    {
      "inputs": [],
      "name": "symbol",
      "outputs": [
        {
          "internalType": "string",
          "name": "",
          "type": "string"
        }
      ],
      "stateMutability": "view",
      "type": "function"
    },
    {
      "inputs": [],
      "name": "token",
      "outputs": [
        {
          "internalType": "contract IERC20",
          "name": "",
          "type": "address"
        }
      ],
      "stateMutability": "view",
      "type": "function"
    },
    {
      "inputs": [],
      "name": "totalAssets",
      "outputs": [
        {
          "internalType": "uint256",
          "name": "assets",
          "type": "uint256"
        }
      ],
      "stateMutability": "view",
      "type": "function"
    },
    {
      "inputs": [],
      "name": "totalSupply",
      "outputs": [
        {
          "internalType": "uint256",
          "name": "",
          "type": "uint256"
        }
      ],
      "stateMutability": "view",
      "type": "function"
    },
    {
      "inputs": [
        {
          "internalType": "address",
          "name": "account",
          "type": "address"
        }
      ],
      "name": "totalVaultBalance",
      "outputs": [
        {
          "internalType": "uint256",
          "name": "balance",
          "type": "uint256"
        }
      ],
      "stateMutability": "view",
      "type": "function"
    },
    {
      "inputs": [
        {
          "internalType": "address",
          "name": "to",
          "type": "address"
        },
        {
          "internalType": "uint256",
          "name": "amount",
          "type": "uint256"
        }
      ],
      "name": "transfer",
      "outputs": [
        {
          "internalType": "bool",
          "name": "",
          "type": "bool"
        }
      ],
      "stateMutability": "nonpayable",
      "type": "function"
    },
    {
      "inputs": [
        {
          "internalType": "address",
          "name": "from",
          "type": "address"
        },
        {
          "internalType": "address",
          "name": "to",
          "type": "address"
        },
        {
          "internalType": "uint256",
          "name": "amount",
          "type": "uint256"
        }
      ],
      "name": "transferFrom",
      "outputs": [
        {
          "internalType": "bool",
          "name": "",
          "type": "bool"
        }
      ],
      "stateMutability": "nonpayable",
      "type": "function"
    },
    {
      "inputs": [
        {
          "internalType": "address",
          "name": "token",
          "type": "address"
        },
        {
          "internalType": "uint256",
          "name": "amount",
          "type": "uint256"
        },
        {
          "internalType": "address",
          "name": "to",
          "type": "address"
        }
      ],
      "name": "withdraw",
      "outputs": [
        {
          "internalType": "uint256",
          "name": "withdrawn",
          "type": "uint256"
        }
      ],
      "stateMutability": "nonpayable",
      "type": "function"
    }
  ],
  "transactionHash": "0x2159b982443e8257b88b38c419c6835f106c9bd37380bc8a071df99c1c1b25f1",
  "args": [
    "0x1714B9AF0BF10F9EdE7aEE00584B2B731437EdFA",
    "0xD240A9fAEE8877440Ac255829EA6F218f9732c24",
    "Test Wrapper",
    "TW"
  ],
  "numDeployments": 2,
  "solcInputHash": "096043261f950c0fc713eb6537ea2194",
  "bytecode": "0x60a06040523480156200001157600080fd5b5060405162003248380380620032488339810160408190526200003491620002f5565b8383838381600390805190602001906200005092919062000165565b5080516200006690600490602084019062000165565b5050600580546001600160a01b039485166001600160a01b03199182161790915560078054939094169216919091179091555081516020808401919091206040805180820190915260018152603160f81b9201919091527f8b73c3c69bb8fe3d512ecc4cf759cc79239f7b179b0ffacaa9a75d522b39400f907fc89efdaa54c0f20c7adf612882df0950f5a951637e0307cdcb4c672f298b8bc6620001084690565b604080516020810195909552840192909252606083015260808201523060a082015260c00160408051601f1981840301815291905280516020909101206080525050600980546001600160a01b0319163317905550620003c19050565b828054620001739062000385565b90600052602060002090601f016020900481019282620001975760008555620001e2565b82601f10620001b257805160ff1916838001178555620001e2565b82800160010185558215620001e2579182015b82811115620001e2578251825591602001919060010190620001c5565b50620001f0929150620001f4565b5090565b5b80821115620001f05760008155600101620001f5565b80516001600160a01b03811681146200022357600080fd5b919050565b634e487b7160e01b600052604160045260246000fd5b600082601f8301126200025057600080fd5b81516001600160401b03808211156200026d576200026d62000228565b604051601f8301601f19908116603f0116810190828211818310171562000298576200029862000228565b81604052838152602092508683858801011115620002b557600080fd5b600091505b83821015620002d95785820183015181830184015290820190620002ba565b83821115620002eb5760008385830101525b9695505050505050565b600080600080608085870312156200030c57600080fd5b62000317856200020b565b935062000327602086016200020b565b60408601519093506001600160401b03808211156200034557600080fd5b62000353888389016200023e565b935060608701519150808211156200036a57600080fd5b5062000379878288016200023e565b91505092959194509250565b600181811c908216806200039a57607f821691505b602082108103620003bb57634e487b7160e01b600052602260045260246000fd5b50919050565b608051612e64620003e4600039600081816102d801526110300152612e646000f3fe608060405234801561001057600080fd5b50600436106101c65760003560e01c80636c31b5f0116100fa578063a457c2d71161009d578063a457c2d7146103ea578063a9059cbb146103fd578063a91ee0dc14610410578063b38a440e14610423578063b6b55f2514610436578063d505accf14610449578063dd62ed3e1461045c578063e95b2de81461046f578063fc0c546a1461047757600080fd5b80636c31b5f01461036657806370a082311461036e5780637b103999146103975780637ecebe00146103aa5780638fd3ab80146103ca57806395d89b41146103d257806396c2614c146103da57806399530b06146103e257600080fd5b806330adf81f1161016d57806330adf81f1461028a57806330e5065e146102b1578063313ce567146102c45780633644e515146102d357806339509351146102fa5780633e54bacb1461030d578063454b06081461032057806345e05f431461033357806369328dec1461035357600080fd5b806301e1d114146101cb578063063effeb146101e657806306fdde03146101fb578063095ea7b31461021057806318160ddd1461023357806320606b701461023b57806323b872dd146102625780632bbb56d914610275575b600080fd5b6101d361048a565b6040519081526020015b60405180910390f35b6101ee610541565b6040516101dd91906128b1565b6102036107af565b6040516101dd919061292a565b61022361021e366004612972565b610841565b60405190151581526020016101dd565b6002546101d3565b6101d37f8b73c3c69bb8fe3d512ecc4cf759cc79239f7b179b0ffacaa9a75d522b39400f81565b61022361027036600461299e565b61085b565b6102886102833660046129df565b610881565b005b6101d37f6e71edae12b1b97f4d1f60370fef10105fa2faae0126114a169c64845d6126c981565b6101d36102bf3660046129df565b6108ba565b604051601281526020016101dd565b6101d37f000000000000000000000000000000000000000000000000000000000000000081565b610223610308366004612972565b610b5a565b6101d361031b3660046129fc565b610b7c565b6101d361032e366004612a1e565b610ba1565b600954610346906001600160a01b031681565b6040516101dd9190612a37565b6101d3610361366004612a4b565b610bc5565b610288610c33565b6101d361037c3660046129df565b6001600160a01b031660009081526020819052604090205490565b600754610346906001600160a01b031681565b6101d36103b83660046129df565b60086020526000908152604090205481565b6101d3610c5e565b610203610c86565b6101d3610c95565b6101d3610cad565b6102236103f8366004612972565b610cfb565b61022361040b366004612972565b610d86565b61028861041e3660046129df565b610d94565b600a54610346906001600160a01b031681565b6101d3610444366004612a1e565b610ec5565b610288610457366004612a8d565b610ef3565b6101d361046a366004612b04565b611149565b610346611174565b600554610346906001600160a01b031681565b600080610495610541565b905060005b815181101561053c576105288282815181106104b8576104b8612b3d565b60200260200101516001600160a01b03166301e1d1146040518163ffffffff1660e01b8152600401602060405180830381865afa1580156104fd573d6000803e3d6000fd5b505050506040513d601f19601f820116820180604052508101906105219190612b53565b84906111ed565b92508061053481612b82565b91505061049a565b505090565b60065460075460055460405163f9c7bba560e01b8152606093926000926001600160a01b039182169263f9c7bba59261057e921690600401612a37565b602060405180830381865afa15801561059b573d6000803e3d6000fd5b505050506040513d601f19601f820116820180604052508101906105bf9190612b53565b905080820361062a57600680548060200260200160405190810160405280929190818152602001828054801561061e57602002820191906000526020600020905b81546001600160a01b03168152600190910190602001808311610600575b50505050509250505090565b60008167ffffffffffffffff81111561064557610645612b9b565b60405190808252806020026020018201604052801561066e578160200160208202803683370190505b50905060005b838110156106e9576006818154811061068f5761068f612b3d565b9060005260206000200160009054906101000a90046001600160a01b03168282815181106106bf576106bf612b3d565b6001600160a01b0390921660209283029190910190910152806106e181612b82565b915050610674565b50825b828110156107a757600754600554604051633ddfe34f60e11b81526001600160a01b0392831692637bbfc69e9261072a929116908590600401612bb1565b602060405180830381865afa158015610747573d6000803e3d6000fd5b505050506040513d601f19601f8201168201806040525081019061076b9190612bca565b82828151811061077d5761077d612b3d565b6001600160a01b03909216602092830291909101909101528061079f81612b82565b9150506106ec565b509392505050565b6060600380546107be90612be7565b80601f01602080910402602001604051908101604052809291908181526020018280546107ea90612be7565b80156108375780601f1061080c57610100808354040283529160200191610837565b820191906000526020600020905b81548152906001019060200180831161081a57829003601f168201915b5050505050905090565b60003361084f8185856111f9565b60019150505b92915050565b60003361086985828561131e565b610874858585611398565b60019150505b9392505050565b6009546001600160a01b0316331461089857600080fd5b600a80546001600160a01b0319166001600160a01b0392909216919091179055565b6000806108c5610541565b905060005b8151811015610b535760006109df8383815181106108ea576108ea612b3d565b60200260200101516001600160a01b03166399530b066040518163ffffffff1660e01b8152600401602060405180830381865afa15801561092f573d6000803e3d6000fd5b505050506040513d601f19601f820116820180604052508101906109539190612b53565b84848151811061096557610965612b3d565b60200260200101516001600160a01b03166370a08231886040518263ffffffff1660e01b81526004016109989190612a37565b602060405180830381865afa1580156109b5573d6000803e3d6000fd5b505050506040513d601f19601f820116820180604052508101906109d99190612b53565b90611554565b9050610b3d610b368484815181106109f9576109f9612b3d565b60200260200101516001600160a01b031663313ce5676040518163ffffffff1660e01b8152600401602060405180830381865afa158015610a3e573d6000803e3d6000fd5b505050506040513d601f19601f82011682018060405250810190610a629190612b53565b610a6d90600a612cff565b610b30868681518110610a8257610a82612b3d565b60200260200101516001600160a01b03166399530b066040518163ffffffff1660e01b8152600401602060405180830381865afa158015610ac7573d6000803e3d6000fd5b505050506040513d601f19601f82011682018060405250810190610aeb9190612b53565b878781518110610afd57610afd612b3d565b60200260200101516001600160a01b03166370a082318b6040518263ffffffff1660e01b81526004016109989190612a37565b90611560565b85906111ed565b9350508080610b4b90612b82565b9150506108ca565b5050919050565b60003361084f818585610b6d8383611149565b610b779190612d0b565b6111f9565b6009546000906001600160a01b03163314610b9657600080fd5b61087a30848461156c565b6009546000906001600160a01b03163314610bbb57600080fd5b61085530836116eb565b600080610bd0610cad565b9050600081610be16012600a612cff565b610beb9087612d23565b610bf59190612d42565b30600081815260208190526040902054919250610c1d9086610c16856116f9565b6001611733565b9350610c293083611edd565b5050509392505050565b600a546001600160a01b03163314610c4a57600080fd5b600980546001600160a01b03191633179055565b6009546000906001600160a01b03163314610c7857600080fd5b610c8130612016565b905090565b6060600480546107be90612be7565b6000610c9f610cad565b610c8190633b9aca00612d23565b600080610cb960025490565b600003610ccf57670de0b6b3a764000091505090565b600254610cde6012600a612cff565b610ce7306108ba565b610cf19190612d23565b6108559190612d42565b60003381610d098286611149565b905083811015610d6e5760405162461bcd60e51b815260206004820152602560248201527f45524332303a2064656372656173656420616c6c6f77616e63652062656c6f77604482015264207a65726f60d81b60648201526084015b60405180910390fd5b610d7b82868684036111f9565b506001949350505050565b60003361084f818585611398565b600760009054906101000a90046001600160a01b03166001600160a01b0316635aa6e6756040518163ffffffff1660e01b8152600401602060405180830381865afa158015610de7573d6000803e3d6000fd5b505050506040513d601f19601f82011682018060405250810190610e0b9190612bca565b6001600160a01b0316336001600160a01b031614610e2857600080fd5b600780546001600160a01b0319166001600160a01b03831690811790915560408051635aa6e67560e01b81529051635aa6e675916004808201926020929091908290030181865afa158015610e81573d6000803e3d6000fd5b505050506040513d601f19601f82011682018060405250810190610ea59190612bca565b6001600160a01b0316336001600160a01b031614610ec257600080fd5b50565b6000610ed43330846001612024565b90506000610ee182612339565b9050610eed3082612363565b50919050565b6001600160a01b038716610f3d5760405162461bcd60e51b81526020600482015260116024820152707065726d69743a207369676e617475726560781b6044820152606401610d65565b83421115610f7f5760405162461bcd60e51b815260206004820152600f60248201526e1c195c9b5a5d0e88195e1c1a5c9959608a1b6044820152606401610d65565b6001600160a01b038716600090815260086020526040812080547f6e71edae12b1b97f4d1f60370fef10105fa2faae0126114a169c64845d6126c9918a918a918a919086610fcc83612b82565b909155506040805160208101969096526001600160a01b0394851690860152929091166060840152608083015260a082015260c0810186905260e00160408051601f1981840301815290829052805160209182012061190160f01b918301919091527f0000000000000000000000000000000000000000000000000000000000000000602283015260428201819052915060009060620160408051601f198184030181528282528051602091820120600080855291840180845281905260ff89169284019290925260608301879052608083018690529092509060019060a0016020604051602081039080840390855afa1580156110ce573d6000803e3d6000fd5b505050602060405103519050896001600160a01b0316816001600160a01b0316146111325760405162461bcd60e51b81526020600482015260146024820152731c195c9b5a5d0e881d5b985d5d1a1bdc9a5e995960621b6044820152606401610d65565b61113d8a8a8a6111f9565b50505050505050505050565b6001600160a01b03918216600090815260016020908152604080832093909416825291909152205490565b600754600554604051630e177dc760e41b81526000926001600160a01b039081169263e177dc70926111ac9290911690600401612a37565b602060405180830381865afa1580156111c9573d6000803e3d6000fd5b505050506040513d601f19601f82011682018060405250810190610c819190612bca565b600061087a8284612d0b565b6001600160a01b03831661125b5760405162461bcd60e51b8152602060048201526024808201527f45524332303a20617070726f76652066726f6d20746865207a65726f206164646044820152637265737360e01b6064820152608401610d65565b6001600160a01b0382166112bc5760405162461bcd60e51b815260206004820152602260248201527f45524332303a20617070726f766520746f20746865207a65726f206164647265604482015261737360f01b6064820152608401610d65565b6001600160a01b0383811660008181526001602090815260408083209487168084529482529182902085905590518481527f8c5be1e5ebec7d5bd14f71427d1e84f3dd0314c0f7b2291e5b200ac8c7c3b92591015b60405180910390a3505050565b600061132a8484611149565b9050600019811461139257818110156113855760405162461bcd60e51b815260206004820152601d60248201527f45524332303a20696e73756666696369656e7420616c6c6f77616e63650000006044820152606401610d65565b61139284848484036111f9565b50505050565b6001600160a01b0383166113fc5760405162461bcd60e51b815260206004820152602560248201527f45524332303a207472616e736665722066726f6d20746865207a65726f206164604482015264647265737360d81b6064820152608401610d65565b6001600160a01b03821661145e5760405162461bcd60e51b815260206004820152602360248201527f45524332303a207472616e7366657220746f20746865207a65726f206164647260448201526265737360e81b6064820152608401610d65565b6001600160a01b038316600090815260208190526040902054818110156114d65760405162461bcd60e51b815260206004820152602660248201527f45524332303a207472616e7366657220616d6f756e7420657863656564732062604482015265616c616e636560d01b6064820152608401610d65565b6001600160a01b0380851660009081526020819052604080822085850390559185168152908120805484929061150d908490612d0b565b92505081905550826001600160a01b0316846001600160a01b0316600080516020612e0f8339815191528460405161154791815260200190565b60405180910390a3611392565b600061087a8284612d23565b600061087a8284612d42565b600080611577611174565b90506000816001600160a01b031663ecf708586040518163ffffffff1660e01b8152600401602060405180830381865afa1580156115b9573d6000803e3d6000fd5b505050506040513d601f19601f820116820180604052508101906115dd9190612b53565b90506000826001600160a01b03166301e1d1146040518163ffffffff1660e01b8152600401602060405180830381865afa15801561161f573d6000803e3d6000fd5b505050506040513d601f19601f820116820180604052508101906116439190612b53565b9050808211611658576000935050505061087a565b856000198310801561166b575060001981105b1561168c57600061167c8484612431565b90508082111561168a578091505b505b80156116e05760006116a18930846000611733565b9050806000036116b95760009550505050505061087a565b6116c6308a836000612024565b9550866116d38288612431565b11156116de57600080fd5b505b505050509392505050565b600061087a8383600061156c565b60008061170560025490565b9050801561172c578083611718306108ba565b6117229190612d23565b61087a9190612d42565b5090919050565b60008061173e611174565b9050600061174a610541565b90506117558161243d565b60005b8151811015611ca357841580156117995750826001600160a01b031682828151811061178657611786612b3d565b60200260200101516001600160a01b0316145b611c915760008282815181106117b1576117b1612b3d565b60200260200101516001600160a01b03166370a082318a6040518263ffffffff1660e01b81526004016117e49190612a37565b602060405180830381865afa158015611801573d6000803e3d6000fd5b505050506040513d601f19601f820116820180604052508101906118259190612b53565b90506001600160a01b03891630146118cb576118c88184848151811061184d5761184d612b3d565b60200260200101516001600160a01b031663dd62ed3e8c306040518363ffffffff1660e01b8152600401611882929190612d64565b602060405180830381865afa15801561189f573d6000803e3d6000fd5b505050506040513d601f19601f820116820180604052508101906118c39190612b53565b61245b565b90505b611926818484815181106118e1576118e1612b3d565b60200260200101516001600160a01b03166375de29026040518163ffffffff1660e01b8152600401602060405180830381865afa15801561189f573d6000803e3d6000fd5b90508015611c8f576001600160a01b03891630146119cc5782828151811061195057611950612b3d565b60200260200101516001600160a01b03166323b872dd8a30846040518463ffffffff1660e01b815260040161198793929190612d7e565b6020604051808303816000875af11580156119a6573d6000803e3d6000fd5b505050506040513d601f19601f820116820180604052508101906119ca9190612da2565b505b6000198714611bea576000611ae88484815181106119ec576119ec612b3d565b60200260200101516001600160a01b03166399530b066040518163ffffffff1660e01b8152600401602060405180830381865afa158015611a31573d6000803e3d6000fd5b505050506040513d601f19601f82011682018060405250810190611a559190612b53565b610b30868681518110611a6a57611a6a612b3d565b60200260200101516001600160a01b031663313ce5676040518163ffffffff1660e01b8152600401602060405180830381865afa158015611aaf573d6000803e3d6000fd5b505050506040513d601f19601f82011682018060405250810190611ad39190612b53565b611ade90600a612cff565b6109d98c8b612431565b9050600081118015611af957508181105b15611b9857611b91848481518110611b1357611b13612b3d565b60200260200101516001600160a01b031662f714ce83306040518363ffffffff1660e01b8152600401611b47929190612dc4565b6020604051808303816000875af1158015611b66573d6000803e3d6000fd5b505050506040513d601f19601f82011682018060405250810190611b8a9190612b53565b87906111ed565b9550611be4565b611be1848481518110611bad57611bad612b3d565b60200260200101516001600160a01b031662f714ce84306040518363ffffffff1660e01b8152600401611b47929190612dc4565b95505b50611c82565b611c7f838381518110611bff57611bff612b3d565b60200260200101516001600160a01b031662f714ce600019306040518363ffffffff1660e01b8152600401611c35929190612dc4565b6020604051808303816000875af1158015611c54573d6000803e3d6000fd5b505050506040513d601f19601f82011682018060405250810190611c789190612b53565b86906111ed565b94505b848711611c8f5750611ca3565b505b80611c9b81612b82565b915050611758565b508483118015611d8c5750611d80826001600160a01b031663313ce5676040518163ffffffff1660e01b8152600401602060405180830381865afa158015611cef573d6000803e3d6000fd5b505050506040513d601f19601f82011682018060405250810190611d139190612b53565b611d1e90600a612cff565b836001600160a01b03166399530b066040518163ffffffff1660e01b8152600401602060405180830381865afa158015611d5c573d6000803e3d6000fd5b505050506040513d601f19601f82011682018060405250810190610b309190612b53565b611d8a8487612431565b115b15611eac57611d9b8386612431565b600554604051636eb1769f60e11b81526001600160a01b039091169063dd62ed3e90611dcd9030908790600401612d64565b602060405180830381865afa158015611dea573d6000803e3d6000fd5b505050506040513d601f19601f82011682018060405250810190611e0e9190612b53565b1015611e2d57600554611e2d906001600160a01b03168360001961246a565b6001600160a01b038216636e553f65611e468588612431565b896040518363ffffffff1660e01b8152600401611e64929190612dc4565b6020604051808303816000875af1158015611e83573d6000803e3d6000fd5b505050506040513d601f19601f82011682018060405250810190611ea79190612b53565b508492505b6001600160a01b0386163014611ed357600554611ed3906001600160a01b031687856125a4565b5050949350505050565b6001600160a01b038216611f3d5760405162461bcd60e51b815260206004820152602160248201527f45524332303a206275726e2066726f6d20746865207a65726f206164647265736044820152607360f81b6064820152608401610d65565b6001600160a01b03821660009081526020819052604090205481811015611fb15760405162461bcd60e51b815260206004820152602260248201527f45524332303a206275726e20616d6f756e7420657863656564732062616c616e604482015261636560f01b6064820152608401610d65565b6001600160a01b0383166000908152602081905260408120838303905560028054849290611fe0908490612ddb565b90915550506040518281526000906001600160a01b03851690600080516020612e0f83398151915290602001611311565b505050565b6000610855826000196116eb565b60008061202f611174565b905082156120e857600019841461205d57600554612058906001600160a01b03168730876125c3565b6120e8565b6005546040516370a0823160e01b81526120e891889130916001600160a01b0316906370a0823190612093908590600401612a37565b602060405180830381865afa1580156120b0573d6000803e3d6000fd5b505050506040513d601f19601f820116820180604052508101906120d49190612b53565b6005546001600160a01b03169291906125c3565b600554604051636eb1769f60e11b815285916001600160a01b03169063dd62ed3e9061211a9030908690600401612d64565b602060405180830381865afa158015612137573d6000803e3d6000fd5b505050506040513d601f19601f8201168201806040525081019061215b9190612b53565b101561219257600554612179906001600160a01b031682600061246a565b600554612192906001600160a01b03168260001961246a565b6005546040516370a0823160e01b81526000916001600160a01b0316906370a08231906121c3903090600401612a37565b602060405180830381865afa1580156121e0573d6000803e3d6000fd5b505050506040513d601f19601f820116820180604052508101906122049190612b53565b604051636e553f6560e01b81529091506001600160a01b03831690636e553f65906122359088908a90600401612dc4565b6020604051808303816000875af1158015612254573d6000803e3d6000fd5b505050506040513d601f19601f820116820180604052508101906122789190612b53565b506005546040516370a0823160e01b81526000916001600160a01b0316906370a08231906122aa903090600401612a37565b602060405180830381865afa1580156122c7573d6000803e3d6000fd5b505050506040513d601f19601f820116820180604052508101906122eb9190612b53565b90506122f78282612431565b93506001600160a01b03881630148015906123125750600081115b1561232e5760055461232e906001600160a01b031689836125a4565b505050949350505050565b600080612345306108ba565b90508281111561172c576123598382612ddb565b8361171860025490565b6001600160a01b0382166123b95760405162461bcd60e51b815260206004820152601f60248201527f45524332303a206d696e7420746f20746865207a65726f2061646472657373006044820152606401610d65565b80600260008282546123cb9190612d0b565b90915550506001600160a01b038216600090815260208190526040812080548392906123f8908490612d0b565b90915550506040518181526001600160a01b03831690600090600080516020612e0f8339815191529060200160405180910390a35b5050565b600061087a8284612ddb565b60065481511115610ec257805161242d906006906020840190612837565b600081831061172c578161087a565b8015806124e35750604051636eb1769f60e11b81526001600160a01b0384169063dd62ed3e906124a09030908690600401612d64565b602060405180830381865afa1580156124bd573d6000803e3d6000fd5b505050506040513d601f19601f820116820180604052508101906124e19190612b53565b155b61254e5760405162461bcd60e51b815260206004820152603660248201527f5361666545524332303a20617070726f76652066726f6d206e6f6e2d7a65726f60448201527520746f206e6f6e2d7a65726f20616c6c6f77616e636560501b6064820152608401610d65565b6120118363095ea7b360e01b848460405160240161256d929190612bb1565b60408051601f198184030181529190526020810180516001600160e01b03166001600160e01b0319909316929092179091526125e4565b6120118363a9059cbb60e01b848460405160240161256d929190612bb1565b611392846323b872dd60e01b85858560405160240161256d93929190612d7e565b6000612639826040518060400160405280602081526020017f5361666545524332303a206c6f772d6c6576656c2063616c6c206661696c6564815250856001600160a01b03166126b69092919063ffffffff16565b80519091501561201157808060200190518101906126579190612da2565b6120115760405162461bcd60e51b815260206004820152602a60248201527f5361666545524332303a204552433230206f7065726174696f6e20646964206e6044820152691bdd081cdd58d8d9595960b21b6064820152608401610d65565b60606126c584846000856126cd565b949350505050565b60608247101561272e5760405162461bcd60e51b815260206004820152602660248201527f416464726573733a20696e73756666696369656e742062616c616e636520666f6044820152651c8818d85b1b60d21b6064820152608401610d65565b6001600160a01b0385163b6127855760405162461bcd60e51b815260206004820152601d60248201527f416464726573733a2063616c6c20746f206e6f6e2d636f6e74726163740000006044820152606401610d65565b600080866001600160a01b031685876040516127a19190612df2565b60006040518083038185875af1925050503d80600081146127de576040519150601f19603f3d011682016040523d82523d6000602084013e6127e3565b606091505b50915091506127f38282866127fe565b979650505050505050565b6060831561280d57508161087a565b82511561281d5782518084602001fd5b8160405162461bcd60e51b8152600401610d65919061292a565b82805482825590600052602060002090810192821561288c579160200282015b8281111561288c57825182546001600160a01b0319166001600160a01b03909116178255602090920191600190910190612857565b5061289892915061289c565b5090565b5b80821115612898576000815560010161289d565b6020808252825182820181905260009190848201906040850190845b818110156128f25783516001600160a01b0316835292840192918401916001016128cd565b50909695505050505050565b60005b83811015612919578181015183820152602001612901565b838111156113925750506000910152565b60208152600082518060208401526129498160408501602087016128fe565b601f01601f19169190910160400192915050565b6001600160a01b0381168114610ec257600080fd5b6000806040838503121561298557600080fd5b82356129908161295d565b946020939093013593505050565b6000806000606084860312156129b357600080fd5b83356129be8161295d565b925060208401356129ce8161295d565b929592945050506040919091013590565b6000602082840312156129f157600080fd5b813561087a8161295d565b60008060408385031215612a0f57600080fd5b50508035926020909101359150565b600060208284031215612a3057600080fd5b5035919050565b6001600160a01b0391909116815260200190565b600080600060608486031215612a6057600080fd5b8335612a6b8161295d565b9250602084013591506040840135612a828161295d565b809150509250925092565b600080600080600080600060e0888a031215612aa857600080fd5b8735612ab38161295d565b96506020880135612ac38161295d565b95506040880135945060608801359350608088013560ff81168114612ae757600080fd5b9699959850939692959460a0840135945060c09093013592915050565b60008060408385031215612b1757600080fd5b8235612b228161295d565b91506020830135612b328161295d565b809150509250929050565b634e487b7160e01b600052603260045260246000fd5b600060208284031215612b6557600080fd5b5051919050565b634e487b7160e01b600052601160045260246000fd5b600060018201612b9457612b94612b6c565b5060010190565b634e487b7160e01b600052604160045260246000fd5b6001600160a01b03929092168252602082015260400190565b600060208284031215612bdc57600080fd5b815161087a8161295d565b600181811c90821680612bfb57607f821691505b602082108103610eed57634e487b7160e01b600052602260045260246000fd5b600181815b80851115612c56578160001904821115612c3c57612c3c612b6c565b80851615612c4957918102915b93841c9390800290612c20565b509250929050565b600082612c6d57506001610855565b81612c7a57506000610855565b8160018114612c905760028114612c9a57612cb6565b6001915050610855565b60ff841115612cab57612cab612b6c565b50506001821b610855565b5060208310610133831016604e8410600b8410161715612cd9575081810a610855565b612ce38383612c1b565b8060001904821115612cf757612cf7612b6c565b029392505050565b600061087a8383612c5e565b60008219821115612d1e57612d1e612b6c565b500190565b6000816000190483118215151615612d3d57612d3d612b6c565b500290565b600082612d5f57634e487b7160e01b600052601260045260246000fd5b500490565b6001600160a01b0392831681529116602082015260400190565b6001600160a01b039384168152919092166020820152604081019190915260600190565b600060208284031215612db457600080fd5b8151801515811461087a57600080fd5b9182526001600160a01b0316602082015260400190565b600082821015612ded57612ded612b6c565b500390565b60008251612e048184602087016128fe565b919091019291505056feddf252ad1be2c89b69c2b068fc378daa952ba7f163c4a11628f55a4df523b3efa264697066735822122096b5f0830566ad4db6841f359881c68078c307ed745272d7a7253dec1a4ee42364736f6c634300080d0033",
  "devdoc": {
    "kind": "dev",
    "methods": {
      "allVaults()": {
        "returns": {
          "_0": "An array containing instances of VaultAPI"
        }
      },
      "allowance(address,address)": {
        "details": "See {IERC20-allowance}."
      },
      "approve(address,uint256)": {
        "details": "See {IERC20-approve}. NOTE: If `amount` is the maximum `uint256`, the allowance is not updated on `transferFrom`. This is semantically equivalent to an infinite approval. Requirements: - `spender` cannot be the zero address."
      },
      "balanceOf(address)": {
        "details": "See {IERC20-balanceOf}."
      },
      "bestVault()": {
        "returns": {
          "_0": "An instance of a VaultAPI"
        }
      },
      "decimals()": {
        "details": "Returns the number of decimals used to get its user representation. For example, if `decimals` equals `2`, a balance of `505` tokens should be displayed to a user as `5.05` (`505 / 10 ** 2`). Tokens usually opt for a value of 18, imitating the relationship between Ether and Wei. This is the value {ERC20} uses, unless this function is overridden; NOTE: This information is only used for _display_ purposes: it in no way affects any of the arithmetic of the contract, including {IERC20-balanceOf} and {IERC20-transfer}."
      },
      "decreaseAllowance(address,uint256)": {
        "details": "Atomically decreases the allowance granted to `spender` by the caller. This is an alternative to {approve} that can be used as a mitigation for problems described in {IERC20-approve}. Emits an {Approval} event indicating the updated allowance. Requirements: - `spender` cannot be the zero address. - `spender` must have allowance for the caller of at least `subtractedValue`."
      },
      "increaseAllowance(address,uint256)": {
        "details": "Atomically increases the allowance granted to `spender` by the caller. This is an alternative to {approve} that can be used as a mitigation for problems described in {IERC20-approve}. Emits an {Approval} event indicating the updated allowance. Requirements: - `spender` cannot be the zero address."
      },
      "name()": {
        "details": "Returns the name of the token."
      },
      "permit(address,address,uint256,uint256,uint8,bytes32,bytes32)": {
        "params": {
          "amount": "The number of tokens that are approved (2^256-1 means infinite)",
          "deadline": "The time at which to expire the signature",
          "owner": "The address to approve from",
          "r": "Half of the ECDSA signature pair",
          "s": "Half of the ECDSA signature pair",
          "spender": "The address to be approved",
          "v": "The recovery byte of the signature"
        }
      },
      "setRegistry(address)": {
        "params": {
          "_registry": "The new _registry address."
        }
      },
      "symbol()": {
        "details": "Returns the symbol of the token, usually a shorter version of the name."
      },
      "totalAssets()": {
        "returns": {
          "assets": "the sum of all the assets managed by the underlying vaults."
        }
      },
      "totalSupply()": {
        "details": "See {IERC20-totalSupply}."
      },
      "totalVaultBalance(address)": {
        "details": "will be used to get the wrapper balance using totalVaultBalance(address(this)).",
        "params": {
          "account": "The address of the account."
        },
        "returns": {
          "balance": "of token for the account accross all the vaults."
        }
      },
      "transfer(address,uint256)": {
        "details": "See {IERC20-transfer}. Requirements: - `to` cannot be the zero address. - the caller must have a balance of at least `amount`."
      },
      "transferFrom(address,address,uint256)": {
        "details": "See {IERC20-transferFrom}. Emits an {Approval} event indicating the updated allowance. This is not required by the EIP. See the note at the beginning of {ERC20}. NOTE: Does not update the allowance if the current allowance is the maximum `uint256`. Requirements: - `from` and `to` cannot be the zero address. - `from` must have a balance of at least `amount`. - the caller must have allowance for ``from``'s tokens of at least `amount`."
      }
    },
    "version": 1
  },
  "userdoc": {
    "kind": "user",
    "methods": {
      "DOMAIN_TYPEHASH()": {
        "notice": "The EIP-712 typehash for the contract's domain"
      },
      "PERMIT_TYPEHASH()": {
        "notice": "The EIP-712 typehash for the permit struct used by the contract"
      },
      "allVaults()": {
        "notice": "Used to get all vaults from the registery for the token"
      },
      "bestVault()": {
        "notice": "Used to get the most revent vault for the token using the registry."
      },
      "nonces(address)": {
        "notice": "A record of states for signing / validating signatures"
      },
      "permit(address,address,uint256,uint256,uint8,bytes32,bytes32)": {
        "notice": "Triggers an approval from owner to spends"
      },
      "setRegistry(address)": {
        "notice": "Used to update the yearn registry."
      },
      "totalAssets()": {
        "notice": "Used to get the TVL on the underlying vaults."
      },
      "totalVaultBalance(address)": {
        "notice": "Used to get the balance of an account accross all the vaults for a token."
      }
    },
    "version": 1
  },
  "storageLayout": {
    "storage": [
      {
        "astId": 3357,
        "contract": "src/extensions/YearnFinanceWrapper.sol:YearnFinanceWrapper",
        "label": "_balances",
        "offset": 0,
        "slot": "0",
        "type": "t_mapping(t_address,t_uint256)"
      },
      {
        "astId": 3363,
        "contract": "src/extensions/YearnFinanceWrapper.sol:YearnFinanceWrapper",
        "label": "_allowances",
        "offset": 0,
        "slot": "1",
        "type": "t_mapping(t_address,t_mapping(t_address,t_uint256))"
      },
      {
        "astId": 3365,
        "contract": "src/extensions/YearnFinanceWrapper.sol:YearnFinanceWrapper",
        "label": "_totalSupply",
        "offset": 0,
        "slot": "2",
        "type": "t_uint256"
      },
      {
        "astId": 3367,
        "contract": "src/extensions/YearnFinanceWrapper.sol:YearnFinanceWrapper",
        "label": "_name",
        "offset": 0,
        "slot": "3",
        "type": "t_string_storage"
      },
      {
        "astId": 3369,
        "contract": "src/extensions/YearnFinanceWrapper.sol:YearnFinanceWrapper",
        "label": "_symbol",
        "offset": 0,
        "slot": "4",
        "type": "t_string_storage"
      },
      {
        "astId": 23125,
        "contract": "src/extensions/YearnFinanceWrapper.sol:YearnFinanceWrapper",
        "label": "token",
        "offset": 0,
        "slot": "5",
        "type": "t_contract(IERC20)4005"
      },
      {
        "astId": 23129,
        "contract": "src/extensions/YearnFinanceWrapper.sol:YearnFinanceWrapper",
        "label": "_cachedVaults",
        "offset": 0,
        "slot": "6",
        "type": "t_array(t_contract(VaultAPI)24828)dyn_storage"
      },
      {
        "astId": 23132,
        "contract": "src/extensions/YearnFinanceWrapper.sol:YearnFinanceWrapper",
        "label": "registry",
        "offset": 0,
        "slot": "7",
        "type": "t_contract(RegistryAPI)23111"
      },
      {
        "astId": 24084,
        "contract": "src/extensions/YearnFinanceWrapper.sol:YearnFinanceWrapper",
        "label": "nonces",
        "offset": 0,
        "slot": "8",
        "type": "t_mapping(t_address,t_uint256)"
      },
      {
        "astId": 24086,
        "contract": "src/extensions/YearnFinanceWrapper.sol:YearnFinanceWrapper",
        "label": "affiliate",
        "offset": 0,
        "slot": "9",
        "type": "t_address"
      },
      {
        "astId": 24088,
        "contract": "src/extensions/YearnFinanceWrapper.sol:YearnFinanceWrapper",
        "label": "pendingAffiliate",
        "offset": 0,
        "slot": "10",
        "type": "t_address"
      }
    ],
    "types": {
      "t_address": {
        "encoding": "inplace",
        "label": "address",
        "numberOfBytes": "20"
      },
      "t_array(t_contract(VaultAPI)24828)dyn_storage": {
        "base": "t_contract(VaultAPI)24828",
        "encoding": "dynamic_array",
        "label": "contract VaultAPI[]",
        "numberOfBytes": "32"
      },
      "t_contract(IERC20)4005": {
        "encoding": "inplace",
        "label": "contract IERC20",
        "numberOfBytes": "20"
      },
      "t_contract(RegistryAPI)23111": {
        "encoding": "inplace",
        "label": "contract RegistryAPI",
        "numberOfBytes": "20"
      },
      "t_contract(VaultAPI)24828": {
        "encoding": "inplace",
        "label": "contract VaultAPI",
        "numberOfBytes": "20"
      },
      "t_mapping(t_address,t_mapping(t_address,t_uint256))": {
        "encoding": "mapping",
        "key": "t_address",
        "label": "mapping(address => mapping(address => uint256))",
        "numberOfBytes": "32",
        "value": "t_mapping(t_address,t_uint256)"
      },
      "t_mapping(t_address,t_uint256)": {
        "encoding": "mapping",
        "key": "t_address",
        "label": "mapping(address => uint256)",
        "numberOfBytes": "32",
        "value": "t_uint256"
      },
      "t_string_storage": {
        "encoding": "bytes",
        "label": "string",
        "numberOfBytes": "32"
      },
      "t_uint256": {
        "encoding": "inplace",
        "label": "uint256",
        "numberOfBytes": "32"
      }
    }
  }
}