{
  "address": "0x2df2bBb6C30c19e9f739f08C52e33f0A3cAD9a84",
  "abi": [
    {
      "inputs": [
        {
          "internalType": "address",
          "name": "_token",
          "type": "address"
        },
        {
          "internalType": "address",
          "name": "_registry",
          "type": "address"
        },
        {
          "internalType": "string",
          "name": "name",
          "type": "string"
        },
        {
          "internalType": "string",
          "name": "symbol",
          "type": "string"
        }
      ],
      "stateMutability": "nonpayable",
      "type": "constructor"
    },
    {
      "anonymous": false,
      "inputs": [
        {
          "indexed": true,
          "internalType": "address",
          "name": "owner",
          "type": "address"
        },
        {
          "indexed": true,
          "internalType": "address",
          "name": "spender",
          "type": "address"
        },
        {
          "indexed": false,
          "internalType": "uint256",
          "name": "value",
          "type": "uint256"
        }
      ],
      "name": "Approval",
      "type": "event"
    },
    {
      "anonymous": false,
      "inputs": [
        {
          "indexed": true,
          "internalType": "address",
          "name": "from",
          "type": "address"
        },
        {
          "indexed": true,
          "internalType": "address",
          "name": "to",
          "type": "address"
        },
        {
          "indexed": false,
          "internalType": "uint256",
          "name": "value",
          "type": "uint256"
        }
      ],
      "name": "Transfer",
      "type": "event"
    },
    {
      "inputs": [],
      "name": "DOMAIN_SEPARATOR",
      "outputs": [
        {
          "internalType": "bytes32",
          "name": "",
          "type": "bytes32"
        }
      ],
      "stateMutability": "view",
      "type": "function"
    },
    {
      "inputs": [],
      "name": "DOMAIN_TYPEHASH",
      "outputs": [
        {
          "internalType": "bytes32",
          "name": "",
          "type": "bytes32"
        }
      ],
      "stateMutability": "view",
      "type": "function"
    },
    {
      "inputs": [],
      "name": "PERMIT_TYPEHASH",
      "outputs": [
        {
          "internalType": "bytes32",
          "name": "",
          "type": "bytes32"
        }
      ],
      "stateMutability": "view",
      "type": "function"
    },
    {
      "inputs": [],
      "name": "acceptAffiliate",
      "outputs": [],
      "stateMutability": "nonpayable",
      "type": "function"
    },
    {
      "inputs": [],
      "name": "affiliate",
      "outputs": [
        {
          "internalType": "address",
          "name": "",
          "type": "address"
        }
      ],
      "stateMutability": "view",
      "type": "function"
    },
    {
      "inputs": [],
      "name": "allVaults",
      "outputs": [
        {
          "internalType": "contract VaultAPI[]",
          "name": "",
          "type": "address[]"
        }
      ],
      "stateMutability": "view",
      "type": "function"
    },
    {
      "inputs": [
        {
          "internalType": "address",
          "name": "owner",
          "type": "address"
        },
        {
          "internalType": "address",
          "name": "spender",
          "type": "address"
        }
      ],
      "name": "allowance",
      "outputs": [
        {
          "internalType": "uint256",
          "name": "",
          "type": "uint256"
        }
      ],
      "stateMutability": "view",
      "type": "function"
    },
    {
      "inputs": [
        {
          "internalType": "address",
          "name": "spender",
          "type": "address"
        },
        {
          "internalType": "uint256",
          "name": "amount",
          "type": "uint256"
        }
      ],
      "name": "approve",
      "outputs": [
        {
          "internalType": "bool",
          "name": "",
          "type": "bool"
        }
      ],
      "stateMutability": "nonpayable",
      "type": "function"
    },
    {
      "inputs": [
        {
          "internalType": "address",
          "name": "account",
          "type": "address"
        }
      ],
      "name": "balanceOf",
      "outputs": [
        {
          "internalType": "uint256",
          "name": "",
          "type": "uint256"
        }
      ],
      "stateMutability": "view",
      "type": "function"
    },
    {
      "inputs": [],
      "name": "bestVault",
      "outputs": [
        {
          "internalType": "contract VaultAPI",
          "name": "",
          "type": "address"
        }
      ],
      "stateMutability": "view",
      "type": "function"
    },
    {
      "inputs": [],
      "name": "decimals",
      "outputs": [
        {
          "internalType": "uint8",
          "name": "",
          "type": "uint8"
        }
      ],
      "stateMutability": "view",
      "type": "function"
    },
    {
      "inputs": [
        {
          "internalType": "address",
          "name": "spender",
          "type": "address"
        },
        {
          "internalType": "uint256",
          "name": "subtractedValue",
          "type": "uint256"
        }
      ],
      "name": "decreaseAllowance",
      "outputs": [
        {
          "internalType": "bool",
          "name": "",
          "type": "bool"
        }
      ],
      "stateMutability": "nonpayable",
      "type": "function"
    },
    {
      "inputs": [
        {
          "internalType": "uint256",
          "name": "amount",
          "type": "uint256"
        }
      ],
      "name": "deposit",
      "outputs": [
        {
          "internalType": "uint256",
          "name": "deposited",
          "type": "uint256"
        }
      ],
      "stateMutability": "nonpayable",
      "type": "function"
    },
    {
      "inputs": [],
      "name": "getReserveNormalizedIncome",
      "outputs": [
        {
          "internalType": "uint256",
          "name": "",
          "type": "uint256"
        }
      ],
      "stateMutability": "view",
      "type": "function"
    },
    {
      "inputs": [
        {
          "internalType": "address",
          "name": "spender",
          "type": "address"
        },
        {
          "internalType": "uint256",
          "name": "addedValue",
          "type": "uint256"
        }
      ],
      "name": "increaseAllowance",
      "outputs": [
        {
          "internalType": "bool",
          "name": "",
          "type": "bool"
        }
      ],
      "stateMutability": "nonpayable",
      "type": "function"
    },
    {
      "inputs": [
        {
          "internalType": "uint256",
          "name": "amount",
          "type": "uint256"
        },
        {
          "internalType": "uint256",
          "name": "maxMigrationLoss",
          "type": "uint256"
        }
      ],
      "name": "migrate",
      "outputs": [
        {
          "internalType": "uint256",
          "name": "",
          "type": "uint256"
        }
      ],
      "stateMutability": "nonpayable",
      "type": "function"
    },
    {
      "inputs": [
        {
          "internalType": "uint256",
          "name": "amount",
          "type": "uint256"
        }
      ],
      "name": "migrate",
      "outputs": [
        {
          "internalType": "uint256",
          "name": "",
          "type": "uint256"
        }
      ],
      "stateMutability": "nonpayable",
      "type": "function"
    },
    {
      "inputs": [],
      "name": "migrate",
      "outputs": [
        {
          "internalType": "uint256",
          "name": "",
          "type": "uint256"
        }
      ],
      "stateMutability": "nonpayable",
      "type": "function"
    },
    {
      "inputs": [],
      "name": "name",
      "outputs": [
        {
          "internalType": "string",
          "name": "",
          "type": "string"
        }
      ],
      "stateMutability": "view",
      "type": "function"
    },
    {
      "inputs": [
        {
          "internalType": "address",
          "name": "",
          "type": "address"
        }
      ],
      "name": "nonces",
      "outputs": [
        {
          "internalType": "uint256",
          "name": "",
          "type": "uint256"
        }
      ],
      "stateMutability": "view",
      "type": "function"
    },
    {
      "inputs": [],
      "name": "pendingAffiliate",
      "outputs": [
        {
          "internalType": "address",
          "name": "",
          "type": "address"
        }
      ],
      "stateMutability": "view",
      "type": "function"
    },
    {
      "inputs": [
        {
          "internalType": "address",
          "name": "owner",
          "type": "address"
        },
        {
          "internalType": "address",
          "name": "spender",
          "type": "address"
        },
        {
          "internalType": "uint256",
          "name": "amount",
          "type": "uint256"
        },
        {
          "internalType": "uint256",
          "name": "deadline",
          "type": "uint256"
        },
        {
          "internalType": "uint8",
          "name": "v",
          "type": "uint8"
        },
        {
          "internalType": "bytes32",
          "name": "r",
          "type": "bytes32"
        },
        {
          "internalType": "bytes32",
          "name": "s",
          "type": "bytes32"
        }
      ],
      "name": "permit",
      "outputs": [],
      "stateMutability": "nonpayable",
      "type": "function"
    },
    {
      "inputs": [],
      "name": "pricePerShare",
      "outputs": [
        {
          "internalType": "uint256",
          "name": "",
          "type": "uint256"
        }
      ],
      "stateMutability": "view",
      "type": "function"
    },
    {
      "inputs": [],
      "name": "registry",
      "outputs": [
        {
          "internalType": "contract RegistryAPI",
          "name": "",
          "type": "address"
        }
      ],
      "stateMutability": "view",
      "type": "function"
    },
    {
      "inputs": [
        {
          "internalType": "address",
          "name": "_affiliate",
          "type": "address"
        }
      ],
      "name": "setAffiliate",
      "outputs": [],
      "stateMutability": "nonpayable",
      "type": "function"
    },
    {
      "inputs": [
        {
          "internalType": "address",
          "name": "_registry",
          "type": "address"
        }
      ],
      "name": "setRegistry",
      "outputs": [],
      "stateMutability": "nonpayable",
      "type": "function"
    },
    {
      "inputs": [],
      "name": "symbol",
      "outputs": [
        {
          "internalType": "string",
          "name": "",
          "type": "string"
        }
      ],
      "stateMutability": "view",
      "type": "function"
    },
    {
      "inputs": [],
      "name": "token",
      "outputs": [
        {
          "internalType": "contract IERC20",
          "name": "",
          "type": "address"
        }
      ],
      "stateMutability": "view",
      "type": "function"
    },
    {
      "inputs": [],
      "name": "totalAssets",
      "outputs": [
        {
          "internalType": "uint256",
          "name": "assets",
          "type": "uint256"
        }
      ],
      "stateMutability": "view",
      "type": "function"
    },
    {
      "inputs": [],
      "name": "totalSupply",
      "outputs": [
        {
          "internalType": "uint256",
          "name": "",
          "type": "uint256"
        }
      ],
      "stateMutability": "view",
      "type": "function"
    },
    {
      "inputs": [
        {
          "internalType": "address",
          "name": "account",
          "type": "address"
        }
      ],
      "name": "totalVaultBalance",
      "outputs": [
        {
          "internalType": "uint256",
          "name": "balance",
          "type": "uint256"
        }
      ],
      "stateMutability": "view",
      "type": "function"
    },
    {
      "inputs": [
        {
          "internalType": "address",
          "name": "to",
          "type": "address"
        },
        {
          "internalType": "uint256",
          "name": "amount",
          "type": "uint256"
        }
      ],
      "name": "transfer",
      "outputs": [
        {
          "internalType": "bool",
          "name": "",
          "type": "bool"
        }
      ],
      "stateMutability": "nonpayable",
      "type": "function"
    },
    {
      "inputs": [
        {
          "internalType": "address",
          "name": "from",
          "type": "address"
        },
        {
          "internalType": "address",
          "name": "to",
          "type": "address"
        },
        {
          "internalType": "uint256",
          "name": "amount",
          "type": "uint256"
        }
      ],
      "name": "transferFrom",
      "outputs": [
        {
          "internalType": "bool",
          "name": "",
          "type": "bool"
        }
      ],
      "stateMutability": "nonpayable",
      "type": "function"
    },
    {
      "inputs": [
        {
          "internalType": "address",
          "name": "token",
          "type": "address"
        },
        {
          "internalType": "uint256",
          "name": "amount",
          "type": "uint256"
        },
        {
          "internalType": "address",
          "name": "to",
          "type": "address"
        }
      ],
      "name": "withdraw",
      "outputs": [
        {
          "internalType": "uint256",
          "name": "withdrawn",
          "type": "uint256"
        }
      ],
      "stateMutability": "nonpayable",
      "type": "function"
    }
  ],
  "transactionHash": "0x5cfc66faafcc543d10658fd62d215e9dfaac61a1657440523ad8307eab51a37b",
  "args": [
    "0x1714B9AF0BF10F9EdE7aEE00584B2B731437EdFA",
    "0xC660a4B7e9304E92734DFee8a9B51AA348eB8b58",
    "Test Wrapper",
    "TW"
  ],
  "numDeployments": 1,
  "solcInputHash": "fe64e6c960b97c3c29d6815f84a5aba4",
  "bytecode": "0x60a06040523480156200001157600080fd5b506040516200345c3803806200345c8339810160408190526200003491620002f5565b8383838381600390805190602001906200005092919062000165565b5080516200006690600490602084019062000165565b5050600580546001600160a01b039485166001600160a01b03199182161790915560078054939094169216919091179091555081516020808401919091206040805180820190915260018152603160f81b9201919091527f8b73c3c69bb8fe3d512ecc4cf759cc79239f7b179b0ffacaa9a75d522b39400f907fc89efdaa54c0f20c7adf612882df0950f5a951637e0307cdcb4c672f298b8bc6620001084690565b604080516020810195909552840192909252606083015260808201523060a082015260c00160408051601f1981840301815291905280516020909101206080525050600980546001600160a01b0319163317905550620003c29050565b828054620001739062000385565b90600052602060002090601f016020900481019282620001975760008555620001e2565b82601f10620001b257805160ff1916838001178555620001e2565b82800160010185558215620001e2579182015b82811115620001e2578251825591602001919060010190620001c5565b50620001f0929150620001f4565b5090565b5b80821115620001f05760008155600101620001f5565b80516001600160a01b03811681146200022357600080fd5b919050565b634e487b7160e01b600052604160045260246000fd5b600082601f8301126200025057600080fd5b81516001600160401b03808211156200026d576200026d62000228565b604051601f8301601f19908116603f0116810190828211818310171562000298576200029862000228565b81604052838152602092508683858801011115620002b557600080fd5b600091505b83821015620002d95785820183015181830184015290820190620002ba565b83821115620002eb5760008385830101525b9695505050505050565b600080600080608085870312156200030c57600080fd5b62000317856200020b565b935062000327602086016200020b565b60408601519093506001600160401b03808211156200034557600080fd5b62000353888389016200023e565b935060608701519150808211156200036a57600080fd5b5062000379878288016200023e565b91505092959194509250565b600181811c908216806200039a57607f821691505b60208210811415620003bc57634e487b7160e01b600052602260045260246000fd5b50919050565b608051613077620003e560003960008181610296015261109201526130776000f3fe608060405234801561001057600080fd5b50600436106101965760003560e01c806301e1d1141461019b578063063effeb146101b657806306fdde03146101cb578063095ea7b3146101e057806318160ddd1461020357806320606b701461020b57806323b872dd146102325780632bbb56d91461024557806330adf81f1461025a57806330e5065e1461026f578063313ce567146102825780633644e5151461029157806339509351146102b85780633e54bacb146102cb578063454b0608146102de57806345e05f43146102f157806369328dec146103115780636c31b5f01461032457806370a082311461032c5780637b1039991461033f5780637ecebe00146103525780638fd3ab801461037257806395d89b411461037a57806396c2614c1461038257806399530b061461038a578063a457c2d714610392578063a9059cbb146103a5578063a91ee0dc146103b8578063b38a440e146103cb578063b6b55f25146103de578063d505accf146103f1578063dd62ed3e14610404578063e95b2de814610417578063fc0c546a1461041f575b600080fd5b6101a3610432565b6040519081526020015b60405180910390f35b6101be6104f8565b6040516101ad9190612aa1565b6101d3610784565b6040516101ad9190612b1a565b6101f36101ee366004612b62565b610816565b60405190151581526020016101ad565b6002546101a3565b6101a37f8b73c3c69bb8fe3d512ecc4cf759cc79239f7b179b0ffacaa9a75d522b39400f81565b6101f3610240366004612b8e565b610830565b610258610253366004612bcf565b610887565b005b6101a360008051602061302283398151915281565b6101a361027d366004612bcf565b6108c0565b604051601281526020016101ad565b6101a37f000000000000000000000000000000000000000000000000000000000000000081565b6101f36102c6366004612b62565b610b9c565b6101a36102d9366004612bec565b610bbe565b6101a36102ec366004612c0e565b610be3565b600954610304906001600160a01b031681565b6040516101ad9190612c27565b6101a361031f366004612c3b565b610c07565b610258610c71565b6101a361033a366004612bcf565b610c9c565b600754610304906001600160a01b031681565b6101a3610360366004612bcf565b60086020526000908152604090205481565b6101a3610cb7565b6101d3610cdf565b6101a3610cee565b6101a3610d06565b6101f36103a0366004612b62565b610d51565b6101f36103b3366004612b62565b610ddc565b6102586103c6366004612bcf565b610dea565b600a54610304906001600160a01b031681565b6101a36103ec366004612c0e565b610f39565b6102586103ff366004612c7d565b610f67565b6101a3610412366004612cf4565b6111ab565b6103046111d6565b600554610304906001600160a01b031681565b60008061043d6104f8565b905060005b81518110156104f3576104df82828151811061046057610460612d2d565b60200260200101516001600160a01b03166301e1d1146040518163ffffffff1660e01b815260040160206040518083038186803b1580156104a057600080fd5b505afa1580156104b4573d6000803e3d6000fd5b505050506040513d601f19601f820116820180604052508101906104d89190612d43565b849061125e565b9250806104eb81612d72565b915050610442565b505090565b60065460075460055460405163f9c7bba560e01b8152606093926000926001600160a01b039182169263f9c7bba592610535921690600401612c27565b60206040518083038186803b15801561054d57600080fd5b505afa158015610561573d6000803e3d6000fd5b505050506040513d601f19601f820116820180604052508101906105859190612d43565b9050808214156105f15760068054806020026020016040519081016040528092919081815260200182805480156105e557602002820191906000526020600020905b81546001600160a01b031681526001909101906020018083116105c7575b50505050509250505090565b6000816001600160401b0381111561060b5761060b612d8d565b604051908082528060200260200182016040528015610634578160200160208202803683370190505b50905060005b838110156106af576006818154811061065557610655612d2d565b9060005260206000200160009054906101000a90046001600160a01b031682828151811061068557610685612d2d565b6001600160a01b0390921660209283029190910190910152806106a781612d72565b91505061063a565b50825b8281101561077c57600754600554604051633ddfe34f60e11b81526001600160a01b0392831692637bbfc69e926106f0929116908590600401612da3565b60206040518083038186803b15801561070857600080fd5b505afa15801561071c573d6000803e3d6000fd5b505050506040513d601f19601f820116820180604052508101906107409190612dbc565b82828151811061075257610752612d2d565b6001600160a01b03909216602092830291909101909101528061077481612d72565b9150506106b2565b509392505050565b60606003805461079390612dd9565b80601f01602080910402602001604051908101604052809291908181526020018280546107bf90612dd9565b801561080c5780601f106107e15761010080835404028352916020019161080c565b820191906000526020600020905b8154815290600101906020018083116107ef57829003601f168201915b5050505050905090565b60003361082481858561126a565b60019150505b92915050565b60006108636040518060400160405280601081526020016f7472616e73666572696e672066726f6d60801b81525061138f565b3361086f8582856113d2565b61087a85858561144c565b60019150505b9392505050565b6009546001600160a01b0316331461089e57600080fd5b600a80546001600160a01b0319166001600160a01b0392909216919091179055565b6000806108cb6104f8565b905060005b8151811015610b95576000610a038383815181106108f0576108f0612d2d565b60200260200101516001600160a01b03166399530b066040518163ffffffff1660e01b815260040160206040518083038186803b15801561093057600080fd5b505afa158015610944573d6000803e3d6000fd5b505050506040513d601f19601f820116820180604052508101906109689190612d43565b84848151811061097a5761097a612d2d565b60200260200101516001600160a01b03166370a08231886040518263ffffffff1660e01b81526004016109ad9190612c27565b60206040518083038186803b1580156109c557600080fd5b505afa1580156109d9573d6000803e3d6000fd5b505050506040513d601f19601f820116820180604052508101906109fd9190612d43565b90611608565b9050610b7f610b78848481518110610a1d57610a1d612d2d565b60200260200101516001600160a01b031663313ce5676040518163ffffffff1660e01b815260040160206040518083038186803b158015610a5d57600080fd5b505afa158015610a71573d6000803e3d6000fd5b505050506040513d601f19601f82011682018060405250810190610a959190612d43565b610aa090600a612ef2565b610b72868681518110610ab557610ab5612d2d565b60200260200101516001600160a01b03166399530b066040518163ffffffff1660e01b815260040160206040518083038186803b158015610af557600080fd5b505afa158015610b09573d6000803e3d6000fd5b505050506040513d601f19601f82011682018060405250810190610b2d9190612d43565b878781518110610b3f57610b3f612d2d565b60200260200101516001600160a01b03166370a082318b6040518263ffffffff1660e01b81526004016109ad9190612c27565b90611614565b859061125e565b9350508080610b8d90612d72565b9150506108d0565b5050919050565b600033610824818585610baf83836111ab565b610bb99190612efe565b61126a565b6009546000906001600160a01b03163314610bd857600080fd5b610880308484611620565b6009546000906001600160a01b03163314610bfd57600080fd5b61082a30836117ba565b600080610c12610d06565b9050600081610c236012600a612ef2565b610c2d9087612f16565b610c379190612f35565b90506000610c4430610c9c565b9050610c5b3086610c54856117c8565b6001611802565b9350610c673083612052565b5050509392505050565b600a546001600160a01b03163314610c8857600080fd5b600980546001600160a01b03191633179055565b6001600160a01b031660009081526020819052604090205490565b6009546000906001600160a01b03163314610cd157600080fd5b610cda3061218b565b905090565b60606004805461079390612dd9565b6000610cf8610d06565b610cda90633b9aca00612f16565b600080610d1260025490565b610d2557670de0b6b3a764000091505090565b600254610d346012600a612ef2565b610d3d306108c0565b610d479190612f16565b61082a9190612f35565b60003381610d5f82866111ab565b905083811015610dc45760405162461bcd60e51b815260206004820152602560248201527f45524332303a2064656372656173656420616c6c6f77616e63652062656c6f77604482015264207a65726f60d81b60648201526084015b60405180910390fd5b610dd1828686840361126a565b506001949350505050565b60003361082481858561144c565b600760009054906101000a90046001600160a01b03166001600160a01b0316635aa6e6756040518163ffffffff1660e01b815260040160206040518083038186803b158015610e3857600080fd5b505afa158015610e4c573d6000803e3d6000fd5b505050506040513d601f19601f82011682018060405250810190610e709190612dbc565b6001600160a01b0316336001600160a01b031614610e8d57600080fd5b600780546001600160a01b0319166001600160a01b03831690811790915560408051635aa6e67560e01b81529051635aa6e67591600480820192602092909190829003018186803b158015610ee157600080fd5b505afa158015610ef5573d6000803e3d6000fd5b505050506040513d601f19601f82011682018060405250810190610f199190612dbc565b6001600160a01b0316336001600160a01b031614610f3657600080fd5b50565b6000610f483330846001612199565b90506000610f55826124f9565b9050610f613082612523565b50919050565b6001600160a01b038716610fb15760405162461bcd60e51b81526020600482015260116024820152707065726d69743a207369676e617475726560781b6044820152606401610dbb565b83421115610ff35760405162461bcd60e51b815260206004820152600f60248201526e1c195c9b5a5d0e88195e1c1a5c9959608a1b6044820152606401610dbb565b6001600160a01b03871660009081526008602052604081208054600080516020613022833981519152918a918a918a91908661102e83612d72565b909155506040805160208101969096526001600160a01b0394851690860152929091166060840152608083015260a082015260c0810186905260e00160408051601f1981840301815290829052805160209182012061190160f01b918301919091527f0000000000000000000000000000000000000000000000000000000000000000602283015260428201819052915060009060620160408051601f198184030181528282528051602091820120600080855291840180845281905260ff89169284019290925260608301879052608083018690529092509060019060a0016020604051602081039080840390855afa158015611130573d6000803e3d6000fd5b505050602060405103519050896001600160a01b0316816001600160a01b0316146111945760405162461bcd60e51b81526020600482015260146024820152731c195c9b5a5d0e881d5b985d5d1a1bdc9a5e995960621b6044820152606401610dbb565b61119f8a8a8a61126a565b50505050505050505050565b6001600160a01b03918216600090815260016020908152604080832093909416825291909152205490565b600754600554604051630e177dc760e41b81526000926001600160a01b039081169263e177dc709261120e9290911690600401612c27565b60206040518083038186803b15801561122657600080fd5b505afa15801561123a573d6000803e3d6000fd5b505050506040513d601f19601f82011682018060405250810190610cda9190612dbc565b60006108808284612efe565b6001600160a01b0383166112cc5760405162461bcd60e51b8152602060048201526024808201527f45524332303a20617070726f76652066726f6d20746865207a65726f206164646044820152637265737360e01b6064820152608401610dbb565b6001600160a01b03821661132d5760405162461bcd60e51b815260206004820152602260248201527f45524332303a20617070726f766520746f20746865207a65726f206164647265604482015261737360f01b6064820152608401610dbb565b6001600160a01b0383811660008181526001602090815260408083209487168084529482529182902085905590518481527f8c5be1e5ebec7d5bd14f71427d1e84f3dd0314c0f7b2291e5b200ac8c7c3b92591015b60405180910390a3505050565b610f36816040516024016113a39190612b1a565b60408051601f198184030181529190526020810180516001600160e01b031663104c13eb60e21b1790526125f1565b60006113de84846111ab565b9050600019811461144657818110156114395760405162461bcd60e51b815260206004820152601d60248201527f45524332303a20696e73756666696369656e7420616c6c6f77616e63650000006044820152606401610dbb565b611446848484840361126a565b50505050565b6001600160a01b0383166114b05760405162461bcd60e51b815260206004820152602560248201527f45524332303a207472616e736665722066726f6d20746865207a65726f206164604482015264647265737360d81b6064820152608401610dbb565b6001600160a01b0382166115125760405162461bcd60e51b815260206004820152602360248201527f45524332303a207472616e7366657220746f20746865207a65726f206164647260448201526265737360e81b6064820152608401610dbb565b6001600160a01b0383166000908152602081905260409020548181101561158a5760405162461bcd60e51b815260206004820152602660248201527f45524332303a207472616e7366657220616d6f756e7420657863656564732062604482015265616c616e636560d01b6064820152608401610dbb565b6001600160a01b038085166000908152602081905260408082208585039055918516815290812080548492906115c1908490612efe565b92505081905550826001600160a01b0316846001600160a01b0316600080516020613002833981519152846040516115fb91815260200190565b60405180910390a3611446565b60006108808284612f16565b60006108808284612f35565b60008061162b6111d6565b90506000816001600160a01b031663ecf708586040518163ffffffff1660e01b815260040160206040518083038186803b15801561166857600080fd5b505afa15801561167c573d6000803e3d6000fd5b505050506040513d601f19601f820116820180604052508101906116a09190612d43565b90506000826001600160a01b03166301e1d1146040518163ffffffff1660e01b815260040160206040518083038186803b1580156116dd57600080fd5b505afa1580156116f1573d6000803e3d6000fd5b505050506040513d601f19601f820116820180604052508101906117159190612d43565b905080821161172a5760009350505050610880565b856000198310801561173d575060001981105b1561175e57600061174e8484612612565b90508082111561175c578091505b505b80156117af5760006117738930846000611802565b90508061178857600095505050505050610880565b611795308a836000612199565b9550866117a28288612612565b11156117ad57600080fd5b505b505050509392505050565b600061088083836000611620565b6000806117d460025490565b905080156117fb5780836117e7306108c0565b6117f19190612f16565b6108809190612f35565b5090919050565b60008061180d6111d6565b905060006118196104f8565b90506118248161261e565b60005b8151811015611ddc57841580156118685750826001600160a01b031682828151811061185557611855612d2d565b60200260200101516001600160a01b0316145b1561187257611dca565b600082828151811061188657611886612d2d565b60200260200101516001600160a01b03166370a082318a6040518263ffffffff1660e01b81526004016118b99190612c27565b60206040518083038186803b1580156118d157600080fd5b505afa1580156118e5573d6000803e3d6000fd5b505050506040513d601f19601f820116820180604052508101906119099190612d43565b90506001600160a01b03891630146119be576119bb8184848151811061193157611931612d2d565b60200260200101516001600160a01b031663dd62ed3e8c306040518363ffffffff1660e01b8152600401611966929190612f57565b60206040518083038186803b15801561197e57600080fd5b505afa158015611992573d6000803e3d6000fd5b505050506040513d601f19601f820116820180604052508101906119b69190612d43565b61263c565b90505b611a14818484815181106119d4576119d4612d2d565b60200260200101516001600160a01b03166375de29026040518163ffffffff1660e01b815260040160206040518083038186803b15801561197e57600080fd5b90508015611dc8576001600160a01b0389163014611ac957828281518110611a3e57611a3e612d2d565b60200260200101516001600160a01b03166323b872dd8a30846040518463ffffffff1660e01b8152600401611a7593929190612f71565b602060405180830381600087803b158015611a8f57600080fd5b505af1158015611aa3573d6000803e3d6000fd5b505050506040513d601f19601f82011682018060405250810190611ac79190612f95565b505b6000198714611d14576000611c03848481518110611ae957611ae9612d2d565b60200260200101516001600160a01b03166399530b066040518163ffffffff1660e01b815260040160206040518083038186803b158015611b2957600080fd5b505afa158015611b3d573d6000803e3d6000fd5b505050506040513d601f19601f82011682018060405250810190611b619190612d43565b610b72868681518110611b7657611b76612d2d565b60200260200101516001600160a01b031663313ce5676040518163ffffffff1660e01b815260040160206040518083038186803b158015611bb657600080fd5b505afa158015611bca573d6000803e3d6000fd5b505050506040513d601f19601f82011682018060405250810190611bee9190612d43565b611bf990600a612ef2565b6109fd8c8b612612565b9050600081118015611c1457508181105b15611cc257611cbb848481518110611c2e57611c2e612d2d565b60200260200101516001600160a01b031662f714ce83306040518363ffffffff1660e01b8152600401611c62929190612fb7565b602060405180830381600087803b158015611c7c57600080fd5b505af1158015611c90573d6000803e3d6000fd5b505050506040513d601f19601f82011682018060405250810190611cb49190612d43565b879061125e565b9550611d0e565b611d0b848481518110611cd757611cd7612d2d565b60200260200101516001600160a01b031662f714ce84306040518363ffffffff1660e01b8152600401611c62929190612fb7565b95505b50611dbb565b611db8838381518110611d2957611d29612d2d565b60200260200101516001600160a01b031662f714ce600019306040518363ffffffff1660e01b8152600401611d5f929190612fb7565b602060405180830381600087803b158015611d7957600080fd5b505af1158015611d8d573d6000803e3d6000fd5b505050506040513d601f19601f82011682018060405250810190611db19190612d43565b869061125e565b94505b848711611dc85750611ddc565b505b80611dd481612d72565b915050611827565b508483118015611ee35750611ed7826001600160a01b031663313ce5676040518163ffffffff1660e01b815260040160206040518083038186803b158015611e2357600080fd5b505afa158015611e37573d6000803e3d6000fd5b505050506040513d601f19601f82011682018060405250810190611e5b9190612d43565b611e6690600a612ef2565b836001600160a01b03166399530b066040518163ffffffff1660e01b815260040160206040518083038186803b158015611e9f57600080fd5b505afa158015611eb3573d6000803e3d6000fd5b505050506040513d601f19601f82011682018060405250810190610b729190612d43565b611ee18487612612565b115b1561202157611ef28386612612565b600554604051636eb1769f60e11b81526001600160a01b039091169063dd62ed3e90611f249030908790600401612f57565b60206040518083038186803b158015611f3c57600080fd5b505afa158015611f50573d6000803e3d6000fd5b505050506040513d601f19601f82011682018060405250810190611f749190612d43565b1015611f9357600554611f93906001600160a01b03168360001961264b565b6001600160a01b038216636e553f65611fac8588612612565b896040518363ffffffff1660e01b8152600401611fca929190612fb7565b602060405180830381600087803b158015611fe457600080fd5b505af1158015611ff8573d6000803e3d6000fd5b505050506040513d601f19601f8201168201806040525081019061201c9190612d43565b508492505b6001600160a01b038616301461204857600554612048906001600160a01b03168785612794565b5050949350505050565b6001600160a01b0382166120b25760405162461bcd60e51b815260206004820152602160248201527f45524332303a206275726e2066726f6d20746865207a65726f206164647265736044820152607360f81b6064820152608401610dbb565b6001600160a01b038216600090815260208190526040902054818110156121265760405162461bcd60e51b815260206004820152602260248201527f45524332303a206275726e20616d6f756e7420657863656564732062616c616e604482015261636560f01b6064820152608401610dbb565b6001600160a01b0383166000908152602081905260408120838303905560028054849290612155908490612fce565b90915550506040518281526000906001600160a01b0385169060008051602061300283398151915290602001611382565b505050565b600061082a826000196117ba565b6000806121a46111d6565b9050821561226c5760001984146121d2576005546121cd906001600160a01b03168730876127b3565b61226c565b6005546040516370a0823160e01b815261226c91889130916001600160a01b0316906370a0823190612208908590600401612c27565b60206040518083038186803b15801561222057600080fd5b505afa158015612234573d6000803e3d6000fd5b505050506040513d601f19601f820116820180604052508101906122589190612d43565b6005546001600160a01b03169291906127b3565b600554604051636eb1769f60e11b815285916001600160a01b03169063dd62ed3e9061229e9030908690600401612f57565b60206040518083038186803b1580156122b657600080fd5b505afa1580156122ca573d6000803e3d6000fd5b505050506040513d601f19601f820116820180604052508101906122ee9190612d43565b10156123255760055461230c906001600160a01b031682600061264b565b600554612325906001600160a01b03168260001961264b565b6005546040516370a0823160e01b81526000916001600160a01b0316906370a0823190612356903090600401612c27565b60206040518083038186803b15801561236e57600080fd5b505afa158015612382573d6000803e3d6000fd5b505050506040513d601f19601f820116820180604052508101906123a69190612d43565b604051636e553f6560e01b81529091506001600160a01b03831690636e553f65906123d79088908a90600401612fb7565b602060405180830381600087803b1580156123f157600080fd5b505af1158015612405573d6000803e3d6000fd5b505050506040513d601f19601f820116820180604052508101906124299190612d43565b506005546040516370a0823160e01b81526000916001600160a01b0316906370a082319061245b903090600401612c27565b60206040518083038186803b15801561247357600080fd5b505afa158015612487573d6000803e3d6000fd5b505050506040513d601f19601f820116820180604052508101906124ab9190612d43565b90506124b78282612612565b93506001600160a01b03881630148015906124d25750600081115b156124ee576005546124ee906001600160a01b03168983612794565b505050949350505050565b600080612505306108c0565b9050828111156117fb576125198382612fce565b836117e760025490565b6001600160a01b0382166125795760405162461bcd60e51b815260206004820152601f60248201527f45524332303a206d696e7420746f20746865207a65726f2061646472657373006044820152606401610dbb565b806002600082825461258b9190612efe565b90915550506001600160a01b038216600090815260208190526040812080548392906125b8908490612efe565b90915550506040518181526001600160a01b038316906000906000805160206130028339815191529060200160405180910390a35b5050565b80516a636f6e736f6c652e6c6f67602083016000808483855afa5050505050565b60006108808284612fce565b60065481511115610f365780516125ed906006906020840190612a27565b60008183106117fb5781610880565b8015806126d35750604051636eb1769f60e11b81526001600160a01b0384169063dd62ed3e906126819030908690600401612f57565b60206040518083038186803b15801561269957600080fd5b505afa1580156126ad573d6000803e3d6000fd5b505050506040513d601f19601f820116820180604052508101906126d19190612d43565b155b61273e5760405162461bcd60e51b815260206004820152603660248201527f5361666545524332303a20617070726f76652066726f6d206e6f6e2d7a65726f60448201527520746f206e6f6e2d7a65726f20616c6c6f77616e636560501b6064820152608401610dbb565b6121868363095ea7b360e01b848460405160240161275d929190612da3565b60408051601f198184030181529190526020810180516001600160e01b03166001600160e01b0319909316929092179091526127d4565b6121868363a9059cbb60e01b848460405160240161275d929190612da3565b611446846323b872dd60e01b85858560405160240161275d93929190612f71565b6000612829826040518060400160405280602081526020017f5361666545524332303a206c6f772d6c6576656c2063616c6c206661696c6564815250856001600160a01b03166128a69092919063ffffffff16565b80519091501561218657808060200190518101906128479190612f95565b6121865760405162461bcd60e51b815260206004820152602a60248201527f5361666545524332303a204552433230206f7065726174696f6e20646964206e6044820152691bdd081cdd58d8d9595960b21b6064820152608401610dbb565b60606128b584846000856128bd565b949350505050565b60608247101561291e5760405162461bcd60e51b815260206004820152602660248201527f416464726573733a20696e73756666696369656e742062616c616e636520666f6044820152651c8818d85b1b60d21b6064820152608401610dbb565b6001600160a01b0385163b6129755760405162461bcd60e51b815260206004820152601d60248201527f416464726573733a2063616c6c20746f206e6f6e2d636f6e74726163740000006044820152606401610dbb565b600080866001600160a01b031685876040516129919190612fe5565b60006040518083038185875af1925050503d80600081146129ce576040519150601f19603f3d011682016040523d82523d6000602084013e6129d3565b606091505b50915091506129e38282866129ee565b979650505050505050565b606083156129fd575081610880565b825115612a0d5782518084602001fd5b8160405162461bcd60e51b8152600401610dbb9190612b1a565b828054828255906000526020600020908101928215612a7c579160200282015b82811115612a7c57825182546001600160a01b0319166001600160a01b03909116178255602090920191600190910190612a47565b50612a88929150612a8c565b5090565b5b80821115612a885760008155600101612a8d565b6020808252825182820181905260009190848201906040850190845b81811015612ae25783516001600160a01b031683529284019291840191600101612abd565b50909695505050505050565b60005b83811015612b09578181015183820152602001612af1565b838111156114465750506000910152565b6020815260008251806020840152612b39816040850160208701612aee565b601f01601f19169190910160400192915050565b6001600160a01b0381168114610f3657600080fd5b60008060408385031215612b7557600080fd5b8235612b8081612b4d565b946020939093013593505050565b600080600060608486031215612ba357600080fd5b8335612bae81612b4d565b92506020840135612bbe81612b4d565b929592945050506040919091013590565b600060208284031215612be157600080fd5b813561088081612b4d565b60008060408385031215612bff57600080fd5b50508035926020909101359150565b600060208284031215612c2057600080fd5b5035919050565b6001600160a01b0391909116815260200190565b600080600060608486031215612c5057600080fd5b8335612c5b81612b4d565b9250602084013591506040840135612c7281612b4d565b809150509250925092565b600080600080600080600060e0888a031215612c9857600080fd5b8735612ca381612b4d565b96506020880135612cb381612b4d565b95506040880135945060608801359350608088013560ff81168114612cd757600080fd5b9699959850939692959460a0840135945060c09093013592915050565b60008060408385031215612d0757600080fd5b8235612d1281612b4d565b91506020830135612d2281612b4d565b809150509250929050565b634e487b7160e01b600052603260045260246000fd5b600060208284031215612d5557600080fd5b5051919050565b634e487b7160e01b600052601160045260246000fd5b6000600019821415612d8657612d86612d5c565b5060010190565b634e487b7160e01b600052604160045260246000fd5b6001600160a01b03929092168252602082015260400190565b600060208284031215612dce57600080fd5b815161088081612b4d565b600181811c90821680612ded57607f821691505b60208210811415610f6157634e487b7160e01b600052602260045260246000fd5b600181815b80851115612e49578160001904821115612e2f57612e2f612d5c565b80851615612e3c57918102915b93841c9390800290612e13565b509250929050565b600082612e605750600161082a565b81612e6d5750600061082a565b8160018114612e835760028114612e8d57612ea9565b600191505061082a565b60ff841115612e9e57612e9e612d5c565b50506001821b61082a565b5060208310610133831016604e8410600b8410161715612ecc575081810a61082a565b612ed68383612e0e565b8060001904821115612eea57612eea612d5c565b029392505050565b60006108808383612e51565b60008219821115612f1157612f11612d5c565b500190565b6000816000190483118215151615612f3057612f30612d5c565b500290565b600082612f5257634e487b7160e01b600052601260045260246000fd5b500490565b6001600160a01b0392831681529116602082015260400190565b6001600160a01b039384168152919092166020820152604081019190915260600190565b600060208284031215612fa757600080fd5b8151801515811461088057600080fd5b9182526001600160a01b0316602082015260400190565b600082821015612fe057612fe0612d5c565b500390565b60008251612ff7818460208701612aee565b919091019291505056feddf252ad1be2c89b69c2b068fc378daa952ba7f163c4a11628f55a4df523b3ef6e71edae12b1b97f4d1f60370fef10105fa2faae0126114a169c64845d6126c9a26469706673582212205ca0b0bfe66ddfcf5a420ae63ee6b2dac3804c59e7d3cb3da2c4de2197ad96c564736f6c63430008090033",
  "devdoc": {
    "kind": "dev",
    "methods": {
      "allVaults()": {
        "returns": {
          "_0": "An array containing instances of VaultAPI"
        }
      },
      "allowance(address,address)": {
        "details": "See {IERC20-allowance}."
      },
      "approve(address,uint256)": {
        "details": "See {IERC20-approve}. NOTE: If `amount` is the maximum `uint256`, the allowance is not updated on `transferFrom`. This is semantically equivalent to an infinite approval. Requirements: - `spender` cannot be the zero address."
      },
      "balanceOf(address)": {
        "details": "See {IERC20-balanceOf}."
      },
      "bestVault()": {
        "returns": {
          "_0": "An instance of a VaultAPI"
        }
      },
      "decimals()": {
        "details": "Returns the number of decimals used to get its user representation. For example, if `decimals` equals `2`, a balance of `505` tokens should be displayed to a user as `5.05` (`505 / 10 ** 2`). Tokens usually opt for a value of 18, imitating the relationship between Ether and Wei. This is the value {ERC20} uses, unless this function is overridden; NOTE: This information is only used for _display_ purposes: it in no way affects any of the arithmetic of the contract, including {IERC20-balanceOf} and {IERC20-transfer}."
      },
      "decreaseAllowance(address,uint256)": {
        "details": "Atomically decreases the allowance granted to `spender` by the caller. This is an alternative to {approve} that can be used as a mitigation for problems described in {IERC20-approve}. Emits an {Approval} event indicating the updated allowance. Requirements: - `spender` cannot be the zero address. - `spender` must have allowance for the caller of at least `subtractedValue`."
      },
      "increaseAllowance(address,uint256)": {
        "details": "Atomically increases the allowance granted to `spender` by the caller. This is an alternative to {approve} that can be used as a mitigation for problems described in {IERC20-approve}. Emits an {Approval} event indicating the updated allowance. Requirements: - `spender` cannot be the zero address."
      },
      "name()": {
        "details": "Returns the name of the token."
      },
      "permit(address,address,uint256,uint256,uint8,bytes32,bytes32)": {
        "params": {
          "amount": "The number of tokens that are approved (2^256-1 means infinite)",
          "deadline": "The time at which to expire the signature",
          "owner": "The address to approve from",
          "r": "Half of the ECDSA signature pair",
          "s": "Half of the ECDSA signature pair",
          "spender": "The address to be approved",
          "v": "The recovery byte of the signature"
        }
      },
      "setRegistry(address)": {
        "params": {
          "_registry": "The new _registry address."
        }
      },
      "symbol()": {
        "details": "Returns the symbol of the token, usually a shorter version of the name."
      },
      "totalAssets()": {
        "returns": {
          "assets": "the sum of all the assets managed by the underlying vaults."
        }
      },
      "totalSupply()": {
        "details": "See {IERC20-totalSupply}."
      },
      "totalVaultBalance(address)": {
        "details": "will be used to get the wrapper balance using totalVaultBalance(address(this)).",
        "params": {
          "account": "The address of the account."
        },
        "returns": {
          "balance": "of token for the account accross all the vaults."
        }
      },
      "transfer(address,uint256)": {
        "details": "See {IERC20-transfer}. Requirements: - `to` cannot be the zero address. - the caller must have a balance of at least `amount`."
      },
      "transferFrom(address,address,uint256)": {
        "details": "See {IERC20-transferFrom}. Emits an {Approval} event indicating the updated allowance. This is not required by the EIP. See the note at the beginning of {ERC20}. NOTE: Does not update the allowance if the current allowance is the maximum `uint256`. Requirements: - `from` and `to` cannot be the zero address. - `from` must have a balance of at least `amount`. - the caller must have allowance for ``from``'s tokens of at least `amount`."
      }
    },
    "version": 1
  },
  "userdoc": {
    "kind": "user",
    "methods": {
      "DOMAIN_TYPEHASH()": {
        "notice": "The EIP-712 typehash for the contract's domain"
      },
      "PERMIT_TYPEHASH()": {
        "notice": "The EIP-712 typehash for the permit struct used by the contract"
      },
      "allVaults()": {
        "notice": "Used to get all vaults from the registery for the token"
      },
      "bestVault()": {
        "notice": "Used to get the most revent vault for the token using the registry."
      },
      "nonces(address)": {
        "notice": "A record of states for signing / validating signatures"
      },
      "permit(address,address,uint256,uint256,uint8,bytes32,bytes32)": {
        "notice": "Triggers an approval from owner to spends"
      },
      "setRegistry(address)": {
        "notice": "Used to update the yearn registry."
      },
      "totalAssets()": {
        "notice": "Used to get the TVL on the underlying vaults."
      },
      "totalVaultBalance(address)": {
        "notice": "Used to get the balance of an account accross all the vaults for a token."
      }
    },
    "version": 1
  },
  "storageLayout": {
    "storage": [
      {
        "astId": 3358,
        "contract": "src/extensions/YearnFinanceWrapper.sol:YearnFinanceWrapper",
        "label": "_balances",
        "offset": 0,
        "slot": "0",
        "type": "t_mapping(t_address,t_uint256)"
      },
      {
        "astId": 3364,
        "contract": "src/extensions/YearnFinanceWrapper.sol:YearnFinanceWrapper",
        "label": "_allowances",
        "offset": 0,
        "slot": "1",
        "type": "t_mapping(t_address,t_mapping(t_address,t_uint256))"
      },
      {
        "astId": 3366,
        "contract": "src/extensions/YearnFinanceWrapper.sol:YearnFinanceWrapper",
        "label": "_totalSupply",
        "offset": 0,
        "slot": "2",
        "type": "t_uint256"
      },
      {
        "astId": 3368,
        "contract": "src/extensions/YearnFinanceWrapper.sol:YearnFinanceWrapper",
        "label": "_name",
        "offset": 0,
        "slot": "3",
        "type": "t_string_storage"
      },
      {
        "astId": 3370,
        "contract": "src/extensions/YearnFinanceWrapper.sol:YearnFinanceWrapper",
        "label": "_symbol",
        "offset": 0,
        "slot": "4",
        "type": "t_string_storage"
      },
      {
        "astId": 18666,
        "contract": "src/extensions/YearnFinanceWrapper.sol:YearnFinanceWrapper",
        "label": "token",
        "offset": 0,
        "slot": "5",
        "type": "t_contract(IERC20)4012"
      },
      {
        "astId": 18670,
        "contract": "src/extensions/YearnFinanceWrapper.sol:YearnFinanceWrapper",
        "label": "_cachedVaults",
        "offset": 0,
        "slot": "6",
        "type": "t_array(t_contract(VaultAPI)20338)dyn_storage"
      },
      {
        "astId": 18673,
        "contract": "src/extensions/YearnFinanceWrapper.sol:YearnFinanceWrapper",
        "label": "registry",
        "offset": 0,
        "slot": "7",
        "type": "t_contract(RegistryAPI)18652"
      },
      {
        "astId": 19625,
        "contract": "src/extensions/YearnFinanceWrapper.sol:YearnFinanceWrapper",
        "label": "nonces",
        "offset": 0,
        "slot": "8",
        "type": "t_mapping(t_address,t_uint256)"
      },
      {
        "astId": 19627,
        "contract": "src/extensions/YearnFinanceWrapper.sol:YearnFinanceWrapper",
        "label": "affiliate",
        "offset": 0,
        "slot": "9",
        "type": "t_address"
      },
      {
        "astId": 19629,
        "contract": "src/extensions/YearnFinanceWrapper.sol:YearnFinanceWrapper",
        "label": "pendingAffiliate",
        "offset": 0,
        "slot": "10",
        "type": "t_address"
      }
    ],
    "types": {
      "t_address": {
        "encoding": "inplace",
        "label": "address",
        "numberOfBytes": "20"
      },
      "t_array(t_contract(VaultAPI)20338)dyn_storage": {
        "base": "t_contract(VaultAPI)20338",
        "encoding": "dynamic_array",
        "label": "contract VaultAPI[]",
        "numberOfBytes": "32"
      },
      "t_contract(IERC20)4012": {
        "encoding": "inplace",
        "label": "contract IERC20",
        "numberOfBytes": "20"
      },
      "t_contract(RegistryAPI)18652": {
        "encoding": "inplace",
        "label": "contract RegistryAPI",
        "numberOfBytes": "20"
      },
      "t_contract(VaultAPI)20338": {
        "encoding": "inplace",
        "label": "contract VaultAPI",
        "numberOfBytes": "20"
      },
      "t_mapping(t_address,t_mapping(t_address,t_uint256))": {
        "encoding": "mapping",
        "key": "t_address",
        "label": "mapping(address => mapping(address => uint256))",
        "numberOfBytes": "32",
        "value": "t_mapping(t_address,t_uint256)"
      },
      "t_mapping(t_address,t_uint256)": {
        "encoding": "mapping",
        "key": "t_address",
        "label": "mapping(address => uint256)",
        "numberOfBytes": "32",
        "value": "t_uint256"
      },
      "t_string_storage": {
        "encoding": "bytes",
        "label": "string",
        "numberOfBytes": "32"
      },
      "t_uint256": {
        "encoding": "inplace",
        "label": "uint256",
        "numberOfBytes": "32"
      }
    }
  }
}